{"abi":[{"anonymous":false,"inputs":[{"indexed":true,"internalType":"address","name":"admin","type":"address"}],"name":"AdminRegistered","type":"event"},{"anonymous":false,"inputs":[{"indexed":true,"internalType":"uint256","name":"id","type":"uint256"},{"indexed":true,"internalType":"address","name":"complainant","type":"address"},{"indexed":false,"internalType":"string","name":"ipfsHash","type":"string"},{"indexed":false,"internalType":"string","name":"description","type":"string"}],"name":"ComplaintCreated","type":"event"},{"anonymous":false,"inputs":[{"indexed":true,"internalType":"uint256","name":"id","type":"uint256"},{"indexed":false,"internalType":"string","name":"response","type":"string"}],"name":"ComplaintResolved","type":"event"},{"anonymous":false,"inputs":[{"indexed":true,"internalType":"uint256","name":"complaintId","type":"uint256"},{"indexed":true,"internalType":"address","name":"accessor","type":"address"},{"indexed":false,"internalType":"enum ComplaintSystem.Action","name":"action","type":"uint8"},{"indexed":false,"internalType":"uint256","name":"timestamp","type":"uint256"}],"name":"TransactionAdded","type":"event"},{"anonymous":false,"inputs":[{"indexed":true,"internalType":"address","name":"user","type":"address"}],"name":"UserRegistered","type":"event"},{"inputs":[{"internalType":"uint256","name":"_complaintId","type":"uint256"}],"name":"accessComplaint","outputs":[],"stateMutability":"nonpayable","type":"function"},{"inputs":[],"name":"complaintCount","outputs":[{"internalType":"uint256","name":"","type":"uint256"}],"stateMutability":"view","type":"function"},{"inputs":[{"internalType":"uint256","name":"","type":"uint256"}],"name":"complaints","outputs":[{"internalType":"uint256","name":"id","type":"uint256"},{"internalType":"address","name":"complainant","type":"address"},{"internalType":"string","name":"description","type":"string"},{"internalType":"enum ComplaintSystem.ComplaintStatus","name":"status","type":"uint8"},{"components":[{"internalType":"string","name":"ipfsHash","type":"string"},{"internalType":"string","name":"name","type":"string"}],"internalType":"struct ComplaintSystem.File","name":"file","type":"tuple"},{"internalType":"uint256","name":"timestamp","type":"uint256"}],"stateMutability":"view","type":"function"},{"inputs":[{"internalType":"string","name":"_ipfsHash","type":"string"},{"internalType":"string","name":"_description","type":"string"},{"internalType":"string","name":"fileName","type":"string"}],"name":"createComplaint","outputs":[],"stateMutability":"nonpayable","type":"function"},{"inputs":[{"internalType":"uint256","name":"_complaintId","type":"uint256"}],"name":"getRepliesById","outputs":[{"components":[{"internalType":"address","name":"senderAddress","type":"address"},{"internalType":"string","name":"replyText","type":"string"},{"internalType":"uint256","name":"timestamp","type":"uint256"}],"internalType":"struct ComplaintSystem.Reply[]","name":"","type":"tuple[]"}],"stateMutability":"view","type":"function"},{"inputs":[{"internalType":"uint256","name":"_complaintId","type":"uint256"}],"name":"getTransactionsById","outputs":[{"components":[{"internalType":"address","name":"accessor","type":"address"},{"internalType":"enum ComplaintSystem.Action","name":"actionType","type":"uint8"},{"internalType":"uint256","name":"timestamp","type":"uint256"}],"internalType":"struct ComplaintSystem.Transaction[]","name":"","type":"tuple[]"}],"stateMutability":"view","type":"function"},{"inputs":[],"name":"getUnresolvedComplaints","outputs":[{"components":[{"internalType":"uint256","name":"id","type":"uint256"},{"internalType":"address","name":"complainant","type":"address"},{"internalType":"string","name":"description","type":"string"},{"internalType":"enum ComplaintSystem.ComplaintStatus","name":"status","type":"uint8"},{"components":[{"internalType":"string","name":"ipfsHash","type":"string"},{"internalType":"string","name":"name","type":"string"}],"internalType":"struct ComplaintSystem.File","name":"file","type":"tuple"},{"internalType":"uint256","name":"timestamp","type":"uint256"}],"internalType":"struct ComplaintSystem.Complaint[]","name":"","type":"tuple[]"}],"stateMutability":"view","type":"function"},{"inputs":[{"internalType":"address","name":"_user","type":"address"}],"name":"getUserComplaints","outputs":[{"components":[{"internalType":"uint256","name":"id","type":"uint256"},{"internalType":"address","name":"complainant","type":"address"},{"internalType":"string","name":"description","type":"string"},{"internalType":"enum ComplaintSystem.ComplaintStatus","name":"status","type":"uint8"},{"components":[{"internalType":"string","name":"ipfsHash","type":"string"},{"internalType":"string","name":"name","type":"string"}],"internalType":"struct ComplaintSystem.File","name":"file","type":"tuple"},{"internalType":"uint256","name":"timestamp","type":"uint256"}],"internalType":"struct ComplaintSystem.Complaint[]","name":"","type":"tuple[]"}],"stateMutability":"view","type":"function"},{"inputs":[{"internalType":"address","name":"_user","type":"address"}],"name":"getUserReplies","outputs":[{"components":[{"internalType":"address","name":"senderAddress","type":"address"},{"internalType":"string","name":"replyText","type":"string"},{"internalType":"uint256","name":"timestamp","type":"uint256"}],"internalType":"struct ComplaintSystem.Reply[]","name":"","type":"tuple[]"}],"stateMutability":"view","type":"function"},{"inputs":[{"internalType":"address","name":"","type":"address"}],"name":"isAdmin","outputs":[{"internalType":"bool","name":"","type":"bool"}],"stateMutability":"view","type":"function"},{"inputs":[{"internalType":"address","name":"","type":"address"}],"name":"isUser","outputs":[{"internalType":"bool","name":"","type":"bool"}],"stateMutability":"view","type":"function"},{"inputs":[],"name":"registerAdmin","outputs":[],"stateMutability":"nonpayable","type":"function"},{"inputs":[],"name":"registerUser","outputs":[],"stateMutability":"nonpayable","type":"function"},{"inputs":[{"internalType":"uint256","name":"","type":"uint256"},{"internalType":"uint256","name":"","type":"uint256"}],"name":"replies","outputs":[{"internalType":"address","name":"senderAddress","type":"address"},{"internalType":"string","name":"replyText","type":"string"},{"internalType":"uint256","name":"timestamp","type":"uint256"}],"stateMutability":"view","type":"function"},{"inputs":[{"internalType":"uint256","name":"_complaintId","type":"uint256"},{"internalType":"string","name":"_replyText","type":"string"}],"name":"replyToComplaint","outputs":[],"stateMutability":"nonpayable","type":"function"},{"inputs":[{"internalType":"uint256","name":"_complaintId","type":"uint256"},{"internalType":"string","name":"_response","type":"string"}],"name":"resolveComplaint","outputs":[],"stateMutability":"nonpayable","type":"function"},{"inputs":[{"internalType":"uint256","name":"","type":"uint256"},{"internalType":"uint256","name":"","type":"uint256"}],"name":"transactions","outputs":[{"internalType":"address","name":"accessor","type":"address"},{"internalType":"enum ComplaintSystem.Action","name":"actionType","type":"uint8"},{"internalType":"uint256","name":"timestamp","type":"uint256"}],"stateMutability":"view","type":"function"}],"devdoc":{"kind":"dev","methods":{},"version":1},"evm":{"assembly":"    /* \"ComplaintSystem.sol\":60:5853  contract ComplaintSystem {... */\n  mstore(0x40, 0x80)\n  callvalue\n  dup1\n  iszero\n  tag_1\n  jumpi\n  0x00\n  dup1\n  revert\ntag_1:\n  pop\n  dataSize(sub_0)\n  dup1\n  dataOffset(sub_0)\n  0x00\n  codecopy\n  0x00\n  return\nstop\n\nsub_0: assembly {\n        /* \"ComplaintSystem.sol\":60:5853  contract ComplaintSystem {... */\n      mstore(0x40, 0x80)\n      callvalue\n      dup1\n      iszero\n      tag_1\n      jumpi\n      0x00\n      dup1\n      revert\n    tag_1:\n      pop\n      jumpi(tag_2, lt(calldatasize, 0x04))\n      shr(0xe0, calldataload(0x00))\n      dup1\n      0x4d3820eb\n      gt\n      tag_20\n      jumpi\n      dup1\n      0x7e69e912\n      gt\n      tag_21\n      jumpi\n      dup1\n      0x7e69e912\n      eq\n      tag_15\n      jumpi\n      dup1\n      0xa9a9ddf1\n      eq\n      tag_16\n      jumpi\n      dup1\n      0xd395fc04\n      eq\n      tag_17\n      jumpi\n      dup1\n      0xdeb514ff\n      eq\n      tag_18\n      jumpi\n      dup1\n      0xf7ddd7a4\n      eq\n      tag_19\n      jumpi\n      jump(tag_2)\n    tag_21:\n      dup1\n      0x4d3820eb\n      eq\n      tag_11\n      jumpi\n      dup1\n      0x4eaf9db6\n      eq\n      tag_12\n      jumpi\n      dup1\n      0x5ab6f71b\n      eq\n      tag_13\n      jumpi\n      dup1\n      0x6d7196eb\n      eq\n      tag_14\n      jumpi\n      jump(tag_2)\n    tag_20:\n      dup1\n      0x26019e7f\n      gt\n      tag_22\n      jumpi\n      dup1\n      0x26019e7f\n      eq\n      tag_7\n      jumpi\n      dup1\n      0x2edea294\n      eq\n      tag_8\n      jumpi\n      dup1\n      0x3ae7db25\n      eq\n      tag_9\n      jumpi\n      dup1\n      0x4209fff1\n      eq\n      tag_10\n      jumpi\n      jump(tag_2)\n    tag_22:\n      dup1\n      0x0da3f37e\n      eq\n      tag_3\n      jumpi\n      dup1\n      0x152e1e32\n      eq\n      tag_4\n      jumpi\n      dup1\n      0x204f257c\n      eq\n      tag_5\n      jumpi\n      dup1\n      0x24d7806c\n      eq\n      tag_6\n      jumpi\n    tag_2:\n      0x00\n      dup1\n      revert\n        /* \"ComplaintSystem.sol\":1913:2393  function createComplaint(string memory _ipfsHash, string memory _description, string memory fileName) external onlyUser {... */\n    tag_3:\n      tag_23\n      0x04\n      dup1\n      calldatasize\n      sub\n      dup2\n      add\n      swap1\n      tag_24\n      swap2\n      swap1\n      tag_25\n      jump\t// in\n    tag_24:\n      tag_26\n      jump\t// in\n    tag_23:\n      stop\n        /* \"ComplaintSystem.sol\":4209:4857  function getUserReplies(address _user) external view returns (Reply[] memory) {... */\n    tag_4:\n      tag_27\n      0x04\n      dup1\n      calldatasize\n      sub\n      dup2\n      add\n      swap1\n      tag_28\n      swap2\n      swap1\n      tag_29\n      jump\t// in\n    tag_28:\n      tag_30\n      jump\t// in\n    tag_27:\n      mload(0x40)\n      tag_31\n      swap2\n      swap1\n      tag_32\n      jump\t// in\n    tag_31:\n      mload(0x40)\n      dup1\n      swap2\n      sub\n      swap1\n      return\n        /* \"ComplaintSystem.sol\":920:962  mapping(uint256 => Reply[]) public replies */\n    tag_5:\n      tag_33\n      0x04\n      dup1\n      calldatasize\n      sub\n      dup2\n      add\n      swap1\n      tag_34\n      swap2\n      swap1\n      tag_35\n      jump\t// in\n    tag_34:\n      tag_36\n      jump\t// in\n    tag_33:\n      mload(0x40)\n      tag_37\n      swap4\n      swap3\n      swap2\n      swap1\n      tag_38\n      jump\t// in\n    tag_37:\n      mload(0x40)\n      dup1\n      swap2\n      sub\n      swap1\n      return\n        /* \"ComplaintSystem.sol\":92:131  mapping(address => bool) public isAdmin */\n    tag_6:\n      tag_39\n      0x04\n      dup1\n      calldatasize\n      sub\n      dup2\n      add\n      swap1\n      tag_40\n      swap2\n      swap1\n      tag_29\n      jump\t// in\n    tag_40:\n      tag_41\n      jump\t// in\n    tag_39:\n      mload(0x40)\n      tag_42\n      swap2\n      swap1\n      tag_43\n      jump\t// in\n    tag_42:\n      mload(0x40)\n      dup1\n      swap2\n      sub\n      swap1\n      return\n        /* \"ComplaintSystem.sol\":2401:2807  function resolveComplaint(uint256 _complaintId, string memory _response) external onlyAdmin {... */\n    tag_7:\n      tag_44\n      0x04\n      dup1\n      calldatasize\n      sub\n      dup2\n      add\n      swap1\n      tag_45\n      swap2\n      swap1\n      tag_46\n      jump\t// in\n    tag_45:\n      tag_47\n      jump\t// in\n    tag_44:\n      stop\n        /* \"ComplaintSystem.sol\":969:998  uint256 public complaintCount */\n    tag_8:\n      tag_48\n      tag_49\n      jump\t// in\n    tag_48:\n      mload(0x40)\n      tag_50\n      swap2\n      swap1\n      tag_51\n      jump\t// in\n    tag_50:\n      mload(0x40)\n      dup1\n      swap2\n      sub\n      swap1\n      return\n        /* \"ComplaintSystem.sol\":4865:5554  function getUnresolvedComplaints() external view returns (Complaint[] memory) {... */\n    tag_9:\n      tag_52\n      tag_53\n      jump\t// in\n    tag_52:\n      mload(0x40)\n      tag_54\n      swap2\n      swap1\n      tag_55\n      jump\t// in\n    tag_54:\n      mload(0x40)\n      dup1\n      swap2\n      sub\n      swap1\n      return\n        /* \"ComplaintSystem.sol\":138:176  mapping(address => bool) public isUser */\n    tag_10:\n      tag_56\n      0x04\n      dup1\n      calldatasize\n      sub\n      dup2\n      add\n      swap1\n      tag_57\n      swap2\n      swap1\n      tag_29\n      jump\t// in\n    tag_57:\n      tag_58\n      jump\t// in\n    tag_56:\n      mload(0x40)\n      tag_59\n      swap2\n      swap1\n      tag_43\n      jump\t// in\n    tag_59:\n      mload(0x40)\n      dup1\n      swap2\n      sub\n      swap1\n      return\n        /* \"ComplaintSystem.sol\":1656:1775  function registerUser() external {... */\n    tag_11:\n      tag_60\n      tag_61\n      jump\t// in\n    tag_60:\n      stop\n        /* \"ComplaintSystem.sol\":860:913  mapping(uint256 => Transaction[]) public transactions */\n    tag_12:\n      tag_62\n      0x04\n      dup1\n      calldatasize\n      sub\n      dup2\n      add\n      swap1\n      tag_63\n      swap2\n      swap1\n      tag_35\n      jump\t// in\n    tag_63:\n      tag_64\n      jump\t// in\n    tag_62:\n      mload(0x40)\n      tag_65\n      swap4\n      swap3\n      swap2\n      swap1\n      tag_66\n      jump\t// in\n    tag_65:\n      mload(0x40)\n      dup1\n      swap2\n      sub\n      swap1\n      return\n        /* \"ComplaintSystem.sol\":1783:1905  function registerAdmin() external {... */\n    tag_13:\n      tag_67\n      tag_68\n      jump\t// in\n    tag_67:\n      stop\n        /* \"ComplaintSystem.sol\":2815:2946  function accessComplaint(uint256 _complaintId) external {... */\n    tag_14:\n      tag_69\n      0x04\n      dup1\n      calldatasize\n      sub\n      dup2\n      add\n      swap1\n      tag_70\n      swap2\n      swap1\n      tag_71\n      jump\t// in\n    tag_70:\n      tag_72\n      jump\t// in\n    tag_69:\n      stop\n        /* \"ComplaintSystem.sol\":806:853  mapping(uint256 => Complaint) public complaints */\n    tag_15:\n      tag_73\n      0x04\n      dup1\n      calldatasize\n      sub\n      dup2\n      add\n      swap1\n      tag_74\n      swap2\n      swap1\n      tag_71\n      jump\t// in\n    tag_74:\n      tag_75\n      jump\t// in\n    tag_73:\n      mload(0x40)\n      tag_76\n      swap7\n      swap6\n      swap5\n      swap4\n      swap3\n      swap2\n      swap1\n      tag_77\n      jump\t// in\n    tag_76:\n      mload(0x40)\n      dup1\n      swap2\n      sub\n      swap1\n      return\n        /* \"ComplaintSystem.sol\":5562:5710  function getTransactionsById(uint256 _complaintId) external view returns (Transaction[] memory) {... */\n    tag_16:\n      tag_78\n      0x04\n      dup1\n      calldatasize\n      sub\n      dup2\n      add\n      swap1\n      tag_79\n      swap2\n      swap1\n      tag_71\n      jump\t// in\n    tag_79:\n      tag_80\n      jump\t// in\n    tag_78:\n      mload(0x40)\n      tag_81\n      swap2\n      swap1\n      tag_82\n      jump\t// in\n    tag_81:\n      mload(0x40)\n      dup1\n      swap2\n      sub\n      swap1\n      return\n        /* \"ComplaintSystem.sol\":3551:4201  function getUserComplaints(address _user) external view returns (Complaint[] memory) {... */\n    tag_17:\n      tag_83\n      0x04\n      dup1\n      calldatasize\n      sub\n      dup2\n      add\n      swap1\n      tag_84\n      swap2\n      swap1\n      tag_29\n      jump\t// in\n    tag_84:\n      tag_85\n      jump\t// in\n    tag_83:\n      mload(0x40)\n      tag_86\n      swap2\n      swap1\n      tag_55\n      jump\t// in\n    tag_86:\n      mload(0x40)\n      dup1\n      swap2\n      sub\n      swap1\n      return\n        /* \"ComplaintSystem.sol\":2954:3229  function replyToComplaint(uint256 _complaintId, string memory _replyText) external onlyAdmin {... */\n    tag_18:\n      tag_87\n      0x04\n      dup1\n      calldatasize\n      sub\n      dup2\n      add\n      swap1\n      tag_88\n      swap2\n      swap1\n      tag_46\n      jump\t// in\n    tag_88:\n      tag_89\n      jump\t// in\n    tag_87:\n      stop\n        /* \"ComplaintSystem.sol\":5718:5850  function getRepliesById(uint256 _complaintId) external view returns (Reply[] memory) {... */\n    tag_19:\n      tag_90\n      0x04\n      dup1\n      calldatasize\n      sub\n      dup2\n      add\n      swap1\n      tag_91\n      swap2\n      swap1\n      tag_71\n      jump\t// in\n    tag_91:\n      tag_92\n      jump\t// in\n    tag_90:\n      mload(0x40)\n      tag_93\n      swap2\n      swap1\n      tag_32\n      jump\t// in\n    tag_93:\n      mload(0x40)\n      dup1\n      swap2\n      sub\n      swap1\n      return\n        /* \"ComplaintSystem.sol\":1913:2393  function createComplaint(string memory _ipfsHash, string memory _description, string memory fileName) external onlyUser {... */\n    tag_26:\n        /* \"ComplaintSystem.sol\":1171:1177  isUser */\n      0x01\n        /* \"ComplaintSystem.sol\":1171:1189  isUser[msg.sender] */\n      0x00\n        /* \"ComplaintSystem.sol\":1178:1188  msg.sender */\n      caller\n        /* \"ComplaintSystem.sol\":1171:1189  isUser[msg.sender] */\n      0xffffffffffffffffffffffffffffffffffffffff\n      and\n      0xffffffffffffffffffffffffffffffffffffffff\n      and\n      dup2\n      mstore\n      0x20\n      add\n      swap1\n      dup2\n      mstore\n      0x20\n      add\n      0x00\n      keccak256\n      0x00\n      swap1\n      sload\n      swap1\n      0x0100\n      exp\n      swap1\n      div\n      0xff\n      and\n        /* \"ComplaintSystem.sol\":1163:1226  require(isUser[msg.sender], \"Only user can call this function\") */\n      tag_95\n      jumpi\n      mload(0x40)\n      0x08c379a000000000000000000000000000000000000000000000000000000000\n      dup2\n      mstore\n      0x04\n      add\n      tag_96\n      swap1\n      tag_97\n      jump\t// in\n    tag_96:\n      mload(0x40)\n      dup1\n      swap2\n      sub\n      swap1\n      revert\n    tag_95:\n        /* \"ComplaintSystem.sol\":2078:2079  0 */\n      0x00\n        /* \"ComplaintSystem.sol\":2058:2067  _ipfsHash */\n      dup4\n        /* \"ComplaintSystem.sol\":2052:2075  bytes(_ipfsHash).length */\n      mload\n        /* \"ComplaintSystem.sol\":2052:2079  bytes(_ipfsHash).length > 0 */\n      gt\n        /* \"ComplaintSystem.sol\":2044:2100  require(bytes(_ipfsHash).length > 0, \"No file provided\") */\n      tag_99\n      jumpi\n      mload(0x40)\n      0x08c379a000000000000000000000000000000000000000000000000000000000\n      dup2\n      mstore\n      0x04\n      add\n      tag_100\n      swap1\n      tag_101\n      jump\t// in\n    tag_100:\n      mload(0x40)\n      dup1\n      swap2\n      sub\n      swap1\n      revert\n    tag_99:\n        /* \"ComplaintSystem.sol\":2111:2130  uint256 complaintId */\n      0x00\n        /* \"ComplaintSystem.sol\":2133:2147  complaintCount */\n      0x05\n      0x00\n        /* \"ComplaintSystem.sol\":2133:2149  complaintCount++ */\n      dup2\n      sload\n      dup1\n      swap3\n      swap2\n      swap1\n      tag_102\n      swap1\n      tag_103\n      jump\t// in\n    tag_102:\n      swap2\n      swap1\n      pop\n      sstore\n        /* \"ComplaintSystem.sol\":2111:2149  uint256 complaintId = complaintCount++ */\n      swap1\n      pop\n        /* \"ComplaintSystem.sol\":2186:2303  Complaint(complaintId, msg.sender, _description, ComplaintStatus.Pending, File(_ipfsHash, fileName), block.timestamp) */\n      mload(0x40)\n      dup1\n      0xc0\n      add\n      0x40\n      mstore\n      dup1\n        /* \"ComplaintSystem.sol\":2196:2207  complaintId */\n      dup3\n        /* \"ComplaintSystem.sol\":2186:2303  Complaint(complaintId, msg.sender, _description, ComplaintStatus.Pending, File(_ipfsHash, fileName), block.timestamp) */\n      dup2\n      mstore\n      0x20\n      add\n        /* \"ComplaintSystem.sol\":2209:2219  msg.sender */\n      caller\n        /* \"ComplaintSystem.sol\":2186:2303  Complaint(complaintId, msg.sender, _description, ComplaintStatus.Pending, File(_ipfsHash, fileName), block.timestamp) */\n      0xffffffffffffffffffffffffffffffffffffffff\n      and\n      dup2\n      mstore\n      0x20\n      add\n        /* \"ComplaintSystem.sol\":2221:2233  _description */\n      dup5\n        /* \"ComplaintSystem.sol\":2186:2303  Complaint(complaintId, msg.sender, _description, ComplaintStatus.Pending, File(_ipfsHash, fileName), block.timestamp) */\n      dup2\n      mstore\n      0x20\n      add\n        /* \"ComplaintSystem.sol\":2235:2258  ComplaintStatus.Pending */\n      0x00\n        /* \"ComplaintSystem.sol\":2186:2303  Complaint(complaintId, msg.sender, _description, ComplaintStatus.Pending, File(_ipfsHash, fileName), block.timestamp) */\n      0x01\n      dup2\n      gt\n      iszero\n      tag_104\n      jumpi\n      tag_105\n      tag_106\n      jump\t// in\n    tag_105:\n    tag_104:\n      dup2\n      mstore\n      0x20\n      add\n        /* \"ComplaintSystem.sol\":2260:2285  File(_ipfsHash, fileName) */\n      mload(0x40)\n      dup1\n      0x40\n      add\n      0x40\n      mstore\n      dup1\n        /* \"ComplaintSystem.sol\":2265:2274  _ipfsHash */\n      dup8\n        /* \"ComplaintSystem.sol\":2260:2285  File(_ipfsHash, fileName) */\n      dup2\n      mstore\n      0x20\n      add\n        /* \"ComplaintSystem.sol\":2276:2284  fileName */\n      dup6\n        /* \"ComplaintSystem.sol\":2260:2285  File(_ipfsHash, fileName) */\n      dup2\n      mstore\n      pop\n        /* \"ComplaintSystem.sol\":2186:2303  Complaint(complaintId, msg.sender, _description, ComplaintStatus.Pending, File(_ipfsHash, fileName), block.timestamp) */\n      dup2\n      mstore\n      0x20\n      add\n        /* \"ComplaintSystem.sol\":2287:2302  block.timestamp */\n      timestamp\n        /* \"ComplaintSystem.sol\":2186:2303  Complaint(complaintId, msg.sender, _description, ComplaintStatus.Pending, File(_ipfsHash, fileName), block.timestamp) */\n      dup2\n      mstore\n      pop\n        /* \"ComplaintSystem.sol\":2160:2170  complaints */\n      0x02\n        /* \"ComplaintSystem.sol\":2160:2183  complaints[complaintId] */\n      0x00\n        /* \"ComplaintSystem.sol\":2171:2182  complaintId */\n      dup4\n        /* \"ComplaintSystem.sol\":2160:2183  complaints[complaintId] */\n      dup2\n      mstore\n      0x20\n      add\n      swap1\n      dup2\n      mstore\n      0x20\n      add\n      0x00\n      keccak256\n        /* \"ComplaintSystem.sol\":2160:2303  complaints[complaintId] = Complaint(complaintId, msg.sender, _description, ComplaintStatus.Pending, File(_ipfsHash, fileName), block.timestamp) */\n      0x00\n      dup3\n      add\n      mload\n      dup2\n      0x00\n      add\n      sstore\n      0x20\n      dup3\n      add\n      mload\n      dup2\n      0x01\n      add\n      exp(0x0100, 0x00)\n      dup2\n      sload\n      dup2\n      0xffffffffffffffffffffffffffffffffffffffff\n      mul\n      not\n      and\n      swap1\n      dup4\n      0xffffffffffffffffffffffffffffffffffffffff\n      and\n      mul\n      or\n      swap1\n      sstore\n      pop\n      0x40\n      dup3\n      add\n      mload\n      dup2\n      0x02\n      add\n      swap1\n      dup2\n      tag_107\n      swap2\n      swap1\n      tag_108\n      jump\t// in\n    tag_107:\n      pop\n      0x60\n      dup3\n      add\n      mload\n      dup2\n      0x03\n      add\n      exp(0x0100, 0x00)\n      dup2\n      sload\n      dup2\n      0xff\n      mul\n      not\n      and\n      swap1\n      dup4\n      0x01\n      dup2\n      gt\n      iszero\n      tag_109\n      jumpi\n      tag_110\n      tag_106\n      jump\t// in\n    tag_110:\n    tag_109:\n      mul\n      or\n      swap1\n      sstore\n      pop\n      0x80\n      dup3\n      add\n      mload\n      dup2\n      0x04\n      add\n      0x00\n      dup3\n      add\n      mload\n      dup2\n      0x00\n      add\n      swap1\n      dup2\n      tag_111\n      swap2\n      swap1\n      tag_108\n      jump\t// in\n    tag_111:\n      pop\n      0x20\n      dup3\n      add\n      mload\n      dup2\n      0x01\n      add\n      swap1\n      dup2\n      tag_112\n      swap2\n      swap1\n      tag_108\n      jump\t// in\n    tag_112:\n      pop\n      pop\n      pop\n      0xa0\n      dup3\n      add\n      mload\n      dup2\n      0x06\n      add\n      sstore\n      swap1\n      pop\n      pop\n        /* \"ComplaintSystem.sol\":2349:2359  msg.sender */\n      caller\n        /* \"ComplaintSystem.sol\":2319:2385  ComplaintCreated(complaintId, msg.sender, _ipfsHash, _description) */\n      0xffffffffffffffffffffffffffffffffffffffff\n      and\n        /* \"ComplaintSystem.sol\":2336:2347  complaintId */\n      dup2\n        /* \"ComplaintSystem.sol\":2319:2385  ComplaintCreated(complaintId, msg.sender, _ipfsHash, _description) */\n      0xb538e4e93715cf36354d0368248193865bc355a0b9906e40e3eeb2298af70869\n        /* \"ComplaintSystem.sol\":2361:2370  _ipfsHash */\n      dup7\n        /* \"ComplaintSystem.sol\":2372:2384  _description */\n      dup7\n        /* \"ComplaintSystem.sol\":2319:2385  ComplaintCreated(complaintId, msg.sender, _ipfsHash, _description) */\n      mload(0x40)\n      tag_113\n      swap3\n      swap2\n      swap1\n      tag_114\n      jump\t// in\n    tag_113:\n      mload(0x40)\n      dup1\n      swap2\n      sub\n      swap1\n      log3\n        /* \"ComplaintSystem.sol\":2033:2393  {... */\n      pop\n        /* \"ComplaintSystem.sol\":1913:2393  function createComplaint(string memory _ipfsHash, string memory _description, string memory fileName) external onlyUser {... */\n      pop\n      pop\n      pop\n      jump\t// out\n        /* \"ComplaintSystem.sol\":4209:4857  function getUserReplies(address _user) external view returns (Reply[] memory) {... */\n    tag_30:\n        /* \"ComplaintSystem.sol\":4271:4285  Reply[] memory */\n      0x60\n        /* \"ComplaintSystem.sol\":4298:4324  Reply[] memory userReplies */\n      0x00\n        /* \"ComplaintSystem.sol\":4339:4353  complaintCount */\n      sload(0x05)\n        /* \"ComplaintSystem.sol\":4327:4354  new Reply[](complaintCount) */\n      0xffffffffffffffff\n      dup2\n      gt\n      iszero\n      tag_116\n      jumpi\n      tag_117\n      tag_118\n      jump\t// in\n    tag_117:\n    tag_116:\n      mload(0x40)\n      swap1\n      dup1\n      dup3\n      mstore\n      dup1\n      0x20\n      mul\n      0x20\n      add\n      dup3\n      add\n      0x40\n      mstore\n      dup1\n      iszero\n      tag_119\n      jumpi\n      dup2\n      0x20\n      add\n    tag_120:\n      tag_121\n      tag_122\n      jump\t// in\n    tag_121:\n      dup2\n      mstore\n      0x20\n      add\n      swap1\n      0x01\n      swap1\n      sub\n      swap1\n      dup2\n      tag_120\n      jumpi\n      swap1\n      pop\n    tag_119:\n      pop\n        /* \"ComplaintSystem.sol\":4298:4354  Reply[] memory userReplies = new Reply[](complaintCount) */\n      swap1\n      pop\n        /* \"ComplaintSystem.sol\":4365:4389  uint256 userRepliesCount */\n      0x00\n        /* \"ComplaintSystem.sol\":4409:4418  uint256 i */\n      dup1\n        /* \"ComplaintSystem.sol\":4404:4687  for (uint256 i = 0; i < complaintCount; i++) {... */\n    tag_123:\n        /* \"ComplaintSystem.sol\":4428:4442  complaintCount */\n      sload(0x05)\n        /* \"ComplaintSystem.sol\":4424:4425  i */\n      dup2\n        /* \"ComplaintSystem.sol\":4424:4442  i < complaintCount */\n      lt\n        /* \"ComplaintSystem.sol\":4404:4687  for (uint256 i = 0; i < complaintCount; i++) {... */\n      iszero\n      tag_124\n      jumpi\n        /* \"ComplaintSystem.sol\":4497:4502  _user */\n      dup5\n        /* \"ComplaintSystem.sol\":4468:4502  complaints[i].complainant == _user */\n      0xffffffffffffffffffffffffffffffffffffffff\n      and\n        /* \"ComplaintSystem.sol\":4468:4478  complaints */\n      0x02\n        /* \"ComplaintSystem.sol\":4468:4481  complaints[i] */\n      0x00\n        /* \"ComplaintSystem.sol\":4479:4480  i */\n      dup4\n        /* \"ComplaintSystem.sol\":4468:4481  complaints[i] */\n      dup2\n      mstore\n      0x20\n      add\n      swap1\n      dup2\n      mstore\n      0x20\n      add\n      0x00\n      keccak256\n        /* \"ComplaintSystem.sol\":4468:4493  complaints[i].complainant */\n      0x01\n      add\n      0x00\n      swap1\n      sload\n      swap1\n      0x0100\n      exp\n      swap1\n      div\n      0xffffffffffffffffffffffffffffffffffffffff\n      and\n        /* \"ComplaintSystem.sol\":4468:4502  complaints[i].complainant == _user */\n      0xffffffffffffffffffffffffffffffffffffffff\n      and\n      sub\n        /* \"ComplaintSystem.sol\":4464:4676  if (complaints[i].complainant == _user) {... */\n      tag_126\n      jumpi\n        /* \"ComplaintSystem.sol\":4528:4537  uint256 j */\n      0x00\n        /* \"ComplaintSystem.sol\":4523:4661  for (uint256 j = 0; j < replies[i].length; j++) {... */\n    tag_127:\n        /* \"ComplaintSystem.sol\":4547:4554  replies */\n      0x04\n        /* \"ComplaintSystem.sol\":4547:4557  replies[i] */\n      0x00\n        /* \"ComplaintSystem.sol\":4555:4556  i */\n      dup4\n        /* \"ComplaintSystem.sol\":4547:4557  replies[i] */\n      dup2\n      mstore\n      0x20\n      add\n      swap1\n      dup2\n      mstore\n      0x20\n      add\n      0x00\n      keccak256\n        /* \"ComplaintSystem.sol\":4547:4564  replies[i].length */\n      dup1\n      sload\n      swap1\n      pop\n        /* \"ComplaintSystem.sol\":4543:4544  j */\n      dup2\n        /* \"ComplaintSystem.sol\":4543:4564  j < replies[i].length */\n      lt\n        /* \"ComplaintSystem.sol\":4523:4661  for (uint256 j = 0; j < replies[i].length; j++) {... */\n      iszero\n      tag_128\n      jumpi\n        /* \"ComplaintSystem.sol\":4628:4635  replies */\n      0x04\n        /* \"ComplaintSystem.sol\":4628:4638  replies[i] */\n      0x00\n        /* \"ComplaintSystem.sol\":4636:4637  i */\n      dup4\n        /* \"ComplaintSystem.sol\":4628:4638  replies[i] */\n      dup2\n      mstore\n      0x20\n      add\n      swap1\n      dup2\n      mstore\n      0x20\n      add\n      0x00\n      keccak256\n        /* \"ComplaintSystem.sol\":4639:4640  j */\n      dup2\n        /* \"ComplaintSystem.sol\":4628:4641  replies[i][j] */\n      dup2\n      sload\n      dup2\n      lt\n      tag_130\n      jumpi\n      tag_131\n      tag_132\n      jump\t// in\n    tag_131:\n    tag_130:\n      swap1\n      0x00\n      mstore\n      keccak256(0x00, 0x20)\n      swap1\n      0x03\n      mul\n      add\n        /* \"ComplaintSystem.sol\":4594:4641  userReplies[userRepliesCount++] = replies[i][j] */\n      mload(0x40)\n      dup1\n      0x60\n      add\n      0x40\n      mstore\n      swap1\n      dup2\n      0x00\n      dup3\n      add\n      0x00\n      swap1\n      sload\n      swap1\n      0x0100\n      exp\n      swap1\n      div\n      0xffffffffffffffffffffffffffffffffffffffff\n      and\n      0xffffffffffffffffffffffffffffffffffffffff\n      and\n      0xffffffffffffffffffffffffffffffffffffffff\n      and\n      dup2\n      mstore\n      0x20\n      add\n      0x01\n      dup3\n      add\n      dup1\n      sload\n      tag_134\n      swap1\n      tag_135\n      jump\t// in\n    tag_134:\n      dup1\n      0x1f\n      add\n      0x20\n      dup1\n      swap2\n      div\n      mul\n      0x20\n      add\n      mload(0x40)\n      swap1\n      dup2\n      add\n      0x40\n      mstore\n      dup1\n      swap3\n      swap2\n      swap1\n      dup2\n      dup2\n      mstore\n      0x20\n      add\n      dup3\n      dup1\n      sload\n      tag_136\n      swap1\n      tag_135\n      jump\t// in\n    tag_136:\n      dup1\n      iszero\n      tag_137\n      jumpi\n      dup1\n      0x1f\n      lt\n      tag_138\n      jumpi\n      0x0100\n      dup1\n      dup4\n      sload\n      div\n      mul\n      dup4\n      mstore\n      swap2\n      0x20\n      add\n      swap2\n      jump(tag_137)\n    tag_138:\n      dup3\n      add\n      swap2\n      swap1\n      0x00\n      mstore\n      keccak256(0x00, 0x20)\n      swap1\n    tag_139:\n      dup2\n      sload\n      dup2\n      mstore\n      swap1\n      0x01\n      add\n      swap1\n      0x20\n      add\n      dup1\n      dup4\n      gt\n      tag_139\n      jumpi\n      dup3\n      swap1\n      sub\n      0x1f\n      and\n      dup3\n      add\n      swap2\n    tag_137:\n      pop\n      pop\n      pop\n      pop\n      pop\n      dup2\n      mstore\n      0x20\n      add\n      0x02\n      dup3\n      add\n      sload\n      dup2\n      mstore\n      pop\n      pop\n        /* \"ComplaintSystem.sol\":4594:4605  userReplies */\n      dup5\n        /* \"ComplaintSystem.sol\":4606:4624  userRepliesCount++ */\n      dup5\n      dup1\n      tag_140\n      swap1\n      tag_103\n      jump\t// in\n    tag_140:\n      swap6\n      pop\n        /* \"ComplaintSystem.sol\":4594:4625  userReplies[userRepliesCount++] */\n      dup2\n      mload\n      dup2\n      lt\n      tag_141\n      jumpi\n      tag_142\n      tag_132\n      jump\t// in\n    tag_142:\n    tag_141:\n      0x20\n      mul\n      0x20\n      add\n      add\n        /* \"ComplaintSystem.sol\":4594:4641  userReplies[userRepliesCount++] = replies[i][j] */\n      dup2\n      swap1\n      mstore\n      pop\n        /* \"ComplaintSystem.sol\":4566:4569  j++ */\n      dup1\n      dup1\n      tag_143\n      swap1\n      tag_103\n      jump\t// in\n    tag_143:\n      swap2\n      pop\n      pop\n        /* \"ComplaintSystem.sol\":4523:4661  for (uint256 j = 0; j < replies[i].length; j++) {... */\n      jump(tag_127)\n    tag_128:\n      pop\n        /* \"ComplaintSystem.sol\":4464:4676  if (complaints[i].complainant == _user) {... */\n    tag_126:\n        /* \"ComplaintSystem.sol\":4444:4447  i++ */\n      dup1\n      dup1\n      tag_144\n      swap1\n      tag_103\n      jump\t// in\n    tag_144:\n      swap2\n      pop\n      pop\n        /* \"ComplaintSystem.sol\":4404:4687  for (uint256 i = 0; i < complaintCount; i++) {... */\n      jump(tag_123)\n    tag_124:\n      pop\n        /* \"ComplaintSystem.sol\":4793:4809  userRepliesCount */\n      dup1\n        /* \"ComplaintSystem.sol\":4780:4791  userReplies */\n      dup3\n        /* \"ComplaintSystem.sol\":4773:4810  mstore(userReplies, userRepliesCount) */\n      mstore\n        /* \"ComplaintSystem.sol\":4838:4849  userReplies */\n      dup2\n        /* \"ComplaintSystem.sol\":4831:4849  return userReplies */\n      swap3\n      pop\n      pop\n      pop\n        /* \"ComplaintSystem.sol\":4209:4857  function getUserReplies(address _user) external view returns (Reply[] memory) {... */\n      swap2\n      swap1\n      pop\n      jump\t// out\n        /* \"ComplaintSystem.sol\":920:962  mapping(uint256 => Reply[]) public replies */\n    tag_36:\n      mstore(0x20, 0x04)\n      dup2\n      0x00\n      mstore\n      keccak256(0x00, 0x40)\n      dup2\n      dup2\n      sload\n      dup2\n      lt\n      tag_145\n      jumpi\n      0x00\n      dup1\n      revert\n    tag_145:\n      swap1\n      0x00\n      mstore\n      keccak256(0x00, 0x20)\n      swap1\n      0x03\n      mul\n      add\n      0x00\n      swap2\n      pop\n      swap2\n      pop\n      pop\n      dup1\n      0x00\n      add\n      0x00\n      swap1\n      sload\n      swap1\n      0x0100\n      exp\n      swap1\n      div\n      0xffffffffffffffffffffffffffffffffffffffff\n      and\n      swap1\n      dup1\n      0x01\n      add\n      dup1\n      sload\n      tag_147\n      swap1\n      tag_135\n      jump\t// in\n    tag_147:\n      dup1\n      0x1f\n      add\n      0x20\n      dup1\n      swap2\n      div\n      mul\n      0x20\n      add\n      mload(0x40)\n      swap1\n      dup2\n      add\n      0x40\n      mstore\n      dup1\n      swap3\n      swap2\n      swap1\n      dup2\n      dup2\n      mstore\n      0x20\n      add\n      dup3\n      dup1\n      sload\n      tag_148\n      swap1\n      tag_135\n      jump\t// in\n    tag_148:\n      dup1\n      iszero\n      tag_149\n      jumpi\n      dup1\n      0x1f\n      lt\n      tag_150\n      jumpi\n      0x0100\n      dup1\n      dup4\n      sload\n      div\n      mul\n      dup4\n      mstore\n      swap2\n      0x20\n      add\n      swap2\n      jump(tag_149)\n    tag_150:\n      dup3\n      add\n      swap2\n      swap1\n      0x00\n      mstore\n      keccak256(0x00, 0x20)\n      swap1\n    tag_151:\n      dup2\n      sload\n      dup2\n      mstore\n      swap1\n      0x01\n      add\n      swap1\n      0x20\n      add\n      dup1\n      dup4\n      gt\n      tag_151\n      jumpi\n      dup3\n      swap1\n      sub\n      0x1f\n      and\n      dup3\n      add\n      swap2\n    tag_149:\n      pop\n      pop\n      pop\n      pop\n      pop\n      swap1\n      dup1\n      0x02\n      add\n      sload\n      swap1\n      pop\n      dup4\n      jump\t// out\n        /* \"ComplaintSystem.sol\":92:131  mapping(address => bool) public isAdmin */\n    tag_41:\n      mstore(0x20, 0x00)\n      dup1\n      0x00\n      mstore\n      keccak256(0x00, 0x40)\n      0x00\n      swap2\n      pop\n      sload\n      swap1\n      0x0100\n      exp\n      swap1\n      div\n      0xff\n      and\n      dup2\n      jump\t// out\n        /* \"ComplaintSystem.sol\":2401:2807  function resolveComplaint(uint256 _complaintId, string memory _response) external onlyAdmin {... */\n    tag_47:\n        /* \"ComplaintSystem.sol\":1047:1054  isAdmin */\n      0x00\n        /* \"ComplaintSystem.sol\":1047:1066  isAdmin[msg.sender] */\n      dup1\n        /* \"ComplaintSystem.sol\":1055:1065  msg.sender */\n      caller\n        /* \"ComplaintSystem.sol\":1047:1066  isAdmin[msg.sender] */\n      0xffffffffffffffffffffffffffffffffffffffff\n      and\n      0xffffffffffffffffffffffffffffffffffffffff\n      and\n      dup2\n      mstore\n      0x20\n      add\n      swap1\n      dup2\n      mstore\n      0x20\n      add\n      0x00\n      keccak256\n      0x00\n      swap1\n      sload\n      swap1\n      0x0100\n      exp\n      swap1\n      div\n      0xff\n      and\n        /* \"ComplaintSystem.sol\":1039:1104  require(isAdmin[msg.sender], \"Only admin can call this function\") */\n      tag_153\n      jumpi\n      mload(0x40)\n      0x08c379a000000000000000000000000000000000000000000000000000000000\n      dup2\n      mstore\n      0x04\n      add\n      tag_154\n      swap1\n      tag_155\n      jump\t// in\n    tag_154:\n      mload(0x40)\n      dup1\n      swap2\n      sub\n      swap1\n      revert\n    tag_153:\n        /* \"ComplaintSystem.sol\":2547:2570  ComplaintStatus.Pending */\n      0x00\n        /* \"ComplaintSystem.sol\":2512:2570  complaints[_complaintId].status == ComplaintStatus.Pending */\n      0x01\n      dup2\n      gt\n      iszero\n      tag_157\n      jumpi\n      tag_158\n      tag_106\n      jump\t// in\n    tag_158:\n    tag_157:\n        /* \"ComplaintSystem.sol\":2512:2522  complaints */\n      0x02\n        /* \"ComplaintSystem.sol\":2512:2536  complaints[_complaintId] */\n      0x00\n        /* \"ComplaintSystem.sol\":2523:2535  _complaintId */\n      dup5\n        /* \"ComplaintSystem.sol\":2512:2536  complaints[_complaintId] */\n      dup2\n      mstore\n      0x20\n      add\n      swap1\n      dup2\n      mstore\n      0x20\n      add\n      0x00\n      keccak256\n        /* \"ComplaintSystem.sol\":2512:2543  complaints[_complaintId].status */\n      0x03\n      add\n      0x00\n      swap1\n      sload\n      swap1\n      0x0100\n      exp\n      swap1\n      div\n      0xff\n      and\n        /* \"ComplaintSystem.sol\":2512:2570  complaints[_complaintId].status == ComplaintStatus.Pending */\n      0x01\n      dup2\n      gt\n      iszero\n      tag_159\n      jumpi\n      tag_160\n      tag_106\n      jump\t// in\n    tag_160:\n    tag_159:\n      eq\n        /* \"ComplaintSystem.sol\":2504:2604  require(complaints[_complaintId].status == ComplaintStatus.Pending, \"Complaint is already resolved\") */\n      tag_161\n      jumpi\n      mload(0x40)\n      0x08c379a000000000000000000000000000000000000000000000000000000000\n      dup2\n      mstore\n      0x04\n      add\n      tag_162\n      swap1\n      tag_163\n      jump\t// in\n    tag_162:\n      mload(0x40)\n      dup1\n      swap2\n      sub\n      swap1\n      revert\n    tag_161:\n        /* \"ComplaintSystem.sol\":2649:2673  ComplaintStatus.Resolved */\n      0x01\n        /* \"ComplaintSystem.sol\":2615:2625  complaints */\n      0x02\n        /* \"ComplaintSystem.sol\":2615:2639  complaints[_complaintId] */\n      0x00\n        /* \"ComplaintSystem.sol\":2626:2638  _complaintId */\n      dup5\n        /* \"ComplaintSystem.sol\":2615:2639  complaints[_complaintId] */\n      dup2\n      mstore\n      0x20\n      add\n      swap1\n      dup2\n      mstore\n      0x20\n      add\n      0x00\n      keccak256\n        /* \"ComplaintSystem.sol\":2615:2646  complaints[_complaintId].status */\n      0x03\n      add\n      0x00\n        /* \"ComplaintSystem.sol\":2615:2673  complaints[_complaintId].status = ComplaintStatus.Resolved */\n      0x0100\n      exp\n      dup2\n      sload\n      dup2\n      0xff\n      mul\n      not\n      and\n      swap1\n      dup4\n      0x01\n      dup2\n      gt\n      iszero\n      tag_164\n      jumpi\n      tag_165\n      tag_106\n      jump\t// in\n    tag_165:\n    tag_164:\n      mul\n      or\n      swap1\n      sstore\n      pop\n        /* \"ComplaintSystem.sol\":2707:2719  _complaintId */\n      dup2\n        /* \"ComplaintSystem.sol\":2689:2731  ComplaintResolved(_complaintId, _response) */\n      0xa0e3a0a30e4ae091855116dfb1b3a775ab1b158763b0a44710be60283214ca73\n        /* \"ComplaintSystem.sol\":2721:2730  _response */\n      dup3\n        /* \"ComplaintSystem.sol\":2689:2731  ComplaintResolved(_complaintId, _response) */\n      mload(0x40)\n      tag_166\n      swap2\n      swap1\n      tag_167\n      jump\t// in\n    tag_166:\n      mload(0x40)\n      dup1\n      swap2\n      sub\n      swap1\n      log2\n        /* \"ComplaintSystem.sol\":2742:2799  _addTransaction(_complaintId, msg.sender, Action.Resolve) */\n      tag_168\n        /* \"ComplaintSystem.sol\":2758:2770  _complaintId */\n      dup3\n        /* \"ComplaintSystem.sol\":2772:2782  msg.sender */\n      caller\n        /* \"ComplaintSystem.sol\":2784:2798  Action.Resolve */\n      0x01\n        /* \"ComplaintSystem.sol\":2742:2757  _addTransaction */\n      tag_169\n        /* \"ComplaintSystem.sol\":2742:2799  _addTransaction(_complaintId, msg.sender, Action.Resolve) */\n      jump\t// in\n    tag_168:\n        /* \"ComplaintSystem.sol\":2401:2807  function resolveComplaint(uint256 _complaintId, string memory _response) external onlyAdmin {... */\n      pop\n      pop\n      jump\t// out\n        /* \"ComplaintSystem.sol\":969:998  uint256 public complaintCount */\n    tag_49:\n      sload(0x05)\n      dup2\n      jump\t// out\n        /* \"ComplaintSystem.sol\":4865:5554  function getUnresolvedComplaints() external view returns (Complaint[] memory) {... */\n    tag_53:\n        /* \"ComplaintSystem.sol\":4923:4941  Complaint[] memory */\n      0x60\n        /* \"ComplaintSystem.sol\":4954:4977  uint256 unresolvedCount */\n      0x00\n        /* \"ComplaintSystem.sol\":4997:5006  uint256 i */\n      dup1\n        /* \"ComplaintSystem.sol\":4992:5168  for (uint256 i = 0; i < complaintCount; i++) {... */\n    tag_171:\n        /* \"ComplaintSystem.sol\":5016:5030  complaintCount */\n      sload(0x05)\n        /* \"ComplaintSystem.sol\":5012:5013  i */\n      dup2\n        /* \"ComplaintSystem.sol\":5012:5030  i < complaintCount */\n      lt\n        /* \"ComplaintSystem.sol\":4992:5168  for (uint256 i = 0; i < complaintCount; i++) {... */\n      iszero\n      tag_172\n      jumpi\n        /* \"ComplaintSystem.sol\":5080:5103  ComplaintStatus.Pending */\n      0x00\n        /* \"ComplaintSystem.sol\":5056:5103  complaints[i].status == ComplaintStatus.Pending */\n      0x01\n      dup2\n      gt\n      iszero\n      tag_174\n      jumpi\n      tag_175\n      tag_106\n      jump\t// in\n    tag_175:\n    tag_174:\n        /* \"ComplaintSystem.sol\":5056:5066  complaints */\n      0x02\n        /* \"ComplaintSystem.sol\":5056:5069  complaints[i] */\n      0x00\n        /* \"ComplaintSystem.sol\":5067:5068  i */\n      dup4\n        /* \"ComplaintSystem.sol\":5056:5069  complaints[i] */\n      dup2\n      mstore\n      0x20\n      add\n      swap1\n      dup2\n      mstore\n      0x20\n      add\n      0x00\n      keccak256\n        /* \"ComplaintSystem.sol\":5056:5076  complaints[i].status */\n      0x03\n      add\n      0x00\n      swap1\n      sload\n      swap1\n      0x0100\n      exp\n      swap1\n      div\n      0xff\n      and\n        /* \"ComplaintSystem.sol\":5056:5103  complaints[i].status == ComplaintStatus.Pending */\n      0x01\n      dup2\n      gt\n      iszero\n      tag_176\n      jumpi\n      tag_177\n      tag_106\n      jump\t// in\n    tag_177:\n    tag_176:\n      sub\n        /* \"ComplaintSystem.sol\":5052:5157  if (complaints[i].status == ComplaintStatus.Pending) {... */\n      tag_178\n      jumpi\n        /* \"ComplaintSystem.sol\":5124:5141  unresolvedCount++ */\n      dup2\n      dup1\n      tag_179\n      swap1\n      tag_103\n      jump\t// in\n    tag_179:\n      swap3\n      pop\n      pop\n        /* \"ComplaintSystem.sol\":5052:5157  if (complaints[i].status == ComplaintStatus.Pending) {... */\n    tag_178:\n        /* \"ComplaintSystem.sol\":5032:5035  i++ */\n      dup1\n      dup1\n      tag_180\n      swap1\n      tag_103\n      jump\t// in\n    tag_180:\n      swap2\n      pop\n      pop\n        /* \"ComplaintSystem.sol\":4992:5168  for (uint256 i = 0; i < complaintCount; i++) {... */\n      jump(tag_171)\n    tag_172:\n      pop\n        /* \"ComplaintSystem.sol\":5178:5217  Complaint[] memory unresolvedComplaints */\n      0x00\n        /* \"ComplaintSystem.sol\":5236:5251  unresolvedCount */\n      dup2\n        /* \"ComplaintSystem.sol\":5220:5252  new Complaint[](unresolvedCount) */\n      0xffffffffffffffff\n      dup2\n      gt\n      iszero\n      tag_181\n      jumpi\n      tag_182\n      tag_118\n      jump\t// in\n    tag_182:\n    tag_181:\n      mload(0x40)\n      swap1\n      dup1\n      dup3\n      mstore\n      dup1\n      0x20\n      mul\n      0x20\n      add\n      dup3\n      add\n      0x40\n      mstore\n      dup1\n      iszero\n      tag_183\n      jumpi\n      dup2\n      0x20\n      add\n    tag_184:\n      tag_185\n      tag_186\n      jump\t// in\n    tag_185:\n      dup2\n      mstore\n      0x20\n      add\n      swap1\n      0x01\n      swap1\n      sub\n      swap1\n      dup2\n      tag_184\n      jumpi\n      swap1\n      pop\n    tag_183:\n      pop\n        /* \"ComplaintSystem.sol\":5178:5252  Complaint[] memory unresolvedComplaints = new Complaint[](unresolvedCount) */\n      swap1\n      pop\n        /* \"ComplaintSystem.sol\":5263:5283  uint256 currentIndex */\n      0x00\n        /* \"ComplaintSystem.sol\":5303:5312  uint256 i */\n      dup1\n        /* \"ComplaintSystem.sol\":5298:5509  for (uint256 i = 0; i < complaintCount; i++) {... */\n    tag_187:\n        /* \"ComplaintSystem.sol\":5322:5336  complaintCount */\n      sload(0x05)\n        /* \"ComplaintSystem.sol\":5318:5319  i */\n      dup2\n        /* \"ComplaintSystem.sol\":5318:5336  i < complaintCount */\n      lt\n        /* \"ComplaintSystem.sol\":5298:5509  for (uint256 i = 0; i < complaintCount; i++) {... */\n      iszero\n      tag_188\n      jumpi\n        /* \"ComplaintSystem.sol\":5386:5409  ComplaintStatus.Pending */\n      0x00\n        /* \"ComplaintSystem.sol\":5362:5409  complaints[i].status == ComplaintStatus.Pending */\n      0x01\n      dup2\n      gt\n      iszero\n      tag_190\n      jumpi\n      tag_191\n      tag_106\n      jump\t// in\n    tag_191:\n    tag_190:\n        /* \"ComplaintSystem.sol\":5362:5372  complaints */\n      0x02\n        /* \"ComplaintSystem.sol\":5362:5375  complaints[i] */\n      0x00\n        /* \"ComplaintSystem.sol\":5373:5374  i */\n      dup4\n        /* \"ComplaintSystem.sol\":5362:5375  complaints[i] */\n      dup2\n      mstore\n      0x20\n      add\n      swap1\n      dup2\n      mstore\n      0x20\n      add\n      0x00\n      keccak256\n        /* \"ComplaintSystem.sol\":5362:5382  complaints[i].status */\n      0x03\n      add\n      0x00\n      swap1\n      sload\n      swap1\n      0x0100\n      exp\n      swap1\n      div\n      0xff\n      and\n        /* \"ComplaintSystem.sol\":5362:5409  complaints[i].status == ComplaintStatus.Pending */\n      0x01\n      dup2\n      gt\n      iszero\n      tag_192\n      jumpi\n      tag_193\n      tag_106\n      jump\t// in\n    tag_193:\n    tag_192:\n      sub\n        /* \"ComplaintSystem.sol\":5358:5498  if (complaints[i].status == ComplaintStatus.Pending) {... */\n      tag_194\n      jumpi\n        /* \"ComplaintSystem.sol\":5469:5479  complaints */\n      0x02\n        /* \"ComplaintSystem.sol\":5469:5482  complaints[i] */\n      0x00\n        /* \"ComplaintSystem.sol\":5480:5481  i */\n      dup3\n        /* \"ComplaintSystem.sol\":5469:5482  complaints[i] */\n      dup2\n      mstore\n      0x20\n      add\n      swap1\n      dup2\n      mstore\n      0x20\n      add\n      0x00\n      keccak256\n        /* \"ComplaintSystem.sol\":5430:5482  unresolvedComplaints[currentIndex++] = complaints[i] */\n      mload(0x40)\n      dup1\n      0xc0\n      add\n      0x40\n      mstore\n      swap1\n      dup2\n      0x00\n      dup3\n      add\n      sload\n      dup2\n      mstore\n      0x20\n      add\n      0x01\n      dup3\n      add\n      0x00\n      swap1\n      sload\n      swap1\n      0x0100\n      exp\n      swap1\n      div\n      0xffffffffffffffffffffffffffffffffffffffff\n      and\n      0xffffffffffffffffffffffffffffffffffffffff\n      and\n      0xffffffffffffffffffffffffffffffffffffffff\n      and\n      dup2\n      mstore\n      0x20\n      add\n      0x02\n      dup3\n      add\n      dup1\n      sload\n      tag_195\n      swap1\n      tag_135\n      jump\t// in\n    tag_195:\n      dup1\n      0x1f\n      add\n      0x20\n      dup1\n      swap2\n      div\n      mul\n      0x20\n      add\n      mload(0x40)\n      swap1\n      dup2\n      add\n      0x40\n      mstore\n      dup1\n      swap3\n      swap2\n      swap1\n      dup2\n      dup2\n      mstore\n      0x20\n      add\n      dup3\n      dup1\n      sload\n      tag_196\n      swap1\n      tag_135\n      jump\t// in\n    tag_196:\n      dup1\n      iszero\n      tag_197\n      jumpi\n      dup1\n      0x1f\n      lt\n      tag_198\n      jumpi\n      0x0100\n      dup1\n      dup4\n      sload\n      div\n      mul\n      dup4\n      mstore\n      swap2\n      0x20\n      add\n      swap2\n      jump(tag_197)\n    tag_198:\n      dup3\n      add\n      swap2\n      swap1\n      0x00\n      mstore\n      keccak256(0x00, 0x20)\n      swap1\n    tag_199:\n      dup2\n      sload\n      dup2\n      mstore\n      swap1\n      0x01\n      add\n      swap1\n      0x20\n      add\n      dup1\n      dup4\n      gt\n      tag_199\n      jumpi\n      dup3\n      swap1\n      sub\n      0x1f\n      and\n      dup3\n      add\n      swap2\n    tag_197:\n      pop\n      pop\n      pop\n      pop\n      pop\n      dup2\n      mstore\n      0x20\n      add\n      0x03\n      dup3\n      add\n      0x00\n      swap1\n      sload\n      swap1\n      0x0100\n      exp\n      swap1\n      div\n      0xff\n      and\n      0x01\n      dup2\n      gt\n      iszero\n      tag_200\n      jumpi\n      tag_201\n      tag_106\n      jump\t// in\n    tag_201:\n    tag_200:\n      0x01\n      dup2\n      gt\n      iszero\n      tag_202\n      jumpi\n      tag_203\n      tag_106\n      jump\t// in\n    tag_203:\n    tag_202:\n      dup2\n      mstore\n      0x20\n      add\n      0x04\n      dup3\n      add\n      mload(0x40)\n      dup1\n      0x40\n      add\n      0x40\n      mstore\n      swap1\n      dup2\n      0x00\n      dup3\n      add\n      dup1\n      sload\n      tag_204\n      swap1\n      tag_135\n      jump\t// in\n    tag_204:\n      dup1\n      0x1f\n      add\n      0x20\n      dup1\n      swap2\n      div\n      mul\n      0x20\n      add\n      mload(0x40)\n      swap1\n      dup2\n      add\n      0x40\n      mstore\n      dup1\n      swap3\n      swap2\n      swap1\n      dup2\n      dup2\n      mstore\n      0x20\n      add\n      dup3\n      dup1\n      sload\n      tag_205\n      swap1\n      tag_135\n      jump\t// in\n    tag_205:\n      dup1\n      iszero\n      tag_206\n      jumpi\n      dup1\n      0x1f\n      lt\n      tag_207\n      jumpi\n      0x0100\n      dup1\n      dup4\n      sload\n      div\n      mul\n      dup4\n      mstore\n      swap2\n      0x20\n      add\n      swap2\n      jump(tag_206)\n    tag_207:\n      dup3\n      add\n      swap2\n      swap1\n      0x00\n      mstore\n      keccak256(0x00, 0x20)\n      swap1\n    tag_208:\n      dup2\n      sload\n      dup2\n      mstore\n      swap1\n      0x01\n      add\n      swap1\n      0x20\n      add\n      dup1\n      dup4\n      gt\n      tag_208\n      jumpi\n      dup3\n      swap1\n      sub\n      0x1f\n      and\n      dup3\n      add\n      swap2\n    tag_206:\n      pop\n      pop\n      pop\n      pop\n      pop\n      dup2\n      mstore\n      0x20\n      add\n      0x01\n      dup3\n      add\n      dup1\n      sload\n      tag_209\n      swap1\n      tag_135\n      jump\t// in\n    tag_209:\n      dup1\n      0x1f\n      add\n      0x20\n      dup1\n      swap2\n      div\n      mul\n      0x20\n      add\n      mload(0x40)\n      swap1\n      dup2\n      add\n      0x40\n      mstore\n      dup1\n      swap3\n      swap2\n      swap1\n      dup2\n      dup2\n      mstore\n      0x20\n      add\n      dup3\n      dup1\n      sload\n      tag_210\n      swap1\n      tag_135\n      jump\t// in\n    tag_210:\n      dup1\n      iszero\n      tag_211\n      jumpi\n      dup1\n      0x1f\n      lt\n      tag_212\n      jumpi\n      0x0100\n      dup1\n      dup4\n      sload\n      div\n      mul\n      dup4\n      mstore\n      swap2\n      0x20\n      add\n      swap2\n      jump(tag_211)\n    tag_212:\n      dup3\n      add\n      swap2\n      swap1\n      0x00\n      mstore\n      keccak256(0x00, 0x20)\n      swap1\n    tag_213:\n      dup2\n      sload\n      dup2\n      mstore\n      swap1\n      0x01\n      add\n      swap1\n      0x20\n      add\n      dup1\n      dup4\n      gt\n      tag_213\n      jumpi\n      dup3\n      swap1\n      sub\n      0x1f\n      and\n      dup3\n      add\n      swap2\n    tag_211:\n      pop\n      pop\n      pop\n      pop\n      pop\n      dup2\n      mstore\n      pop\n      pop\n      dup2\n      mstore\n      0x20\n      add\n      0x06\n      dup3\n      add\n      sload\n      dup2\n      mstore\n      pop\n      pop\n        /* \"ComplaintSystem.sol\":5430:5450  unresolvedComplaints */\n      dup4\n        /* \"ComplaintSystem.sol\":5451:5465  currentIndex++ */\n      dup4\n      dup1\n      tag_214\n      swap1\n      tag_103\n      jump\t// in\n    tag_214:\n      swap5\n      pop\n        /* \"ComplaintSystem.sol\":5430:5466  unresolvedComplaints[currentIndex++] */\n      dup2\n      mload\n      dup2\n      lt\n      tag_215\n      jumpi\n      tag_216\n      tag_132\n      jump\t// in\n    tag_216:\n    tag_215:\n      0x20\n      mul\n      0x20\n      add\n      add\n        /* \"ComplaintSystem.sol\":5430:5482  unresolvedComplaints[currentIndex++] = complaints[i] */\n      dup2\n      swap1\n      mstore\n      pop\n        /* \"ComplaintSystem.sol\":5358:5498  if (complaints[i].status == ComplaintStatus.Pending) {... */\n    tag_194:\n        /* \"ComplaintSystem.sol\":5338:5341  i++ */\n      dup1\n      dup1\n      tag_217\n      swap1\n      tag_103\n      jump\t// in\n    tag_217:\n      swap2\n      pop\n      pop\n        /* \"ComplaintSystem.sol\":5298:5509  for (uint256 i = 0; i < complaintCount; i++) {... */\n      jump(tag_187)\n    tag_188:\n      pop\n        /* \"ComplaintSystem.sol\":5526:5546  unresolvedComplaints */\n      dup2\n        /* \"ComplaintSystem.sol\":5519:5546  return unresolvedComplaints */\n      swap4\n      pop\n      pop\n      pop\n      pop\n        /* \"ComplaintSystem.sol\":4865:5554  function getUnresolvedComplaints() external view returns (Complaint[] memory) {... */\n      swap1\n      jump\t// out\n        /* \"ComplaintSystem.sol\":138:176  mapping(address => bool) public isUser */\n    tag_58:\n      mstore(0x20, 0x01)\n      dup1\n      0x00\n      mstore\n      keccak256(0x00, 0x40)\n      0x00\n      swap2\n      pop\n      sload\n      swap1\n      0x0100\n      exp\n      swap1\n      div\n      0xff\n      and\n      dup2\n      jump\t// out\n        /* \"ComplaintSystem.sol\":1656:1775  function registerUser() external {... */\n    tag_61:\n        /* \"ComplaintSystem.sol\":1721:1725  true */\n      0x01\n        /* \"ComplaintSystem.sol\":1700:1706  isUser */\n      dup1\n        /* \"ComplaintSystem.sol\":1700:1718  isUser[msg.sender] */\n      0x00\n        /* \"ComplaintSystem.sol\":1707:1717  msg.sender */\n      caller\n        /* \"ComplaintSystem.sol\":1700:1718  isUser[msg.sender] */\n      0xffffffffffffffffffffffffffffffffffffffff\n      and\n      0xffffffffffffffffffffffffffffffffffffffff\n      and\n      dup2\n      mstore\n      0x20\n      add\n      swap1\n      dup2\n      mstore\n      0x20\n      add\n      0x00\n      keccak256\n      0x00\n        /* \"ComplaintSystem.sol\":1700:1725  isUser[msg.sender] = true */\n      0x0100\n      exp\n      dup2\n      sload\n      dup2\n      0xff\n      mul\n      not\n      and\n      swap1\n      dup4\n      iszero\n      iszero\n      mul\n      or\n      swap1\n      sstore\n      pop\n        /* \"ComplaintSystem.sol\":1756:1766  msg.sender */\n      caller\n        /* \"ComplaintSystem.sol\":1741:1767  UserRegistered(msg.sender) */\n      0xffffffffffffffffffffffffffffffffffffffff\n      and\n      0x54db7a5cb4735e1aac1f53db512d3390390bb6637bd30ad4bf9fc98667d9b9b9\n      mload(0x40)\n      mload(0x40)\n      dup1\n      swap2\n      sub\n      swap1\n      log2\n        /* \"ComplaintSystem.sol\":1656:1775  function registerUser() external {... */\n      jump\t// out\n        /* \"ComplaintSystem.sol\":860:913  mapping(uint256 => Transaction[]) public transactions */\n    tag_64:\n      mstore(0x20, 0x03)\n      dup2\n      0x00\n      mstore\n      keccak256(0x00, 0x40)\n      dup2\n      dup2\n      sload\n      dup2\n      lt\n      tag_219\n      jumpi\n      0x00\n      dup1\n      revert\n    tag_219:\n      swap1\n      0x00\n      mstore\n      keccak256(0x00, 0x20)\n      swap1\n      0x02\n      mul\n      add\n      0x00\n      swap2\n      pop\n      swap2\n      pop\n      pop\n      dup1\n      0x00\n      add\n      0x00\n      swap1\n      sload\n      swap1\n      0x0100\n      exp\n      swap1\n      div\n      0xffffffffffffffffffffffffffffffffffffffff\n      and\n      swap1\n      dup1\n      0x00\n      add\n      0x14\n      swap1\n      sload\n      swap1\n      0x0100\n      exp\n      swap1\n      div\n      0xff\n      and\n      swap1\n      dup1\n      0x01\n      add\n      sload\n      swap1\n      pop\n      dup4\n      jump\t// out\n        /* \"ComplaintSystem.sol\":1783:1905  function registerAdmin() external {... */\n    tag_68:\n        /* \"ComplaintSystem.sol\":1850:1854  true */\n      0x01\n        /* \"ComplaintSystem.sol\":1828:1835  isAdmin */\n      0x00\n        /* \"ComplaintSystem.sol\":1828:1847  isAdmin[msg.sender] */\n      dup1\n        /* \"ComplaintSystem.sol\":1836:1846  msg.sender */\n      caller\n        /* \"ComplaintSystem.sol\":1828:1847  isAdmin[msg.sender] */\n      0xffffffffffffffffffffffffffffffffffffffff\n      and\n      0xffffffffffffffffffffffffffffffffffffffff\n      and\n      dup2\n      mstore\n      0x20\n      add\n      swap1\n      dup2\n      mstore\n      0x20\n      add\n      0x00\n      keccak256\n      0x00\n        /* \"ComplaintSystem.sol\":1828:1854  isAdmin[msg.sender] = true */\n      0x0100\n      exp\n      dup2\n      sload\n      dup2\n      0xff\n      mul\n      not\n      and\n      swap1\n      dup4\n      iszero\n      iszero\n      mul\n      or\n      swap1\n      sstore\n      pop\n        /* \"ComplaintSystem.sol\":1886:1896  msg.sender */\n      caller\n        /* \"ComplaintSystem.sol\":1870:1897  AdminRegistered(msg.sender) */\n      0xffffffffffffffffffffffffffffffffffffffff\n      and\n      0xac0f15283d37631c15b481bc07dc402bcfc030956bcd94b5585f71d92e84c3da\n      mload(0x40)\n      mload(0x40)\n      dup1\n      swap2\n      sub\n      swap1\n      log2\n        /* \"ComplaintSystem.sol\":1783:1905  function registerAdmin() external {... */\n      jump\t// out\n        /* \"ComplaintSystem.sol\":2815:2946  function accessComplaint(uint256 _complaintId) external {... */\n    tag_72:\n        /* \"ComplaintSystem.sol\":2882:2938  _addTransaction(_complaintId, msg.sender, Action.Access) */\n      tag_223\n        /* \"ComplaintSystem.sol\":2898:2910  _complaintId */\n      dup2\n        /* \"ComplaintSystem.sol\":2912:2922  msg.sender */\n      caller\n        /* \"ComplaintSystem.sol\":2924:2937  Action.Access */\n      0x00\n        /* \"ComplaintSystem.sol\":2882:2897  _addTransaction */\n      tag_169\n        /* \"ComplaintSystem.sol\":2882:2938  _addTransaction(_complaintId, msg.sender, Action.Access) */\n      jump\t// in\n    tag_223:\n        /* \"ComplaintSystem.sol\":2815:2946  function accessComplaint(uint256 _complaintId) external {... */\n      pop\n      jump\t// out\n        /* \"ComplaintSystem.sol\":806:853  mapping(uint256 => Complaint) public complaints */\n    tag_75:\n      mstore(0x20, 0x02)\n      dup1\n      0x00\n      mstore\n      keccak256(0x00, 0x40)\n      0x00\n      swap2\n      pop\n      swap1\n      pop\n      dup1\n      0x00\n      add\n      sload\n      swap1\n      dup1\n      0x01\n      add\n      0x00\n      swap1\n      sload\n      swap1\n      0x0100\n      exp\n      swap1\n      div\n      0xffffffffffffffffffffffffffffffffffffffff\n      and\n      swap1\n      dup1\n      0x02\n      add\n      dup1\n      sload\n      tag_224\n      swap1\n      tag_135\n      jump\t// in\n    tag_224:\n      dup1\n      0x1f\n      add\n      0x20\n      dup1\n      swap2\n      div\n      mul\n      0x20\n      add\n      mload(0x40)\n      swap1\n      dup2\n      add\n      0x40\n      mstore\n      dup1\n      swap3\n      swap2\n      swap1\n      dup2\n      dup2\n      mstore\n      0x20\n      add\n      dup3\n      dup1\n      sload\n      tag_225\n      swap1\n      tag_135\n      jump\t// in\n    tag_225:\n      dup1\n      iszero\n      tag_226\n      jumpi\n      dup1\n      0x1f\n      lt\n      tag_227\n      jumpi\n      0x0100\n      dup1\n      dup4\n      sload\n      div\n      mul\n      dup4\n      mstore\n      swap2\n      0x20\n      add\n      swap2\n      jump(tag_226)\n    tag_227:\n      dup3\n      add\n      swap2\n      swap1\n      0x00\n      mstore\n      keccak256(0x00, 0x20)\n      swap1\n    tag_228:\n      dup2\n      sload\n      dup2\n      mstore\n      swap1\n      0x01\n      add\n      swap1\n      0x20\n      add\n      dup1\n      dup4\n      gt\n      tag_228\n      jumpi\n      dup3\n      swap1\n      sub\n      0x1f\n      and\n      dup3\n      add\n      swap2\n    tag_226:\n      pop\n      pop\n      pop\n      pop\n      pop\n      swap1\n      dup1\n      0x03\n      add\n      0x00\n      swap1\n      sload\n      swap1\n      0x0100\n      exp\n      swap1\n      div\n      0xff\n      and\n      swap1\n      dup1\n      0x04\n      add\n      mload(0x40)\n      dup1\n      0x40\n      add\n      0x40\n      mstore\n      swap1\n      dup2\n      0x00\n      dup3\n      add\n      dup1\n      sload\n      tag_229\n      swap1\n      tag_135\n      jump\t// in\n    tag_229:\n      dup1\n      0x1f\n      add\n      0x20\n      dup1\n      swap2\n      div\n      mul\n      0x20\n      add\n      mload(0x40)\n      swap1\n      dup2\n      add\n      0x40\n      mstore\n      dup1\n      swap3\n      swap2\n      swap1\n      dup2\n      dup2\n      mstore\n      0x20\n      add\n      dup3\n      dup1\n      sload\n      tag_230\n      swap1\n      tag_135\n      jump\t// in\n    tag_230:\n      dup1\n      iszero\n      tag_231\n      jumpi\n      dup1\n      0x1f\n      lt\n      tag_232\n      jumpi\n      0x0100\n      dup1\n      dup4\n      sload\n      div\n      mul\n      dup4\n      mstore\n      swap2\n      0x20\n      add\n      swap2\n      jump(tag_231)\n    tag_232:\n      dup3\n      add\n      swap2\n      swap1\n      0x00\n      mstore\n      keccak256(0x00, 0x20)\n      swap1\n    tag_233:\n      dup2\n      sload\n      dup2\n      mstore\n      swap1\n      0x01\n      add\n      swap1\n      0x20\n      add\n      dup1\n      dup4\n      gt\n      tag_233\n      jumpi\n      dup3\n      swap1\n      sub\n      0x1f\n      and\n      dup3\n      add\n      swap2\n    tag_231:\n      pop\n      pop\n      pop\n      pop\n      pop\n      dup2\n      mstore\n      0x20\n      add\n      0x01\n      dup3\n      add\n      dup1\n      sload\n      tag_234\n      swap1\n      tag_135\n      jump\t// in\n    tag_234:\n      dup1\n      0x1f\n      add\n      0x20\n      dup1\n      swap2\n      div\n      mul\n      0x20\n      add\n      mload(0x40)\n      swap1\n      dup2\n      add\n      0x40\n      mstore\n      dup1\n      swap3\n      swap2\n      swap1\n      dup2\n      dup2\n      mstore\n      0x20\n      add\n      dup3\n      dup1\n      sload\n      tag_235\n      swap1\n      tag_135\n      jump\t// in\n    tag_235:\n      dup1\n      iszero\n      tag_236\n      jumpi\n      dup1\n      0x1f\n      lt\n      tag_237\n      jumpi\n      0x0100\n      dup1\n      dup4\n      sload\n      div\n      mul\n      dup4\n      mstore\n      swap2\n      0x20\n      add\n      swap2\n      jump(tag_236)\n    tag_237:\n      dup3\n      add\n      swap2\n      swap1\n      0x00\n      mstore\n      keccak256(0x00, 0x20)\n      swap1\n    tag_238:\n      dup2\n      sload\n      dup2\n      mstore\n      swap1\n      0x01\n      add\n      swap1\n      0x20\n      add\n      dup1\n      dup4\n      gt\n      tag_238\n      jumpi\n      dup3\n      swap1\n      sub\n      0x1f\n      and\n      dup3\n      add\n      swap2\n    tag_236:\n      pop\n      pop\n      pop\n      pop\n      pop\n      dup2\n      mstore\n      pop\n      pop\n      swap1\n      dup1\n      0x06\n      add\n      sload\n      swap1\n      pop\n      dup7\n      jump\t// out\n        /* \"ComplaintSystem.sol\":5562:5710  function getTransactionsById(uint256 _complaintId) external view returns (Transaction[] memory) {... */\n    tag_80:\n        /* \"ComplaintSystem.sol\":5636:5656  Transaction[] memory */\n      0x60\n        /* \"ComplaintSystem.sol\":5676:5688  transactions */\n      0x03\n        /* \"ComplaintSystem.sol\":5676:5702  transactions[_complaintId] */\n      0x00\n        /* \"ComplaintSystem.sol\":5689:5701  _complaintId */\n      dup4\n        /* \"ComplaintSystem.sol\":5676:5702  transactions[_complaintId] */\n      dup2\n      mstore\n      0x20\n      add\n      swap1\n      dup2\n      mstore\n      0x20\n      add\n      0x00\n      keccak256\n        /* \"ComplaintSystem.sol\":5669:5702  return transactions[_complaintId] */\n      dup1\n      sload\n      dup1\n      0x20\n      mul\n      0x20\n      add\n      mload(0x40)\n      swap1\n      dup2\n      add\n      0x40\n      mstore\n      dup1\n      swap3\n      swap2\n      swap1\n      dup2\n      dup2\n      mstore\n      0x20\n      add\n      0x00\n      swap1\n    tag_240:\n      dup3\n      dup3\n      lt\n      iszero\n      tag_241\n      jumpi\n      dup4\n      dup3\n      swap1\n      0x00\n      mstore\n      keccak256(0x00, 0x20)\n      swap1\n      0x02\n      mul\n      add\n      mload(0x40)\n      dup1\n      0x60\n      add\n      0x40\n      mstore\n      swap1\n      dup2\n      0x00\n      dup3\n      add\n      0x00\n      swap1\n      sload\n      swap1\n      0x0100\n      exp\n      swap1\n      div\n      0xffffffffffffffffffffffffffffffffffffffff\n      and\n      0xffffffffffffffffffffffffffffffffffffffff\n      and\n      0xffffffffffffffffffffffffffffffffffffffff\n      and\n      dup2\n      mstore\n      0x20\n      add\n      0x00\n      dup3\n      add\n      0x14\n      swap1\n      sload\n      swap1\n      0x0100\n      exp\n      swap1\n      div\n      0xff\n      and\n      0x02\n      dup2\n      gt\n      iszero\n      tag_243\n      jumpi\n      tag_244\n      tag_106\n      jump\t// in\n    tag_244:\n    tag_243:\n      0x02\n      dup2\n      gt\n      iszero\n      tag_245\n      jumpi\n      tag_246\n      tag_106\n      jump\t// in\n    tag_246:\n    tag_245:\n      dup2\n      mstore\n      0x20\n      add\n      0x01\n      dup3\n      add\n      sload\n      dup2\n      mstore\n      pop\n      pop\n      dup2\n      mstore\n      0x20\n      add\n      swap1\n      0x01\n      add\n      swap1\n      jump(tag_240)\n    tag_241:\n      pop\n      pop\n      pop\n      pop\n      swap1\n      pop\n        /* \"ComplaintSystem.sol\":5562:5710  function getTransactionsById(uint256 _complaintId) external view returns (Transaction[] memory) {... */\n      swap2\n      swap1\n      pop\n      jump\t// out\n        /* \"ComplaintSystem.sol\":3551:4201  function getUserComplaints(address _user) external view returns (Complaint[] memory) {... */\n    tag_85:\n        /* \"ComplaintSystem.sol\":3616:3634  Complaint[] memory */\n      0x60\n        /* \"ComplaintSystem.sol\":3647:3674  uint256 userComplaintsCount */\n      0x00\n        /* \"ComplaintSystem.sol\":3694:3703  uint256 i */\n      dup1\n        /* \"ComplaintSystem.sol\":3689:3856  for (uint256 i = 0; i < complaintCount; i++) {... */\n    tag_248:\n        /* \"ComplaintSystem.sol\":3713:3727  complaintCount */\n      sload(0x05)\n        /* \"ComplaintSystem.sol\":3709:3710  i */\n      dup2\n        /* \"ComplaintSystem.sol\":3709:3727  i < complaintCount */\n      lt\n        /* \"ComplaintSystem.sol\":3689:3856  for (uint256 i = 0; i < complaintCount; i++) {... */\n      iszero\n      tag_249\n      jumpi\n        /* \"ComplaintSystem.sol\":3782:3787  _user */\n      dup4\n        /* \"ComplaintSystem.sol\":3753:3787  complaints[i].complainant == _user */\n      0xffffffffffffffffffffffffffffffffffffffff\n      and\n        /* \"ComplaintSystem.sol\":3753:3763  complaints */\n      0x02\n        /* \"ComplaintSystem.sol\":3753:3766  complaints[i] */\n      0x00\n        /* \"ComplaintSystem.sol\":3764:3765  i */\n      dup4\n        /* \"ComplaintSystem.sol\":3753:3766  complaints[i] */\n      dup2\n      mstore\n      0x20\n      add\n      swap1\n      dup2\n      mstore\n      0x20\n      add\n      0x00\n      keccak256\n        /* \"ComplaintSystem.sol\":3753:3778  complaints[i].complainant */\n      0x01\n      add\n      0x00\n      swap1\n      sload\n      swap1\n      0x0100\n      exp\n      swap1\n      div\n      0xffffffffffffffffffffffffffffffffffffffff\n      and\n        /* \"ComplaintSystem.sol\":3753:3787  complaints[i].complainant == _user */\n      0xffffffffffffffffffffffffffffffffffffffff\n      and\n      sub\n        /* \"ComplaintSystem.sol\":3749:3845  if (complaints[i].complainant == _user) {... */\n      tag_251\n      jumpi\n        /* \"ComplaintSystem.sol\":3808:3829  userComplaintsCount++ */\n      dup2\n      dup1\n      tag_252\n      swap1\n      tag_103\n      jump\t// in\n    tag_252:\n      swap3\n      pop\n      pop\n        /* \"ComplaintSystem.sol\":3749:3845  if (complaints[i].complainant == _user) {... */\n    tag_251:\n        /* \"ComplaintSystem.sol\":3729:3732  i++ */\n      dup1\n      dup1\n      tag_253\n      swap1\n      tag_103\n      jump\t// in\n    tag_253:\n      swap2\n      pop\n      pop\n        /* \"ComplaintSystem.sol\":3689:3856  for (uint256 i = 0; i < complaintCount; i++) {... */\n      jump(tag_248)\n    tag_249:\n      pop\n        /* \"ComplaintSystem.sol\":3866:3899  Complaint[] memory userComplaints */\n      0x00\n        /* \"ComplaintSystem.sol\":3918:3937  userComplaintsCount */\n      dup2\n        /* \"ComplaintSystem.sol\":3902:3938  new Complaint[](userComplaintsCount) */\n      0xffffffffffffffff\n      dup2\n      gt\n      iszero\n      tag_254\n      jumpi\n      tag_255\n      tag_118\n      jump\t// in\n    tag_255:\n    tag_254:\n      mload(0x40)\n      swap1\n      dup1\n      dup3\n      mstore\n      dup1\n      0x20\n      mul\n      0x20\n      add\n      dup3\n      add\n      0x40\n      mstore\n      dup1\n      iszero\n      tag_256\n      jumpi\n      dup2\n      0x20\n      add\n    tag_257:\n      tag_258\n      tag_186\n      jump\t// in\n    tag_258:\n      dup2\n      mstore\n      0x20\n      add\n      swap1\n      0x01\n      swap1\n      sub\n      swap1\n      dup2\n      tag_257\n      jumpi\n      swap1\n      pop\n    tag_256:\n      pop\n        /* \"ComplaintSystem.sol\":3866:3938  Complaint[] memory userComplaints = new Complaint[](userComplaintsCount) */\n      swap1\n      pop\n        /* \"ComplaintSystem.sol\":3949:3962  uint256 index */\n      0x00\n        /* \"ComplaintSystem.sol\":3982:3991  uint256 i */\n      dup1\n        /* \"ComplaintSystem.sol\":3977:4162  for (uint256 i = 0; i < complaintCount; i++) {... */\n    tag_259:\n        /* \"ComplaintSystem.sol\":4001:4015  complaintCount */\n      sload(0x05)\n        /* \"ComplaintSystem.sol\":3997:3998  i */\n      dup2\n        /* \"ComplaintSystem.sol\":3997:4015  i < complaintCount */\n      lt\n        /* \"ComplaintSystem.sol\":3977:4162  for (uint256 i = 0; i < complaintCount; i++) {... */\n      iszero\n      tag_260\n      jumpi\n        /* \"ComplaintSystem.sol\":4070:4075  _user */\n      dup6\n        /* \"ComplaintSystem.sol\":4041:4075  complaints[i].complainant == _user */\n      0xffffffffffffffffffffffffffffffffffffffff\n      and\n        /* \"ComplaintSystem.sol\":4041:4051  complaints */\n      0x02\n        /* \"ComplaintSystem.sol\":4041:4054  complaints[i] */\n      0x00\n        /* \"ComplaintSystem.sol\":4052:4053  i */\n      dup4\n        /* \"ComplaintSystem.sol\":4041:4054  complaints[i] */\n      dup2\n      mstore\n      0x20\n      add\n      swap1\n      dup2\n      mstore\n      0x20\n      add\n      0x00\n      keccak256\n        /* \"ComplaintSystem.sol\":4041:4066  complaints[i].complainant */\n      0x01\n      add\n      0x00\n      swap1\n      sload\n      swap1\n      0x0100\n      exp\n      swap1\n      div\n      0xffffffffffffffffffffffffffffffffffffffff\n      and\n        /* \"ComplaintSystem.sol\":4041:4075  complaints[i].complainant == _user */\n      0xffffffffffffffffffffffffffffffffffffffff\n      and\n      sub\n        /* \"ComplaintSystem.sol\":4037:4151  if (complaints[i].complainant == _user) {... */\n      tag_262\n      jumpi\n        /* \"ComplaintSystem.sol\":4122:4132  complaints */\n      0x02\n        /* \"ComplaintSystem.sol\":4122:4135  complaints[i] */\n      0x00\n        /* \"ComplaintSystem.sol\":4133:4134  i */\n      dup3\n        /* \"ComplaintSystem.sol\":4122:4135  complaints[i] */\n      dup2\n      mstore\n      0x20\n      add\n      swap1\n      dup2\n      mstore\n      0x20\n      add\n      0x00\n      keccak256\n        /* \"ComplaintSystem.sol\":4096:4135  userComplaints[index++] = complaints[i] */\n      mload(0x40)\n      dup1\n      0xc0\n      add\n      0x40\n      mstore\n      swap1\n      dup2\n      0x00\n      dup3\n      add\n      sload\n      dup2\n      mstore\n      0x20\n      add\n      0x01\n      dup3\n      add\n      0x00\n      swap1\n      sload\n      swap1\n      0x0100\n      exp\n      swap1\n      div\n      0xffffffffffffffffffffffffffffffffffffffff\n      and\n      0xffffffffffffffffffffffffffffffffffffffff\n      and\n      0xffffffffffffffffffffffffffffffffffffffff\n      and\n      dup2\n      mstore\n      0x20\n      add\n      0x02\n      dup3\n      add\n      dup1\n      sload\n      tag_263\n      swap1\n      tag_135\n      jump\t// in\n    tag_263:\n      dup1\n      0x1f\n      add\n      0x20\n      dup1\n      swap2\n      div\n      mul\n      0x20\n      add\n      mload(0x40)\n      swap1\n      dup2\n      add\n      0x40\n      mstore\n      dup1\n      swap3\n      swap2\n      swap1\n      dup2\n      dup2\n      mstore\n      0x20\n      add\n      dup3\n      dup1\n      sload\n      tag_264\n      swap1\n      tag_135\n      jump\t// in\n    tag_264:\n      dup1\n      iszero\n      tag_265\n      jumpi\n      dup1\n      0x1f\n      lt\n      tag_266\n      jumpi\n      0x0100\n      dup1\n      dup4\n      sload\n      div\n      mul\n      dup4\n      mstore\n      swap2\n      0x20\n      add\n      swap2\n      jump(tag_265)\n    tag_266:\n      dup3\n      add\n      swap2\n      swap1\n      0x00\n      mstore\n      keccak256(0x00, 0x20)\n      swap1\n    tag_267:\n      dup2\n      sload\n      dup2\n      mstore\n      swap1\n      0x01\n      add\n      swap1\n      0x20\n      add\n      dup1\n      dup4\n      gt\n      tag_267\n      jumpi\n      dup3\n      swap1\n      sub\n      0x1f\n      and\n      dup3\n      add\n      swap2\n    tag_265:\n      pop\n      pop\n      pop\n      pop\n      pop\n      dup2\n      mstore\n      0x20\n      add\n      0x03\n      dup3\n      add\n      0x00\n      swap1\n      sload\n      swap1\n      0x0100\n      exp\n      swap1\n      div\n      0xff\n      and\n      0x01\n      dup2\n      gt\n      iszero\n      tag_268\n      jumpi\n      tag_269\n      tag_106\n      jump\t// in\n    tag_269:\n    tag_268:\n      0x01\n      dup2\n      gt\n      iszero\n      tag_270\n      jumpi\n      tag_271\n      tag_106\n      jump\t// in\n    tag_271:\n    tag_270:\n      dup2\n      mstore\n      0x20\n      add\n      0x04\n      dup3\n      add\n      mload(0x40)\n      dup1\n      0x40\n      add\n      0x40\n      mstore\n      swap1\n      dup2\n      0x00\n      dup3\n      add\n      dup1\n      sload\n      tag_272\n      swap1\n      tag_135\n      jump\t// in\n    tag_272:\n      dup1\n      0x1f\n      add\n      0x20\n      dup1\n      swap2\n      div\n      mul\n      0x20\n      add\n      mload(0x40)\n      swap1\n      dup2\n      add\n      0x40\n      mstore\n      dup1\n      swap3\n      swap2\n      swap1\n      dup2\n      dup2\n      mstore\n      0x20\n      add\n      dup3\n      dup1\n      sload\n      tag_273\n      swap1\n      tag_135\n      jump\t// in\n    tag_273:\n      dup1\n      iszero\n      tag_274\n      jumpi\n      dup1\n      0x1f\n      lt\n      tag_275\n      jumpi\n      0x0100\n      dup1\n      dup4\n      sload\n      div\n      mul\n      dup4\n      mstore\n      swap2\n      0x20\n      add\n      swap2\n      jump(tag_274)\n    tag_275:\n      dup3\n      add\n      swap2\n      swap1\n      0x00\n      mstore\n      keccak256(0x00, 0x20)\n      swap1\n    tag_276:\n      dup2\n      sload\n      dup2\n      mstore\n      swap1\n      0x01\n      add\n      swap1\n      0x20\n      add\n      dup1\n      dup4\n      gt\n      tag_276\n      jumpi\n      dup3\n      swap1\n      sub\n      0x1f\n      and\n      dup3\n      add\n      swap2\n    tag_274:\n      pop\n      pop\n      pop\n      pop\n      pop\n      dup2\n      mstore\n      0x20\n      add\n      0x01\n      dup3\n      add\n      dup1\n      sload\n      tag_277\n      swap1\n      tag_135\n      jump\t// in\n    tag_277:\n      dup1\n      0x1f\n      add\n      0x20\n      dup1\n      swap2\n      div\n      mul\n      0x20\n      add\n      mload(0x40)\n      swap1\n      dup2\n      add\n      0x40\n      mstore\n      dup1\n      swap3\n      swap2\n      swap1\n      dup2\n      dup2\n      mstore\n      0x20\n      add\n      dup3\n      dup1\n      sload\n      tag_278\n      swap1\n      tag_135\n      jump\t// in\n    tag_278:\n      dup1\n      iszero\n      tag_279\n      jumpi\n      dup1\n      0x1f\n      lt\n      tag_280\n      jumpi\n      0x0100\n      dup1\n      dup4\n      sload\n      div\n      mul\n      dup4\n      mstore\n      swap2\n      0x20\n      add\n      swap2\n      jump(tag_279)\n    tag_280:\n      dup3\n      add\n      swap2\n      swap1\n      0x00\n      mstore\n      keccak256(0x00, 0x20)\n      swap1\n    tag_281:\n      dup2\n      sload\n      dup2\n      mstore\n      swap1\n      0x01\n      add\n      swap1\n      0x20\n      add\n      dup1\n      dup4\n      gt\n      tag_281\n      jumpi\n      dup3\n      swap1\n      sub\n      0x1f\n      and\n      dup3\n      add\n      swap2\n    tag_279:\n      pop\n      pop\n      pop\n      pop\n      pop\n      dup2\n      mstore\n      pop\n      pop\n      dup2\n      mstore\n      0x20\n      add\n      0x06\n      dup3\n      add\n      sload\n      dup2\n      mstore\n      pop\n      pop\n        /* \"ComplaintSystem.sol\":4096:4110  userComplaints */\n      dup4\n        /* \"ComplaintSystem.sol\":4111:4118  index++ */\n      dup4\n      dup1\n      tag_282\n      swap1\n      tag_103\n      jump\t// in\n    tag_282:\n      swap5\n      pop\n        /* \"ComplaintSystem.sol\":4096:4119  userComplaints[index++] */\n      dup2\n      mload\n      dup2\n      lt\n      tag_283\n      jumpi\n      tag_284\n      tag_132\n      jump\t// in\n    tag_284:\n    tag_283:\n      0x20\n      mul\n      0x20\n      add\n      add\n        /* \"ComplaintSystem.sol\":4096:4135  userComplaints[index++] = complaints[i] */\n      dup2\n      swap1\n      mstore\n      pop\n        /* \"ComplaintSystem.sol\":4037:4151  if (complaints[i].complainant == _user) {... */\n    tag_262:\n        /* \"ComplaintSystem.sol\":4017:4020  i++ */\n      dup1\n      dup1\n      tag_285\n      swap1\n      tag_103\n      jump\t// in\n    tag_285:\n      swap2\n      pop\n      pop\n        /* \"ComplaintSystem.sol\":3977:4162  for (uint256 i = 0; i < complaintCount; i++) {... */\n      jump(tag_259)\n    tag_260:\n      pop\n        /* \"ComplaintSystem.sol\":4179:4193  userComplaints */\n      dup2\n        /* \"ComplaintSystem.sol\":4172:4193  return userComplaints */\n      swap4\n      pop\n      pop\n      pop\n      pop\n        /* \"ComplaintSystem.sol\":3551:4201  function getUserComplaints(address _user) external view returns (Complaint[] memory) {... */\n      swap2\n      swap1\n      pop\n      jump\t// out\n        /* \"ComplaintSystem.sol\":2954:3229  function replyToComplaint(uint256 _complaintId, string memory _replyText) external onlyAdmin {... */\n    tag_89:\n        /* \"ComplaintSystem.sol\":1047:1054  isAdmin */\n      0x00\n        /* \"ComplaintSystem.sol\":1047:1066  isAdmin[msg.sender] */\n      dup1\n        /* \"ComplaintSystem.sol\":1055:1065  msg.sender */\n      caller\n        /* \"ComplaintSystem.sol\":1047:1066  isAdmin[msg.sender] */\n      0xffffffffffffffffffffffffffffffffffffffff\n      and\n      0xffffffffffffffffffffffffffffffffffffffff\n      and\n      dup2\n      mstore\n      0x20\n      add\n      swap1\n      dup2\n      mstore\n      0x20\n      add\n      0x00\n      keccak256\n      0x00\n      swap1\n      sload\n      swap1\n      0x0100\n      exp\n      swap1\n      div\n      0xff\n      and\n        /* \"ComplaintSystem.sol\":1039:1104  require(isAdmin[msg.sender], \"Only admin can call this function\") */\n      tag_287\n      jumpi\n      mload(0x40)\n      0x08c379a000000000000000000000000000000000000000000000000000000000\n      dup2\n      mstore\n      0x04\n      add\n      tag_288\n      swap1\n      tag_155\n      jump\t// in\n    tag_288:\n      mload(0x40)\n      dup1\n      swap2\n      sub\n      swap1\n      revert\n    tag_287:\n        /* \"ComplaintSystem.sol\":3058:3065  replies */\n      0x04\n        /* \"ComplaintSystem.sol\":3058:3079  replies[_complaintId] */\n      0x00\n        /* \"ComplaintSystem.sol\":3066:3078  _complaintId */\n      dup4\n        /* \"ComplaintSystem.sol\":3058:3079  replies[_complaintId] */\n      dup2\n      mstore\n      0x20\n      add\n      swap1\n      dup2\n      mstore\n      0x20\n      add\n      0x00\n      keccak256\n        /* \"ComplaintSystem.sol\":3085:3131  Reply(msg.sender, _replyText, block.timestamp) */\n      mload(0x40)\n      dup1\n      0x60\n      add\n      0x40\n      mstore\n      dup1\n        /* \"ComplaintSystem.sol\":3091:3101  msg.sender */\n      caller\n        /* \"ComplaintSystem.sol\":3085:3131  Reply(msg.sender, _replyText, block.timestamp) */\n      0xffffffffffffffffffffffffffffffffffffffff\n      and\n      dup2\n      mstore\n      0x20\n      add\n        /* \"ComplaintSystem.sol\":3103:3113  _replyText */\n      dup4\n        /* \"ComplaintSystem.sol\":3085:3131  Reply(msg.sender, _replyText, block.timestamp) */\n      dup2\n      mstore\n      0x20\n      add\n        /* \"ComplaintSystem.sol\":3115:3130  block.timestamp */\n      timestamp\n        /* \"ComplaintSystem.sol\":3085:3131  Reply(msg.sender, _replyText, block.timestamp) */\n      dup2\n      mstore\n      pop\n        /* \"ComplaintSystem.sol\":3058:3132  replies[_complaintId].push(Reply(msg.sender, _replyText, block.timestamp)) */\n      swap1\n      dup1\n      0x01\n      dup2\n      sload\n      add\n      dup1\n      dup3\n      sstore\n      dup1\n      swap2\n      pop\n      pop\n      0x01\n      swap1\n      sub\n      swap1\n      0x00\n      mstore\n      keccak256(0x00, 0x20)\n      swap1\n      0x03\n      mul\n      add\n      0x00\n      swap1\n      swap2\n      swap1\n      swap2\n      swap1\n      swap2\n      pop\n      0x00\n      dup3\n      add\n      mload\n      dup2\n      0x00\n      add\n      exp(0x0100, 0x00)\n      dup2\n      sload\n      dup2\n      0xffffffffffffffffffffffffffffffffffffffff\n      mul\n      not\n      and\n      swap1\n      dup4\n      0xffffffffffffffffffffffffffffffffffffffff\n      and\n      mul\n      or\n      swap1\n      sstore\n      pop\n      0x20\n      dup3\n      add\n      mload\n      dup2\n      0x01\n      add\n      swap1\n      dup2\n      tag_291\n      swap2\n      swap1\n      tag_108\n      jump\t// in\n    tag_291:\n      pop\n      0x40\n      dup3\n      add\n      mload\n      dup2\n      0x02\n      add\n      sstore\n      pop\n      pop\n        /* \"ComplaintSystem.sol\":3179:3189  msg.sender */\n      caller\n        /* \"ComplaintSystem.sol\":3148:3221  TransactionAdded(_complaintId, msg.sender, Action.Reply, block.timestamp) */\n      0xffffffffffffffffffffffffffffffffffffffff\n      and\n        /* \"ComplaintSystem.sol\":3165:3177  _complaintId */\n      dup3\n        /* \"ComplaintSystem.sol\":3148:3221  TransactionAdded(_complaintId, msg.sender, Action.Reply, block.timestamp) */\n      0x5fde78e53658418a994f35a31fbb22a8ce49370b8678f1663a93e196b8e8896e\n        /* \"ComplaintSystem.sol\":3191:3203  Action.Reply */\n      0x02\n        /* \"ComplaintSystem.sol\":3205:3220  block.timestamp */\n      timestamp\n        /* \"ComplaintSystem.sol\":3148:3221  TransactionAdded(_complaintId, msg.sender, Action.Reply, block.timestamp) */\n      mload(0x40)\n      tag_292\n      swap3\n      swap2\n      swap1\n      tag_293\n      jump\t// in\n    tag_292:\n      mload(0x40)\n      dup1\n      swap2\n      sub\n      swap1\n      log3\n        /* \"ComplaintSystem.sol\":2954:3229  function replyToComplaint(uint256 _complaintId, string memory _replyText) external onlyAdmin {... */\n      pop\n      pop\n      jump\t// out\n        /* \"ComplaintSystem.sol\":5718:5850  function getRepliesById(uint256 _complaintId) external view returns (Reply[] memory) {... */\n    tag_92:\n        /* \"ComplaintSystem.sol\":5787:5801  Reply[] memory */\n      0x60\n        /* \"ComplaintSystem.sol\":5821:5828  replies */\n      0x04\n        /* \"ComplaintSystem.sol\":5821:5842  replies[_complaintId] */\n      0x00\n        /* \"ComplaintSystem.sol\":5829:5841  _complaintId */\n      dup4\n        /* \"ComplaintSystem.sol\":5821:5842  replies[_complaintId] */\n      dup2\n      mstore\n      0x20\n      add\n      swap1\n      dup2\n      mstore\n      0x20\n      add\n      0x00\n      keccak256\n        /* \"ComplaintSystem.sol\":5814:5842  return replies[_complaintId] */\n      dup1\n      sload\n      dup1\n      0x20\n      mul\n      0x20\n      add\n      mload(0x40)\n      swap1\n      dup2\n      add\n      0x40\n      mstore\n      dup1\n      swap3\n      swap2\n      swap1\n      dup2\n      dup2\n      mstore\n      0x20\n      add\n      0x00\n      swap1\n    tag_295:\n      dup3\n      dup3\n      lt\n      iszero\n      tag_296\n      jumpi\n      dup4\n      dup3\n      swap1\n      0x00\n      mstore\n      keccak256(0x00, 0x20)\n      swap1\n      0x03\n      mul\n      add\n      mload(0x40)\n      dup1\n      0x60\n      add\n      0x40\n      mstore\n      swap1\n      dup2\n      0x00\n      dup3\n      add\n      0x00\n      swap1\n      sload\n      swap1\n      0x0100\n      exp\n      swap1\n      div\n      0xffffffffffffffffffffffffffffffffffffffff\n      and\n      0xffffffffffffffffffffffffffffffffffffffff\n      and\n      0xffffffffffffffffffffffffffffffffffffffff\n      and\n      dup2\n      mstore\n      0x20\n      add\n      0x01\n      dup3\n      add\n      dup1\n      sload\n      tag_298\n      swap1\n      tag_135\n      jump\t// in\n    tag_298:\n      dup1\n      0x1f\n      add\n      0x20\n      dup1\n      swap2\n      div\n      mul\n      0x20\n      add\n      mload(0x40)\n      swap1\n      dup2\n      add\n      0x40\n      mstore\n      dup1\n      swap3\n      swap2\n      swap1\n      dup2\n      dup2\n      mstore\n      0x20\n      add\n      dup3\n      dup1\n      sload\n      tag_299\n      swap1\n      tag_135\n      jump\t// in\n    tag_299:\n      dup1\n      iszero\n      tag_300\n      jumpi\n      dup1\n      0x1f\n      lt\n      tag_301\n      jumpi\n      0x0100\n      dup1\n      dup4\n      sload\n      div\n      mul\n      dup4\n      mstore\n      swap2\n      0x20\n      add\n      swap2\n      jump(tag_300)\n    tag_301:\n      dup3\n      add\n      swap2\n      swap1\n      0x00\n      mstore\n      keccak256(0x00, 0x20)\n      swap1\n    tag_302:\n      dup2\n      sload\n      dup2\n      mstore\n      swap1\n      0x01\n      add\n      swap1\n      0x20\n      add\n      dup1\n      dup4\n      gt\n      tag_302\n      jumpi\n      dup3\n      swap1\n      sub\n      0x1f\n      and\n      dup3\n      add\n      swap2\n    tag_300:\n      pop\n      pop\n      pop\n      pop\n      pop\n      dup2\n      mstore\n      0x20\n      add\n      0x02\n      dup3\n      add\n      sload\n      dup2\n      mstore\n      pop\n      pop\n      dup2\n      mstore\n      0x20\n      add\n      swap1\n      0x01\n      add\n      swap1\n      jump(tag_295)\n    tag_296:\n      pop\n      pop\n      pop\n      pop\n      swap1\n      pop\n        /* \"ComplaintSystem.sol\":5718:5850  function getRepliesById(uint256 _complaintId) external view returns (Reply[] memory) {... */\n      swap2\n      swap1\n      pop\n      jump\t// out\n        /* \"ComplaintSystem.sol\":3237:3543  function _addTransaction(uint256 _complaintId, address _accessor, Action _actionType) internal {... */\n    tag_169:\n        /* \"ComplaintSystem.sol\":3343:3355  transactions */\n      0x03\n        /* \"ComplaintSystem.sol\":3343:3369  transactions[_complaintId] */\n      0x00\n        /* \"ComplaintSystem.sol\":3356:3368  _complaintId */\n      dup5\n        /* \"ComplaintSystem.sol\":3343:3369  transactions[_complaintId] */\n      dup2\n      mstore\n      0x20\n      add\n      swap1\n      dup2\n      mstore\n      0x20\n      add\n      0x00\n      keccak256\n        /* \"ComplaintSystem.sol\":3375:3427  Transaction(_accessor, _actionType, block.timestamp) */\n      mload(0x40)\n      dup1\n      0x60\n      add\n      0x40\n      mstore\n      dup1\n        /* \"ComplaintSystem.sol\":3387:3396  _accessor */\n      dup5\n        /* \"ComplaintSystem.sol\":3375:3427  Transaction(_accessor, _actionType, block.timestamp) */\n      0xffffffffffffffffffffffffffffffffffffffff\n      and\n      dup2\n      mstore\n      0x20\n      add\n        /* \"ComplaintSystem.sol\":3398:3409  _actionType */\n      dup4\n        /* \"ComplaintSystem.sol\":3375:3427  Transaction(_accessor, _actionType, block.timestamp) */\n      0x02\n      dup2\n      gt\n      iszero\n      tag_304\n      jumpi\n      tag_305\n      tag_106\n      jump\t// in\n    tag_305:\n    tag_304:\n      dup2\n      mstore\n      0x20\n      add\n        /* \"ComplaintSystem.sol\":3411:3426  block.timestamp */\n      timestamp\n        /* \"ComplaintSystem.sol\":3375:3427  Transaction(_accessor, _actionType, block.timestamp) */\n      dup2\n      mstore\n      pop\n        /* \"ComplaintSystem.sol\":3343:3428  transactions[_complaintId].push(Transaction(_accessor, _actionType, block.timestamp)) */\n      swap1\n      dup1\n      0x01\n      dup2\n      sload\n      add\n      dup1\n      dup3\n      sstore\n      dup1\n      swap2\n      pop\n      pop\n      0x01\n      swap1\n      sub\n      swap1\n      0x00\n      mstore\n      keccak256(0x00, 0x20)\n      swap1\n      0x02\n      mul\n      add\n      0x00\n      swap1\n      swap2\n      swap1\n      swap2\n      swap1\n      swap2\n      pop\n      0x00\n      dup3\n      add\n      mload\n      dup2\n      0x00\n      add\n      exp(0x0100, 0x00)\n      dup2\n      sload\n      dup2\n      0xffffffffffffffffffffffffffffffffffffffff\n      mul\n      not\n      and\n      swap1\n      dup4\n      0xffffffffffffffffffffffffffffffffffffffff\n      and\n      mul\n      or\n      swap1\n      sstore\n      pop\n      0x20\n      dup3\n      add\n      mload\n      dup2\n      0x00\n      add\n      exp(0x0100, 0x14)\n      dup2\n      sload\n      dup2\n      0xff\n      mul\n      not\n      and\n      swap1\n      dup4\n      0x02\n      dup2\n      gt\n      iszero\n      tag_307\n      jumpi\n      tag_308\n      tag_106\n      jump\t// in\n    tag_308:\n    tag_307:\n      mul\n      or\n      swap1\n      sstore\n      pop\n      0x40\n      dup3\n      add\n      mload\n      dup2\n      0x01\n      add\n      sstore\n      pop\n      pop\n        /* \"ComplaintSystem.sol\":3475:3484  _accessor */\n      dup2\n        /* \"ComplaintSystem.sol\":3444:3515  TransactionAdded(_complaintId, _accessor, _actionType, block.timestamp) */\n      0xffffffffffffffffffffffffffffffffffffffff\n      and\n        /* \"ComplaintSystem.sol\":3461:3473  _complaintId */\n      dup4\n        /* \"ComplaintSystem.sol\":3444:3515  TransactionAdded(_complaintId, _accessor, _actionType, block.timestamp) */\n      0x5fde78e53658418a994f35a31fbb22a8ce49370b8678f1663a93e196b8e8896e\n        /* \"ComplaintSystem.sol\":3486:3497  _actionType */\n      dup4\n        /* \"ComplaintSystem.sol\":3499:3514  block.timestamp */\n      timestamp\n        /* \"ComplaintSystem.sol\":3444:3515  TransactionAdded(_complaintId, _accessor, _actionType, block.timestamp) */\n      mload(0x40)\n      tag_309\n      swap3\n      swap2\n      swap1\n      tag_293\n      jump\t// in\n    tag_309:\n      mload(0x40)\n      dup1\n      swap2\n      sub\n      swap1\n      log3\n        /* \"ComplaintSystem.sol\":3237:3543  function _addTransaction(uint256 _complaintId, address _accessor, Action _actionType) internal {... */\n      pop\n      pop\n      pop\n      jump\t// out\n    tag_122:\n      mload(0x40)\n      dup1\n      0x60\n      add\n      0x40\n      mstore\n      dup1\n      and(0xffffffffffffffffffffffffffffffffffffffff, 0x00)\n      dup2\n      mstore\n      0x20\n      add\n      0x60\n      dup2\n      mstore\n      0x20\n      add\n      0x00\n      dup2\n      mstore\n      pop\n      swap1\n      jump\t// out\n    tag_186:\n      mload(0x40)\n      dup1\n      0xc0\n      add\n      0x40\n      mstore\n      dup1\n      0x00\n      dup2\n      mstore\n      0x20\n      add\n      and(0xffffffffffffffffffffffffffffffffffffffff, 0x00)\n      dup2\n      mstore\n      0x20\n      add\n      0x60\n      dup2\n      mstore\n      0x20\n      add\n      0x00\n      0x01\n      dup2\n      gt\n      iszero\n      tag_310\n      jumpi\n      tag_311\n      tag_106\n      jump\t// in\n    tag_311:\n    tag_310:\n      dup2\n      mstore\n      0x20\n      add\n      tag_312\n      tag_313\n      jump\t// in\n    tag_312:\n      dup2\n      mstore\n      0x20\n      add\n      0x00\n      dup2\n      mstore\n      pop\n      swap1\n      jump\t// out\n    tag_313:\n      mload(0x40)\n      dup1\n      0x40\n      add\n      0x40\n      mstore\n      dup1\n      0x60\n      dup2\n      mstore\n      0x20\n      add\n      0x60\n      dup2\n      mstore\n      pop\n      swap1\n      jump\t// out\n        /* \"#utility.yul\":7:82   */\n    tag_314:\n        /* \"#utility.yul\":40:46   */\n      0x00\n        /* \"#utility.yul\":73:75   */\n      0x40\n        /* \"#utility.yul\":67:76   */\n      mload\n        /* \"#utility.yul\":57:76   */\n      swap1\n      pop\n        /* \"#utility.yul\":7:82   */\n      swap1\n      jump\t// out\n        /* \"#utility.yul\":88:205   */\n    tag_315:\n        /* \"#utility.yul\":197:198   */\n      0x00\n        /* \"#utility.yul\":194:195   */\n      dup1\n        /* \"#utility.yul\":187:199   */\n      revert\n        /* \"#utility.yul\":211:328   */\n    tag_316:\n        /* \"#utility.yul\":320:321   */\n      0x00\n        /* \"#utility.yul\":317:318   */\n      dup1\n        /* \"#utility.yul\":310:322   */\n      revert\n        /* \"#utility.yul\":334:451   */\n    tag_317:\n        /* \"#utility.yul\":443:444   */\n      0x00\n        /* \"#utility.yul\":440:441   */\n      dup1\n        /* \"#utility.yul\":433:445   */\n      revert\n        /* \"#utility.yul\":457:574   */\n    tag_318:\n        /* \"#utility.yul\":566:567   */\n      0x00\n        /* \"#utility.yul\":563:564   */\n      dup1\n        /* \"#utility.yul\":556:568   */\n      revert\n        /* \"#utility.yul\":580:682   */\n    tag_319:\n        /* \"#utility.yul\":621:627   */\n      0x00\n        /* \"#utility.yul\":672:674   */\n      0x1f\n        /* \"#utility.yul\":668:675   */\n      not\n        /* \"#utility.yul\":663:665   */\n      0x1f\n        /* \"#utility.yul\":656:661   */\n      dup4\n        /* \"#utility.yul\":652:666   */\n      add\n        /* \"#utility.yul\":648:676   */\n      and\n        /* \"#utility.yul\":638:676   */\n      swap1\n      pop\n        /* \"#utility.yul\":580:682   */\n      swap2\n      swap1\n      pop\n      jump\t// out\n        /* \"#utility.yul\":688:868   */\n    tag_118:\n        /* \"#utility.yul\":736:813   */\n      0x4e487b7100000000000000000000000000000000000000000000000000000000\n        /* \"#utility.yul\":733:734   */\n      0x00\n        /* \"#utility.yul\":726:814   */\n      mstore\n        /* \"#utility.yul\":833:837   */\n      0x41\n        /* \"#utility.yul\":830:831   */\n      0x04\n        /* \"#utility.yul\":823:838   */\n      mstore\n        /* \"#utility.yul\":857:861   */\n      0x24\n        /* \"#utility.yul\":854:855   */\n      0x00\n        /* \"#utility.yul\":847:862   */\n      revert\n        /* \"#utility.yul\":874:1155   */\n    tag_320:\n        /* \"#utility.yul\":957:984   */\n      tag_412\n        /* \"#utility.yul\":979:983   */\n      dup3\n        /* \"#utility.yul\":957:984   */\n      tag_319\n      jump\t// in\n    tag_412:\n        /* \"#utility.yul\":949:955   */\n      dup2\n        /* \"#utility.yul\":945:985   */\n      add\n        /* \"#utility.yul\":1087:1093   */\n      dup2\n        /* \"#utility.yul\":1075:1085   */\n      dup2\n        /* \"#utility.yul\":1072:1094   */\n      lt\n        /* \"#utility.yul\":1051:1069   */\n      0xffffffffffffffff\n        /* \"#utility.yul\":1039:1049   */\n      dup3\n        /* \"#utility.yul\":1036:1070   */\n      gt\n        /* \"#utility.yul\":1033:1095   */\n      or\n        /* \"#utility.yul\":1030:1118   */\n      iszero\n      tag_413\n      jumpi\n        /* \"#utility.yul\":1098:1116   */\n      tag_414\n      tag_118\n      jump\t// in\n    tag_414:\n        /* \"#utility.yul\":1030:1118   */\n    tag_413:\n        /* \"#utility.yul\":1138:1148   */\n      dup1\n        /* \"#utility.yul\":1134:1136   */\n      0x40\n        /* \"#utility.yul\":1127:1149   */\n      mstore\n        /* \"#utility.yul\":917:1155   */\n      pop\n        /* \"#utility.yul\":874:1155   */\n      pop\n      pop\n      jump\t// out\n        /* \"#utility.yul\":1161:1290   */\n    tag_321:\n        /* \"#utility.yul\":1195:1201   */\n      0x00\n        /* \"#utility.yul\":1222:1242   */\n      tag_416\n      tag_314\n      jump\t// in\n    tag_416:\n        /* \"#utility.yul\":1212:1242   */\n      swap1\n      pop\n        /* \"#utility.yul\":1251:1284   */\n      tag_417\n        /* \"#utility.yul\":1279:1283   */\n      dup3\n        /* \"#utility.yul\":1271:1277   */\n      dup3\n        /* \"#utility.yul\":1251:1284   */\n      tag_320\n      jump\t// in\n    tag_417:\n        /* \"#utility.yul\":1161:1290   */\n      swap2\n      swap1\n      pop\n      jump\t// out\n        /* \"#utility.yul\":1296:1604   */\n    tag_322:\n        /* \"#utility.yul\":1358:1362   */\n      0x00\n        /* \"#utility.yul\":1448:1466   */\n      0xffffffffffffffff\n        /* \"#utility.yul\":1440:1446   */\n      dup3\n        /* \"#utility.yul\":1437:1467   */\n      gt\n        /* \"#utility.yul\":1434:1490   */\n      iszero\n      tag_419\n      jumpi\n        /* \"#utility.yul\":1470:1488   */\n      tag_420\n      tag_118\n      jump\t// in\n    tag_420:\n        /* \"#utility.yul\":1434:1490   */\n    tag_419:\n        /* \"#utility.yul\":1508:1537   */\n      tag_421\n        /* \"#utility.yul\":1530:1536   */\n      dup3\n        /* \"#utility.yul\":1508:1537   */\n      tag_319\n      jump\t// in\n    tag_421:\n        /* \"#utility.yul\":1500:1537   */\n      swap1\n      pop\n        /* \"#utility.yul\":1592:1596   */\n      0x20\n        /* \"#utility.yul\":1586:1590   */\n      dup2\n        /* \"#utility.yul\":1582:1597   */\n      add\n        /* \"#utility.yul\":1574:1597   */\n      swap1\n      pop\n        /* \"#utility.yul\":1296:1604   */\n      swap2\n      swap1\n      pop\n      jump\t// out\n        /* \"#utility.yul\":1610:1756   */\n    tag_323:\n        /* \"#utility.yul\":1707:1713   */\n      dup3\n        /* \"#utility.yul\":1702:1705   */\n      dup2\n        /* \"#utility.yul\":1697:1700   */\n      dup4\n        /* \"#utility.yul\":1684:1714   */\n      calldatacopy\n        /* \"#utility.yul\":1748:1749   */\n      0x00\n        /* \"#utility.yul\":1739:1745   */\n      dup4\n        /* \"#utility.yul\":1734:1737   */\n      dup4\n        /* \"#utility.yul\":1730:1746   */\n      add\n        /* \"#utility.yul\":1723:1750   */\n      mstore\n        /* \"#utility.yul\":1610:1756   */\n      pop\n      pop\n      pop\n      jump\t// out\n        /* \"#utility.yul\":1762:2187   */\n    tag_324:\n        /* \"#utility.yul\":1840:1845   */\n      0x00\n        /* \"#utility.yul\":1865:1931   */\n      tag_424\n        /* \"#utility.yul\":1881:1930   */\n      tag_425\n        /* \"#utility.yul\":1923:1929   */\n      dup5\n        /* \"#utility.yul\":1881:1930   */\n      tag_322\n      jump\t// in\n    tag_425:\n        /* \"#utility.yul\":1865:1931   */\n      tag_321\n      jump\t// in\n    tag_424:\n        /* \"#utility.yul\":1856:1931   */\n      swap1\n      pop\n        /* \"#utility.yul\":1954:1960   */\n      dup3\n        /* \"#utility.yul\":1947:1952   */\n      dup2\n        /* \"#utility.yul\":1940:1961   */\n      mstore\n        /* \"#utility.yul\":1992:1996   */\n      0x20\n        /* \"#utility.yul\":1985:1990   */\n      dup2\n        /* \"#utility.yul\":1981:1997   */\n      add\n        /* \"#utility.yul\":2030:2033   */\n      dup5\n        /* \"#utility.yul\":2021:2027   */\n      dup5\n        /* \"#utility.yul\":2016:2019   */\n      dup5\n        /* \"#utility.yul\":2012:2028   */\n      add\n        /* \"#utility.yul\":2009:2034   */\n      gt\n        /* \"#utility.yul\":2006:2118   */\n      iszero\n      tag_426\n      jumpi\n        /* \"#utility.yul\":2037:2116   */\n      tag_427\n      tag_318\n      jump\t// in\n    tag_427:\n        /* \"#utility.yul\":2006:2118   */\n    tag_426:\n        /* \"#utility.yul\":2127:2181   */\n      tag_428\n        /* \"#utility.yul\":2174:2180   */\n      dup5\n        /* \"#utility.yul\":2169:2172   */\n      dup3\n        /* \"#utility.yul\":2164:2167   */\n      dup6\n        /* \"#utility.yul\":2127:2181   */\n      tag_323\n      jump\t// in\n    tag_428:\n        /* \"#utility.yul\":1846:2187   */\n      pop\n        /* \"#utility.yul\":1762:2187   */\n      swap4\n      swap3\n      pop\n      pop\n      pop\n      jump\t// out\n        /* \"#utility.yul\":2207:2547   */\n    tag_325:\n        /* \"#utility.yul\":2263:2268   */\n      0x00\n        /* \"#utility.yul\":2312:2315   */\n      dup3\n        /* \"#utility.yul\":2305:2309   */\n      0x1f\n        /* \"#utility.yul\":2297:2303   */\n      dup4\n        /* \"#utility.yul\":2293:2310   */\n      add\n        /* \"#utility.yul\":2289:2316   */\n      slt\n        /* \"#utility.yul\":2279:2401   */\n      tag_430\n      jumpi\n        /* \"#utility.yul\":2320:2399   */\n      tag_431\n      tag_317\n      jump\t// in\n    tag_431:\n        /* \"#utility.yul\":2279:2401   */\n    tag_430:\n        /* \"#utility.yul\":2437:2443   */\n      dup2\n        /* \"#utility.yul\":2424:2444   */\n      calldataload\n        /* \"#utility.yul\":2462:2541   */\n      tag_432\n        /* \"#utility.yul\":2537:2540   */\n      dup5\n        /* \"#utility.yul\":2529:2535   */\n      dup3\n        /* \"#utility.yul\":2522:2526   */\n      0x20\n        /* \"#utility.yul\":2514:2520   */\n      dup7\n        /* \"#utility.yul\":2510:2527   */\n      add\n        /* \"#utility.yul\":2462:2541   */\n      tag_324\n      jump\t// in\n    tag_432:\n        /* \"#utility.yul\":2453:2541   */\n      swap2\n      pop\n        /* \"#utility.yul\":2269:2547   */\n      pop\n        /* \"#utility.yul\":2207:2547   */\n      swap3\n      swap2\n      pop\n      pop\n      jump\t// out\n        /* \"#utility.yul\":2553:3712   */\n    tag_25:\n        /* \"#utility.yul\":2660:2666   */\n      0x00\n        /* \"#utility.yul\":2668:2674   */\n      dup1\n        /* \"#utility.yul\":2676:2682   */\n      0x00\n        /* \"#utility.yul\":2725:2727   */\n      0x60\n        /* \"#utility.yul\":2713:2722   */\n      dup5\n        /* \"#utility.yul\":2704:2711   */\n      dup7\n        /* \"#utility.yul\":2700:2723   */\n      sub\n        /* \"#utility.yul\":2696:2728   */\n      slt\n        /* \"#utility.yul\":2693:2812   */\n      iszero\n      tag_434\n      jumpi\n        /* \"#utility.yul\":2731:2810   */\n      tag_435\n      tag_315\n      jump\t// in\n    tag_435:\n        /* \"#utility.yul\":2693:2812   */\n    tag_434:\n        /* \"#utility.yul\":2879:2880   */\n      0x00\n        /* \"#utility.yul\":2868:2877   */\n      dup5\n        /* \"#utility.yul\":2864:2881   */\n      add\n        /* \"#utility.yul\":2851:2882   */\n      calldataload\n        /* \"#utility.yul\":2909:2927   */\n      0xffffffffffffffff\n        /* \"#utility.yul\":2901:2907   */\n      dup2\n        /* \"#utility.yul\":2898:2928   */\n      gt\n        /* \"#utility.yul\":2895:3012   */\n      iszero\n      tag_436\n      jumpi\n        /* \"#utility.yul\":2931:3010   */\n      tag_437\n      tag_316\n      jump\t// in\n    tag_437:\n        /* \"#utility.yul\":2895:3012   */\n    tag_436:\n        /* \"#utility.yul\":3036:3099   */\n      tag_438\n        /* \"#utility.yul\":3091:3098   */\n      dup7\n        /* \"#utility.yul\":3082:3088   */\n      dup3\n        /* \"#utility.yul\":3071:3080   */\n      dup8\n        /* \"#utility.yul\":3067:3089   */\n      add\n        /* \"#utility.yul\":3036:3099   */\n      tag_325\n      jump\t// in\n    tag_438:\n        /* \"#utility.yul\":3026:3099   */\n      swap4\n      pop\n        /* \"#utility.yul\":2822:3109   */\n      pop\n        /* \"#utility.yul\":3176:3178   */\n      0x20\n        /* \"#utility.yul\":3165:3174   */\n      dup5\n        /* \"#utility.yul\":3161:3179   */\n      add\n        /* \"#utility.yul\":3148:3180   */\n      calldataload\n        /* \"#utility.yul\":3207:3225   */\n      0xffffffffffffffff\n        /* \"#utility.yul\":3199:3205   */\n      dup2\n        /* \"#utility.yul\":3196:3226   */\n      gt\n        /* \"#utility.yul\":3193:3310   */\n      iszero\n      tag_439\n      jumpi\n        /* \"#utility.yul\":3229:3308   */\n      tag_440\n      tag_316\n      jump\t// in\n    tag_440:\n        /* \"#utility.yul\":3193:3310   */\n    tag_439:\n        /* \"#utility.yul\":3334:3397   */\n      tag_441\n        /* \"#utility.yul\":3389:3396   */\n      dup7\n        /* \"#utility.yul\":3380:3386   */\n      dup3\n        /* \"#utility.yul\":3369:3378   */\n      dup8\n        /* \"#utility.yul\":3365:3387   */\n      add\n        /* \"#utility.yul\":3334:3397   */\n      tag_325\n      jump\t// in\n    tag_441:\n        /* \"#utility.yul\":3324:3397   */\n      swap3\n      pop\n        /* \"#utility.yul\":3119:3407   */\n      pop\n        /* \"#utility.yul\":3474:3476   */\n      0x40\n        /* \"#utility.yul\":3463:3472   */\n      dup5\n        /* \"#utility.yul\":3459:3477   */\n      add\n        /* \"#utility.yul\":3446:3478   */\n      calldataload\n        /* \"#utility.yul\":3505:3523   */\n      0xffffffffffffffff\n        /* \"#utility.yul\":3497:3503   */\n      dup2\n        /* \"#utility.yul\":3494:3524   */\n      gt\n        /* \"#utility.yul\":3491:3608   */\n      iszero\n      tag_442\n      jumpi\n        /* \"#utility.yul\":3527:3606   */\n      tag_443\n      tag_316\n      jump\t// in\n    tag_443:\n        /* \"#utility.yul\":3491:3608   */\n    tag_442:\n        /* \"#utility.yul\":3632:3695   */\n      tag_444\n        /* \"#utility.yul\":3687:3694   */\n      dup7\n        /* \"#utility.yul\":3678:3684   */\n      dup3\n        /* \"#utility.yul\":3667:3676   */\n      dup8\n        /* \"#utility.yul\":3663:3685   */\n      add\n        /* \"#utility.yul\":3632:3695   */\n      tag_325\n      jump\t// in\n    tag_444:\n        /* \"#utility.yul\":3622:3695   */\n      swap2\n      pop\n        /* \"#utility.yul\":3417:3705   */\n      pop\n        /* \"#utility.yul\":2553:3712   */\n      swap3\n      pop\n      swap3\n      pop\n      swap3\n      jump\t// out\n        /* \"#utility.yul\":3718:3844   */\n    tag_326:\n        /* \"#utility.yul\":3755:3762   */\n      0x00\n        /* \"#utility.yul\":3795:3837   */\n      0xffffffffffffffffffffffffffffffffffffffff\n        /* \"#utility.yul\":3788:3793   */\n      dup3\n        /* \"#utility.yul\":3784:3838   */\n      and\n        /* \"#utility.yul\":3773:3838   */\n      swap1\n      pop\n        /* \"#utility.yul\":3718:3844   */\n      swap2\n      swap1\n      pop\n      jump\t// out\n        /* \"#utility.yul\":3850:3946   */\n    tag_327:\n        /* \"#utility.yul\":3887:3894   */\n      0x00\n        /* \"#utility.yul\":3916:3940   */\n      tag_447\n        /* \"#utility.yul\":3934:3939   */\n      dup3\n        /* \"#utility.yul\":3916:3940   */\n      tag_326\n      jump\t// in\n    tag_447:\n        /* \"#utility.yul\":3905:3940   */\n      swap1\n      pop\n        /* \"#utility.yul\":3850:3946   */\n      swap2\n      swap1\n      pop\n      jump\t// out\n        /* \"#utility.yul\":3952:4074   */\n    tag_328:\n        /* \"#utility.yul\":4025:4049   */\n      tag_449\n        /* \"#utility.yul\":4043:4048   */\n      dup2\n        /* \"#utility.yul\":4025:4049   */\n      tag_327\n      jump\t// in\n    tag_449:\n        /* \"#utility.yul\":4018:4023   */\n      dup2\n        /* \"#utility.yul\":4015:4050   */\n      eq\n        /* \"#utility.yul\":4005:4068   */\n      tag_450\n      jumpi\n        /* \"#utility.yul\":4064:4065   */\n      0x00\n        /* \"#utility.yul\":4061:4062   */\n      dup1\n        /* \"#utility.yul\":4054:4066   */\n      revert\n        /* \"#utility.yul\":4005:4068   */\n    tag_450:\n        /* \"#utility.yul\":3952:4074   */\n      pop\n      jump\t// out\n        /* \"#utility.yul\":4080:4219   */\n    tag_329:\n        /* \"#utility.yul\":4126:4131   */\n      0x00\n        /* \"#utility.yul\":4164:4170   */\n      dup2\n        /* \"#utility.yul\":4151:4171   */\n      calldataload\n        /* \"#utility.yul\":4142:4171   */\n      swap1\n      pop\n        /* \"#utility.yul\":4180:4213   */\n      tag_452\n        /* \"#utility.yul\":4207:4212   */\n      dup2\n        /* \"#utility.yul\":4180:4213   */\n      tag_328\n      jump\t// in\n    tag_452:\n        /* \"#utility.yul\":4080:4219   */\n      swap3\n      swap2\n      pop\n      pop\n      jump\t// out\n        /* \"#utility.yul\":4225:4554   */\n    tag_29:\n        /* \"#utility.yul\":4284:4290   */\n      0x00\n        /* \"#utility.yul\":4333:4335   */\n      0x20\n        /* \"#utility.yul\":4321:4330   */\n      dup3\n        /* \"#utility.yul\":4312:4319   */\n      dup5\n        /* \"#utility.yul\":4308:4331   */\n      sub\n        /* \"#utility.yul\":4304:4336   */\n      slt\n        /* \"#utility.yul\":4301:4420   */\n      iszero\n      tag_454\n      jumpi\n        /* \"#utility.yul\":4339:4418   */\n      tag_455\n      tag_315\n      jump\t// in\n    tag_455:\n        /* \"#utility.yul\":4301:4420   */\n    tag_454:\n        /* \"#utility.yul\":4459:4460   */\n      0x00\n        /* \"#utility.yul\":4484:4537   */\n      tag_456\n        /* \"#utility.yul\":4529:4536   */\n      dup5\n        /* \"#utility.yul\":4520:4526   */\n      dup3\n        /* \"#utility.yul\":4509:4518   */\n      dup6\n        /* \"#utility.yul\":4505:4527   */\n      add\n        /* \"#utility.yul\":4484:4537   */\n      tag_329\n      jump\t// in\n    tag_456:\n        /* \"#utility.yul\":4474:4537   */\n      swap2\n      pop\n        /* \"#utility.yul\":4430:4547   */\n      pop\n        /* \"#utility.yul\":4225:4554   */\n      swap3\n      swap2\n      pop\n      pop\n      jump\t// out\n        /* \"#utility.yul\":4560:4695   */\n    tag_330:\n        /* \"#utility.yul\":4648:4654   */\n      0x00\n        /* \"#utility.yul\":4682:4687   */\n      dup2\n        /* \"#utility.yul\":4676:4688   */\n      mload\n        /* \"#utility.yul\":4666:4688   */\n      swap1\n      pop\n        /* \"#utility.yul\":4560:4695   */\n      swap2\n      swap1\n      pop\n      jump\t// out\n        /* \"#utility.yul\":4701:4906   */\n    tag_331:\n        /* \"#utility.yul\":4821:4832   */\n      0x00\n        /* \"#utility.yul\":4855:4861   */\n      dup3\n        /* \"#utility.yul\":4850:4853   */\n      dup3\n        /* \"#utility.yul\":4843:4862   */\n      mstore\n        /* \"#utility.yul\":4895:4899   */\n      0x20\n        /* \"#utility.yul\":4890:4893   */\n      dup3\n        /* \"#utility.yul\":4886:4900   */\n      add\n        /* \"#utility.yul\":4871:4900   */\n      swap1\n      pop\n        /* \"#utility.yul\":4701:4906   */\n      swap3\n      swap2\n      pop\n      pop\n      jump\t// out\n        /* \"#utility.yul\":4912:5065   */\n    tag_332:\n        /* \"#utility.yul\":5000:5004   */\n      0x00\n        /* \"#utility.yul\":5023:5026   */\n      dup2\n        /* \"#utility.yul\":5015:5026   */\n      swap1\n      pop\n        /* \"#utility.yul\":5053:5057   */\n      0x20\n        /* \"#utility.yul\":5048:5051   */\n      dup3\n        /* \"#utility.yul\":5044:5058   */\n      add\n        /* \"#utility.yul\":5036:5058   */\n      swap1\n      pop\n        /* \"#utility.yul\":4912:5065   */\n      swap2\n      swap1\n      pop\n      jump\t// out\n        /* \"#utility.yul\":5071:5179   */\n    tag_333:\n        /* \"#utility.yul\":5148:5172   */\n      tag_461\n        /* \"#utility.yul\":5166:5171   */\n      dup2\n        /* \"#utility.yul\":5148:5172   */\n      tag_327\n      jump\t// in\n    tag_461:\n        /* \"#utility.yul\":5143:5146   */\n      dup3\n        /* \"#utility.yul\":5136:5173   */\n      mstore\n        /* \"#utility.yul\":5071:5179   */\n      pop\n      pop\n      jump\t// out\n        /* \"#utility.yul\":5185:5284   */\n    tag_334:\n        /* \"#utility.yul\":5237:5243   */\n      0x00\n        /* \"#utility.yul\":5271:5276   */\n      dup2\n        /* \"#utility.yul\":5265:5277   */\n      mload\n        /* \"#utility.yul\":5255:5277   */\n      swap1\n      pop\n        /* \"#utility.yul\":5185:5284   */\n      swap2\n      swap1\n      pop\n      jump\t// out\n        /* \"#utility.yul\":5290:5449   */\n    tag_335:\n        /* \"#utility.yul\":5364:5375   */\n      0x00\n        /* \"#utility.yul\":5398:5404   */\n      dup3\n        /* \"#utility.yul\":5393:5396   */\n      dup3\n        /* \"#utility.yul\":5386:5405   */\n      mstore\n        /* \"#utility.yul\":5438:5442   */\n      0x20\n        /* \"#utility.yul\":5433:5436   */\n      dup3\n        /* \"#utility.yul\":5429:5443   */\n      add\n        /* \"#utility.yul\":5414:5443   */\n      swap1\n      pop\n        /* \"#utility.yul\":5290:5449   */\n      swap3\n      swap2\n      pop\n      pop\n      jump\t// out\n        /* \"#utility.yul\":5455:5701   */\n    tag_336:\n        /* \"#utility.yul\":5536:5537   */\n      0x00\n        /* \"#utility.yul\":5546:5659   */\n    tag_465:\n        /* \"#utility.yul\":5560:5566   */\n      dup4\n        /* \"#utility.yul\":5557:5558   */\n      dup2\n        /* \"#utility.yul\":5554:5567   */\n      lt\n        /* \"#utility.yul\":5546:5659   */\n      iszero\n      tag_467\n      jumpi\n        /* \"#utility.yul\":5645:5646   */\n      dup1\n        /* \"#utility.yul\":5640:5643   */\n      dup3\n        /* \"#utility.yul\":5636:5647   */\n      add\n        /* \"#utility.yul\":5630:5648   */\n      mload\n        /* \"#utility.yul\":5626:5627   */\n      dup2\n        /* \"#utility.yul\":5621:5624   */\n      dup5\n        /* \"#utility.yul\":5617:5628   */\n      add\n        /* \"#utility.yul\":5610:5649   */\n      mstore\n        /* \"#utility.yul\":5582:5584   */\n      0x20\n        /* \"#utility.yul\":5579:5580   */\n      dup2\n        /* \"#utility.yul\":5575:5585   */\n      add\n        /* \"#utility.yul\":5570:5585   */\n      swap1\n      pop\n        /* \"#utility.yul\":5546:5659   */\n      jump(tag_465)\n    tag_467:\n        /* \"#utility.yul\":5693:5694   */\n      0x00\n        /* \"#utility.yul\":5684:5690   */\n      dup5\n        /* \"#utility.yul\":5679:5682   */\n      dup5\n        /* \"#utility.yul\":5675:5691   */\n      add\n        /* \"#utility.yul\":5668:5695   */\n      mstore\n        /* \"#utility.yul\":5517:5701   */\n      pop\n        /* \"#utility.yul\":5455:5701   */\n      pop\n      pop\n      pop\n      jump\t// out\n        /* \"#utility.yul\":5707:6064   */\n    tag_337:\n        /* \"#utility.yul\":5785:5788   */\n      0x00\n        /* \"#utility.yul\":5813:5852   */\n      tag_469\n        /* \"#utility.yul\":5846:5851   */\n      dup3\n        /* \"#utility.yul\":5813:5852   */\n      tag_334\n      jump\t// in\n    tag_469:\n        /* \"#utility.yul\":5868:5929   */\n      tag_470\n        /* \"#utility.yul\":5922:5928   */\n      dup2\n        /* \"#utility.yul\":5917:5920   */\n      dup6\n        /* \"#utility.yul\":5868:5929   */\n      tag_335\n      jump\t// in\n    tag_470:\n        /* \"#utility.yul\":5861:5929   */\n      swap4\n      pop\n        /* \"#utility.yul\":5938:6003   */\n      tag_471\n        /* \"#utility.yul\":5996:6002   */\n      dup2\n        /* \"#utility.yul\":5991:5994   */\n      dup6\n        /* \"#utility.yul\":5984:5988   */\n      0x20\n        /* \"#utility.yul\":5977:5982   */\n      dup7\n        /* \"#utility.yul\":5973:5989   */\n      add\n        /* \"#utility.yul\":5938:6003   */\n      tag_336\n      jump\t// in\n    tag_471:\n        /* \"#utility.yul\":6028:6057   */\n      tag_472\n        /* \"#utility.yul\":6050:6056   */\n      dup2\n        /* \"#utility.yul\":6028:6057   */\n      tag_319\n      jump\t// in\n    tag_472:\n        /* \"#utility.yul\":6023:6026   */\n      dup5\n        /* \"#utility.yul\":6019:6058   */\n      add\n        /* \"#utility.yul\":6012:6058   */\n      swap2\n      pop\n        /* \"#utility.yul\":5789:6064   */\n      pop\n        /* \"#utility.yul\":5707:6064   */\n      swap3\n      swap2\n      pop\n      pop\n      jump\t// out\n        /* \"#utility.yul\":6070:6147   */\n    tag_338:\n        /* \"#utility.yul\":6107:6114   */\n      0x00\n        /* \"#utility.yul\":6136:6141   */\n      dup2\n        /* \"#utility.yul\":6125:6141   */\n      swap1\n      pop\n        /* \"#utility.yul\":6070:6147   */\n      swap2\n      swap1\n      pop\n      jump\t// out\n        /* \"#utility.yul\":6153:6261   */\n    tag_339:\n        /* \"#utility.yul\":6230:6254   */\n      tag_475\n        /* \"#utility.yul\":6248:6253   */\n      dup2\n        /* \"#utility.yul\":6230:6254   */\n      tag_338\n      jump\t// in\n    tag_475:\n        /* \"#utility.yul\":6225:6228   */\n      dup3\n        /* \"#utility.yul\":6218:6255   */\n      mstore\n        /* \"#utility.yul\":6153:6261   */\n      pop\n      pop\n      jump\t// out\n        /* \"#utility.yul\":6335:7116   */\n    tag_340:\n        /* \"#utility.yul\":6436:6439   */\n      0x00\n        /* \"#utility.yul\":6472:6476   */\n      0x60\n        /* \"#utility.yul\":6467:6470   */\n      dup4\n        /* \"#utility.yul\":6463:6477   */\n      add\n        /* \"#utility.yul\":6568:6572   */\n      0x00\n        /* \"#utility.yul\":6561:6566   */\n      dup4\n        /* \"#utility.yul\":6557:6573   */\n      add\n        /* \"#utility.yul\":6551:6574   */\n      mload\n        /* \"#utility.yul\":6587:6650   */\n      tag_477\n        /* \"#utility.yul\":6644:6648   */\n      0x00\n        /* \"#utility.yul\":6639:6642   */\n      dup7\n        /* \"#utility.yul\":6635:6649   */\n      add\n        /* \"#utility.yul\":6621:6633   */\n      dup3\n        /* \"#utility.yul\":6587:6650   */\n      tag_333\n      jump\t// in\n    tag_477:\n        /* \"#utility.yul\":6487:6660   */\n      pop\n        /* \"#utility.yul\":6747:6751   */\n      0x20\n        /* \"#utility.yul\":6740:6745   */\n      dup4\n        /* \"#utility.yul\":6736:6752   */\n      add\n        /* \"#utility.yul\":6730:6753   */\n      mload\n        /* \"#utility.yul\":6800:6803   */\n      dup5\n        /* \"#utility.yul\":6794:6798   */\n      dup3\n        /* \"#utility.yul\":6790:6804   */\n      sub\n        /* \"#utility.yul\":6783:6787   */\n      0x20\n        /* \"#utility.yul\":6778:6781   */\n      dup7\n        /* \"#utility.yul\":6774:6788   */\n      add\n        /* \"#utility.yul\":6767:6805   */\n      mstore\n        /* \"#utility.yul\":6826:6899   */\n      tag_478\n        /* \"#utility.yul\":6894:6898   */\n      dup3\n        /* \"#utility.yul\":6880:6892   */\n      dup3\n        /* \"#utility.yul\":6826:6899   */\n      tag_337\n      jump\t// in\n    tag_478:\n        /* \"#utility.yul\":6818:6899   */\n      swap2\n      pop\n        /* \"#utility.yul\":6670:6910   */\n      pop\n        /* \"#utility.yul\":6997:7001   */\n      0x40\n        /* \"#utility.yul\":6990:6995   */\n      dup4\n        /* \"#utility.yul\":6986:7002   */\n      add\n        /* \"#utility.yul\":6980:7003   */\n      mload\n        /* \"#utility.yul\":7016:7079   */\n      tag_479\n        /* \"#utility.yul\":7073:7077   */\n      0x40\n        /* \"#utility.yul\":7068:7071   */\n      dup7\n        /* \"#utility.yul\":7064:7078   */\n      add\n        /* \"#utility.yul\":7050:7062   */\n      dup3\n        /* \"#utility.yul\":7016:7079   */\n      tag_339\n      jump\t// in\n    tag_479:\n        /* \"#utility.yul\":6920:7089   */\n      pop\n        /* \"#utility.yul\":7106:7110   */\n      dup1\n        /* \"#utility.yul\":7099:7110   */\n      swap2\n      pop\n        /* \"#utility.yul\":6441:7116   */\n      pop\n        /* \"#utility.yul\":6335:7116   */\n      swap3\n      swap2\n      pop\n      pop\n      jump\t// out\n        /* \"#utility.yul\":7122:7362   */\n    tag_341:\n        /* \"#utility.yul\":7233:7243   */\n      0x00\n        /* \"#utility.yul\":7268:7356   */\n      tag_481\n        /* \"#utility.yul\":7352:7355   */\n      dup4\n        /* \"#utility.yul\":7344:7350   */\n      dup4\n        /* \"#utility.yul\":7268:7356   */\n      tag_340\n      jump\t// in\n    tag_481:\n        /* \"#utility.yul\":7254:7356   */\n      swap1\n      pop\n        /* \"#utility.yul\":7122:7362   */\n      swap3\n      swap2\n      pop\n      pop\n      jump\t// out\n        /* \"#utility.yul\":7368:7502   */\n    tag_342:\n        /* \"#utility.yul\":7459:7463   */\n      0x00\n        /* \"#utility.yul\":7491:7495   */\n      0x20\n        /* \"#utility.yul\":7486:7489   */\n      dup3\n        /* \"#utility.yul\":7482:7496   */\n      add\n        /* \"#utility.yul\":7474:7496   */\n      swap1\n      pop\n        /* \"#utility.yul\":7368:7502   */\n      swap2\n      swap1\n      pop\n      jump\t// out\n        /* \"#utility.yul\":7580:8659   */\n    tag_343:\n        /* \"#utility.yul\":7741:7744   */\n      0x00\n        /* \"#utility.yul\":7770:7845   */\n      tag_484\n        /* \"#utility.yul\":7839:7844   */\n      dup3\n        /* \"#utility.yul\":7770:7845   */\n      tag_330\n      jump\t// in\n    tag_484:\n        /* \"#utility.yul\":7861:7968   */\n      tag_485\n        /* \"#utility.yul\":7961:7967   */\n      dup2\n        /* \"#utility.yul\":7956:7959   */\n      dup6\n        /* \"#utility.yul\":7861:7968   */\n      tag_331\n      jump\t// in\n    tag_485:\n        /* \"#utility.yul\":7854:7968   */\n      swap4\n      pop\n        /* \"#utility.yul\":7994:7997   */\n      dup4\n        /* \"#utility.yul\":8039:8043   */\n      0x20\n        /* \"#utility.yul\":8031:8037   */\n      dup3\n        /* \"#utility.yul\":8027:8044   */\n      mul\n        /* \"#utility.yul\":8022:8025   */\n      dup6\n        /* \"#utility.yul\":8018:8045   */\n      add\n        /* \"#utility.yul\":8069:8146   */\n      tag_486\n        /* \"#utility.yul\":8140:8145   */\n      dup6\n        /* \"#utility.yul\":8069:8146   */\n      tag_332\n      jump\t// in\n    tag_486:\n        /* \"#utility.yul\":8169:8176   */\n      dup1\n        /* \"#utility.yul\":8200:8201   */\n      0x00\n        /* \"#utility.yul\":8185:8614   */\n    tag_487:\n        /* \"#utility.yul\":8210:8216   */\n      dup6\n        /* \"#utility.yul\":8207:8208   */\n      dup2\n        /* \"#utility.yul\":8204:8217   */\n      lt\n        /* \"#utility.yul\":8185:8614   */\n      iszero\n      tag_489\n      jumpi\n        /* \"#utility.yul\":8281:8290   */\n      dup5\n        /* \"#utility.yul\":8275:8279   */\n      dup5\n        /* \"#utility.yul\":8271:8291   */\n      sub\n        /* \"#utility.yul\":8266:8269   */\n      dup10\n        /* \"#utility.yul\":8259:8292   */\n      mstore\n        /* \"#utility.yul\":8332:8338   */\n      dup2\n        /* \"#utility.yul\":8326:8339   */\n      mload\n        /* \"#utility.yul\":8360:8466   */\n      tag_490\n        /* \"#utility.yul\":8461:8465   */\n      dup6\n        /* \"#utility.yul\":8446:8459   */\n      dup3\n        /* \"#utility.yul\":8360:8466   */\n      tag_341\n      jump\t// in\n    tag_490:\n        /* \"#utility.yul\":8352:8466   */\n      swap5\n      pop\n        /* \"#utility.yul\":8489:8570   */\n      tag_491\n        /* \"#utility.yul\":8563:8569   */\n      dup4\n        /* \"#utility.yul\":8489:8570   */\n      tag_342\n      jump\t// in\n    tag_491:\n        /* \"#utility.yul\":8479:8570   */\n      swap3\n      pop\n        /* \"#utility.yul\":8599:8603   */\n      0x20\n        /* \"#utility.yul\":8594:8597   */\n      dup11\n        /* \"#utility.yul\":8590:8604   */\n      add\n        /* \"#utility.yul\":8583:8604   */\n      swap10\n      pop\n        /* \"#utility.yul\":8245:8614   */\n      pop\n        /* \"#utility.yul\":8232:8233   */\n      0x01\n        /* \"#utility.yul\":8229:8230   */\n      dup2\n        /* \"#utility.yul\":8225:8234   */\n      add\n        /* \"#utility.yul\":8220:8234   */\n      swap1\n      pop\n        /* \"#utility.yul\":8185:8614   */\n      jump(tag_487)\n    tag_489:\n        /* \"#utility.yul\":8189:8203   */\n      pop\n        /* \"#utility.yul\":8630:8634   */\n      dup3\n        /* \"#utility.yul\":8623:8634   */\n      swap8\n      pop\n        /* \"#utility.yul\":8650:8653   */\n      dup8\n        /* \"#utility.yul\":8643:8653   */\n      swap6\n      pop\n        /* \"#utility.yul\":7746:8659   */\n      pop\n      pop\n      pop\n      pop\n      pop\n        /* \"#utility.yul\":7580:8659   */\n      swap3\n      swap2\n      pop\n      pop\n      jump\t// out\n        /* \"#utility.yul\":8665:9122   */\n    tag_32:\n        /* \"#utility.yul\":8850:8854   */\n      0x00\n        /* \"#utility.yul\":8888:8890   */\n      0x20\n        /* \"#utility.yul\":8877:8886   */\n      dup3\n        /* \"#utility.yul\":8873:8891   */\n      add\n        /* \"#utility.yul\":8865:8891   */\n      swap1\n      pop\n        /* \"#utility.yul\":8937:8946   */\n      dup2\n        /* \"#utility.yul\":8931:8935   */\n      dup2\n        /* \"#utility.yul\":8927:8947   */\n      sub\n        /* \"#utility.yul\":8923:8924   */\n      0x00\n        /* \"#utility.yul\":8912:8921   */\n      dup4\n        /* \"#utility.yul\":8908:8925   */\n      add\n        /* \"#utility.yul\":8901:8948   */\n      mstore\n        /* \"#utility.yul\":8965:9115   */\n      tag_493\n        /* \"#utility.yul\":9110:9114   */\n      dup2\n        /* \"#utility.yul\":9101:9107   */\n      dup5\n        /* \"#utility.yul\":8965:9115   */\n      tag_343\n      jump\t// in\n    tag_493:\n        /* \"#utility.yul\":8957:9115   */\n      swap1\n      pop\n        /* \"#utility.yul\":8665:9122   */\n      swap3\n      swap2\n      pop\n      pop\n      jump\t// out\n        /* \"#utility.yul\":9128:9250   */\n    tag_344:\n        /* \"#utility.yul\":9201:9225   */\n      tag_495\n        /* \"#utility.yul\":9219:9224   */\n      dup2\n        /* \"#utility.yul\":9201:9225   */\n      tag_338\n      jump\t// in\n    tag_495:\n        /* \"#utility.yul\":9194:9199   */\n      dup2\n        /* \"#utility.yul\":9191:9226   */\n      eq\n        /* \"#utility.yul\":9181:9244   */\n      tag_496\n      jumpi\n        /* \"#utility.yul\":9240:9241   */\n      0x00\n        /* \"#utility.yul\":9237:9238   */\n      dup1\n        /* \"#utility.yul\":9230:9242   */\n      revert\n        /* \"#utility.yul\":9181:9244   */\n    tag_496:\n        /* \"#utility.yul\":9128:9250   */\n      pop\n      jump\t// out\n        /* \"#utility.yul\":9256:9395   */\n    tag_345:\n        /* \"#utility.yul\":9302:9307   */\n      0x00\n        /* \"#utility.yul\":9340:9346   */\n      dup2\n        /* \"#utility.yul\":9327:9347   */\n      calldataload\n        /* \"#utility.yul\":9318:9347   */\n      swap1\n      pop\n        /* \"#utility.yul\":9356:9389   */\n      tag_498\n        /* \"#utility.yul\":9383:9388   */\n      dup2\n        /* \"#utility.yul\":9356:9389   */\n      tag_344\n      jump\t// in\n    tag_498:\n        /* \"#utility.yul\":9256:9395   */\n      swap3\n      swap2\n      pop\n      pop\n      jump\t// out\n        /* \"#utility.yul\":9401:9875   */\n    tag_35:\n        /* \"#utility.yul\":9469:9475   */\n      0x00\n        /* \"#utility.yul\":9477:9483   */\n      dup1\n        /* \"#utility.yul\":9526:9528   */\n      0x40\n        /* \"#utility.yul\":9514:9523   */\n      dup4\n        /* \"#utility.yul\":9505:9512   */\n      dup6\n        /* \"#utility.yul\":9501:9524   */\n      sub\n        /* \"#utility.yul\":9497:9529   */\n      slt\n        /* \"#utility.yul\":9494:9613   */\n      iszero\n      tag_500\n      jumpi\n        /* \"#utility.yul\":9532:9611   */\n      tag_501\n      tag_315\n      jump\t// in\n    tag_501:\n        /* \"#utility.yul\":9494:9613   */\n    tag_500:\n        /* \"#utility.yul\":9652:9653   */\n      0x00\n        /* \"#utility.yul\":9677:9730   */\n      tag_502\n        /* \"#utility.yul\":9722:9729   */\n      dup6\n        /* \"#utility.yul\":9713:9719   */\n      dup3\n        /* \"#utility.yul\":9702:9711   */\n      dup7\n        /* \"#utility.yul\":9698:9720   */\n      add\n        /* \"#utility.yul\":9677:9730   */\n      tag_345\n      jump\t// in\n    tag_502:\n        /* \"#utility.yul\":9667:9730   */\n      swap3\n      pop\n        /* \"#utility.yul\":9623:9740   */\n      pop\n        /* \"#utility.yul\":9779:9781   */\n      0x20\n        /* \"#utility.yul\":9805:9858   */\n      tag_503\n        /* \"#utility.yul\":9850:9857   */\n      dup6\n        /* \"#utility.yul\":9841:9847   */\n      dup3\n        /* \"#utility.yul\":9830:9839   */\n      dup7\n        /* \"#utility.yul\":9826:9848   */\n      add\n        /* \"#utility.yul\":9805:9858   */\n      tag_345\n      jump\t// in\n    tag_503:\n        /* \"#utility.yul\":9795:9858   */\n      swap2\n      pop\n        /* \"#utility.yul\":9750:9868   */\n      pop\n        /* \"#utility.yul\":9401:9875   */\n      swap3\n      pop\n      swap3\n      swap1\n      pop\n      jump\t// out\n        /* \"#utility.yul\":9881:9999   */\n    tag_346:\n        /* \"#utility.yul\":9968:9992   */\n      tag_505\n        /* \"#utility.yul\":9986:9991   */\n      dup2\n        /* \"#utility.yul\":9968:9992   */\n      tag_327\n      jump\t// in\n    tag_505:\n        /* \"#utility.yul\":9963:9966   */\n      dup3\n        /* \"#utility.yul\":9956:9993   */\n      mstore\n        /* \"#utility.yul\":9881:9999   */\n      pop\n      pop\n      jump\t// out\n        /* \"#utility.yul\":10005:10174   */\n    tag_347:\n        /* \"#utility.yul\":10089:10100   */\n      0x00\n        /* \"#utility.yul\":10123:10129   */\n      dup3\n        /* \"#utility.yul\":10118:10121   */\n      dup3\n        /* \"#utility.yul\":10111:10130   */\n      mstore\n        /* \"#utility.yul\":10163:10167   */\n      0x20\n        /* \"#utility.yul\":10158:10161   */\n      dup3\n        /* \"#utility.yul\":10154:10168   */\n      add\n        /* \"#utility.yul\":10139:10168   */\n      swap1\n      pop\n        /* \"#utility.yul\":10005:10174   */\n      swap3\n      swap2\n      pop\n      pop\n      jump\t// out\n        /* \"#utility.yul\":10180:10557   */\n    tag_348:\n        /* \"#utility.yul\":10268:10271   */\n      0x00\n        /* \"#utility.yul\":10296:10335   */\n      tag_508\n        /* \"#utility.yul\":10329:10334   */\n      dup3\n        /* \"#utility.yul\":10296:10335   */\n      tag_334\n      jump\t// in\n    tag_508:\n        /* \"#utility.yul\":10351:10422   */\n      tag_509\n        /* \"#utility.yul\":10415:10421   */\n      dup2\n        /* \"#utility.yul\":10410:10413   */\n      dup6\n        /* \"#utility.yul\":10351:10422   */\n      tag_347\n      jump\t// in\n    tag_509:\n        /* \"#utility.yul\":10344:10422   */\n      swap4\n      pop\n        /* \"#utility.yul\":10431:10496   */\n      tag_510\n        /* \"#utility.yul\":10489:10495   */\n      dup2\n        /* \"#utility.yul\":10484:10487   */\n      dup6\n        /* \"#utility.yul\":10477:10481   */\n      0x20\n        /* \"#utility.yul\":10470:10475   */\n      dup7\n        /* \"#utility.yul\":10466:10482   */\n      add\n        /* \"#utility.yul\":10431:10496   */\n      tag_336\n      jump\t// in\n    tag_510:\n        /* \"#utility.yul\":10521:10550   */\n      tag_511\n        /* \"#utility.yul\":10543:10549   */\n      dup2\n        /* \"#utility.yul\":10521:10550   */\n      tag_319\n      jump\t// in\n    tag_511:\n        /* \"#utility.yul\":10516:10519   */\n      dup5\n        /* \"#utility.yul\":10512:10551   */\n      add\n        /* \"#utility.yul\":10505:10551   */\n      swap2\n      pop\n        /* \"#utility.yul\":10272:10557   */\n      pop\n        /* \"#utility.yul\":10180:10557   */\n      swap3\n      swap2\n      pop\n      pop\n      jump\t// out\n        /* \"#utility.yul\":10563:10681   */\n    tag_349:\n        /* \"#utility.yul\":10650:10674   */\n      tag_513\n        /* \"#utility.yul\":10668:10673   */\n      dup2\n        /* \"#utility.yul\":10650:10674   */\n      tag_338\n      jump\t// in\n    tag_513:\n        /* \"#utility.yul\":10645:10648   */\n      dup3\n        /* \"#utility.yul\":10638:10675   */\n      mstore\n        /* \"#utility.yul\":10563:10681   */\n      pop\n      pop\n      jump\t// out\n        /* \"#utility.yul\":10687:11220   */\n    tag_38:\n        /* \"#utility.yul\":10856:10860   */\n      0x00\n        /* \"#utility.yul\":10894:10896   */\n      0x60\n        /* \"#utility.yul\":10883:10892   */\n      dup3\n        /* \"#utility.yul\":10879:10897   */\n      add\n        /* \"#utility.yul\":10871:10897   */\n      swap1\n      pop\n        /* \"#utility.yul\":10907:10978   */\n      tag_515\n        /* \"#utility.yul\":10975:10976   */\n      0x00\n        /* \"#utility.yul\":10964:10973   */\n      dup4\n        /* \"#utility.yul\":10960:10977   */\n      add\n        /* \"#utility.yul\":10951:10957   */\n      dup7\n        /* \"#utility.yul\":10907:10978   */\n      tag_346\n      jump\t// in\n    tag_515:\n        /* \"#utility.yul\":11025:11034   */\n      dup2\n        /* \"#utility.yul\":11019:11023   */\n      dup2\n        /* \"#utility.yul\":11015:11035   */\n      sub\n        /* \"#utility.yul\":11010:11012   */\n      0x20\n        /* \"#utility.yul\":10999:11008   */\n      dup4\n        /* \"#utility.yul\":10995:11013   */\n      add\n        /* \"#utility.yul\":10988:11036   */\n      mstore\n        /* \"#utility.yul\":11053:11131   */\n      tag_516\n        /* \"#utility.yul\":11126:11130   */\n      dup2\n        /* \"#utility.yul\":11117:11123   */\n      dup6\n        /* \"#utility.yul\":11053:11131   */\n      tag_348\n      jump\t// in\n    tag_516:\n        /* \"#utility.yul\":11045:11131   */\n      swap1\n      pop\n        /* \"#utility.yul\":11141:11213   */\n      tag_517\n        /* \"#utility.yul\":11209:11211   */\n      0x40\n        /* \"#utility.yul\":11198:11207   */\n      dup4\n        /* \"#utility.yul\":11194:11212   */\n      add\n        /* \"#utility.yul\":11185:11191   */\n      dup5\n        /* \"#utility.yul\":11141:11213   */\n      tag_349\n      jump\t// in\n    tag_517:\n        /* \"#utility.yul\":10687:11220   */\n      swap5\n      swap4\n      pop\n      pop\n      pop\n      pop\n      jump\t// out\n        /* \"#utility.yul\":11226:11316   */\n    tag_350:\n        /* \"#utility.yul\":11260:11267   */\n      0x00\n        /* \"#utility.yul\":11303:11308   */\n      dup2\n        /* \"#utility.yul\":11296:11309   */\n      iszero\n        /* \"#utility.yul\":11289:11310   */\n      iszero\n        /* \"#utility.yul\":11278:11310   */\n      swap1\n      pop\n        /* \"#utility.yul\":11226:11316   */\n      swap2\n      swap1\n      pop\n      jump\t// out\n        /* \"#utility.yul\":11322:11431   */\n    tag_351:\n        /* \"#utility.yul\":11403:11424   */\n      tag_520\n        /* \"#utility.yul\":11418:11423   */\n      dup2\n        /* \"#utility.yul\":11403:11424   */\n      tag_350\n      jump\t// in\n    tag_520:\n        /* \"#utility.yul\":11398:11401   */\n      dup3\n        /* \"#utility.yul\":11391:11425   */\n      mstore\n        /* \"#utility.yul\":11322:11431   */\n      pop\n      pop\n      jump\t// out\n        /* \"#utility.yul\":11437:11647   */\n    tag_43:\n        /* \"#utility.yul\":11524:11528   */\n      0x00\n        /* \"#utility.yul\":11562:11564   */\n      0x20\n        /* \"#utility.yul\":11551:11560   */\n      dup3\n        /* \"#utility.yul\":11547:11565   */\n      add\n        /* \"#utility.yul\":11539:11565   */\n      swap1\n      pop\n        /* \"#utility.yul\":11575:11640   */\n      tag_522\n        /* \"#utility.yul\":11637:11638   */\n      0x00\n        /* \"#utility.yul\":11626:11635   */\n      dup4\n        /* \"#utility.yul\":11622:11639   */\n      add\n        /* \"#utility.yul\":11613:11619   */\n      dup5\n        /* \"#utility.yul\":11575:11640   */\n      tag_351\n      jump\t// in\n    tag_522:\n        /* \"#utility.yul\":11437:11647   */\n      swap3\n      swap2\n      pop\n      pop\n      jump\t// out\n        /* \"#utility.yul\":11653:12307   */\n    tag_46:\n        /* \"#utility.yul\":11731:11737   */\n      0x00\n        /* \"#utility.yul\":11739:11745   */\n      dup1\n        /* \"#utility.yul\":11788:11790   */\n      0x40\n        /* \"#utility.yul\":11776:11785   */\n      dup4\n        /* \"#utility.yul\":11767:11774   */\n      dup6\n        /* \"#utility.yul\":11763:11786   */\n      sub\n        /* \"#utility.yul\":11759:11791   */\n      slt\n        /* \"#utility.yul\":11756:11875   */\n      iszero\n      tag_524\n      jumpi\n        /* \"#utility.yul\":11794:11873   */\n      tag_525\n      tag_315\n      jump\t// in\n    tag_525:\n        /* \"#utility.yul\":11756:11875   */\n    tag_524:\n        /* \"#utility.yul\":11914:11915   */\n      0x00\n        /* \"#utility.yul\":11939:11992   */\n      tag_526\n        /* \"#utility.yul\":11984:11991   */\n      dup6\n        /* \"#utility.yul\":11975:11981   */\n      dup3\n        /* \"#utility.yul\":11964:11973   */\n      dup7\n        /* \"#utility.yul\":11960:11982   */\n      add\n        /* \"#utility.yul\":11939:11992   */\n      tag_345\n      jump\t// in\n    tag_526:\n        /* \"#utility.yul\":11929:11992   */\n      swap3\n      pop\n        /* \"#utility.yul\":11885:12002   */\n      pop\n        /* \"#utility.yul\":12069:12071   */\n      0x20\n        /* \"#utility.yul\":12058:12067   */\n      dup4\n        /* \"#utility.yul\":12054:12072   */\n      add\n        /* \"#utility.yul\":12041:12073   */\n      calldataload\n        /* \"#utility.yul\":12100:12118   */\n      0xffffffffffffffff\n        /* \"#utility.yul\":12092:12098   */\n      dup2\n        /* \"#utility.yul\":12089:12119   */\n      gt\n        /* \"#utility.yul\":12086:12203   */\n      iszero\n      tag_527\n      jumpi\n        /* \"#utility.yul\":12122:12201   */\n      tag_528\n      tag_316\n      jump\t// in\n    tag_528:\n        /* \"#utility.yul\":12086:12203   */\n    tag_527:\n        /* \"#utility.yul\":12227:12290   */\n      tag_529\n        /* \"#utility.yul\":12282:12289   */\n      dup6\n        /* \"#utility.yul\":12273:12279   */\n      dup3\n        /* \"#utility.yul\":12262:12271   */\n      dup7\n        /* \"#utility.yul\":12258:12280   */\n      add\n        /* \"#utility.yul\":12227:12290   */\n      tag_325\n      jump\t// in\n    tag_529:\n        /* \"#utility.yul\":12217:12290   */\n      swap2\n      pop\n        /* \"#utility.yul\":12012:12300   */\n      pop\n        /* \"#utility.yul\":11653:12307   */\n      swap3\n      pop\n      swap3\n      swap1\n      pop\n      jump\t// out\n        /* \"#utility.yul\":12313:12535   */\n    tag_51:\n        /* \"#utility.yul\":12406:12410   */\n      0x00\n        /* \"#utility.yul\":12444:12446   */\n      0x20\n        /* \"#utility.yul\":12433:12442   */\n      dup3\n        /* \"#utility.yul\":12429:12447   */\n      add\n        /* \"#utility.yul\":12421:12447   */\n      swap1\n      pop\n        /* \"#utility.yul\":12457:12528   */\n      tag_531\n        /* \"#utility.yul\":12525:12526   */\n      0x00\n        /* \"#utility.yul\":12514:12523   */\n      dup4\n        /* \"#utility.yul\":12510:12527   */\n      add\n        /* \"#utility.yul\":12501:12507   */\n      dup5\n        /* \"#utility.yul\":12457:12528   */\n      tag_349\n      jump\t// in\n    tag_531:\n        /* \"#utility.yul\":12313:12535   */\n      swap3\n      swap2\n      pop\n      pop\n      jump\t// out\n        /* \"#utility.yul\":12541:12680   */\n    tag_352:\n        /* \"#utility.yul\":12633:12639   */\n      0x00\n        /* \"#utility.yul\":12667:12672   */\n      dup2\n        /* \"#utility.yul\":12661:12673   */\n      mload\n        /* \"#utility.yul\":12651:12673   */\n      swap1\n      pop\n        /* \"#utility.yul\":12541:12680   */\n      swap2\n      swap1\n      pop\n      jump\t// out\n        /* \"#utility.yul\":12686:12895   */\n    tag_353:\n        /* \"#utility.yul\":12810:12821   */\n      0x00\n        /* \"#utility.yul\":12844:12850   */\n      dup3\n        /* \"#utility.yul\":12839:12842   */\n      dup3\n        /* \"#utility.yul\":12832:12851   */\n      mstore\n        /* \"#utility.yul\":12884:12888   */\n      0x20\n        /* \"#utility.yul\":12879:12882   */\n      dup3\n        /* \"#utility.yul\":12875:12889   */\n      add\n        /* \"#utility.yul\":12860:12889   */\n      swap1\n      pop\n        /* \"#utility.yul\":12686:12895   */\n      swap3\n      swap2\n      pop\n      pop\n      jump\t// out\n        /* \"#utility.yul\":12901:13058   */\n    tag_354:\n        /* \"#utility.yul\":12993:12997   */\n      0x00\n        /* \"#utility.yul\":13016:13019   */\n      dup2\n        /* \"#utility.yul\":13008:13019   */\n      swap1\n      pop\n        /* \"#utility.yul\":13046:13050   */\n      0x20\n        /* \"#utility.yul\":13041:13044   */\n      dup3\n        /* \"#utility.yul\":13037:13051   */\n      add\n        /* \"#utility.yul\":13029:13051   */\n      swap1\n      pop\n        /* \"#utility.yul\":12901:13058   */\n      swap2\n      swap1\n      pop\n      jump\t// out\n        /* \"#utility.yul\":13064:13244   */\n    tag_106:\n        /* \"#utility.yul\":13112:13189   */\n      0x4e487b7100000000000000000000000000000000000000000000000000000000\n        /* \"#utility.yul\":13109:13110   */\n      0x00\n        /* \"#utility.yul\":13102:13190   */\n      mstore\n        /* \"#utility.yul\":13209:13213   */\n      0x21\n        /* \"#utility.yul\":13206:13207   */\n      0x04\n        /* \"#utility.yul\":13199:13214   */\n      mstore\n        /* \"#utility.yul\":13233:13237   */\n      0x24\n        /* \"#utility.yul\":13230:13231   */\n      0x00\n        /* \"#utility.yul\":13223:13238   */\n      revert\n        /* \"#utility.yul\":13250:13373   */\n    tag_355:\n        /* \"#utility.yul\":13341:13342   */\n      0x02\n        /* \"#utility.yul\":13334:13339   */\n      dup2\n        /* \"#utility.yul\":13331:13343   */\n      lt\n        /* \"#utility.yul\":13321:13367   */\n      tag_537\n      jumpi\n        /* \"#utility.yul\":13347:13365   */\n      tag_538\n      tag_106\n      jump\t// in\n    tag_538:\n        /* \"#utility.yul\":13321:13367   */\n    tag_537:\n        /* \"#utility.yul\":13250:13373   */\n      pop\n      jump\t// out\n        /* \"#utility.yul\":13379:13526   */\n    tag_356:\n        /* \"#utility.yul\":13434:13441   */\n      0x00\n        /* \"#utility.yul\":13463:13468   */\n      dup2\n        /* \"#utility.yul\":13452:13468   */\n      swap1\n      pop\n        /* \"#utility.yul\":13469:13520   */\n      tag_540\n        /* \"#utility.yul\":13514:13519   */\n      dup3\n        /* \"#utility.yul\":13469:13520   */\n      tag_355\n      jump\t// in\n    tag_540:\n        /* \"#utility.yul\":13379:13526   */\n      swap2\n      swap1\n      pop\n      jump\t// out\n        /* \"#utility.yul\":13532:13679   */\n    tag_357:\n        /* \"#utility.yul\":13598:13607   */\n      0x00\n        /* \"#utility.yul\":13631:13673   */\n      tag_542\n        /* \"#utility.yul\":13667:13672   */\n      dup3\n        /* \"#utility.yul\":13631:13673   */\n      tag_356\n      jump\t// in\n    tag_542:\n        /* \"#utility.yul\":13618:13673   */\n      swap1\n      pop\n        /* \"#utility.yul\":13532:13679   */\n      swap2\n      swap1\n      pop\n      jump\t// out\n        /* \"#utility.yul\":13685:13838   */\n    tag_358:\n        /* \"#utility.yul\":13778:13831   */\n      tag_544\n        /* \"#utility.yul\":13825:13830   */\n      dup2\n        /* \"#utility.yul\":13778:13831   */\n      tag_357\n      jump\t// in\n    tag_544:\n        /* \"#utility.yul\":13773:13776   */\n      dup3\n        /* \"#utility.yul\":13766:13832   */\n      mstore\n        /* \"#utility.yul\":13685:13838   */\n      pop\n      pop\n      jump\t// out\n        /* \"#utility.yul\":13910:14571   */\n    tag_359:\n        /* \"#utility.yul\":14009:14012   */\n      0x00\n        /* \"#utility.yul\":14045:14049   */\n      0x40\n        /* \"#utility.yul\":14040:14043   */\n      dup4\n        /* \"#utility.yul\":14036:14050   */\n      add\n        /* \"#utility.yul\":14136:14140   */\n      0x00\n        /* \"#utility.yul\":14129:14134   */\n      dup4\n        /* \"#utility.yul\":14125:14141   */\n      add\n        /* \"#utility.yul\":14119:14142   */\n      mload\n        /* \"#utility.yul\":14189:14192   */\n      dup5\n        /* \"#utility.yul\":14183:14187   */\n      dup3\n        /* \"#utility.yul\":14179:14193   */\n      sub\n        /* \"#utility.yul\":14172:14176   */\n      0x00\n        /* \"#utility.yul\":14167:14170   */\n      dup7\n        /* \"#utility.yul\":14163:14177   */\n      add\n        /* \"#utility.yul\":14156:14194   */\n      mstore\n        /* \"#utility.yul\":14215:14288   */\n      tag_546\n        /* \"#utility.yul\":14283:14287   */\n      dup3\n        /* \"#utility.yul\":14269:14281   */\n      dup3\n        /* \"#utility.yul\":14215:14288   */\n      tag_337\n      jump\t// in\n    tag_546:\n        /* \"#utility.yul\":14207:14288   */\n      swap2\n      pop\n        /* \"#utility.yul\":14060:14299   */\n      pop\n        /* \"#utility.yul\":14381:14385   */\n      0x20\n        /* \"#utility.yul\":14374:14379   */\n      dup4\n        /* \"#utility.yul\":14370:14386   */\n      add\n        /* \"#utility.yul\":14364:14387   */\n      mload\n        /* \"#utility.yul\":14434:14437   */\n      dup5\n        /* \"#utility.yul\":14428:14432   */\n      dup3\n        /* \"#utility.yul\":14424:14438   */\n      sub\n        /* \"#utility.yul\":14417:14421   */\n      0x20\n        /* \"#utility.yul\":14412:14415   */\n      dup7\n        /* \"#utility.yul\":14408:14422   */\n      add\n        /* \"#utility.yul\":14401:14439   */\n      mstore\n        /* \"#utility.yul\":14460:14533   */\n      tag_547\n        /* \"#utility.yul\":14528:14532   */\n      dup3\n        /* \"#utility.yul\":14514:14526   */\n      dup3\n        /* \"#utility.yul\":14460:14533   */\n      tag_337\n      jump\t// in\n    tag_547:\n        /* \"#utility.yul\":14452:14533   */\n      swap2\n      pop\n        /* \"#utility.yul\":14309:14544   */\n      pop\n        /* \"#utility.yul\":14561:14565   */\n      dup1\n        /* \"#utility.yul\":14554:14565   */\n      swap2\n      pop\n        /* \"#utility.yul\":14014:14571   */\n      pop\n        /* \"#utility.yul\":13910:14571   */\n      swap3\n      swap2\n      pop\n      pop\n      jump\t// out\n        /* \"#utility.yul\":14653:16071   */\n    tag_360:\n        /* \"#utility.yul\":14762:14765   */\n      0x00\n        /* \"#utility.yul\":14798:14802   */\n      0xc0\n        /* \"#utility.yul\":14793:14796   */\n      dup4\n        /* \"#utility.yul\":14789:14803   */\n      add\n        /* \"#utility.yul\":14883:14887   */\n      0x00\n        /* \"#utility.yul\":14876:14881   */\n      dup4\n        /* \"#utility.yul\":14872:14888   */\n      add\n        /* \"#utility.yul\":14866:14889   */\n      mload\n        /* \"#utility.yul\":14902:14965   */\n      tag_549\n        /* \"#utility.yul\":14959:14963   */\n      0x00\n        /* \"#utility.yul\":14954:14957   */\n      dup7\n        /* \"#utility.yul\":14950:14964   */\n      add\n        /* \"#utility.yul\":14936:14948   */\n      dup3\n        /* \"#utility.yul\":14902:14965   */\n      tag_339\n      jump\t// in\n    tag_549:\n        /* \"#utility.yul\":14813:14975   */\n      pop\n        /* \"#utility.yul\":15064:15068   */\n      0x20\n        /* \"#utility.yul\":15057:15062   */\n      dup4\n        /* \"#utility.yul\":15053:15069   */\n      add\n        /* \"#utility.yul\":15047:15070   */\n      mload\n        /* \"#utility.yul\":15083:15146   */\n      tag_550\n        /* \"#utility.yul\":15140:15144   */\n      0x20\n        /* \"#utility.yul\":15135:15138   */\n      dup7\n        /* \"#utility.yul\":15131:15145   */\n      add\n        /* \"#utility.yul\":15117:15129   */\n      dup3\n        /* \"#utility.yul\":15083:15146   */\n      tag_333\n      jump\t// in\n    tag_550:\n        /* \"#utility.yul\":14985:15156   */\n      pop\n        /* \"#utility.yul\":15245:15249   */\n      0x40\n        /* \"#utility.yul\":15238:15243   */\n      dup4\n        /* \"#utility.yul\":15234:15250   */\n      add\n        /* \"#utility.yul\":15228:15251   */\n      mload\n        /* \"#utility.yul\":15298:15301   */\n      dup5\n        /* \"#utility.yul\":15292:15296   */\n      dup3\n        /* \"#utility.yul\":15288:15302   */\n      sub\n        /* \"#utility.yul\":15281:15285   */\n      0x40\n        /* \"#utility.yul\":15276:15279   */\n      dup7\n        /* \"#utility.yul\":15272:15286   */\n      add\n        /* \"#utility.yul\":15265:15303   */\n      mstore\n        /* \"#utility.yul\":15324:15397   */\n      tag_551\n        /* \"#utility.yul\":15392:15396   */\n      dup3\n        /* \"#utility.yul\":15378:15390   */\n      dup3\n        /* \"#utility.yul\":15324:15397   */\n      tag_337\n      jump\t// in\n    tag_551:\n        /* \"#utility.yul\":15316:15397   */\n      swap2\n      pop\n        /* \"#utility.yul\":15166:15408   */\n      pop\n        /* \"#utility.yul\":15492:15496   */\n      0x60\n        /* \"#utility.yul\":15485:15490   */\n      dup4\n        /* \"#utility.yul\":15481:15497   */\n      add\n        /* \"#utility.yul\":15475:15498   */\n      mload\n        /* \"#utility.yul\":15511:15590   */\n      tag_552\n        /* \"#utility.yul\":15584:15588   */\n      0x60\n        /* \"#utility.yul\":15579:15582   */\n      dup7\n        /* \"#utility.yul\":15575:15589   */\n      add\n        /* \"#utility.yul\":15561:15573   */\n      dup3\n        /* \"#utility.yul\":15511:15590   */\n      tag_358\n      jump\t// in\n    tag_552:\n        /* \"#utility.yul\":15418:15600   */\n      pop\n        /* \"#utility.yul\":15682:15686   */\n      0x80\n        /* \"#utility.yul\":15675:15680   */\n      dup4\n        /* \"#utility.yul\":15671:15687   */\n      add\n        /* \"#utility.yul\":15665:15688   */\n      mload\n        /* \"#utility.yul\":15735:15738   */\n      dup5\n        /* \"#utility.yul\":15729:15733   */\n      dup3\n        /* \"#utility.yul\":15725:15739   */\n      sub\n        /* \"#utility.yul\":15718:15722   */\n      0x80\n        /* \"#utility.yul\":15713:15716   */\n      dup7\n        /* \"#utility.yul\":15709:15723   */\n      add\n        /* \"#utility.yul\":15702:15740   */\n      mstore\n        /* \"#utility.yul\":15761:15854   */\n      tag_553\n        /* \"#utility.yul\":15849:15853   */\n      dup3\n        /* \"#utility.yul\":15835:15847   */\n      dup3\n        /* \"#utility.yul\":15761:15854   */\n      tag_359\n      jump\t// in\n    tag_553:\n        /* \"#utility.yul\":15753:15854   */\n      swap2\n      pop\n        /* \"#utility.yul\":15610:15865   */\n      pop\n        /* \"#utility.yul\":15952:15956   */\n      0xa0\n        /* \"#utility.yul\":15945:15950   */\n      dup4\n        /* \"#utility.yul\":15941:15957   */\n      add\n        /* \"#utility.yul\":15935:15958   */\n      mload\n        /* \"#utility.yul\":15971:16034   */\n      tag_554\n        /* \"#utility.yul\":16028:16032   */\n      0xa0\n        /* \"#utility.yul\":16023:16026   */\n      dup7\n        /* \"#utility.yul\":16019:16033   */\n      add\n        /* \"#utility.yul\":16005:16017   */\n      dup3\n        /* \"#utility.yul\":15971:16034   */\n      tag_339\n      jump\t// in\n    tag_554:\n        /* \"#utility.yul\":15875:16044   */\n      pop\n        /* \"#utility.yul\":16061:16065   */\n      dup1\n        /* \"#utility.yul\":16054:16065   */\n      swap2\n      pop\n        /* \"#utility.yul\":14767:16071   */\n      pop\n        /* \"#utility.yul\":14653:16071   */\n      swap3\n      swap2\n      pop\n      pop\n      jump\t// out\n        /* \"#utility.yul\":16077:16333   */\n    tag_361:\n        /* \"#utility.yul\":16196:16206   */\n      0x00\n        /* \"#utility.yul\":16231:16327   */\n      tag_556\n        /* \"#utility.yul\":16323:16326   */\n      dup4\n        /* \"#utility.yul\":16315:16321   */\n      dup4\n        /* \"#utility.yul\":16231:16327   */\n      tag_360\n      jump\t// in\n    tag_556:\n        /* \"#utility.yul\":16217:16327   */\n      swap1\n      pop\n        /* \"#utility.yul\":16077:16333   */\n      swap3\n      swap2\n      pop\n      pop\n      jump\t// out\n        /* \"#utility.yul\":16339:16477   */\n    tag_362:\n        /* \"#utility.yul\":16434:16438   */\n      0x00\n        /* \"#utility.yul\":16466:16470   */\n      0x20\n        /* \"#utility.yul\":16461:16464   */\n      dup3\n        /* \"#utility.yul\":16457:16471   */\n      add\n        /* \"#utility.yul\":16449:16471   */\n      swap1\n      pop\n        /* \"#utility.yul\":16339:16477   */\n      swap2\n      swap1\n      pop\n      jump\t// out\n        /* \"#utility.yul\":16563:17674   */\n    tag_363:\n        /* \"#utility.yul\":16732:16735   */\n      0x00\n        /* \"#utility.yul\":16761:16840   */\n      tag_559\n        /* \"#utility.yul\":16834:16839   */\n      dup3\n        /* \"#utility.yul\":16761:16840   */\n      tag_352\n      jump\t// in\n    tag_559:\n        /* \"#utility.yul\":16856:16967   */\n      tag_560\n        /* \"#utility.yul\":16960:16966   */\n      dup2\n        /* \"#utility.yul\":16955:16958   */\n      dup6\n        /* \"#utility.yul\":16856:16967   */\n      tag_353\n      jump\t// in\n    tag_560:\n        /* \"#utility.yul\":16849:16967   */\n      swap4\n      pop\n        /* \"#utility.yul\":16993:16996   */\n      dup4\n        /* \"#utility.yul\":17038:17042   */\n      0x20\n        /* \"#utility.yul\":17030:17036   */\n      dup3\n        /* \"#utility.yul\":17026:17043   */\n      mul\n        /* \"#utility.yul\":17021:17024   */\n      dup6\n        /* \"#utility.yul\":17017:17044   */\n      add\n        /* \"#utility.yul\":17068:17149   */\n      tag_561\n        /* \"#utility.yul\":17143:17148   */\n      dup6\n        /* \"#utility.yul\":17068:17149   */\n      tag_354\n      jump\t// in\n    tag_561:\n        /* \"#utility.yul\":17172:17179   */\n      dup1\n        /* \"#utility.yul\":17203:17204   */\n      0x00\n        /* \"#utility.yul\":17188:17629   */\n    tag_562:\n        /* \"#utility.yul\":17213:17219   */\n      dup6\n        /* \"#utility.yul\":17210:17211   */\n      dup2\n        /* \"#utility.yul\":17207:17220   */\n      lt\n        /* \"#utility.yul\":17188:17629   */\n      iszero\n      tag_564\n      jumpi\n        /* \"#utility.yul\":17284:17293   */\n      dup5\n        /* \"#utility.yul\":17278:17282   */\n      dup5\n        /* \"#utility.yul\":17274:17294   */\n      sub\n        /* \"#utility.yul\":17269:17272   */\n      dup10\n        /* \"#utility.yul\":17262:17295   */\n      mstore\n        /* \"#utility.yul\":17335:17341   */\n      dup2\n        /* \"#utility.yul\":17329:17342   */\n      mload\n        /* \"#utility.yul\":17363:17477   */\n      tag_565\n        /* \"#utility.yul\":17472:17476   */\n      dup6\n        /* \"#utility.yul\":17457:17470   */\n      dup3\n        /* \"#utility.yul\":17363:17477   */\n      tag_361\n      jump\t// in\n    tag_565:\n        /* \"#utility.yul\":17355:17477   */\n      swap5\n      pop\n        /* \"#utility.yul\":17500:17585   */\n      tag_566\n        /* \"#utility.yul\":17578:17584   */\n      dup4\n        /* \"#utility.yul\":17500:17585   */\n      tag_362\n      jump\t// in\n    tag_566:\n        /* \"#utility.yul\":17490:17585   */\n      swap3\n      pop\n        /* \"#utility.yul\":17614:17618   */\n      0x20\n        /* \"#utility.yul\":17609:17612   */\n      dup11\n        /* \"#utility.yul\":17605:17619   */\n      add\n        /* \"#utility.yul\":17598:17619   */\n      swap10\n      pop\n        /* \"#utility.yul\":17248:17629   */\n      pop\n        /* \"#utility.yul\":17235:17236   */\n      0x01\n        /* \"#utility.yul\":17232:17233   */\n      dup2\n        /* \"#utility.yul\":17228:17237   */\n      add\n        /* \"#utility.yul\":17223:17237   */\n      swap1\n      pop\n        /* \"#utility.yul\":17188:17629   */\n      jump(tag_562)\n    tag_564:\n        /* \"#utility.yul\":17192:17206   */\n      pop\n        /* \"#utility.yul\":17645:17649   */\n      dup3\n        /* \"#utility.yul\":17638:17649   */\n      swap8\n      pop\n        /* \"#utility.yul\":17665:17668   */\n      dup8\n        /* \"#utility.yul\":17658:17668   */\n      swap6\n      pop\n        /* \"#utility.yul\":16737:17674   */\n      pop\n      pop\n      pop\n      pop\n      pop\n        /* \"#utility.yul\":16563:17674   */\n      swap3\n      swap2\n      pop\n      pop\n      jump\t// out\n        /* \"#utility.yul\":17680:18153   */\n    tag_55:\n        /* \"#utility.yul\":17873:17877   */\n      0x00\n        /* \"#utility.yul\":17911:17913   */\n      0x20\n        /* \"#utility.yul\":17900:17909   */\n      dup3\n        /* \"#utility.yul\":17896:17914   */\n      add\n        /* \"#utility.yul\":17888:17914   */\n      swap1\n      pop\n        /* \"#utility.yul\":17960:17969   */\n      dup2\n        /* \"#utility.yul\":17954:17958   */\n      dup2\n        /* \"#utility.yul\":17950:17970   */\n      sub\n        /* \"#utility.yul\":17946:17947   */\n      0x00\n        /* \"#utility.yul\":17935:17944   */\n      dup4\n        /* \"#utility.yul\":17931:17948   */\n      add\n        /* \"#utility.yul\":17924:17971   */\n      mstore\n        /* \"#utility.yul\":17988:18146   */\n      tag_568\n        /* \"#utility.yul\":18141:18145   */\n      dup2\n        /* \"#utility.yul\":18132:18138   */\n      dup5\n        /* \"#utility.yul\":17988:18146   */\n      tag_363\n      jump\t// in\n    tag_568:\n        /* \"#utility.yul\":17980:18146   */\n      swap1\n      pop\n        /* \"#utility.yul\":17680:18153   */\n      swap3\n      swap2\n      pop\n      pop\n      jump\t// out\n        /* \"#utility.yul\":18159:18273   */\n    tag_364:\n        /* \"#utility.yul\":18241:18242   */\n      0x03\n        /* \"#utility.yul\":18234:18239   */\n      dup2\n        /* \"#utility.yul\":18231:18243   */\n      lt\n        /* \"#utility.yul\":18221:18267   */\n      tag_570\n      jumpi\n        /* \"#utility.yul\":18247:18265   */\n      tag_571\n      tag_106\n      jump\t// in\n    tag_571:\n        /* \"#utility.yul\":18221:18267   */\n    tag_570:\n        /* \"#utility.yul\":18159:18273   */\n      pop\n      jump\t// out\n        /* \"#utility.yul\":18279:18408   */\n    tag_365:\n        /* \"#utility.yul\":18325:18332   */\n      0x00\n        /* \"#utility.yul\":18354:18359   */\n      dup2\n        /* \"#utility.yul\":18343:18359   */\n      swap1\n      pop\n        /* \"#utility.yul\":18360:18402   */\n      tag_573\n        /* \"#utility.yul\":18396:18401   */\n      dup3\n        /* \"#utility.yul\":18360:18402   */\n      tag_364\n      jump\t// in\n    tag_573:\n        /* \"#utility.yul\":18279:18408   */\n      swap2\n      swap1\n      pop\n      jump\t// out\n        /* \"#utility.yul\":18414:18543   */\n    tag_366:\n        /* \"#utility.yul\":18471:18480   */\n      0x00\n        /* \"#utility.yul\":18504:18537   */\n      tag_575\n        /* \"#utility.yul\":18531:18536   */\n      dup3\n        /* \"#utility.yul\":18504:18537   */\n      tag_365\n      jump\t// in\n    tag_575:\n        /* \"#utility.yul\":18491:18537   */\n      swap1\n      pop\n        /* \"#utility.yul\":18414:18543   */\n      swap2\n      swap1\n      pop\n      jump\t// out\n        /* \"#utility.yul\":18549:18694   */\n    tag_367:\n        /* \"#utility.yul\":18643:18687   */\n      tag_577\n        /* \"#utility.yul\":18681:18686   */\n      dup2\n        /* \"#utility.yul\":18643:18687   */\n      tag_366\n      jump\t// in\n    tag_577:\n        /* \"#utility.yul\":18638:18641   */\n      dup3\n        /* \"#utility.yul\":18631:18688   */\n      mstore\n        /* \"#utility.yul\":18549:18694   */\n      pop\n      pop\n      jump\t// out\n        /* \"#utility.yul\":18700:19156   */\n    tag_66:\n        /* \"#utility.yul\":18856:18860   */\n      0x00\n        /* \"#utility.yul\":18894:18896   */\n      0x60\n        /* \"#utility.yul\":18883:18892   */\n      dup3\n        /* \"#utility.yul\":18879:18897   */\n      add\n        /* \"#utility.yul\":18871:18897   */\n      swap1\n      pop\n        /* \"#utility.yul\":18907:18978   */\n      tag_579\n        /* \"#utility.yul\":18975:18976   */\n      0x00\n        /* \"#utility.yul\":18964:18973   */\n      dup4\n        /* \"#utility.yul\":18960:18977   */\n      add\n        /* \"#utility.yul\":18951:18957   */\n      dup7\n        /* \"#utility.yul\":18907:18978   */\n      tag_346\n      jump\t// in\n    tag_579:\n        /* \"#utility.yul\":18988:19067   */\n      tag_580\n        /* \"#utility.yul\":19063:19065   */\n      0x20\n        /* \"#utility.yul\":19052:19061   */\n      dup4\n        /* \"#utility.yul\":19048:19066   */\n      add\n        /* \"#utility.yul\":19039:19045   */\n      dup6\n        /* \"#utility.yul\":18988:19067   */\n      tag_367\n      jump\t// in\n    tag_580:\n        /* \"#utility.yul\":19077:19149   */\n      tag_581\n        /* \"#utility.yul\":19145:19147   */\n      0x40\n        /* \"#utility.yul\":19134:19143   */\n      dup4\n        /* \"#utility.yul\":19130:19148   */\n      add\n        /* \"#utility.yul\":19121:19127   */\n      dup5\n        /* \"#utility.yul\":19077:19149   */\n      tag_349\n      jump\t// in\n    tag_581:\n        /* \"#utility.yul\":18700:19156   */\n      swap5\n      swap4\n      pop\n      pop\n      pop\n      pop\n      jump\t// out\n        /* \"#utility.yul\":19162:19491   */\n    tag_71:\n        /* \"#utility.yul\":19221:19227   */\n      0x00\n        /* \"#utility.yul\":19270:19272   */\n      0x20\n        /* \"#utility.yul\":19258:19267   */\n      dup3\n        /* \"#utility.yul\":19249:19256   */\n      dup5\n        /* \"#utility.yul\":19245:19268   */\n      sub\n        /* \"#utility.yul\":19241:19273   */\n      slt\n        /* \"#utility.yul\":19238:19357   */\n      iszero\n      tag_583\n      jumpi\n        /* \"#utility.yul\":19276:19355   */\n      tag_584\n      tag_315\n      jump\t// in\n    tag_584:\n        /* \"#utility.yul\":19238:19357   */\n    tag_583:\n        /* \"#utility.yul\":19396:19397   */\n      0x00\n        /* \"#utility.yul\":19421:19474   */\n      tag_585\n        /* \"#utility.yul\":19466:19473   */\n      dup5\n        /* \"#utility.yul\":19457:19463   */\n      dup3\n        /* \"#utility.yul\":19446:19455   */\n      dup6\n        /* \"#utility.yul\":19442:19464   */\n      add\n        /* \"#utility.yul\":19421:19474   */\n      tag_345\n      jump\t// in\n    tag_585:\n        /* \"#utility.yul\":19411:19474   */\n      swap2\n      pop\n        /* \"#utility.yul\":19367:19484   */\n      pop\n        /* \"#utility.yul\":19162:19491   */\n      swap3\n      swap2\n      pop\n      pop\n      jump\t// out\n        /* \"#utility.yul\":19497:19660   */\n    tag_368:\n        /* \"#utility.yul\":19600:19653   */\n      tag_587\n        /* \"#utility.yul\":19647:19652   */\n      dup2\n        /* \"#utility.yul\":19600:19653   */\n      tag_357\n      jump\t// in\n    tag_587:\n        /* \"#utility.yul\":19595:19598   */\n      dup3\n        /* \"#utility.yul\":19588:19654   */\n      mstore\n        /* \"#utility.yul\":19497:19660   */\n      pop\n      pop\n      jump\t// out\n        /* \"#utility.yul\":19732:20403   */\n    tag_369:\n        /* \"#utility.yul\":19841:19844   */\n      0x00\n        /* \"#utility.yul\":19877:19881   */\n      0x40\n        /* \"#utility.yul\":19872:19875   */\n      dup4\n        /* \"#utility.yul\":19868:19882   */\n      add\n        /* \"#utility.yul\":19968:19972   */\n      0x00\n        /* \"#utility.yul\":19961:19966   */\n      dup4\n        /* \"#utility.yul\":19957:19973   */\n      add\n        /* \"#utility.yul\":19951:19974   */\n      mload\n        /* \"#utility.yul\":20021:20024   */\n      dup5\n        /* \"#utility.yul\":20015:20019   */\n      dup3\n        /* \"#utility.yul\":20011:20025   */\n      sub\n        /* \"#utility.yul\":20004:20008   */\n      0x00\n        /* \"#utility.yul\":19999:20002   */\n      dup7\n        /* \"#utility.yul\":19995:20009   */\n      add\n        /* \"#utility.yul\":19988:20026   */\n      mstore\n        /* \"#utility.yul\":20047:20120   */\n      tag_589\n        /* \"#utility.yul\":20115:20119   */\n      dup3\n        /* \"#utility.yul\":20101:20113   */\n      dup3\n        /* \"#utility.yul\":20047:20120   */\n      tag_337\n      jump\t// in\n    tag_589:\n        /* \"#utility.yul\":20039:20120   */\n      swap2\n      pop\n        /* \"#utility.yul\":19892:20131   */\n      pop\n        /* \"#utility.yul\":20213:20217   */\n      0x20\n        /* \"#utility.yul\":20206:20211   */\n      dup4\n        /* \"#utility.yul\":20202:20218   */\n      add\n        /* \"#utility.yul\":20196:20219   */\n      mload\n        /* \"#utility.yul\":20266:20269   */\n      dup5\n        /* \"#utility.yul\":20260:20264   */\n      dup3\n        /* \"#utility.yul\":20256:20270   */\n      sub\n        /* \"#utility.yul\":20249:20253   */\n      0x20\n        /* \"#utility.yul\":20244:20247   */\n      dup7\n        /* \"#utility.yul\":20240:20254   */\n      add\n        /* \"#utility.yul\":20233:20271   */\n      mstore\n        /* \"#utility.yul\":20292:20365   */\n      tag_590\n        /* \"#utility.yul\":20360:20364   */\n      dup3\n        /* \"#utility.yul\":20346:20358   */\n      dup3\n        /* \"#utility.yul\":20292:20365   */\n      tag_337\n      jump\t// in\n    tag_590:\n        /* \"#utility.yul\":20284:20365   */\n      swap2\n      pop\n        /* \"#utility.yul\":20141:20376   */\n      pop\n        /* \"#utility.yul\":20393:20397   */\n      dup1\n        /* \"#utility.yul\":20386:20397   */\n      swap2\n      pop\n        /* \"#utility.yul\":19846:20403   */\n      pop\n        /* \"#utility.yul\":19732:20403   */\n      swap3\n      swap2\n      pop\n      pop\n      jump\t// out\n        /* \"#utility.yul\":20409:21438   */\n    tag_77:\n        /* \"#utility.yul\":20718:20722   */\n      0x00\n        /* \"#utility.yul\":20756:20759   */\n      0xc0\n        /* \"#utility.yul\":20745:20754   */\n      dup3\n        /* \"#utility.yul\":20741:20760   */\n      add\n        /* \"#utility.yul\":20733:20760   */\n      swap1\n      pop\n        /* \"#utility.yul\":20770:20841   */\n      tag_592\n        /* \"#utility.yul\":20838:20839   */\n      0x00\n        /* \"#utility.yul\":20827:20836   */\n      dup4\n        /* \"#utility.yul\":20823:20840   */\n      add\n        /* \"#utility.yul\":20814:20820   */\n      dup10\n        /* \"#utility.yul\":20770:20841   */\n      tag_349\n      jump\t// in\n    tag_592:\n        /* \"#utility.yul\":20851:20923   */\n      tag_593\n        /* \"#utility.yul\":20919:20921   */\n      0x20\n        /* \"#utility.yul\":20908:20917   */\n      dup4\n        /* \"#utility.yul\":20904:20922   */\n      add\n        /* \"#utility.yul\":20895:20901   */\n      dup9\n        /* \"#utility.yul\":20851:20923   */\n      tag_346\n      jump\t// in\n    tag_593:\n        /* \"#utility.yul\":20970:20979   */\n      dup2\n        /* \"#utility.yul\":20964:20968   */\n      dup2\n        /* \"#utility.yul\":20960:20980   */\n      sub\n        /* \"#utility.yul\":20955:20957   */\n      0x40\n        /* \"#utility.yul\":20944:20953   */\n      dup4\n        /* \"#utility.yul\":20940:20958   */\n      add\n        /* \"#utility.yul\":20933:20981   */\n      mstore\n        /* \"#utility.yul\":20998:21076   */\n      tag_594\n        /* \"#utility.yul\":21071:21075   */\n      dup2\n        /* \"#utility.yul\":21062:21068   */\n      dup8\n        /* \"#utility.yul\":20998:21076   */\n      tag_348\n      jump\t// in\n    tag_594:\n        /* \"#utility.yul\":20990:21076   */\n      swap1\n      pop\n        /* \"#utility.yul\":21086:21174   */\n      tag_595\n        /* \"#utility.yul\":21170:21172   */\n      0x60\n        /* \"#utility.yul\":21159:21168   */\n      dup4\n        /* \"#utility.yul\":21155:21173   */\n      add\n        /* \"#utility.yul\":21146:21152   */\n      dup7\n        /* \"#utility.yul\":21086:21174   */\n      tag_368\n      jump\t// in\n    tag_595:\n        /* \"#utility.yul\":21222:21231   */\n      dup2\n        /* \"#utility.yul\":21216:21220   */\n      dup2\n        /* \"#utility.yul\":21212:21232   */\n      sub\n        /* \"#utility.yul\":21206:21209   */\n      0x80\n        /* \"#utility.yul\":21195:21204   */\n      dup4\n        /* \"#utility.yul\":21191:21210   */\n      add\n        /* \"#utility.yul\":21184:21233   */\n      mstore\n        /* \"#utility.yul\":21250:21348   */\n      tag_596\n        /* \"#utility.yul\":21343:21347   */\n      dup2\n        /* \"#utility.yul\":21334:21340   */\n      dup6\n        /* \"#utility.yul\":21250:21348   */\n      tag_369\n      jump\t// in\n    tag_596:\n        /* \"#utility.yul\":21242:21348   */\n      swap1\n      pop\n        /* \"#utility.yul\":21358:21431   */\n      tag_597\n        /* \"#utility.yul\":21426:21429   */\n      0xa0\n        /* \"#utility.yul\":21415:21424   */\n      dup4\n        /* \"#utility.yul\":21411:21430   */\n      add\n        /* \"#utility.yul\":21402:21408   */\n      dup5\n        /* \"#utility.yul\":21358:21431   */\n      tag_349\n      jump\t// in\n    tag_597:\n        /* \"#utility.yul\":20409:21438   */\n      swap8\n      swap7\n      pop\n      pop\n      pop\n      pop\n      pop\n      pop\n      pop\n      jump\t// out\n        /* \"#utility.yul\":21444:21585   */\n    tag_370:\n        /* \"#utility.yul\":21538:21544   */\n      0x00\n        /* \"#utility.yul\":21572:21577   */\n      dup2\n        /* \"#utility.yul\":21566:21578   */\n      mload\n        /* \"#utility.yul\":21556:21578   */\n      swap1\n      pop\n        /* \"#utility.yul\":21444:21585   */\n      swap2\n      swap1\n      pop\n      jump\t// out\n        /* \"#utility.yul\":21591:21802   */\n    tag_371:\n        /* \"#utility.yul\":21717:21728   */\n      0x00\n        /* \"#utility.yul\":21751:21757   */\n      dup3\n        /* \"#utility.yul\":21746:21749   */\n      dup3\n        /* \"#utility.yul\":21739:21758   */\n      mstore\n        /* \"#utility.yul\":21791:21795   */\n      0x20\n        /* \"#utility.yul\":21786:21789   */\n      dup3\n        /* \"#utility.yul\":21782:21796   */\n      add\n        /* \"#utility.yul\":21767:21796   */\n      swap1\n      pop\n        /* \"#utility.yul\":21591:21802   */\n      swap3\n      swap2\n      pop\n      pop\n      jump\t// out\n        /* \"#utility.yul\":21808:21967   */\n    tag_372:\n        /* \"#utility.yul\":21902:21906   */\n      0x00\n        /* \"#utility.yul\":21925:21928   */\n      dup2\n        /* \"#utility.yul\":21917:21928   */\n      swap1\n      pop\n        /* \"#utility.yul\":21955:21959   */\n      0x20\n        /* \"#utility.yul\":21950:21953   */\n      dup3\n        /* \"#utility.yul\":21946:21960   */\n      add\n        /* \"#utility.yul\":21938:21960   */\n      swap1\n      pop\n        /* \"#utility.yul\":21808:21967   */\n      swap2\n      swap1\n      pop\n      jump\t// out\n        /* \"#utility.yul\":21973:22108   */\n    tag_373:\n        /* \"#utility.yul\":22057:22101   */\n      tag_602\n        /* \"#utility.yul\":22095:22100   */\n      dup2\n        /* \"#utility.yul\":22057:22101   */\n      tag_366\n      jump\t// in\n    tag_602:\n        /* \"#utility.yul\":22052:22055   */\n      dup3\n        /* \"#utility.yul\":22045:22102   */\n      mstore\n        /* \"#utility.yul\":21973:22108   */\n      pop\n      pop\n      jump\t// out\n        /* \"#utility.yul\":22194:22891   */\n    tag_374:\n        /* \"#utility.yul\":22335:22339   */\n      0x60\n        /* \"#utility.yul\":22330:22333   */\n      dup3\n        /* \"#utility.yul\":22326:22340   */\n      add\n        /* \"#utility.yul\":22426:22430   */\n      0x00\n        /* \"#utility.yul\":22419:22424   */\n      dup3\n        /* \"#utility.yul\":22415:22431   */\n      add\n        /* \"#utility.yul\":22409:22432   */\n      mload\n        /* \"#utility.yul\":22445:22508   */\n      tag_604\n        /* \"#utility.yul\":22502:22506   */\n      0x00\n        /* \"#utility.yul\":22497:22500   */\n      dup6\n        /* \"#utility.yul\":22493:22507   */\n      add\n        /* \"#utility.yul\":22479:22491   */\n      dup3\n        /* \"#utility.yul\":22445:22508   */\n      tag_333\n      jump\t// in\n    tag_604:\n        /* \"#utility.yul\":22350:22518   */\n      pop\n        /* \"#utility.yul\":22606:22610   */\n      0x20\n        /* \"#utility.yul\":22599:22604   */\n      dup3\n        /* \"#utility.yul\":22595:22611   */\n      add\n        /* \"#utility.yul\":22589:22612   */\n      mload\n        /* \"#utility.yul\":22625:22695   */\n      tag_605\n        /* \"#utility.yul\":22689:22693   */\n      0x20\n        /* \"#utility.yul\":22684:22687   */\n      dup6\n        /* \"#utility.yul\":22680:22694   */\n      add\n        /* \"#utility.yul\":22666:22678   */\n      dup3\n        /* \"#utility.yul\":22625:22695   */\n      tag_373\n      jump\t// in\n    tag_605:\n        /* \"#utility.yul\":22528:22705   */\n      pop\n        /* \"#utility.yul\":22792:22796   */\n      0x40\n        /* \"#utility.yul\":22785:22790   */\n      dup3\n        /* \"#utility.yul\":22781:22797   */\n      add\n        /* \"#utility.yul\":22775:22798   */\n      mload\n        /* \"#utility.yul\":22811:22874   */\n      tag_606\n        /* \"#utility.yul\":22868:22872   */\n      0x40\n        /* \"#utility.yul\":22863:22866   */\n      dup6\n        /* \"#utility.yul\":22859:22873   */\n      add\n        /* \"#utility.yul\":22845:22857   */\n      dup3\n        /* \"#utility.yul\":22811:22874   */\n      tag_339\n      jump\t// in\n    tag_606:\n        /* \"#utility.yul\":22715:22884   */\n      pop\n        /* \"#utility.yul\":22304:22891   */\n      pop\n        /* \"#utility.yul\":22194:22891   */\n      pop\n      pop\n      jump\t// out\n        /* \"#utility.yul\":22897:23184   */\n    tag_375:\n        /* \"#utility.yul\":23020:23030   */\n      0x00\n        /* \"#utility.yul\":23041:23141   */\n      tag_608\n        /* \"#utility.yul\":23137:23140   */\n      dup4\n        /* \"#utility.yul\":23129:23135   */\n      dup4\n        /* \"#utility.yul\":23041:23141   */\n      tag_374\n      jump\t// in\n    tag_608:\n        /* \"#utility.yul\":23173:23177   */\n      0x60\n        /* \"#utility.yul\":23168:23171   */\n      dup4\n        /* \"#utility.yul\":23164:23178   */\n      add\n        /* \"#utility.yul\":23150:23178   */\n      swap1\n      pop\n        /* \"#utility.yul\":22897:23184   */\n      swap3\n      swap2\n      pop\n      pop\n      jump\t// out\n        /* \"#utility.yul\":23190:23330   */\n    tag_376:\n        /* \"#utility.yul\":23287:23291   */\n      0x00\n        /* \"#utility.yul\":23319:23323   */\n      0x20\n        /* \"#utility.yul\":23314:23317   */\n      dup3\n        /* \"#utility.yul\":23310:23324   */\n      add\n        /* \"#utility.yul\":23302:23324   */\n      swap1\n      pop\n        /* \"#utility.yul\":23190:23330   */\n      swap2\n      swap1\n      pop\n      jump\t// out\n        /* \"#utility.yul\":23420:24368   */\n    tag_377:\n        /* \"#utility.yul\":23593:23596   */\n      0x00\n        /* \"#utility.yul\":23622:23703   */\n      tag_611\n        /* \"#utility.yul\":23697:23702   */\n      dup3\n        /* \"#utility.yul\":23622:23703   */\n      tag_370\n      jump\t// in\n    tag_611:\n        /* \"#utility.yul\":23719:23832   */\n      tag_612\n        /* \"#utility.yul\":23825:23831   */\n      dup2\n        /* \"#utility.yul\":23820:23823   */\n      dup6\n        /* \"#utility.yul\":23719:23832   */\n      tag_371\n      jump\t// in\n    tag_612:\n        /* \"#utility.yul\":23712:23832   */\n      swap4\n      pop\n        /* \"#utility.yul\":23856:23939   */\n      tag_613\n        /* \"#utility.yul\":23933:23938   */\n      dup4\n        /* \"#utility.yul\":23856:23939   */\n      tag_372\n      jump\t// in\n    tag_613:\n        /* \"#utility.yul\":23962:23969   */\n      dup1\n        /* \"#utility.yul\":23993:23994   */\n      0x00\n        /* \"#utility.yul\":23978:24343   */\n    tag_614:\n        /* \"#utility.yul\":24003:24009   */\n      dup4\n        /* \"#utility.yul\":24000:24001   */\n      dup2\n        /* \"#utility.yul\":23997:24010   */\n      lt\n        /* \"#utility.yul\":23978:24343   */\n      iszero\n      tag_616\n      jumpi\n        /* \"#utility.yul\":24079:24085   */\n      dup2\n        /* \"#utility.yul\":24073:24086   */\n      mload\n        /* \"#utility.yul\":24106:24223   */\n      tag_617\n        /* \"#utility.yul\":24219:24222   */\n      dup9\n        /* \"#utility.yul\":24204:24217   */\n      dup3\n        /* \"#utility.yul\":24106:24223   */\n      tag_375\n      jump\t// in\n    tag_617:\n        /* \"#utility.yul\":24099:24223   */\n      swap8\n      pop\n        /* \"#utility.yul\":24246:24333   */\n      tag_618\n        /* \"#utility.yul\":24326:24332   */\n      dup4\n        /* \"#utility.yul\":24246:24333   */\n      tag_376\n      jump\t// in\n    tag_618:\n        /* \"#utility.yul\":24236:24333   */\n      swap3\n      pop\n        /* \"#utility.yul\":24038:24343   */\n      pop\n        /* \"#utility.yul\":24025:24026   */\n      0x01\n        /* \"#utility.yul\":24022:24023   */\n      dup2\n        /* \"#utility.yul\":24018:24027   */\n      add\n        /* \"#utility.yul\":24013:24027   */\n      swap1\n      pop\n        /* \"#utility.yul\":23978:24343   */\n      jump(tag_614)\n    tag_616:\n        /* \"#utility.yul\":23982:23996   */\n      pop\n        /* \"#utility.yul\":24359:24362   */\n      dup6\n        /* \"#utility.yul\":24352:24362   */\n      swap4\n      pop\n        /* \"#utility.yul\":23598:24368   */\n      pop\n      pop\n      pop\n        /* \"#utility.yul\":23420:24368   */\n      swap3\n      swap2\n      pop\n      pop\n      jump\t// out\n        /* \"#utility.yul\":24374:24855   */\n    tag_82:\n        /* \"#utility.yul\":24571:24575   */\n      0x00\n        /* \"#utility.yul\":24609:24611   */\n      0x20\n        /* \"#utility.yul\":24598:24607   */\n      dup3\n        /* \"#utility.yul\":24594:24612   */\n      add\n        /* \"#utility.yul\":24586:24612   */\n      swap1\n      pop\n        /* \"#utility.yul\":24658:24667   */\n      dup2\n        /* \"#utility.yul\":24652:24656   */\n      dup2\n        /* \"#utility.yul\":24648:24668   */\n      sub\n        /* \"#utility.yul\":24644:24645   */\n      0x00\n        /* \"#utility.yul\":24633:24642   */\n      dup4\n        /* \"#utility.yul\":24629:24646   */\n      add\n        /* \"#utility.yul\":24622:24669   */\n      mstore\n        /* \"#utility.yul\":24686:24848   */\n      tag_620\n        /* \"#utility.yul\":24843:24847   */\n      dup2\n        /* \"#utility.yul\":24834:24840   */\n      dup5\n        /* \"#utility.yul\":24686:24848   */\n      tag_377\n      jump\t// in\n    tag_620:\n        /* \"#utility.yul\":24678:24848   */\n      swap1\n      pop\n        /* \"#utility.yul\":24374:24855   */\n      swap3\n      swap2\n      pop\n      pop\n      jump\t// out\n        /* \"#utility.yul\":24861:25043   */\n    tag_378:\n        /* \"#utility.yul\":25001:25035   */\n      0x4f6e6c7920757365722063616e2063616c6c20746869732066756e6374696f6e\n        /* \"#utility.yul\":24997:24998   */\n      0x00\n        /* \"#utility.yul\":24989:24995   */\n      dup3\n        /* \"#utility.yul\":24985:24999   */\n      add\n        /* \"#utility.yul\":24978:25036   */\n      mstore\n        /* \"#utility.yul\":24861:25043   */\n      pop\n      jump\t// out\n        /* \"#utility.yul\":25049:25415   */\n    tag_379:\n        /* \"#utility.yul\":25191:25194   */\n      0x00\n        /* \"#utility.yul\":25212:25279   */\n      tag_623\n        /* \"#utility.yul\":25276:25278   */\n      0x20\n        /* \"#utility.yul\":25271:25274   */\n      dup4\n        /* \"#utility.yul\":25212:25279   */\n      tag_347\n      jump\t// in\n    tag_623:\n        /* \"#utility.yul\":25205:25279   */\n      swap2\n      pop\n        /* \"#utility.yul\":25288:25381   */\n      tag_624\n        /* \"#utility.yul\":25377:25380   */\n      dup3\n        /* \"#utility.yul\":25288:25381   */\n      tag_378\n      jump\t// in\n    tag_624:\n        /* \"#utility.yul\":25406:25408   */\n      0x20\n        /* \"#utility.yul\":25401:25404   */\n      dup3\n        /* \"#utility.yul\":25397:25409   */\n      add\n        /* \"#utility.yul\":25390:25409   */\n      swap1\n      pop\n        /* \"#utility.yul\":25049:25415   */\n      swap2\n      swap1\n      pop\n      jump\t// out\n        /* \"#utility.yul\":25421:25840   */\n    tag_97:\n        /* \"#utility.yul\":25587:25591   */\n      0x00\n        /* \"#utility.yul\":25625:25627   */\n      0x20\n        /* \"#utility.yul\":25614:25623   */\n      dup3\n        /* \"#utility.yul\":25610:25628   */\n      add\n        /* \"#utility.yul\":25602:25628   */\n      swap1\n      pop\n        /* \"#utility.yul\":25674:25683   */\n      dup2\n        /* \"#utility.yul\":25668:25672   */\n      dup2\n        /* \"#utility.yul\":25664:25684   */\n      sub\n        /* \"#utility.yul\":25660:25661   */\n      0x00\n        /* \"#utility.yul\":25649:25658   */\n      dup4\n        /* \"#utility.yul\":25645:25662   */\n      add\n        /* \"#utility.yul\":25638:25685   */\n      mstore\n        /* \"#utility.yul\":25702:25833   */\n      tag_626\n        /* \"#utility.yul\":25828:25832   */\n      dup2\n        /* \"#utility.yul\":25702:25833   */\n      tag_379\n      jump\t// in\n    tag_626:\n        /* \"#utility.yul\":25694:25833   */\n      swap1\n      pop\n        /* \"#utility.yul\":25421:25840   */\n      swap2\n      swap1\n      pop\n      jump\t// out\n        /* \"#utility.yul\":25846:26012   */\n    tag_380:\n        /* \"#utility.yul\":25986:26004   */\n      0x4e6f2066696c652070726f766964656400000000000000000000000000000000\n        /* \"#utility.yul\":25982:25983   */\n      0x00\n        /* \"#utility.yul\":25974:25980   */\n      dup3\n        /* \"#utility.yul\":25970:25984   */\n      add\n        /* \"#utility.yul\":25963:26005   */\n      mstore\n        /* \"#utility.yul\":25846:26012   */\n      pop\n      jump\t// out\n        /* \"#utility.yul\":26018:26384   */\n    tag_381:\n        /* \"#utility.yul\":26160:26163   */\n      0x00\n        /* \"#utility.yul\":26181:26248   */\n      tag_629\n        /* \"#utility.yul\":26245:26247   */\n      0x10\n        /* \"#utility.yul\":26240:26243   */\n      dup4\n        /* \"#utility.yul\":26181:26248   */\n      tag_347\n      jump\t// in\n    tag_629:\n        /* \"#utility.yul\":26174:26248   */\n      swap2\n      pop\n        /* \"#utility.yul\":26257:26350   */\n      tag_630\n        /* \"#utility.yul\":26346:26349   */\n      dup3\n        /* \"#utility.yul\":26257:26350   */\n      tag_380\n      jump\t// in\n    tag_630:\n        /* \"#utility.yul\":26375:26377   */\n      0x20\n        /* \"#utility.yul\":26370:26373   */\n      dup3\n        /* \"#utility.yul\":26366:26378   */\n      add\n        /* \"#utility.yul\":26359:26378   */\n      swap1\n      pop\n        /* \"#utility.yul\":26018:26384   */\n      swap2\n      swap1\n      pop\n      jump\t// out\n        /* \"#utility.yul\":26390:26809   */\n    tag_101:\n        /* \"#utility.yul\":26556:26560   */\n      0x00\n        /* \"#utility.yul\":26594:26596   */\n      0x20\n        /* \"#utility.yul\":26583:26592   */\n      dup3\n        /* \"#utility.yul\":26579:26597   */\n      add\n        /* \"#utility.yul\":26571:26597   */\n      swap1\n      pop\n        /* \"#utility.yul\":26643:26652   */\n      dup2\n        /* \"#utility.yul\":26637:26641   */\n      dup2\n        /* \"#utility.yul\":26633:26653   */\n      sub\n        /* \"#utility.yul\":26629:26630   */\n      0x00\n        /* \"#utility.yul\":26618:26627   */\n      dup4\n        /* \"#utility.yul\":26614:26631   */\n      add\n        /* \"#utility.yul\":26607:26654   */\n      mstore\n        /* \"#utility.yul\":26671:26802   */\n      tag_632\n        /* \"#utility.yul\":26797:26801   */\n      dup2\n        /* \"#utility.yul\":26671:26802   */\n      tag_381\n      jump\t// in\n    tag_632:\n        /* \"#utility.yul\":26663:26802   */\n      swap1\n      pop\n        /* \"#utility.yul\":26390:26809   */\n      swap2\n      swap1\n      pop\n      jump\t// out\n        /* \"#utility.yul\":26815:26995   */\n    tag_382:\n        /* \"#utility.yul\":26863:26940   */\n      0x4e487b7100000000000000000000000000000000000000000000000000000000\n        /* \"#utility.yul\":26860:26861   */\n      0x00\n        /* \"#utility.yul\":26853:26941   */\n      mstore\n        /* \"#utility.yul\":26960:26964   */\n      0x11\n        /* \"#utility.yul\":26957:26958   */\n      0x04\n        /* \"#utility.yul\":26950:26965   */\n      mstore\n        /* \"#utility.yul\":26984:26988   */\n      0x24\n        /* \"#utility.yul\":26981:26982   */\n      0x00\n        /* \"#utility.yul\":26974:26989   */\n      revert\n        /* \"#utility.yul\":27001:27234   */\n    tag_103:\n        /* \"#utility.yul\":27040:27043   */\n      0x00\n        /* \"#utility.yul\":27063:27087   */\n      tag_635\n        /* \"#utility.yul\":27081:27086   */\n      dup3\n        /* \"#utility.yul\":27063:27087   */\n      tag_338\n      jump\t// in\n    tag_635:\n        /* \"#utility.yul\":27054:27087   */\n      swap2\n      pop\n        /* \"#utility.yul\":27109:27175   */\n      0xffffffffffffffffffffffffffffffffffffffffffffffffffffffffffffffff\n        /* \"#utility.yul\":27102:27107   */\n      dup3\n        /* \"#utility.yul\":27099:27176   */\n      sub\n        /* \"#utility.yul\":27096:27199   */\n      tag_636\n      jumpi\n        /* \"#utility.yul\":27179:27197   */\n      tag_637\n      tag_382\n      jump\t// in\n    tag_637:\n        /* \"#utility.yul\":27096:27199   */\n    tag_636:\n        /* \"#utility.yul\":27226:27227   */\n      0x01\n        /* \"#utility.yul\":27219:27224   */\n      dup3\n        /* \"#utility.yul\":27215:27228   */\n      add\n        /* \"#utility.yul\":27208:27228   */\n      swap1\n      pop\n        /* \"#utility.yul\":27001:27234   */\n      swap2\n      swap1\n      pop\n      jump\t// out\n        /* \"#utility.yul\":27240:27420   */\n    tag_383:\n        /* \"#utility.yul\":27288:27365   */\n      0x4e487b7100000000000000000000000000000000000000000000000000000000\n        /* \"#utility.yul\":27285:27286   */\n      0x00\n        /* \"#utility.yul\":27278:27366   */\n      mstore\n        /* \"#utility.yul\":27385:27389   */\n      0x22\n        /* \"#utility.yul\":27382:27383   */\n      0x04\n        /* \"#utility.yul\":27375:27390   */\n      mstore\n        /* \"#utility.yul\":27409:27413   */\n      0x24\n        /* \"#utility.yul\":27406:27407   */\n      0x00\n        /* \"#utility.yul\":27399:27414   */\n      revert\n        /* \"#utility.yul\":27426:27746   */\n    tag_135:\n        /* \"#utility.yul\":27470:27476   */\n      0x00\n        /* \"#utility.yul\":27507:27508   */\n      0x02\n        /* \"#utility.yul\":27501:27505   */\n      dup3\n        /* \"#utility.yul\":27497:27509   */\n      div\n        /* \"#utility.yul\":27487:27509   */\n      swap1\n      pop\n        /* \"#utility.yul\":27554:27555   */\n      0x01\n        /* \"#utility.yul\":27548:27552   */\n      dup3\n        /* \"#utility.yul\":27544:27556   */\n      and\n        /* \"#utility.yul\":27575:27593   */\n      dup1\n        /* \"#utility.yul\":27565:27646   */\n      tag_640\n      jumpi\n        /* \"#utility.yul\":27631:27635   */\n      0x7f\n        /* \"#utility.yul\":27623:27629   */\n      dup3\n        /* \"#utility.yul\":27619:27636   */\n      and\n        /* \"#utility.yul\":27609:27636   */\n      swap2\n      pop\n        /* \"#utility.yul\":27565:27646   */\n    tag_640:\n        /* \"#utility.yul\":27693:27695   */\n      0x20\n        /* \"#utility.yul\":27685:27691   */\n      dup3\n        /* \"#utility.yul\":27682:27696   */\n      lt\n        /* \"#utility.yul\":27662:27680   */\n      dup2\n        /* \"#utility.yul\":27659:27697   */\n      sub\n        /* \"#utility.yul\":27656:27740   */\n      tag_641\n      jumpi\n        /* \"#utility.yul\":27712:27730   */\n      tag_642\n      tag_383\n      jump\t// in\n    tag_642:\n        /* \"#utility.yul\":27656:27740   */\n    tag_641:\n        /* \"#utility.yul\":27477:27746   */\n      pop\n        /* \"#utility.yul\":27426:27746   */\n      swap2\n      swap1\n      pop\n      jump\t// out\n        /* \"#utility.yul\":27752:27893   */\n    tag_384:\n        /* \"#utility.yul\":27801:27805   */\n      0x00\n        /* \"#utility.yul\":27824:27827   */\n      dup2\n        /* \"#utility.yul\":27816:27827   */\n      swap1\n      pop\n        /* \"#utility.yul\":27847:27850   */\n      dup2\n        /* \"#utility.yul\":27844:27845   */\n      0x00\n        /* \"#utility.yul\":27837:27851   */\n      mstore\n        /* \"#utility.yul\":27881:27885   */\n      0x20\n        /* \"#utility.yul\":27878:27879   */\n      0x00\n        /* \"#utility.yul\":27868:27886   */\n      keccak256\n        /* \"#utility.yul\":27860:27886   */\n      swap1\n      pop\n        /* \"#utility.yul\":27752:27893   */\n      swap2\n      swap1\n      pop\n      jump\t// out\n        /* \"#utility.yul\":27899:27992   */\n    tag_385:\n        /* \"#utility.yul\":27936:27942   */\n      0x00\n        /* \"#utility.yul\":27983:27985   */\n      0x20\n        /* \"#utility.yul\":27978:27980   */\n      0x1f\n        /* \"#utility.yul\":27971:27976   */\n      dup4\n        /* \"#utility.yul\":27967:27981   */\n      add\n        /* \"#utility.yul\":27963:27986   */\n      div\n        /* \"#utility.yul\":27953:27986   */\n      swap1\n      pop\n        /* \"#utility.yul\":27899:27992   */\n      swap2\n      swap1\n      pop\n      jump\t// out\n        /* \"#utility.yul\":27998:28105   */\n    tag_386:\n        /* \"#utility.yul\":28042:28050   */\n      0x00\n        /* \"#utility.yul\":28092:28097   */\n      dup3\n        /* \"#utility.yul\":28086:28090   */\n      dup3\n        /* \"#utility.yul\":28082:28098   */\n      shl\n        /* \"#utility.yul\":28061:28098   */\n      swap1\n      pop\n        /* \"#utility.yul\":27998:28105   */\n      swap3\n      swap2\n      pop\n      pop\n      jump\t// out\n        /* \"#utility.yul\":28111:28504   */\n    tag_387:\n        /* \"#utility.yul\":28180:28186   */\n      0x00\n        /* \"#utility.yul\":28230:28231   */\n      0x08\n        /* \"#utility.yul\":28218:28228   */\n      dup4\n        /* \"#utility.yul\":28214:28232   */\n      mul\n        /* \"#utility.yul\":28253:28350   */\n      tag_647\n        /* \"#utility.yul\":28283:28349   */\n      0xffffffffffffffffffffffffffffffffffffffffffffffffffffffffffffffff\n        /* \"#utility.yul\":28272:28281   */\n      dup3\n        /* \"#utility.yul\":28253:28350   */\n      tag_386\n      jump\t// in\n    tag_647:\n        /* \"#utility.yul\":28371:28410   */\n      tag_648\n        /* \"#utility.yul\":28401:28409   */\n      dup7\n        /* \"#utility.yul\":28390:28399   */\n      dup4\n        /* \"#utility.yul\":28371:28410   */\n      tag_386\n      jump\t// in\n    tag_648:\n        /* \"#utility.yul\":28359:28410   */\n      swap6\n      pop\n        /* \"#utility.yul\":28443:28447   */\n      dup1\n        /* \"#utility.yul\":28439:28448   */\n      not\n        /* \"#utility.yul\":28432:28437   */\n      dup5\n        /* \"#utility.yul\":28428:28449   */\n      and\n        /* \"#utility.yul\":28419:28449   */\n      swap4\n      pop\n        /* \"#utility.yul\":28492:28496   */\n      dup1\n        /* \"#utility.yul\":28482:28490   */\n      dup7\n        /* \"#utility.yul\":28478:28497   */\n      and\n        /* \"#utility.yul\":28471:28476   */\n      dup5\n        /* \"#utility.yul\":28468:28498   */\n      or\n        /* \"#utility.yul\":28458:28498   */\n      swap3\n      pop\n        /* \"#utility.yul\":28187:28504   */\n      pop\n      pop\n        /* \"#utility.yul\":28111:28504   */\n      swap4\n      swap3\n      pop\n      pop\n      pop\n      jump\t// out\n        /* \"#utility.yul\":28510:28570   */\n    tag_388:\n        /* \"#utility.yul\":28538:28541   */\n      0x00\n        /* \"#utility.yul\":28559:28564   */\n      dup2\n        /* \"#utility.yul\":28552:28564   */\n      swap1\n      pop\n        /* \"#utility.yul\":28510:28570   */\n      swap2\n      swap1\n      pop\n      jump\t// out\n        /* \"#utility.yul\":28576:28718   */\n    tag_389:\n        /* \"#utility.yul\":28626:28635   */\n      0x00\n        /* \"#utility.yul\":28659:28712   */\n      tag_651\n        /* \"#utility.yul\":28677:28711   */\n      tag_652\n        /* \"#utility.yul\":28686:28710   */\n      tag_653\n        /* \"#utility.yul\":28704:28709   */\n      dup5\n        /* \"#utility.yul\":28686:28710   */\n      tag_338\n      jump\t// in\n    tag_653:\n        /* \"#utility.yul\":28677:28711   */\n      tag_388\n      jump\t// in\n    tag_652:\n        /* \"#utility.yul\":28659:28712   */\n      tag_338\n      jump\t// in\n    tag_651:\n        /* \"#utility.yul\":28646:28712   */\n      swap1\n      pop\n        /* \"#utility.yul\":28576:28718   */\n      swap2\n      swap1\n      pop\n      jump\t// out\n        /* \"#utility.yul\":28724:28799   */\n    tag_390:\n        /* \"#utility.yul\":28767:28770   */\n      0x00\n        /* \"#utility.yul\":28788:28793   */\n      dup2\n        /* \"#utility.yul\":28781:28793   */\n      swap1\n      pop\n        /* \"#utility.yul\":28724:28799   */\n      swap2\n      swap1\n      pop\n      jump\t// out\n        /* \"#utility.yul\":28805:29074   */\n    tag_391:\n        /* \"#utility.yul\":28915:28954   */\n      tag_656\n        /* \"#utility.yul\":28946:28953   */\n      dup4\n        /* \"#utility.yul\":28915:28954   */\n      tag_389\n      jump\t// in\n    tag_656:\n        /* \"#utility.yul\":28976:29067   */\n      tag_657\n        /* \"#utility.yul\":29025:29066   */\n      tag_658\n        /* \"#utility.yul\":29049:29065   */\n      dup3\n        /* \"#utility.yul\":29025:29066   */\n      tag_390\n      jump\t// in\n    tag_658:\n        /* \"#utility.yul\":29017:29023   */\n      dup5\n        /* \"#utility.yul\":29010:29014   */\n      dup5\n        /* \"#utility.yul\":29004:29015   */\n      sload\n        /* \"#utility.yul\":28976:29067   */\n      tag_387\n      jump\t// in\n    tag_657:\n        /* \"#utility.yul\":28970:28974   */\n      dup3\n        /* \"#utility.yul\":28963:29068   */\n      sstore\n        /* \"#utility.yul\":28881:29074   */\n      pop\n        /* \"#utility.yul\":28805:29074   */\n      pop\n      pop\n      pop\n      jump\t// out\n        /* \"#utility.yul\":29080:29153   */\n    tag_392:\n        /* \"#utility.yul\":29125:29128   */\n      0x00\n        /* \"#utility.yul\":29080:29153   */\n      swap1\n      jump\t// out\n        /* \"#utility.yul\":29159:29348   */\n    tag_393:\n        /* \"#utility.yul\":29236:29268   */\n      tag_661\n      tag_392\n      jump\t// in\n    tag_661:\n        /* \"#utility.yul\":29277:29342   */\n      tag_662\n        /* \"#utility.yul\":29335:29341   */\n      dup2\n        /* \"#utility.yul\":29327:29333   */\n      dup5\n        /* \"#utility.yul\":29321:29325   */\n      dup5\n        /* \"#utility.yul\":29277:29342   */\n      tag_391\n      jump\t// in\n    tag_662:\n        /* \"#utility.yul\":29212:29348   */\n      pop\n        /* \"#utility.yul\":29159:29348   */\n      pop\n      pop\n      jump\t// out\n        /* \"#utility.yul\":29354:29540   */\n    tag_394:\n        /* \"#utility.yul\":29414:29534   */\n    tag_664:\n        /* \"#utility.yul\":29431:29434   */\n      dup2\n        /* \"#utility.yul\":29424:29429   */\n      dup2\n        /* \"#utility.yul\":29421:29435   */\n      lt\n        /* \"#utility.yul\":29414:29534   */\n      iszero\n      tag_666\n      jumpi\n        /* \"#utility.yul\":29485:29524   */\n      tag_667\n        /* \"#utility.yul\":29522:29523   */\n      0x00\n        /* \"#utility.yul\":29515:29520   */\n      dup3\n        /* \"#utility.yul\":29485:29524   */\n      tag_393\n      jump\t// in\n    tag_667:\n        /* \"#utility.yul\":29458:29459   */\n      0x01\n        /* \"#utility.yul\":29451:29456   */\n      dup2\n        /* \"#utility.yul\":29447:29460   */\n      add\n        /* \"#utility.yul\":29438:29460   */\n      swap1\n      pop\n        /* \"#utility.yul\":29414:29534   */\n      jump(tag_664)\n    tag_666:\n        /* \"#utility.yul\":29354:29540   */\n      pop\n      pop\n      jump\t// out\n        /* \"#utility.yul\":29546:30089   */\n    tag_395:\n        /* \"#utility.yul\":29647:29649   */\n      0x1f\n        /* \"#utility.yul\":29642:29645   */\n      dup3\n        /* \"#utility.yul\":29639:29650   */\n      gt\n        /* \"#utility.yul\":29636:30082   */\n      iszero\n      tag_669\n      jumpi\n        /* \"#utility.yul\":29681:29719   */\n      tag_670\n        /* \"#utility.yul\":29713:29718   */\n      dup2\n        /* \"#utility.yul\":29681:29719   */\n      tag_384\n      jump\t// in\n    tag_670:\n        /* \"#utility.yul\":29765:29794   */\n      tag_671\n        /* \"#utility.yul\":29783:29793   */\n      dup5\n        /* \"#utility.yul\":29765:29794   */\n      tag_385\n      jump\t// in\n    tag_671:\n        /* \"#utility.yul\":29755:29763   */\n      dup2\n        /* \"#utility.yul\":29751:29795   */\n      add\n        /* \"#utility.yul\":29948:29950   */\n      0x20\n        /* \"#utility.yul\":29936:29946   */\n      dup6\n        /* \"#utility.yul\":29933:29951   */\n      lt\n        /* \"#utility.yul\":29930:29979   */\n      iszero\n      tag_672\n      jumpi\n        /* \"#utility.yul\":29969:29977   */\n      dup2\n        /* \"#utility.yul\":29954:29977   */\n      swap1\n      pop\n        /* \"#utility.yul\":29930:29979   */\n    tag_672:\n        /* \"#utility.yul\":29992:30072   */\n      tag_673\n        /* \"#utility.yul\":30048:30070   */\n      tag_674\n        /* \"#utility.yul\":30066:30069   */\n      dup6\n        /* \"#utility.yul\":30048:30070   */\n      tag_385\n      jump\t// in\n    tag_674:\n        /* \"#utility.yul\":30038:30046   */\n      dup4\n        /* \"#utility.yul\":30034:30071   */\n      add\n        /* \"#utility.yul\":30021:30032   */\n      dup3\n        /* \"#utility.yul\":29992:30072   */\n      tag_394\n      jump\t// in\n    tag_673:\n        /* \"#utility.yul\":29651:30082   */\n      pop\n      pop\n        /* \"#utility.yul\":29636:30082   */\n    tag_669:\n        /* \"#utility.yul\":29546:30089   */\n      pop\n      pop\n      pop\n      jump\t// out\n        /* \"#utility.yul\":30095:30212   */\n    tag_396:\n        /* \"#utility.yul\":30149:30157   */\n      0x00\n        /* \"#utility.yul\":30199:30204   */\n      dup3\n        /* \"#utility.yul\":30193:30197   */\n      dup3\n        /* \"#utility.yul\":30189:30205   */\n      shr\n        /* \"#utility.yul\":30168:30205   */\n      swap1\n      pop\n        /* \"#utility.yul\":30095:30212   */\n      swap3\n      swap2\n      pop\n      pop\n      jump\t// out\n        /* \"#utility.yul\":30218:30387   */\n    tag_397:\n        /* \"#utility.yul\":30262:30268   */\n      0x00\n        /* \"#utility.yul\":30295:30346   */\n      tag_677\n        /* \"#utility.yul\":30343:30344   */\n      0x00\n        /* \"#utility.yul\":30339:30345   */\n      not\n        /* \"#utility.yul\":30331:30336   */\n      dup5\n        /* \"#utility.yul\":30328:30329   */\n      0x08\n        /* \"#utility.yul\":30324:30337   */\n      mul\n        /* \"#utility.yul\":30295:30346   */\n      tag_396\n      jump\t// in\n    tag_677:\n        /* \"#utility.yul\":30291:30347   */\n      not\n        /* \"#utility.yul\":30376:30380   */\n      dup1\n        /* \"#utility.yul\":30370:30374   */\n      dup4\n        /* \"#utility.yul\":30366:30381   */\n      and\n        /* \"#utility.yul\":30356:30381   */\n      swap2\n      pop\n        /* \"#utility.yul\":30269:30387   */\n      pop\n        /* \"#utility.yul\":30218:30387   */\n      swap3\n      swap2\n      pop\n      pop\n      jump\t// out\n        /* \"#utility.yul\":30392:30687   */\n    tag_398:\n        /* \"#utility.yul\":30468:30472   */\n      0x00\n        /* \"#utility.yul\":30614:30643   */\n      tag_679\n        /* \"#utility.yul\":30639:30642   */\n      dup4\n        /* \"#utility.yul\":30633:30637   */\n      dup4\n        /* \"#utility.yul\":30614:30643   */\n      tag_397\n      jump\t// in\n    tag_679:\n        /* \"#utility.yul\":30606:30643   */\n      swap2\n      pop\n        /* \"#utility.yul\":30676:30679   */\n      dup3\n        /* \"#utility.yul\":30673:30674   */\n      0x02\n        /* \"#utility.yul\":30669:30680   */\n      mul\n        /* \"#utility.yul\":30663:30667   */\n      dup3\n        /* \"#utility.yul\":30660:30681   */\n      or\n        /* \"#utility.yul\":30652:30681   */\n      swap1\n      pop\n        /* \"#utility.yul\":30392:30687   */\n      swap3\n      swap2\n      pop\n      pop\n      jump\t// out\n        /* \"#utility.yul\":30692:32087   */\n    tag_108:\n        /* \"#utility.yul\":30809:30846   */\n      tag_681\n        /* \"#utility.yul\":30842:30845   */\n      dup3\n        /* \"#utility.yul\":30809:30846   */\n      tag_334\n      jump\t// in\n    tag_681:\n        /* \"#utility.yul\":30911:30929   */\n      0xffffffffffffffff\n        /* \"#utility.yul\":30903:30909   */\n      dup2\n        /* \"#utility.yul\":30900:30930   */\n      gt\n        /* \"#utility.yul\":30897:30953   */\n      iszero\n      tag_682\n      jumpi\n        /* \"#utility.yul\":30933:30951   */\n      tag_683\n      tag_118\n      jump\t// in\n    tag_683:\n        /* \"#utility.yul\":30897:30953   */\n    tag_682:\n        /* \"#utility.yul\":30977:31015   */\n      tag_684\n        /* \"#utility.yul\":31009:31013   */\n      dup3\n        /* \"#utility.yul\":31003:31014   */\n      sload\n        /* \"#utility.yul\":30977:31015   */\n      tag_135\n      jump\t// in\n    tag_684:\n        /* \"#utility.yul\":31062:31129   */\n      tag_685\n        /* \"#utility.yul\":31122:31128   */\n      dup3\n        /* \"#utility.yul\":31114:31120   */\n      dup3\n        /* \"#utility.yul\":31108:31112   */\n      dup6\n        /* \"#utility.yul\":31062:31129   */\n      tag_395\n      jump\t// in\n    tag_685:\n        /* \"#utility.yul\":31156:31157   */\n      0x00\n        /* \"#utility.yul\":31180:31184   */\n      0x20\n        /* \"#utility.yul\":31167:31184   */\n      swap1\n      pop\n        /* \"#utility.yul\":31212:31214   */\n      0x1f\n        /* \"#utility.yul\":31204:31210   */\n      dup4\n        /* \"#utility.yul\":31201:31215   */\n      gt\n        /* \"#utility.yul\":31229:31230   */\n      0x01\n        /* \"#utility.yul\":31224:31842   */\n      dup2\n      eq\n      tag_687\n      jumpi\n        /* \"#utility.yul\":31886:31887   */\n      0x00\n        /* \"#utility.yul\":31903:31909   */\n      dup5\n        /* \"#utility.yul\":31900:31977   */\n      iszero\n      tag_688\n      jumpi\n        /* \"#utility.yul\":31952:31961   */\n      dup3\n        /* \"#utility.yul\":31947:31950   */\n      dup8\n        /* \"#utility.yul\":31943:31962   */\n      add\n        /* \"#utility.yul\":31937:31963   */\n      mload\n        /* \"#utility.yul\":31928:31963   */\n      swap1\n      pop\n        /* \"#utility.yul\":31900:31977   */\n    tag_688:\n        /* \"#utility.yul\":32003:32070   */\n      tag_689\n        /* \"#utility.yul\":32063:32069   */\n      dup6\n        /* \"#utility.yul\":32056:32061   */\n      dup3\n        /* \"#utility.yul\":32003:32070   */\n      tag_398\n      jump\t// in\n    tag_689:\n        /* \"#utility.yul\":31997:32001   */\n      dup7\n        /* \"#utility.yul\":31990:32071   */\n      sstore\n        /* \"#utility.yul\":31859:32081   */\n      pop\n        /* \"#utility.yul\":31194:32081   */\n      jump(tag_686)\n        /* \"#utility.yul\":31224:31842   */\n    tag_687:\n        /* \"#utility.yul\":31276:31280   */\n      0x1f\n        /* \"#utility.yul\":31272:31281   */\n      not\n        /* \"#utility.yul\":31264:31270   */\n      dup5\n        /* \"#utility.yul\":31260:31282   */\n      and\n        /* \"#utility.yul\":31310:31347   */\n      tag_690\n        /* \"#utility.yul\":31342:31346   */\n      dup7\n        /* \"#utility.yul\":31310:31347   */\n      tag_384\n      jump\t// in\n    tag_690:\n        /* \"#utility.yul\":31369:31370   */\n      0x00\n        /* \"#utility.yul\":31383:31591   */\n    tag_691:\n        /* \"#utility.yul\":31397:31404   */\n      dup3\n        /* \"#utility.yul\":31394:31395   */\n      dup2\n        /* \"#utility.yul\":31391:31405   */\n      lt\n        /* \"#utility.yul\":31383:31591   */\n      iszero\n      tag_693\n      jumpi\n        /* \"#utility.yul\":31476:31485   */\n      dup5\n        /* \"#utility.yul\":31471:31474   */\n      dup10\n        /* \"#utility.yul\":31467:31486   */\n      add\n        /* \"#utility.yul\":31461:31487   */\n      mload\n        /* \"#utility.yul\":31453:31459   */\n      dup3\n        /* \"#utility.yul\":31446:31488   */\n      sstore\n        /* \"#utility.yul\":31527:31528   */\n      0x01\n        /* \"#utility.yul\":31519:31525   */\n      dup3\n        /* \"#utility.yul\":31515:31529   */\n      add\n        /* \"#utility.yul\":31505:31529   */\n      swap2\n      pop\n        /* \"#utility.yul\":31574:31576   */\n      0x20\n        /* \"#utility.yul\":31563:31572   */\n      dup6\n        /* \"#utility.yul\":31559:31577   */\n      add\n        /* \"#utility.yul\":31546:31577   */\n      swap5\n      pop\n        /* \"#utility.yul\":31420:31424   */\n      0x20\n        /* \"#utility.yul\":31417:31418   */\n      dup2\n        /* \"#utility.yul\":31413:31425   */\n      add\n        /* \"#utility.yul\":31408:31425   */\n      swap1\n      pop\n        /* \"#utility.yul\":31383:31591   */\n      jump(tag_691)\n    tag_693:\n        /* \"#utility.yul\":31619:31625   */\n      dup7\n        /* \"#utility.yul\":31610:31617   */\n      dup4\n        /* \"#utility.yul\":31607:31626   */\n      lt\n        /* \"#utility.yul\":31604:31783   */\n      iszero\n      tag_694\n      jumpi\n        /* \"#utility.yul\":31677:31686   */\n      dup5\n        /* \"#utility.yul\":31672:31675   */\n      dup10\n        /* \"#utility.yul\":31668:31687   */\n      add\n        /* \"#utility.yul\":31662:31688   */\n      mload\n        /* \"#utility.yul\":31720:31768   */\n      tag_695\n        /* \"#utility.yul\":31762:31766   */\n      0x1f\n        /* \"#utility.yul\":31754:31760   */\n      dup10\n        /* \"#utility.yul\":31750:31767   */\n      and\n        /* \"#utility.yul\":31739:31748   */\n      dup3\n        /* \"#utility.yul\":31720:31768   */\n      tag_397\n      jump\t// in\n    tag_695:\n        /* \"#utility.yul\":31712:31718   */\n      dup4\n        /* \"#utility.yul\":31705:31769   */\n      sstore\n        /* \"#utility.yul\":31627:31783   */\n      pop\n        /* \"#utility.yul\":31604:31783   */\n    tag_694:\n        /* \"#utility.yul\":31829:31830   */\n      0x01\n        /* \"#utility.yul\":31825:31826   */\n      0x02\n        /* \"#utility.yul\":31817:31823   */\n      dup9\n        /* \"#utility.yul\":31813:31827   */\n      mul\n        /* \"#utility.yul\":31809:31831   */\n      add\n        /* \"#utility.yul\":31803:31807   */\n      dup9\n        /* \"#utility.yul\":31796:31832   */\n      sstore\n        /* \"#utility.yul\":31231:31842   */\n      pop\n      pop\n      pop\n        /* \"#utility.yul\":31194:32081   */\n    tag_686:\n      pop\n        /* \"#utility.yul\":30784:32087   */\n      pop\n      pop\n      pop\n        /* \"#utility.yul\":30692:32087   */\n      pop\n      pop\n      jump\t// out\n        /* \"#utility.yul\":32093:32607   */\n    tag_114:\n        /* \"#utility.yul\":32254:32258   */\n      0x00\n        /* \"#utility.yul\":32292:32294   */\n      0x40\n        /* \"#utility.yul\":32281:32290   */\n      dup3\n        /* \"#utility.yul\":32277:32295   */\n      add\n        /* \"#utility.yul\":32269:32295   */\n      swap1\n      pop\n        /* \"#utility.yul\":32341:32350   */\n      dup2\n        /* \"#utility.yul\":32335:32339   */\n      dup2\n        /* \"#utility.yul\":32331:32351   */\n      sub\n        /* \"#utility.yul\":32327:32328   */\n      0x00\n        /* \"#utility.yul\":32316:32325   */\n      dup4\n        /* \"#utility.yul\":32312:32329   */\n      add\n        /* \"#utility.yul\":32305:32352   */\n      mstore\n        /* \"#utility.yul\":32369:32447   */\n      tag_697\n        /* \"#utility.yul\":32442:32446   */\n      dup2\n        /* \"#utility.yul\":32433:32439   */\n      dup6\n        /* \"#utility.yul\":32369:32447   */\n      tag_348\n      jump\t// in\n    tag_697:\n        /* \"#utility.yul\":32361:32447   */\n      swap1\n      pop\n        /* \"#utility.yul\":32494:32503   */\n      dup2\n        /* \"#utility.yul\":32488:32492   */\n      dup2\n        /* \"#utility.yul\":32484:32504   */\n      sub\n        /* \"#utility.yul\":32479:32481   */\n      0x20\n        /* \"#utility.yul\":32468:32477   */\n      dup4\n        /* \"#utility.yul\":32464:32482   */\n      add\n        /* \"#utility.yul\":32457:32505   */\n      mstore\n        /* \"#utility.yul\":32522:32600   */\n      tag_698\n        /* \"#utility.yul\":32595:32599   */\n      dup2\n        /* \"#utility.yul\":32586:32592   */\n      dup5\n        /* \"#utility.yul\":32522:32600   */\n      tag_348\n      jump\t// in\n    tag_698:\n        /* \"#utility.yul\":32514:32600   */\n      swap1\n      pop\n        /* \"#utility.yul\":32093:32607   */\n      swap4\n      swap3\n      pop\n      pop\n      pop\n      jump\t// out\n        /* \"#utility.yul\":32613:32793   */\n    tag_132:\n        /* \"#utility.yul\":32661:32738   */\n      0x4e487b7100000000000000000000000000000000000000000000000000000000\n        /* \"#utility.yul\":32658:32659   */\n      0x00\n        /* \"#utility.yul\":32651:32739   */\n      mstore\n        /* \"#utility.yul\":32758:32762   */\n      0x32\n        /* \"#utility.yul\":32755:32756   */\n      0x04\n        /* \"#utility.yul\":32748:32763   */\n      mstore\n        /* \"#utility.yul\":32782:32786   */\n      0x24\n        /* \"#utility.yul\":32779:32780   */\n      0x00\n        /* \"#utility.yul\":32772:32787   */\n      revert\n        /* \"#utility.yul\":32799:33019   */\n    tag_399:\n        /* \"#utility.yul\":32939:32973   */\n      0x4f6e6c792061646d696e2063616e2063616c6c20746869732066756e6374696f\n        /* \"#utility.yul\":32935:32936   */\n      0x00\n        /* \"#utility.yul\":32927:32933   */\n      dup3\n        /* \"#utility.yul\":32923:32937   */\n      add\n        /* \"#utility.yul\":32916:32974   */\n      mstore\n        /* \"#utility.yul\":33008:33011   */\n      0x6e00000000000000000000000000000000000000000000000000000000000000\n        /* \"#utility.yul\":33003:33005   */\n      0x20\n        /* \"#utility.yul\":32995:33001   */\n      dup3\n        /* \"#utility.yul\":32991:33006   */\n      add\n        /* \"#utility.yul\":32984:33012   */\n      mstore\n        /* \"#utility.yul\":32799:33019   */\n      pop\n      jump\t// out\n        /* \"#utility.yul\":33025:33391   */\n    tag_400:\n        /* \"#utility.yul\":33167:33170   */\n      0x00\n        /* \"#utility.yul\":33188:33255   */\n      tag_702\n        /* \"#utility.yul\":33252:33254   */\n      0x21\n        /* \"#utility.yul\":33247:33250   */\n      dup4\n        /* \"#utility.yul\":33188:33255   */\n      tag_347\n      jump\t// in\n    tag_702:\n        /* \"#utility.yul\":33181:33255   */\n      swap2\n      pop\n        /* \"#utility.yul\":33264:33357   */\n      tag_703\n        /* \"#utility.yul\":33353:33356   */\n      dup3\n        /* \"#utility.yul\":33264:33357   */\n      tag_399\n      jump\t// in\n    tag_703:\n        /* \"#utility.yul\":33382:33384   */\n      0x40\n        /* \"#utility.yul\":33377:33380   */\n      dup3\n        /* \"#utility.yul\":33373:33385   */\n      add\n        /* \"#utility.yul\":33366:33385   */\n      swap1\n      pop\n        /* \"#utility.yul\":33025:33391   */\n      swap2\n      swap1\n      pop\n      jump\t// out\n        /* \"#utility.yul\":33397:33816   */\n    tag_155:\n        /* \"#utility.yul\":33563:33567   */\n      0x00\n        /* \"#utility.yul\":33601:33603   */\n      0x20\n        /* \"#utility.yul\":33590:33599   */\n      dup3\n        /* \"#utility.yul\":33586:33604   */\n      add\n        /* \"#utility.yul\":33578:33604   */\n      swap1\n      pop\n        /* \"#utility.yul\":33650:33659   */\n      dup2\n        /* \"#utility.yul\":33644:33648   */\n      dup2\n        /* \"#utility.yul\":33640:33660   */\n      sub\n        /* \"#utility.yul\":33636:33637   */\n      0x00\n        /* \"#utility.yul\":33625:33634   */\n      dup4\n        /* \"#utility.yul\":33621:33638   */\n      add\n        /* \"#utility.yul\":33614:33661   */\n      mstore\n        /* \"#utility.yul\":33678:33809   */\n      tag_705\n        /* \"#utility.yul\":33804:33808   */\n      dup2\n        /* \"#utility.yul\":33678:33809   */\n      tag_400\n      jump\t// in\n    tag_705:\n        /* \"#utility.yul\":33670:33809   */\n      swap1\n      pop\n        /* \"#utility.yul\":33397:33816   */\n      swap2\n      swap1\n      pop\n      jump\t// out\n        /* \"#utility.yul\":33822:34001   */\n    tag_401:\n        /* \"#utility.yul\":33962:33993   */\n      0x436f6d706c61696e7420697320616c7265616479207265736f6c766564000000\n        /* \"#utility.yul\":33958:33959   */\n      0x00\n        /* \"#utility.yul\":33950:33956   */\n      dup3\n        /* \"#utility.yul\":33946:33960   */\n      add\n        /* \"#utility.yul\":33939:33994   */\n      mstore\n        /* \"#utility.yul\":33822:34001   */\n      pop\n      jump\t// out\n        /* \"#utility.yul\":34007:34373   */\n    tag_402:\n        /* \"#utility.yul\":34149:34152   */\n      0x00\n        /* \"#utility.yul\":34170:34237   */\n      tag_708\n        /* \"#utility.yul\":34234:34236   */\n      0x1d\n        /* \"#utility.yul\":34229:34232   */\n      dup4\n        /* \"#utility.yul\":34170:34237   */\n      tag_347\n      jump\t// in\n    tag_708:\n        /* \"#utility.yul\":34163:34237   */\n      swap2\n      pop\n        /* \"#utility.yul\":34246:34339   */\n      tag_709\n        /* \"#utility.yul\":34335:34338   */\n      dup3\n        /* \"#utility.yul\":34246:34339   */\n      tag_401\n      jump\t// in\n    tag_709:\n        /* \"#utility.yul\":34364:34366   */\n      0x20\n        /* \"#utility.yul\":34359:34362   */\n      dup3\n        /* \"#utility.yul\":34355:34367   */\n      add\n        /* \"#utility.yul\":34348:34367   */\n      swap1\n      pop\n        /* \"#utility.yul\":34007:34373   */\n      swap2\n      swap1\n      pop\n      jump\t// out\n        /* \"#utility.yul\":34379:34798   */\n    tag_163:\n        /* \"#utility.yul\":34545:34549   */\n      0x00\n        /* \"#utility.yul\":34583:34585   */\n      0x20\n        /* \"#utility.yul\":34572:34581   */\n      dup3\n        /* \"#utility.yul\":34568:34586   */\n      add\n        /* \"#utility.yul\":34560:34586   */\n      swap1\n      pop\n        /* \"#utility.yul\":34632:34641   */\n      dup2\n        /* \"#utility.yul\":34626:34630   */\n      dup2\n        /* \"#utility.yul\":34622:34642   */\n      sub\n        /* \"#utility.yul\":34618:34619   */\n      0x00\n        /* \"#utility.yul\":34607:34616   */\n      dup4\n        /* \"#utility.yul\":34603:34620   */\n      add\n        /* \"#utility.yul\":34596:34643   */\n      mstore\n        /* \"#utility.yul\":34660:34791   */\n      tag_711\n        /* \"#utility.yul\":34786:34790   */\n      dup2\n        /* \"#utility.yul\":34660:34791   */\n      tag_402\n      jump\t// in\n    tag_711:\n        /* \"#utility.yul\":34652:34791   */\n      swap1\n      pop\n        /* \"#utility.yul\":34379:34798   */\n      swap2\n      swap1\n      pop\n      jump\t// out\n        /* \"#utility.yul\":34804:35117   */\n    tag_167:\n        /* \"#utility.yul\":34917:34921   */\n      0x00\n        /* \"#utility.yul\":34955:34957   */\n      0x20\n        /* \"#utility.yul\":34944:34953   */\n      dup3\n        /* \"#utility.yul\":34940:34958   */\n      add\n        /* \"#utility.yul\":34932:34958   */\n      swap1\n      pop\n        /* \"#utility.yul\":35004:35013   */\n      dup2\n        /* \"#utility.yul\":34998:35002   */\n      dup2\n        /* \"#utility.yul\":34994:35014   */\n      sub\n        /* \"#utility.yul\":34990:34991   */\n      0x00\n        /* \"#utility.yul\":34979:34988   */\n      dup4\n        /* \"#utility.yul\":34975:34992   */\n      add\n        /* \"#utility.yul\":34968:35015   */\n      mstore\n        /* \"#utility.yul\":35032:35110   */\n      tag_713\n        /* \"#utility.yul\":35105:35109   */\n      dup2\n        /* \"#utility.yul\":35096:35102   */\n      dup5\n        /* \"#utility.yul\":35032:35110   */\n      tag_348\n      jump\t// in\n    tag_713:\n        /* \"#utility.yul\":35024:35110   */\n      swap1\n      pop\n        /* \"#utility.yul\":34804:35117   */\n      swap3\n      swap2\n      pop\n      pop\n      jump\t// out\n        /* \"#utility.yul\":35123:35469   */\n    tag_293:\n        /* \"#utility.yul\":35251:35255   */\n      0x00\n        /* \"#utility.yul\":35289:35291   */\n      0x40\n        /* \"#utility.yul\":35278:35287   */\n      dup3\n        /* \"#utility.yul\":35274:35292   */\n      add\n        /* \"#utility.yul\":35266:35292   */\n      swap1\n      pop\n        /* \"#utility.yul\":35302:35380   */\n      tag_715\n        /* \"#utility.yul\":35377:35378   */\n      0x00\n        /* \"#utility.yul\":35366:35375   */\n      dup4\n        /* \"#utility.yul\":35362:35379   */\n      add\n        /* \"#utility.yul\":35353:35359   */\n      dup6\n        /* \"#utility.yul\":35302:35380   */\n      tag_367\n      jump\t// in\n    tag_715:\n        /* \"#utility.yul\":35390:35462   */\n      tag_716\n        /* \"#utility.yul\":35458:35460   */\n      0x20\n        /* \"#utility.yul\":35447:35456   */\n      dup4\n        /* \"#utility.yul\":35443:35461   */\n      add\n        /* \"#utility.yul\":35434:35440   */\n      dup5\n        /* \"#utility.yul\":35390:35462   */\n      tag_349\n      jump\t// in\n    tag_716:\n        /* \"#utility.yul\":35123:35469   */\n      swap4\n      swap3\n      pop\n      pop\n      pop\n      jump\t// out\n\n    auxdata: 0xa26469706673582212206e6e25a284375c0058cc1944c4aeae20260532c8054869d7141a67e889c8b96764736f6c63430008140033\n}\n","bytecode":{"linkReferences":{},"object":"608060405234801561000f575f80fd5b50612d8b8061001d5f395ff3fe608060405234801561000f575f80fd5b5060043610610109575f3560e01c80634d3820eb116100a05780637e69e9121161006f5780637e69e912146102a5578063a9a9ddf1146102da578063d395fc041461030a578063deb514ff1461033a578063f7ddd7a41461035657610109565b80634d3820eb146102435780634eaf9db61461024d5780635ab6f71b1461027f5780636d7196eb1461028957610109565b806326019e7f116100dc57806326019e7f146101bb5780632edea294146101d75780633ae7db25146101f55780634209fff11461021357610109565b80630da3f37e1461010d578063152e1e3214610129578063204f257c1461015957806324d7806c1461018b575b5f80fd5b61012760048036038101906101229190611e71565b610386565b005b610143600480360381019061013e9190611f6f565b610611565b6040516101509190612143565b60405180910390f35b610173600480360381019061016e919061218d565b610885565b60405161018293929190612231565b60405180910390f35b6101a560048036038101906101a09190611f6f565b61096a565b6040516101b29190612287565b60405180910390f35b6101d560048036038101906101d091906122a0565b610986565b005b6101df610b18565b6040516101ec91906122fa565b60405180910390f35b6101fd610b1e565b60405161020a919061250f565b60405180910390f35b61022d60048036038101906102289190611f6f565b610f13565b60405161023a9190612287565b60405180910390f35b61024b610f30565b005b6102676004803603810190610262919061218d565b610fc9565b60405161027693929190612575565b60405180910390f35b610287611034565b005b6102a3600480360381019061029e91906125aa565b6110cd565b005b6102bf60048036038101906102ba91906125aa565b6110db565b6040516102d196959493929190612625565b60405180910390f35b6102f460048036038101906102ef91906125aa565b6112ed565b6040516103019190612789565b60405180910390f35b610324600480360381019061031f9190611f6f565b6113f2565b604051610331919061250f565b60405180910390f35b610354600480360381019061034f91906122a0565b61181f565b005b610370600480360381019061036b91906125aa565b6119cb565b60405161037d9190612143565b60405180910390f35b60015f3373ffffffffffffffffffffffffffffffffffffffff1673ffffffffffffffffffffffffffffffffffffffff1681526020019081526020015f205f9054906101000a900460ff1661040f576040517f08c379a0000000000000000000000000000000000000000000000000000000008152600401610406906127f3565b60405180910390fd5b5f835111610452576040517f08c379a00000000000000000000000000000000000000000000000000000000081526004016104499061285b565b60405180910390fd5b5f60055f815480929190610465906128a6565b9190505590506040518060c001604052808281526020013373ffffffffffffffffffffffffffffffffffffffff1681526020018481526020015f60018111156104b1576104b061233c565b5b815260200160405180604001604052808781526020018581525081526020014281525060025f8381526020019081526020015f205f820151815f01556020820151816001015f6101000a81548173ffffffffffffffffffffffffffffffffffffffff021916908373ffffffffffffffffffffffffffffffffffffffff16021790555060408201518160020190816105489190612ae7565b506060820151816003015f6101000a81548160ff021916908360018111156105735761057261233c565b5b02179055506080820151816004015f820151815f0190816105949190612ae7565b5060208201518160010190816105aa9190612ae7565b50505060a082015181600601559050503373ffffffffffffffffffffffffffffffffffffffff16817fb538e4e93715cf36354d0368248193865bc355a0b9906e40e3eeb2298af708698686604051610603929190612bb6565b60405180910390a350505050565b60605f60055467ffffffffffffffff8111156106305761062f611d4d565b5b60405190808252806020026020018201604052801561066957816020015b610656611c75565b81526020019060019003908161064e5790505b5090505f805b600554811015610877578473ffffffffffffffffffffffffffffffffffffffff1660025f8381526020019081526020015f206001015f9054906101000a900473ffffffffffffffffffffffffffffffffffffffff1673ffffffffffffffffffffffffffffffffffffffff1603610864575f5b60045f8381526020019081526020015f20805490508110156108625760045f8381526020019081526020015f2081815481106107205761071f612beb565b5b905f5260205f2090600302016040518060600160405290815f82015f9054906101000a900473ffffffffffffffffffffffffffffffffffffffff1673ffffffffffffffffffffffffffffffffffffffff1673ffffffffffffffffffffffffffffffffffffffff16815260200160018201805461079b9061291a565b80601f01602080910402602001604051908101604052809291908181526020018280546107c79061291a565b80156108125780601f106107e957610100808354040283529160200191610812565b820191905f5260205f20905b8154815290600101906020018083116107f557829003601f168201915b50505050508152602001600282015481525050848480610831906128a6565b95508151811061084457610843612beb565b5b6020026020010181905250808061085a906128a6565b9150506106e1565b505b808061086f906128a6565b91505061066f565b508082528192505050919050565b6004602052815f5260405f20818154811061089e575f80fd5b905f5260205f2090600302015f9150915050805f015f9054906101000a900473ffffffffffffffffffffffffffffffffffffffff16908060010180546108e39061291a565b80601f016020809104026020016040519081016040528092919081815260200182805461090f9061291a565b801561095a5780601f106109315761010080835404028352916020019161095a565b820191905f5260205f20905b81548152906001019060200180831161093d57829003601f168201915b5050505050908060020154905083565b5f602052805f5260405f205f915054906101000a900460ff1681565b5f803373ffffffffffffffffffffffffffffffffffffffff1673ffffffffffffffffffffffffffffffffffffffff1681526020019081526020015f205f9054906101000a900460ff16610a0e576040517f08c379a0000000000000000000000000000000000000000000000000000000008152600401610a0590612c88565b60405180910390fd5b5f6001811115610a2157610a2061233c565b5b60025f8481526020019081526020015f206003015f9054906101000a900460ff166001811115610a5457610a5361233c565b5b14610a94576040517f08c379a0000000000000000000000000000000000000000000000000000000008152600401610a8b90612cf0565b60405180910390fd5b600160025f8481526020019081526020015f206003015f6101000a81548160ff02191690836001811115610acb57610aca61233c565b5b0217905550817fa0e3a0a30e4ae091855116dfb1b3a775ab1b158763b0a44710be60283214ca7382604051610b009190612d0e565b60405180910390a2610b1482336001611b26565b5050565b60055481565b60605f805b600554811015610b9a575f6001811115610b4057610b3f61233c565b5b60025f8381526020019081526020015f206003015f9054906101000a900460ff166001811115610b7357610b7261233c565b5b03610b87578180610b83906128a6565b9250505b8080610b92906128a6565b915050610b23565b505f8167ffffffffffffffff811115610bb657610bb5611d4d565b5b604051908082528060200260200182016040528015610bef57816020015b610bdc611caa565b815260200190600190039081610bd45790505b5090505f805b600554811015610f09575f6001811115610c1257610c1161233c565b5b60025f8381526020019081526020015f206003015f9054906101000a900460ff166001811115610c4557610c4461233c565b5b03610ef65760025f8281526020019081526020015f206040518060c00160405290815f8201548152602001600182015f9054906101000a900473ffffffffffffffffffffffffffffffffffffffff1673ffffffffffffffffffffffffffffffffffffffff1673ffffffffffffffffffffffffffffffffffffffff168152602001600282018054610cd49061291a565b80601f0160208091040260200160405190810160405280929190818152602001828054610d009061291a565b8015610d4b5780601f10610d2257610100808354040283529160200191610d4b565b820191905f5260205f20905b815481529060010190602001808311610d2e57829003601f168201915b50505050508152602001600382015f9054906101000a900460ff166001811115610d7857610d7761233c565b5b6001811115610d8a57610d8961233c565b5b8152602001600482016040518060400160405290815f82018054610dad9061291a565b80601f0160208091040260200160405190810160405280929190818152602001828054610dd99061291a565b8015610e245780601f10610dfb57610100808354040283529160200191610e24565b820191905f5260205f20905b815481529060010190602001808311610e0757829003601f168201915b50505050508152602001600182018054610e3d9061291a565b80601f0160208091040260200160405190810160405280929190818152602001828054610e699061291a565b8015610eb45780601f10610e8b57610100808354040283529160200191610eb4565b820191905f5260205f20905b815481529060010190602001808311610e9757829003601f168201915b5050505050815250508152602001600682015481525050838380610ed7906128a6565b945081518110610eea57610ee9612beb565b5b60200260200101819052505b8080610f01906128a6565b915050610bf5565b5081935050505090565b6001602052805f5260405f205f915054906101000a900460ff1681565b6001805f3373ffffffffffffffffffffffffffffffffffffffff1673ffffffffffffffffffffffffffffffffffffffff1681526020019081526020015f205f6101000a81548160ff0219169083151502179055503373ffffffffffffffffffffffffffffffffffffffff167f54db7a5cb4735e1aac1f53db512d3390390bb6637bd30ad4bf9fc98667d9b9b960405160405180910390a2565b6003602052815f5260405f208181548110610fe2575f80fd5b905f5260205f2090600202015f9150915050805f015f9054906101000a900473ffffffffffffffffffffffffffffffffffffffff1690805f0160149054906101000a900460ff16908060010154905083565b60015f803373ffffffffffffffffffffffffffffffffffffffff1673ffffffffffffffffffffffffffffffffffffffff1681526020019081526020015f205f6101000a81548160ff0219169083151502179055503373ffffffffffffffffffffffffffffffffffffffff167fac0f15283d37631c15b481bc07dc402bcfc030956bcd94b5585f71d92e84c3da60405160405180910390a2565b6110d881335f611b26565b50565b6002602052805f5260405f205f91509050805f015490806001015f9054906101000a900473ffffffffffffffffffffffffffffffffffffffff16908060020180546111259061291a565b80601f01602080910402602001604051908101604052809291908181526020018280546111519061291a565b801561119c5780601f106111735761010080835404028352916020019161119c565b820191905f5260205f20905b81548152906001019060200180831161117f57829003601f168201915b505050505090806003015f9054906101000a900460ff1690806004016040518060400160405290815f820180546111d29061291a565b80601f01602080910402602001604051908101604052809291908181526020018280546111fe9061291a565b80156112495780601f1061122057610100808354040283529160200191611249565b820191905f5260205f20905b81548152906001019060200180831161122c57829003601f168201915b505050505081526020016001820180546112629061291a565b80601f016020809104026020016040519081016040528092919081815260200182805461128e9061291a565b80156112d95780601f106112b0576101008083540402835291602001916112d9565b820191905f5260205f20905b8154815290600101906020018083116112bc57829003601f168201915b505050505081525050908060060154905086565b606060035f8381526020019081526020015f20805480602002602001604051908101604052809291908181526020015f905b828210156113e7578382905f5260205f2090600202016040518060600160405290815f82015f9054906101000a900473ffffffffffffffffffffffffffffffffffffffff1673ffffffffffffffffffffffffffffffffffffffff1673ffffffffffffffffffffffffffffffffffffffff1681526020015f820160149054906101000a900460ff1660028111156113b8576113b761233c565b5b60028111156113ca576113c961233c565b5b81526020016001820154815250508152602001906001019061131f565b505050509050919050565b60605f805b600554811015611489578373ffffffffffffffffffffffffffffffffffffffff1660025f8381526020019081526020015f206001015f9054906101000a900473ffffffffffffffffffffffffffffffffffffffff1673ffffffffffffffffffffffffffffffffffffffff1603611476578180611472906128a6565b9250505b8080611481906128a6565b9150506113f7565b505f8167ffffffffffffffff8111156114a5576114a4611d4d565b5b6040519080825280602002602001820160405280156114de57816020015b6114cb611caa565b8152602001906001900390816114c35790505b5090505f805b600554811015611813578573ffffffffffffffffffffffffffffffffffffffff1660025f8381526020019081526020015f206001015f9054906101000a900473ffffffffffffffffffffffffffffffffffffffff1673ffffffffffffffffffffffffffffffffffffffff16036118005760025f8281526020019081526020015f206040518060c00160405290815f8201548152602001600182015f9054906101000a900473ffffffffffffffffffffffffffffffffffffffff1673ffffffffffffffffffffffffffffffffffffffff1673ffffffffffffffffffffffffffffffffffffffff1681526020016002820180546115de9061291a565b80601f016020809104026020016040519081016040528092919081815260200182805461160a9061291a565b80156116555780601f1061162c57610100808354040283529160200191611655565b820191905f5260205f20905b81548152906001019060200180831161163857829003601f168201915b50505050508152602001600382015f9054906101000a900460ff1660018111156116825761168161233c565b5b60018111156116945761169361233c565b5b8152602001600482016040518060400160405290815f820180546116b79061291a565b80601f01602080910402602001604051908101604052809291908181526020018280546116e39061291a565b801561172e5780601f106117055761010080835404028352916020019161172e565b820191905f5260205f20905b81548152906001019060200180831161171157829003601f168201915b505050505081526020016001820180546117479061291a565b80601f01602080910402602001604051908101604052809291908181526020018280546117739061291a565b80156117be5780601f10611795576101008083540402835291602001916117be565b820191905f5260205f20905b8154815290600101906020018083116117a157829003601f168201915b50505050508152505081526020016006820154815250508383806117e1906128a6565b9450815181106117f4576117f3612beb565b5b60200260200101819052505b808061180b906128a6565b9150506114e4565b50819350505050919050565b5f803373ffffffffffffffffffffffffffffffffffffffff1673ffffffffffffffffffffffffffffffffffffffff1681526020019081526020015f205f9054906101000a900460ff166118a7576040517f08c379a000000000000000000000000000000000000000000000000000000000815260040161189e90612c88565b60405180910390fd5b60045f8381526020019081526020015f2060405180606001604052803373ffffffffffffffffffffffffffffffffffffffff16815260200183815260200142815250908060018154018082558091505060019003905f5260205f2090600302015f909190919091505f820151815f015f6101000a81548173ffffffffffffffffffffffffffffffffffffffff021916908373ffffffffffffffffffffffffffffffffffffffff16021790555060208201518160010190816119689190612ae7565b506040820151816002015550503373ffffffffffffffffffffffffffffffffffffffff16827f5fde78e53658418a994f35a31fbb22a8ce49370b8678f1663a93e196b8e8896e6002426040516119bf929190612d2e565b60405180910390a35050565b606060045f8381526020019081526020015f20805480602002602001604051908101604052809291908181526020015f905b82821015611b1b578382905f5260205f2090600302016040518060600160405290815f82015f9054906101000a900473ffffffffffffffffffffffffffffffffffffffff1673ffffffffffffffffffffffffffffffffffffffff1673ffffffffffffffffffffffffffffffffffffffff168152602001600182018054611a829061291a565b80601f0160208091040260200160405190810160405280929190818152602001828054611aae9061291a565b8015611af95780601f10611ad057610100808354040283529160200191611af9565b820191905f5260205f20905b815481529060010190602001808311611adc57829003601f168201915b50505050508152602001600282015481525050815260200190600101906119fd565b505050509050919050565b60035f8481526020019081526020015f2060405180606001604052808473ffffffffffffffffffffffffffffffffffffffff168152602001836002811115611b7157611b7061233c565b5b815260200142815250908060018154018082558091505060019003905f5260205f2090600202015f909190919091505f820151815f015f6101000a81548173ffffffffffffffffffffffffffffffffffffffff021916908373ffffffffffffffffffffffffffffffffffffffff1602179055506020820151815f0160146101000a81548160ff02191690836002811115611c0e57611c0d61233c565b5b02179055506040820151816001015550508173ffffffffffffffffffffffffffffffffffffffff16837f5fde78e53658418a994f35a31fbb22a8ce49370b8678f1663a93e196b8e8896e8342604051611c68929190612d2e565b60405180910390a3505050565b60405180606001604052805f73ffffffffffffffffffffffffffffffffffffffff168152602001606081526020015f81525090565b6040518060c001604052805f81526020015f73ffffffffffffffffffffffffffffffffffffffff168152602001606081526020015f6001811115611cf157611cf061233c565b5b8152602001611cfe611d0a565b81526020015f81525090565b604051806040016040528060608152602001606081525090565b5f604051905090565b5f80fd5b5f80fd5b5f80fd5b5f80fd5b5f601f19601f8301169050919050565b7f4e487b71000000000000000000000000000000000000000000000000000000005f52604160045260245ffd5b611d8382611d3d565b810181811067ffffffffffffffff82111715611da257611da1611d4d565b5b80604052505050565b5f611db4611d24565b9050611dc08282611d7a565b919050565b5f67ffffffffffffffff821115611ddf57611dde611d4d565b5b611de882611d3d565b9050602081019050919050565b828183375f83830152505050565b5f611e15611e1084611dc5565b611dab565b905082815260208101848484011115611e3157611e30611d39565b5b611e3c848285611df5565b509392505050565b5f82601f830112611e5857611e57611d35565b5b8135611e68848260208601611e03565b91505092915050565b5f805f60608486031215611e8857611e87611d2d565b5b5f84013567ffffffffffffffff811115611ea557611ea4611d31565b5b611eb186828701611e44565b935050602084013567ffffffffffffffff811115611ed257611ed1611d31565b5b611ede86828701611e44565b925050604084013567ffffffffffffffff811115611eff57611efe611d31565b5b611f0b86828701611e44565b9150509250925092565b5f73ffffffffffffffffffffffffffffffffffffffff82169050919050565b5f611f3e82611f15565b9050919050565b611f4e81611f34565b8114611f58575f80fd5b50565b5f81359050611f6981611f45565b92915050565b5f60208284031215611f8457611f83611d2d565b5b5f611f9184828501611f5b565b91505092915050565b5f81519050919050565b5f82825260208201905092915050565b5f819050602082019050919050565b611fcc81611f34565b82525050565b5f81519050919050565b5f82825260208201905092915050565b5f5b83811015612009578082015181840152602081019050611fee565b5f8484015250505050565b5f61201e82611fd2565b6120288185611fdc565b9350612038818560208601611fec565b61204181611d3d565b840191505092915050565b5f819050919050565b61205e8161204c565b82525050565b5f606083015f8301516120795f860182611fc3565b50602083015184820360208601526120918282612014565b91505060408301516120a66040860182612055565b508091505092915050565b5f6120bc8383612064565b905092915050565b5f602082019050919050565b5f6120da82611f9a565b6120e48185611fa4565b9350836020820285016120f685611fb4565b805f5b85811015612131578484038952815161211285826120b1565b945061211d836120c4565b925060208a019950506001810190506120f9565b50829750879550505050505092915050565b5f6020820190508181035f83015261215b81846120d0565b905092915050565b61216c8161204c565b8114612176575f80fd5b50565b5f8135905061218781612163565b92915050565b5f80604083850312156121a3576121a2611d2d565b5b5f6121b085828601612179565b92505060206121c185828601612179565b9150509250929050565b6121d481611f34565b82525050565b5f82825260208201905092915050565b5f6121f482611fd2565b6121fe81856121da565b935061220e818560208601611fec565b61221781611d3d565b840191505092915050565b61222b8161204c565b82525050565b5f6060820190506122445f8301866121cb565b818103602083015261225681856121ea565b90506122656040830184612222565b949350505050565b5f8115159050919050565b6122818161226d565b82525050565b5f60208201905061229a5f830184612278565b92915050565b5f80604083850312156122b6576122b5611d2d565b5b5f6122c385828601612179565b925050602083013567ffffffffffffffff8111156122e4576122e3611d31565b5b6122f085828601611e44565b9150509250929050565b5f60208201905061230d5f830184612222565b92915050565b5f81519050919050565b5f82825260208201905092915050565b5f819050602082019050919050565b7f4e487b71000000000000000000000000000000000000000000000000000000005f52602160045260245ffd5b6002811061237a5761237961233c565b5b50565b5f81905061238a82612369565b919050565b5f6123998261237d565b9050919050565b6123a98161238f565b82525050565b5f604083015f8301518482035f8601526123c98282612014565b915050602083015184820360208601526123e38282612014565b9150508091505092915050565b5f60c083015f8301516124055f860182612055565b5060208301516124186020860182611fc3565b50604083015184820360408601526124308282612014565b915050606083015161244560608601826123a0565b506080830151848203608086015261245d82826123af565b91505060a083015161247260a0860182612055565b508091505092915050565b5f61248883836123f0565b905092915050565b5f602082019050919050565b5f6124a682612313565b6124b0818561231d565b9350836020820285016124c28561232d565b805f5b858110156124fd57848403895281516124de858261247d565b94506124e983612490565b925060208a019950506001810190506124c5565b50829750879550505050505092915050565b5f6020820190508181035f830152612527818461249c565b905092915050565b600381106125405761253f61233c565b5b50565b5f8190506125508261252f565b919050565b5f61255f82612543565b9050919050565b61256f81612555565b82525050565b5f6060820190506125885f8301866121cb565b6125956020830185612566565b6125a26040830184612222565b949350505050565b5f602082840312156125bf576125be611d2d565b5b5f6125cc84828501612179565b91505092915050565b6125de8161238f565b82525050565b5f604083015f8301518482035f8601526125fe8282612014565b915050602083015184820360208601526126188282612014565b9150508091505092915050565b5f60c0820190506126385f830189612222565b61264560208301886121cb565b818103604083015261265781876121ea565b905061266660608301866125d5565b818103608083015261267881856125e4565b905061268760a0830184612222565b979650505050505050565b5f81519050919050565b5f82825260208201905092915050565b5f819050602082019050919050565b6126c481612555565b82525050565b606082015f8201516126de5f850182611fc3565b5060208201516126f160208501826126bb565b5060408201516127046040850182612055565b50505050565b5f61271583836126ca565b60608301905092915050565b5f602082019050919050565b5f61273782612692565b612741818561269c565b935061274c836126ac565b805f5b8381101561277c578151612763888261270a565b975061276e83612721565b92505060018101905061274f565b5085935050505092915050565b5f6020820190508181035f8301526127a1818461272d565b905092915050565b7f4f6e6c7920757365722063616e2063616c6c20746869732066756e6374696f6e5f82015250565b5f6127dd6020836121da565b91506127e8826127a9565b602082019050919050565b5f6020820190508181035f83015261280a816127d1565b9050919050565b7f4e6f2066696c652070726f7669646564000000000000000000000000000000005f82015250565b5f6128456010836121da565b915061285082612811565b602082019050919050565b5f6020820190508181035f83015261287281612839565b9050919050565b7f4e487b71000000000000000000000000000000000000000000000000000000005f52601160045260245ffd5b5f6128b08261204c565b91507fffffffffffffffffffffffffffffffffffffffffffffffffffffffffffffffff82036128e2576128e1612879565b5b600182019050919050565b7f4e487b71000000000000000000000000000000000000000000000000000000005f52602260045260245ffd5b5f600282049050600182168061293157607f821691505b602082108103612944576129436128ed565b5b50919050565b5f819050815f5260205f209050919050565b5f6020601f8301049050919050565b5f82821b905092915050565b5f600883026129a67fffffffffffffffffffffffffffffffffffffffffffffffffffffffffffffffff8261296b565b6129b0868361296b565b95508019841693508086168417925050509392505050565b5f819050919050565b5f6129eb6129e66129e18461204c565b6129c8565b61204c565b9050919050565b5f819050919050565b612a04836129d1565b612a18612a10826129f2565b848454612977565b825550505050565b5f90565b612a2c612a20565b612a378184846129fb565b505050565b5b81811015612a5a57612a4f5f82612a24565b600181019050612a3d565b5050565b601f821115612a9f57612a708161294a565b612a798461295c565b81016020851015612a88578190505b612a9c612a948561295c565b830182612a3c565b50505b505050565b5f82821c905092915050565b5f612abf5f1984600802612aa4565b1980831691505092915050565b5f612ad78383612ab0565b9150826002028217905092915050565b612af082611fd2565b67ffffffffffffffff811115612b0957612b08611d4d565b5b612b13825461291a565b612b1e828285612a5e565b5f60209050601f831160018114612b4f575f8415612b3d578287015190505b612b478582612acc565b865550612bae565b601f198416612b5d8661294a565b5f5b82811015612b8457848901518255600182019150602085019450602081019050612b5f565b86831015612ba15784890151612b9d601f891682612ab0565b8355505b6001600288020188555050505b505050505050565b5f6040820190508181035f830152612bce81856121ea565b90508181036020830152612be281846121ea565b90509392505050565b7f4e487b71000000000000000000000000000000000000000000000000000000005f52603260045260245ffd5b7f4f6e6c792061646d696e2063616e2063616c6c20746869732066756e6374696f5f8201527f6e00000000000000000000000000000000000000000000000000000000000000602082015250565b5f612c726021836121da565b9150612c7d82612c18565b604082019050919050565b5f6020820190508181035f830152612c9f81612c66565b9050919050565b7f436f6d706c61696e7420697320616c7265616479207265736f6c7665640000005f82015250565b5f612cda601d836121da565b9150612ce582612ca6565b602082019050919050565b5f6020820190508181035f830152612d0781612cce565b9050919050565b5f6020820190508181035f830152612d2681846121ea565b905092915050565b5f604082019050612d415f830185612566565b612d4e6020830184612222565b939250505056fea26469706673582212206e6e25a284375c0058cc1944c4aeae20260532c8054869d7141a67e889c8b96764736f6c63430008140033","opcodes":"PUSH1 0x80 PUSH1 0x40 MSTORE CALLVALUE DUP1 ISZERO PUSH2 0xF JUMPI PUSH0 DUP1 REVERT JUMPDEST POP PUSH2 0x2D8B DUP1 PUSH2 0x1D PUSH0 CODECOPY PUSH0 RETURN INVALID PUSH1 0x80 PUSH1 0x40 MSTORE CALLVALUE DUP1 ISZERO PUSH2 0xF JUMPI PUSH0 DUP1 REVERT JUMPDEST POP PUSH1 0x4 CALLDATASIZE LT PUSH2 0x109 JUMPI PUSH0 CALLDATALOAD PUSH1 0xE0 SHR DUP1 PUSH4 0x4D3820EB GT PUSH2 0xA0 JUMPI DUP1 PUSH4 0x7E69E912 GT PUSH2 0x6F JUMPI DUP1 PUSH4 0x7E69E912 EQ PUSH2 0x2A5 JUMPI DUP1 PUSH4 0xA9A9DDF1 EQ PUSH2 0x2DA JUMPI DUP1 PUSH4 0xD395FC04 EQ PUSH2 0x30A JUMPI DUP1 PUSH4 0xDEB514FF EQ PUSH2 0x33A JUMPI DUP1 PUSH4 0xF7DDD7A4 EQ PUSH2 0x356 JUMPI PUSH2 0x109 JUMP JUMPDEST DUP1 PUSH4 0x4D3820EB EQ PUSH2 0x243 JUMPI DUP1 PUSH4 0x4EAF9DB6 EQ PUSH2 0x24D JUMPI DUP1 PUSH4 0x5AB6F71B EQ PUSH2 0x27F JUMPI DUP1 PUSH4 0x6D7196EB EQ PUSH2 0x289 JUMPI PUSH2 0x109 JUMP JUMPDEST DUP1 PUSH4 0x26019E7F GT PUSH2 0xDC JUMPI DUP1 PUSH4 0x26019E7F EQ PUSH2 0x1BB JUMPI DUP1 PUSH4 0x2EDEA294 EQ PUSH2 0x1D7 JUMPI DUP1 PUSH4 0x3AE7DB25 EQ PUSH2 0x1F5 JUMPI DUP1 PUSH4 0x4209FFF1 EQ PUSH2 0x213 JUMPI PUSH2 0x109 JUMP JUMPDEST DUP1 PUSH4 0xDA3F37E EQ PUSH2 0x10D JUMPI DUP1 PUSH4 0x152E1E32 EQ PUSH2 0x129 JUMPI DUP1 PUSH4 0x204F257C EQ PUSH2 0x159 JUMPI DUP1 PUSH4 0x24D7806C EQ PUSH2 0x18B JUMPI JUMPDEST PUSH0 DUP1 REVERT JUMPDEST PUSH2 0x127 PUSH1 0x4 DUP1 CALLDATASIZE SUB DUP2 ADD SWAP1 PUSH2 0x122 SWAP2 SWAP1 PUSH2 0x1E71 JUMP JUMPDEST PUSH2 0x386 JUMP JUMPDEST STOP JUMPDEST PUSH2 0x143 PUSH1 0x4 DUP1 CALLDATASIZE SUB DUP2 ADD SWAP1 PUSH2 0x13E SWAP2 SWAP1 PUSH2 0x1F6F JUMP JUMPDEST PUSH2 0x611 JUMP JUMPDEST PUSH1 0x40 MLOAD PUSH2 0x150 SWAP2 SWAP1 PUSH2 0x2143 JUMP JUMPDEST PUSH1 0x40 MLOAD DUP1 SWAP2 SUB SWAP1 RETURN JUMPDEST PUSH2 0x173 PUSH1 0x4 DUP1 CALLDATASIZE SUB DUP2 ADD SWAP1 PUSH2 0x16E SWAP2 SWAP1 PUSH2 0x218D JUMP JUMPDEST PUSH2 0x885 JUMP JUMPDEST PUSH1 0x40 MLOAD PUSH2 0x182 SWAP4 SWAP3 SWAP2 SWAP1 PUSH2 0x2231 JUMP JUMPDEST PUSH1 0x40 MLOAD DUP1 SWAP2 SUB SWAP1 RETURN JUMPDEST PUSH2 0x1A5 PUSH1 0x4 DUP1 CALLDATASIZE SUB DUP2 ADD SWAP1 PUSH2 0x1A0 SWAP2 SWAP1 PUSH2 0x1F6F JUMP JUMPDEST PUSH2 0x96A JUMP JUMPDEST PUSH1 0x40 MLOAD PUSH2 0x1B2 SWAP2 SWAP1 PUSH2 0x2287 JUMP JUMPDEST PUSH1 0x40 MLOAD DUP1 SWAP2 SUB SWAP1 RETURN JUMPDEST PUSH2 0x1D5 PUSH1 0x4 DUP1 CALLDATASIZE SUB DUP2 ADD SWAP1 PUSH2 0x1D0 SWAP2 SWAP1 PUSH2 0x22A0 JUMP JUMPDEST PUSH2 0x986 JUMP JUMPDEST STOP JUMPDEST PUSH2 0x1DF PUSH2 0xB18 JUMP JUMPDEST PUSH1 0x40 MLOAD PUSH2 0x1EC SWAP2 SWAP1 PUSH2 0x22FA JUMP JUMPDEST PUSH1 0x40 MLOAD DUP1 SWAP2 SUB SWAP1 RETURN JUMPDEST PUSH2 0x1FD PUSH2 0xB1E JUMP JUMPDEST PUSH1 0x40 MLOAD PUSH2 0x20A SWAP2 SWAP1 PUSH2 0x250F JUMP JUMPDEST PUSH1 0x40 MLOAD DUP1 SWAP2 SUB SWAP1 RETURN JUMPDEST PUSH2 0x22D PUSH1 0x4 DUP1 CALLDATASIZE SUB DUP2 ADD SWAP1 PUSH2 0x228 SWAP2 SWAP1 PUSH2 0x1F6F JUMP JUMPDEST PUSH2 0xF13 JUMP JUMPDEST PUSH1 0x40 MLOAD PUSH2 0x23A SWAP2 SWAP1 PUSH2 0x2287 JUMP JUMPDEST PUSH1 0x40 MLOAD DUP1 SWAP2 SUB SWAP1 RETURN JUMPDEST PUSH2 0x24B PUSH2 0xF30 JUMP JUMPDEST STOP JUMPDEST PUSH2 0x267 PUSH1 0x4 DUP1 CALLDATASIZE SUB DUP2 ADD SWAP1 PUSH2 0x262 SWAP2 SWAP1 PUSH2 0x218D JUMP JUMPDEST PUSH2 0xFC9 JUMP JUMPDEST PUSH1 0x40 MLOAD PUSH2 0x276 SWAP4 SWAP3 SWAP2 SWAP1 PUSH2 0x2575 JUMP JUMPDEST PUSH1 0x40 MLOAD DUP1 SWAP2 SUB SWAP1 RETURN JUMPDEST PUSH2 0x287 PUSH2 0x1034 JUMP JUMPDEST STOP JUMPDEST PUSH2 0x2A3 PUSH1 0x4 DUP1 CALLDATASIZE SUB DUP2 ADD SWAP1 PUSH2 0x29E SWAP2 SWAP1 PUSH2 0x25AA JUMP JUMPDEST PUSH2 0x10CD JUMP JUMPDEST STOP JUMPDEST PUSH2 0x2BF PUSH1 0x4 DUP1 CALLDATASIZE SUB DUP2 ADD SWAP1 PUSH2 0x2BA SWAP2 SWAP1 PUSH2 0x25AA JUMP JUMPDEST PUSH2 0x10DB JUMP JUMPDEST PUSH1 0x40 MLOAD PUSH2 0x2D1 SWAP7 SWAP6 SWAP5 SWAP4 SWAP3 SWAP2 SWAP1 PUSH2 0x2625 JUMP JUMPDEST PUSH1 0x40 MLOAD DUP1 SWAP2 SUB SWAP1 RETURN JUMPDEST PUSH2 0x2F4 PUSH1 0x4 DUP1 CALLDATASIZE SUB DUP2 ADD SWAP1 PUSH2 0x2EF SWAP2 SWAP1 PUSH2 0x25AA JUMP JUMPDEST PUSH2 0x12ED JUMP JUMPDEST PUSH1 0x40 MLOAD PUSH2 0x301 SWAP2 SWAP1 PUSH2 0x2789 JUMP JUMPDEST PUSH1 0x40 MLOAD DUP1 SWAP2 SUB SWAP1 RETURN JUMPDEST PUSH2 0x324 PUSH1 0x4 DUP1 CALLDATASIZE SUB DUP2 ADD SWAP1 PUSH2 0x31F SWAP2 SWAP1 PUSH2 0x1F6F JUMP JUMPDEST PUSH2 0x13F2 JUMP JUMPDEST PUSH1 0x40 MLOAD PUSH2 0x331 SWAP2 SWAP1 PUSH2 0x250F JUMP JUMPDEST PUSH1 0x40 MLOAD DUP1 SWAP2 SUB SWAP1 RETURN JUMPDEST PUSH2 0x354 PUSH1 0x4 DUP1 CALLDATASIZE SUB DUP2 ADD SWAP1 PUSH2 0x34F SWAP2 SWAP1 PUSH2 0x22A0 JUMP JUMPDEST PUSH2 0x181F JUMP JUMPDEST STOP JUMPDEST PUSH2 0x370 PUSH1 0x4 DUP1 CALLDATASIZE SUB DUP2 ADD SWAP1 PUSH2 0x36B SWAP2 SWAP1 PUSH2 0x25AA JUMP JUMPDEST PUSH2 0x19CB JUMP JUMPDEST PUSH1 0x40 MLOAD PUSH2 0x37D SWAP2 SWAP1 PUSH2 0x2143 JUMP JUMPDEST PUSH1 0x40 MLOAD DUP1 SWAP2 SUB SWAP1 RETURN JUMPDEST PUSH1 0x1 PUSH0 CALLER PUSH20 0xFFFFFFFFFFFFFFFFFFFFFFFFFFFFFFFFFFFFFFFF AND PUSH20 0xFFFFFFFFFFFFFFFFFFFFFFFFFFFFFFFFFFFFFFFF AND DUP2 MSTORE PUSH1 0x20 ADD SWAP1 DUP2 MSTORE PUSH1 0x20 ADD PUSH0 KECCAK256 PUSH0 SWAP1 SLOAD SWAP1 PUSH2 0x100 EXP SWAP1 DIV PUSH1 0xFF AND PUSH2 0x40F JUMPI PUSH1 0x40 MLOAD PUSH32 0x8C379A000000000000000000000000000000000000000000000000000000000 DUP2 MSTORE PUSH1 0x4 ADD PUSH2 0x406 SWAP1 PUSH2 0x27F3 JUMP JUMPDEST PUSH1 0x40 MLOAD DUP1 SWAP2 SUB SWAP1 REVERT JUMPDEST PUSH0 DUP4 MLOAD GT PUSH2 0x452 JUMPI PUSH1 0x40 MLOAD PUSH32 0x8C379A000000000000000000000000000000000000000000000000000000000 DUP2 MSTORE PUSH1 0x4 ADD PUSH2 0x449 SWAP1 PUSH2 0x285B JUMP JUMPDEST PUSH1 0x40 MLOAD DUP1 SWAP2 SUB SWAP1 REVERT JUMPDEST PUSH0 PUSH1 0x5 PUSH0 DUP2 SLOAD DUP1 SWAP3 SWAP2 SWAP1 PUSH2 0x465 SWAP1 PUSH2 0x28A6 JUMP JUMPDEST SWAP2 SWAP1 POP SSTORE SWAP1 POP PUSH1 0x40 MLOAD DUP1 PUSH1 0xC0 ADD PUSH1 0x40 MSTORE DUP1 DUP3 DUP2 MSTORE PUSH1 0x20 ADD CALLER PUSH20 0xFFFFFFFFFFFFFFFFFFFFFFFFFFFFFFFFFFFFFFFF AND DUP2 MSTORE PUSH1 0x20 ADD DUP5 DUP2 MSTORE PUSH1 0x20 ADD PUSH0 PUSH1 0x1 DUP2 GT ISZERO PUSH2 0x4B1 JUMPI PUSH2 0x4B0 PUSH2 0x233C JUMP JUMPDEST JUMPDEST DUP2 MSTORE PUSH1 0x20 ADD PUSH1 0x40 MLOAD DUP1 PUSH1 0x40 ADD PUSH1 0x40 MSTORE DUP1 DUP8 DUP2 MSTORE PUSH1 0x20 ADD DUP6 DUP2 MSTORE POP DUP2 MSTORE PUSH1 0x20 ADD TIMESTAMP DUP2 MSTORE POP PUSH1 0x2 PUSH0 DUP4 DUP2 MSTORE PUSH1 0x20 ADD SWAP1 DUP2 MSTORE PUSH1 0x20 ADD PUSH0 KECCAK256 PUSH0 DUP3 ADD MLOAD DUP2 PUSH0 ADD SSTORE PUSH1 0x20 DUP3 ADD MLOAD DUP2 PUSH1 0x1 ADD PUSH0 PUSH2 0x100 EXP DUP2 SLOAD DUP2 PUSH20 0xFFFFFFFFFFFFFFFFFFFFFFFFFFFFFFFFFFFFFFFF MUL NOT AND SWAP1 DUP4 PUSH20 0xFFFFFFFFFFFFFFFFFFFFFFFFFFFFFFFFFFFFFFFF AND MUL OR SWAP1 SSTORE POP PUSH1 0x40 DUP3 ADD MLOAD DUP2 PUSH1 0x2 ADD SWAP1 DUP2 PUSH2 0x548 SWAP2 SWAP1 PUSH2 0x2AE7 JUMP JUMPDEST POP PUSH1 0x60 DUP3 ADD MLOAD DUP2 PUSH1 0x3 ADD PUSH0 PUSH2 0x100 EXP DUP2 SLOAD DUP2 PUSH1 0xFF MUL NOT AND SWAP1 DUP4 PUSH1 0x1 DUP2 GT ISZERO PUSH2 0x573 JUMPI PUSH2 0x572 PUSH2 0x233C JUMP JUMPDEST JUMPDEST MUL OR SWAP1 SSTORE POP PUSH1 0x80 DUP3 ADD MLOAD DUP2 PUSH1 0x4 ADD PUSH0 DUP3 ADD MLOAD DUP2 PUSH0 ADD SWAP1 DUP2 PUSH2 0x594 SWAP2 SWAP1 PUSH2 0x2AE7 JUMP JUMPDEST POP PUSH1 0x20 DUP3 ADD MLOAD DUP2 PUSH1 0x1 ADD SWAP1 DUP2 PUSH2 0x5AA SWAP2 SWAP1 PUSH2 0x2AE7 JUMP JUMPDEST POP POP POP PUSH1 0xA0 DUP3 ADD MLOAD DUP2 PUSH1 0x6 ADD SSTORE SWAP1 POP POP CALLER PUSH20 0xFFFFFFFFFFFFFFFFFFFFFFFFFFFFFFFFFFFFFFFF AND DUP2 PUSH32 0xB538E4E93715CF36354D0368248193865BC355A0B9906E40E3EEB2298AF70869 DUP7 DUP7 PUSH1 0x40 MLOAD PUSH2 0x603 SWAP3 SWAP2 SWAP1 PUSH2 0x2BB6 JUMP JUMPDEST PUSH1 0x40 MLOAD DUP1 SWAP2 SUB SWAP1 LOG3 POP POP POP POP JUMP JUMPDEST PUSH1 0x60 PUSH0 PUSH1 0x5 SLOAD PUSH8 0xFFFFFFFFFFFFFFFF DUP2 GT ISZERO PUSH2 0x630 JUMPI PUSH2 0x62F PUSH2 0x1D4D JUMP JUMPDEST JUMPDEST PUSH1 0x40 MLOAD SWAP1 DUP1 DUP3 MSTORE DUP1 PUSH1 0x20 MUL PUSH1 0x20 ADD DUP3 ADD PUSH1 0x40 MSTORE DUP1 ISZERO PUSH2 0x669 JUMPI DUP2 PUSH1 0x20 ADD JUMPDEST PUSH2 0x656 PUSH2 0x1C75 JUMP JUMPDEST DUP2 MSTORE PUSH1 0x20 ADD SWAP1 PUSH1 0x1 SWAP1 SUB SWAP1 DUP2 PUSH2 0x64E JUMPI SWAP1 POP JUMPDEST POP SWAP1 POP PUSH0 DUP1 JUMPDEST PUSH1 0x5 SLOAD DUP2 LT ISZERO PUSH2 0x877 JUMPI DUP5 PUSH20 0xFFFFFFFFFFFFFFFFFFFFFFFFFFFFFFFFFFFFFFFF AND PUSH1 0x2 PUSH0 DUP4 DUP2 MSTORE PUSH1 0x20 ADD SWAP1 DUP2 MSTORE PUSH1 0x20 ADD PUSH0 KECCAK256 PUSH1 0x1 ADD PUSH0 SWAP1 SLOAD SWAP1 PUSH2 0x100 EXP SWAP1 DIV PUSH20 0xFFFFFFFFFFFFFFFFFFFFFFFFFFFFFFFFFFFFFFFF AND PUSH20 0xFFFFFFFFFFFFFFFFFFFFFFFFFFFFFFFFFFFFFFFF AND SUB PUSH2 0x864 JUMPI PUSH0 JUMPDEST PUSH1 0x4 PUSH0 DUP4 DUP2 MSTORE PUSH1 0x20 ADD SWAP1 DUP2 MSTORE PUSH1 0x20 ADD PUSH0 KECCAK256 DUP1 SLOAD SWAP1 POP DUP2 LT ISZERO PUSH2 0x862 JUMPI PUSH1 0x4 PUSH0 DUP4 DUP2 MSTORE PUSH1 0x20 ADD SWAP1 DUP2 MSTORE PUSH1 0x20 ADD PUSH0 KECCAK256 DUP2 DUP2 SLOAD DUP2 LT PUSH2 0x720 JUMPI PUSH2 0x71F PUSH2 0x2BEB JUMP JUMPDEST JUMPDEST SWAP1 PUSH0 MSTORE PUSH1 0x20 PUSH0 KECCAK256 SWAP1 PUSH1 0x3 MUL ADD PUSH1 0x40 MLOAD DUP1 PUSH1 0x60 ADD PUSH1 0x40 MSTORE SWAP1 DUP2 PUSH0 DUP3 ADD PUSH0 SWAP1 SLOAD SWAP1 PUSH2 0x100 EXP SWAP1 DIV PUSH20 0xFFFFFFFFFFFFFFFFFFFFFFFFFFFFFFFFFFFFFFFF AND PUSH20 0xFFFFFFFFFFFFFFFFFFFFFFFFFFFFFFFFFFFFFFFF AND PUSH20 0xFFFFFFFFFFFFFFFFFFFFFFFFFFFFFFFFFFFFFFFF AND DUP2 MSTORE PUSH1 0x20 ADD PUSH1 0x1 DUP3 ADD DUP1 SLOAD PUSH2 0x79B SWAP1 PUSH2 0x291A JUMP JUMPDEST DUP1 PUSH1 0x1F ADD PUSH1 0x20 DUP1 SWAP2 DIV MUL PUSH1 0x20 ADD PUSH1 0x40 MLOAD SWAP1 DUP2 ADD PUSH1 0x40 MSTORE DUP1 SWAP3 SWAP2 SWAP1 DUP2 DUP2 MSTORE PUSH1 0x20 ADD DUP3 DUP1 SLOAD PUSH2 0x7C7 SWAP1 PUSH2 0x291A JUMP JUMPDEST DUP1 ISZERO PUSH2 0x812 JUMPI DUP1 PUSH1 0x1F LT PUSH2 0x7E9 JUMPI PUSH2 0x100 DUP1 DUP4 SLOAD DIV MUL DUP4 MSTORE SWAP2 PUSH1 0x20 ADD SWAP2 PUSH2 0x812 JUMP JUMPDEST DUP3 ADD SWAP2 SWAP1 PUSH0 MSTORE PUSH1 0x20 PUSH0 KECCAK256 SWAP1 JUMPDEST DUP2 SLOAD DUP2 MSTORE SWAP1 PUSH1 0x1 ADD SWAP1 PUSH1 0x20 ADD DUP1 DUP4 GT PUSH2 0x7F5 JUMPI DUP3 SWAP1 SUB PUSH1 0x1F AND DUP3 ADD SWAP2 JUMPDEST POP POP POP POP POP DUP2 MSTORE PUSH1 0x20 ADD PUSH1 0x2 DUP3 ADD SLOAD DUP2 MSTORE POP POP DUP5 DUP5 DUP1 PUSH2 0x831 SWAP1 PUSH2 0x28A6 JUMP JUMPDEST SWAP6 POP DUP2 MLOAD DUP2 LT PUSH2 0x844 JUMPI PUSH2 0x843 PUSH2 0x2BEB JUMP JUMPDEST JUMPDEST PUSH1 0x20 MUL PUSH1 0x20 ADD ADD DUP2 SWAP1 MSTORE POP DUP1 DUP1 PUSH2 0x85A SWAP1 PUSH2 0x28A6 JUMP JUMPDEST SWAP2 POP POP PUSH2 0x6E1 JUMP JUMPDEST POP JUMPDEST DUP1 DUP1 PUSH2 0x86F SWAP1 PUSH2 0x28A6 JUMP JUMPDEST SWAP2 POP POP PUSH2 0x66F JUMP JUMPDEST POP DUP1 DUP3 MSTORE DUP2 SWAP3 POP POP POP SWAP2 SWAP1 POP JUMP JUMPDEST PUSH1 0x4 PUSH1 0x20 MSTORE DUP2 PUSH0 MSTORE PUSH1 0x40 PUSH0 KECCAK256 DUP2 DUP2 SLOAD DUP2 LT PUSH2 0x89E JUMPI PUSH0 DUP1 REVERT JUMPDEST SWAP1 PUSH0 MSTORE PUSH1 0x20 PUSH0 KECCAK256 SWAP1 PUSH1 0x3 MUL ADD PUSH0 SWAP2 POP SWAP2 POP POP DUP1 PUSH0 ADD PUSH0 SWAP1 SLOAD SWAP1 PUSH2 0x100 EXP SWAP1 DIV PUSH20 0xFFFFFFFFFFFFFFFFFFFFFFFFFFFFFFFFFFFFFFFF AND SWAP1 DUP1 PUSH1 0x1 ADD DUP1 SLOAD PUSH2 0x8E3 SWAP1 PUSH2 0x291A JUMP JUMPDEST DUP1 PUSH1 0x1F ADD PUSH1 0x20 DUP1 SWAP2 DIV MUL PUSH1 0x20 ADD PUSH1 0x40 MLOAD SWAP1 DUP2 ADD PUSH1 0x40 MSTORE DUP1 SWAP3 SWAP2 SWAP1 DUP2 DUP2 MSTORE PUSH1 0x20 ADD DUP3 DUP1 SLOAD PUSH2 0x90F SWAP1 PUSH2 0x291A JUMP JUMPDEST DUP1 ISZERO PUSH2 0x95A JUMPI DUP1 PUSH1 0x1F LT PUSH2 0x931 JUMPI PUSH2 0x100 DUP1 DUP4 SLOAD DIV MUL DUP4 MSTORE SWAP2 PUSH1 0x20 ADD SWAP2 PUSH2 0x95A JUMP JUMPDEST DUP3 ADD SWAP2 SWAP1 PUSH0 MSTORE PUSH1 0x20 PUSH0 KECCAK256 SWAP1 JUMPDEST DUP2 SLOAD DUP2 MSTORE SWAP1 PUSH1 0x1 ADD SWAP1 PUSH1 0x20 ADD DUP1 DUP4 GT PUSH2 0x93D JUMPI DUP3 SWAP1 SUB PUSH1 0x1F AND DUP3 ADD SWAP2 JUMPDEST POP POP POP POP POP SWAP1 DUP1 PUSH1 0x2 ADD SLOAD SWAP1 POP DUP4 JUMP JUMPDEST PUSH0 PUSH1 0x20 MSTORE DUP1 PUSH0 MSTORE PUSH1 0x40 PUSH0 KECCAK256 PUSH0 SWAP2 POP SLOAD SWAP1 PUSH2 0x100 EXP SWAP1 DIV PUSH1 0xFF AND DUP2 JUMP JUMPDEST PUSH0 DUP1 CALLER PUSH20 0xFFFFFFFFFFFFFFFFFFFFFFFFFFFFFFFFFFFFFFFF AND PUSH20 0xFFFFFFFFFFFFFFFFFFFFFFFFFFFFFFFFFFFFFFFF AND DUP2 MSTORE PUSH1 0x20 ADD SWAP1 DUP2 MSTORE PUSH1 0x20 ADD PUSH0 KECCAK256 PUSH0 SWAP1 SLOAD SWAP1 PUSH2 0x100 EXP SWAP1 DIV PUSH1 0xFF AND PUSH2 0xA0E JUMPI PUSH1 0x40 MLOAD PUSH32 0x8C379A000000000000000000000000000000000000000000000000000000000 DUP2 MSTORE PUSH1 0x4 ADD PUSH2 0xA05 SWAP1 PUSH2 0x2C88 JUMP JUMPDEST PUSH1 0x40 MLOAD DUP1 SWAP2 SUB SWAP1 REVERT JUMPDEST PUSH0 PUSH1 0x1 DUP2 GT ISZERO PUSH2 0xA21 JUMPI PUSH2 0xA20 PUSH2 0x233C JUMP JUMPDEST JUMPDEST PUSH1 0x2 PUSH0 DUP5 DUP2 MSTORE PUSH1 0x20 ADD SWAP1 DUP2 MSTORE PUSH1 0x20 ADD PUSH0 KECCAK256 PUSH1 0x3 ADD PUSH0 SWAP1 SLOAD SWAP1 PUSH2 0x100 EXP SWAP1 DIV PUSH1 0xFF AND PUSH1 0x1 DUP2 GT ISZERO PUSH2 0xA54 JUMPI PUSH2 0xA53 PUSH2 0x233C JUMP JUMPDEST JUMPDEST EQ PUSH2 0xA94 JUMPI PUSH1 0x40 MLOAD PUSH32 0x8C379A000000000000000000000000000000000000000000000000000000000 DUP2 MSTORE PUSH1 0x4 ADD PUSH2 0xA8B SWAP1 PUSH2 0x2CF0 JUMP JUMPDEST PUSH1 0x40 MLOAD DUP1 SWAP2 SUB SWAP1 REVERT JUMPDEST PUSH1 0x1 PUSH1 0x2 PUSH0 DUP5 DUP2 MSTORE PUSH1 0x20 ADD SWAP1 DUP2 MSTORE PUSH1 0x20 ADD PUSH0 KECCAK256 PUSH1 0x3 ADD PUSH0 PUSH2 0x100 EXP DUP2 SLOAD DUP2 PUSH1 0xFF MUL NOT AND SWAP1 DUP4 PUSH1 0x1 DUP2 GT ISZERO PUSH2 0xACB JUMPI PUSH2 0xACA PUSH2 0x233C JUMP JUMPDEST JUMPDEST MUL OR SWAP1 SSTORE POP DUP2 PUSH32 0xA0E3A0A30E4AE091855116DFB1B3A775AB1B158763B0A44710BE60283214CA73 DUP3 PUSH1 0x40 MLOAD PUSH2 0xB00 SWAP2 SWAP1 PUSH2 0x2D0E JUMP JUMPDEST PUSH1 0x40 MLOAD DUP1 SWAP2 SUB SWAP1 LOG2 PUSH2 0xB14 DUP3 CALLER PUSH1 0x1 PUSH2 0x1B26 JUMP JUMPDEST POP POP JUMP JUMPDEST PUSH1 0x5 SLOAD DUP2 JUMP JUMPDEST PUSH1 0x60 PUSH0 DUP1 JUMPDEST PUSH1 0x5 SLOAD DUP2 LT ISZERO PUSH2 0xB9A JUMPI PUSH0 PUSH1 0x1 DUP2 GT ISZERO PUSH2 0xB40 JUMPI PUSH2 0xB3F PUSH2 0x233C JUMP JUMPDEST JUMPDEST PUSH1 0x2 PUSH0 DUP4 DUP2 MSTORE PUSH1 0x20 ADD SWAP1 DUP2 MSTORE PUSH1 0x20 ADD PUSH0 KECCAK256 PUSH1 0x3 ADD PUSH0 SWAP1 SLOAD SWAP1 PUSH2 0x100 EXP SWAP1 DIV PUSH1 0xFF AND PUSH1 0x1 DUP2 GT ISZERO PUSH2 0xB73 JUMPI PUSH2 0xB72 PUSH2 0x233C JUMP JUMPDEST JUMPDEST SUB PUSH2 0xB87 JUMPI DUP2 DUP1 PUSH2 0xB83 SWAP1 PUSH2 0x28A6 JUMP JUMPDEST SWAP3 POP POP JUMPDEST DUP1 DUP1 PUSH2 0xB92 SWAP1 PUSH2 0x28A6 JUMP JUMPDEST SWAP2 POP POP PUSH2 0xB23 JUMP JUMPDEST POP PUSH0 DUP2 PUSH8 0xFFFFFFFFFFFFFFFF DUP2 GT ISZERO PUSH2 0xBB6 JUMPI PUSH2 0xBB5 PUSH2 0x1D4D JUMP JUMPDEST JUMPDEST PUSH1 0x40 MLOAD SWAP1 DUP1 DUP3 MSTORE DUP1 PUSH1 0x20 MUL PUSH1 0x20 ADD DUP3 ADD PUSH1 0x40 MSTORE DUP1 ISZERO PUSH2 0xBEF JUMPI DUP2 PUSH1 0x20 ADD JUMPDEST PUSH2 0xBDC PUSH2 0x1CAA JUMP JUMPDEST DUP2 MSTORE PUSH1 0x20 ADD SWAP1 PUSH1 0x1 SWAP1 SUB SWAP1 DUP2 PUSH2 0xBD4 JUMPI SWAP1 POP JUMPDEST POP SWAP1 POP PUSH0 DUP1 JUMPDEST PUSH1 0x5 SLOAD DUP2 LT ISZERO PUSH2 0xF09 JUMPI PUSH0 PUSH1 0x1 DUP2 GT ISZERO PUSH2 0xC12 JUMPI PUSH2 0xC11 PUSH2 0x233C JUMP JUMPDEST JUMPDEST PUSH1 0x2 PUSH0 DUP4 DUP2 MSTORE PUSH1 0x20 ADD SWAP1 DUP2 MSTORE PUSH1 0x20 ADD PUSH0 KECCAK256 PUSH1 0x3 ADD PUSH0 SWAP1 SLOAD SWAP1 PUSH2 0x100 EXP SWAP1 DIV PUSH1 0xFF AND PUSH1 0x1 DUP2 GT ISZERO PUSH2 0xC45 JUMPI PUSH2 0xC44 PUSH2 0x233C JUMP JUMPDEST JUMPDEST SUB PUSH2 0xEF6 JUMPI PUSH1 0x2 PUSH0 DUP3 DUP2 MSTORE PUSH1 0x20 ADD SWAP1 DUP2 MSTORE PUSH1 0x20 ADD PUSH0 KECCAK256 PUSH1 0x40 MLOAD DUP1 PUSH1 0xC0 ADD PUSH1 0x40 MSTORE SWAP1 DUP2 PUSH0 DUP3 ADD SLOAD DUP2 MSTORE PUSH1 0x20 ADD PUSH1 0x1 DUP3 ADD PUSH0 SWAP1 SLOAD SWAP1 PUSH2 0x100 EXP SWAP1 DIV PUSH20 0xFFFFFFFFFFFFFFFFFFFFFFFFFFFFFFFFFFFFFFFF AND PUSH20 0xFFFFFFFFFFFFFFFFFFFFFFFFFFFFFFFFFFFFFFFF AND PUSH20 0xFFFFFFFFFFFFFFFFFFFFFFFFFFFFFFFFFFFFFFFF AND DUP2 MSTORE PUSH1 0x20 ADD PUSH1 0x2 DUP3 ADD DUP1 SLOAD PUSH2 0xCD4 SWAP1 PUSH2 0x291A JUMP JUMPDEST DUP1 PUSH1 0x1F ADD PUSH1 0x20 DUP1 SWAP2 DIV MUL PUSH1 0x20 ADD PUSH1 0x40 MLOAD SWAP1 DUP2 ADD PUSH1 0x40 MSTORE DUP1 SWAP3 SWAP2 SWAP1 DUP2 DUP2 MSTORE PUSH1 0x20 ADD DUP3 DUP1 SLOAD PUSH2 0xD00 SWAP1 PUSH2 0x291A JUMP JUMPDEST DUP1 ISZERO PUSH2 0xD4B JUMPI DUP1 PUSH1 0x1F LT PUSH2 0xD22 JUMPI PUSH2 0x100 DUP1 DUP4 SLOAD DIV MUL DUP4 MSTORE SWAP2 PUSH1 0x20 ADD SWAP2 PUSH2 0xD4B JUMP JUMPDEST DUP3 ADD SWAP2 SWAP1 PUSH0 MSTORE PUSH1 0x20 PUSH0 KECCAK256 SWAP1 JUMPDEST DUP2 SLOAD DUP2 MSTORE SWAP1 PUSH1 0x1 ADD SWAP1 PUSH1 0x20 ADD DUP1 DUP4 GT PUSH2 0xD2E JUMPI DUP3 SWAP1 SUB PUSH1 0x1F AND DUP3 ADD SWAP2 JUMPDEST POP POP POP POP POP DUP2 MSTORE PUSH1 0x20 ADD PUSH1 0x3 DUP3 ADD PUSH0 SWAP1 SLOAD SWAP1 PUSH2 0x100 EXP SWAP1 DIV PUSH1 0xFF AND PUSH1 0x1 DUP2 GT ISZERO PUSH2 0xD78 JUMPI PUSH2 0xD77 PUSH2 0x233C JUMP JUMPDEST JUMPDEST PUSH1 0x1 DUP2 GT ISZERO PUSH2 0xD8A JUMPI PUSH2 0xD89 PUSH2 0x233C JUMP JUMPDEST JUMPDEST DUP2 MSTORE PUSH1 0x20 ADD PUSH1 0x4 DUP3 ADD PUSH1 0x40 MLOAD DUP1 PUSH1 0x40 ADD PUSH1 0x40 MSTORE SWAP1 DUP2 PUSH0 DUP3 ADD DUP1 SLOAD PUSH2 0xDAD SWAP1 PUSH2 0x291A JUMP JUMPDEST DUP1 PUSH1 0x1F ADD PUSH1 0x20 DUP1 SWAP2 DIV MUL PUSH1 0x20 ADD PUSH1 0x40 MLOAD SWAP1 DUP2 ADD PUSH1 0x40 MSTORE DUP1 SWAP3 SWAP2 SWAP1 DUP2 DUP2 MSTORE PUSH1 0x20 ADD DUP3 DUP1 SLOAD PUSH2 0xDD9 SWAP1 PUSH2 0x291A JUMP JUMPDEST DUP1 ISZERO PUSH2 0xE24 JUMPI DUP1 PUSH1 0x1F LT PUSH2 0xDFB JUMPI PUSH2 0x100 DUP1 DUP4 SLOAD DIV MUL DUP4 MSTORE SWAP2 PUSH1 0x20 ADD SWAP2 PUSH2 0xE24 JUMP JUMPDEST DUP3 ADD SWAP2 SWAP1 PUSH0 MSTORE PUSH1 0x20 PUSH0 KECCAK256 SWAP1 JUMPDEST DUP2 SLOAD DUP2 MSTORE SWAP1 PUSH1 0x1 ADD SWAP1 PUSH1 0x20 ADD DUP1 DUP4 GT PUSH2 0xE07 JUMPI DUP3 SWAP1 SUB PUSH1 0x1F AND DUP3 ADD SWAP2 JUMPDEST POP POP POP POP POP DUP2 MSTORE PUSH1 0x20 ADD PUSH1 0x1 DUP3 ADD DUP1 SLOAD PUSH2 0xE3D SWAP1 PUSH2 0x291A JUMP JUMPDEST DUP1 PUSH1 0x1F ADD PUSH1 0x20 DUP1 SWAP2 DIV MUL PUSH1 0x20 ADD PUSH1 0x40 MLOAD SWAP1 DUP2 ADD PUSH1 0x40 MSTORE DUP1 SWAP3 SWAP2 SWAP1 DUP2 DUP2 MSTORE PUSH1 0x20 ADD DUP3 DUP1 SLOAD PUSH2 0xE69 SWAP1 PUSH2 0x291A JUMP JUMPDEST DUP1 ISZERO PUSH2 0xEB4 JUMPI DUP1 PUSH1 0x1F LT PUSH2 0xE8B JUMPI PUSH2 0x100 DUP1 DUP4 SLOAD DIV MUL DUP4 MSTORE SWAP2 PUSH1 0x20 ADD SWAP2 PUSH2 0xEB4 JUMP JUMPDEST DUP3 ADD SWAP2 SWAP1 PUSH0 MSTORE PUSH1 0x20 PUSH0 KECCAK256 SWAP1 JUMPDEST DUP2 SLOAD DUP2 MSTORE SWAP1 PUSH1 0x1 ADD SWAP1 PUSH1 0x20 ADD DUP1 DUP4 GT PUSH2 0xE97 JUMPI DUP3 SWAP1 SUB PUSH1 0x1F AND DUP3 ADD SWAP2 JUMPDEST POP POP POP POP POP DUP2 MSTORE POP POP DUP2 MSTORE PUSH1 0x20 ADD PUSH1 0x6 DUP3 ADD SLOAD DUP2 MSTORE POP POP DUP4 DUP4 DUP1 PUSH2 0xED7 SWAP1 PUSH2 0x28A6 JUMP JUMPDEST SWAP5 POP DUP2 MLOAD DUP2 LT PUSH2 0xEEA JUMPI PUSH2 0xEE9 PUSH2 0x2BEB JUMP JUMPDEST JUMPDEST PUSH1 0x20 MUL PUSH1 0x20 ADD ADD DUP2 SWAP1 MSTORE POP JUMPDEST DUP1 DUP1 PUSH2 0xF01 SWAP1 PUSH2 0x28A6 JUMP JUMPDEST SWAP2 POP POP PUSH2 0xBF5 JUMP JUMPDEST POP DUP2 SWAP4 POP POP POP POP SWAP1 JUMP JUMPDEST PUSH1 0x1 PUSH1 0x20 MSTORE DUP1 PUSH0 MSTORE PUSH1 0x40 PUSH0 KECCAK256 PUSH0 SWAP2 POP SLOAD SWAP1 PUSH2 0x100 EXP SWAP1 DIV PUSH1 0xFF AND DUP2 JUMP JUMPDEST PUSH1 0x1 DUP1 PUSH0 CALLER PUSH20 0xFFFFFFFFFFFFFFFFFFFFFFFFFFFFFFFFFFFFFFFF AND PUSH20 0xFFFFFFFFFFFFFFFFFFFFFFFFFFFFFFFFFFFFFFFF AND DUP2 MSTORE PUSH1 0x20 ADD SWAP1 DUP2 MSTORE PUSH1 0x20 ADD PUSH0 KECCAK256 PUSH0 PUSH2 0x100 EXP DUP2 SLOAD DUP2 PUSH1 0xFF MUL NOT AND SWAP1 DUP4 ISZERO ISZERO MUL OR SWAP1 SSTORE POP CALLER PUSH20 0xFFFFFFFFFFFFFFFFFFFFFFFFFFFFFFFFFFFFFFFF AND PUSH32 0x54DB7A5CB4735E1AAC1F53DB512D3390390BB6637BD30AD4BF9FC98667D9B9B9 PUSH1 0x40 MLOAD PUSH1 0x40 MLOAD DUP1 SWAP2 SUB SWAP1 LOG2 JUMP JUMPDEST PUSH1 0x3 PUSH1 0x20 MSTORE DUP2 PUSH0 MSTORE PUSH1 0x40 PUSH0 KECCAK256 DUP2 DUP2 SLOAD DUP2 LT PUSH2 0xFE2 JUMPI PUSH0 DUP1 REVERT JUMPDEST SWAP1 PUSH0 MSTORE PUSH1 0x20 PUSH0 KECCAK256 SWAP1 PUSH1 0x2 MUL ADD PUSH0 SWAP2 POP SWAP2 POP POP DUP1 PUSH0 ADD PUSH0 SWAP1 SLOAD SWAP1 PUSH2 0x100 EXP SWAP1 DIV PUSH20 0xFFFFFFFFFFFFFFFFFFFFFFFFFFFFFFFFFFFFFFFF AND SWAP1 DUP1 PUSH0 ADD PUSH1 0x14 SWAP1 SLOAD SWAP1 PUSH2 0x100 EXP SWAP1 DIV PUSH1 0xFF AND SWAP1 DUP1 PUSH1 0x1 ADD SLOAD SWAP1 POP DUP4 JUMP JUMPDEST PUSH1 0x1 PUSH0 DUP1 CALLER PUSH20 0xFFFFFFFFFFFFFFFFFFFFFFFFFFFFFFFFFFFFFFFF AND PUSH20 0xFFFFFFFFFFFFFFFFFFFFFFFFFFFFFFFFFFFFFFFF AND DUP2 MSTORE PUSH1 0x20 ADD SWAP1 DUP2 MSTORE PUSH1 0x20 ADD PUSH0 KECCAK256 PUSH0 PUSH2 0x100 EXP DUP2 SLOAD DUP2 PUSH1 0xFF MUL NOT AND SWAP1 DUP4 ISZERO ISZERO MUL OR SWAP1 SSTORE POP CALLER PUSH20 0xFFFFFFFFFFFFFFFFFFFFFFFFFFFFFFFFFFFFFFFF AND PUSH32 0xAC0F15283D37631C15B481BC07DC402BCFC030956BCD94B5585F71D92E84C3DA PUSH1 0x40 MLOAD PUSH1 0x40 MLOAD DUP1 SWAP2 SUB SWAP1 LOG2 JUMP JUMPDEST PUSH2 0x10D8 DUP2 CALLER PUSH0 PUSH2 0x1B26 JUMP JUMPDEST POP JUMP JUMPDEST PUSH1 0x2 PUSH1 0x20 MSTORE DUP1 PUSH0 MSTORE PUSH1 0x40 PUSH0 KECCAK256 PUSH0 SWAP2 POP SWAP1 POP DUP1 PUSH0 ADD SLOAD SWAP1 DUP1 PUSH1 0x1 ADD PUSH0 SWAP1 SLOAD SWAP1 PUSH2 0x100 EXP SWAP1 DIV PUSH20 0xFFFFFFFFFFFFFFFFFFFFFFFFFFFFFFFFFFFFFFFF AND SWAP1 DUP1 PUSH1 0x2 ADD DUP1 SLOAD PUSH2 0x1125 SWAP1 PUSH2 0x291A JUMP JUMPDEST DUP1 PUSH1 0x1F ADD PUSH1 0x20 DUP1 SWAP2 DIV MUL PUSH1 0x20 ADD PUSH1 0x40 MLOAD SWAP1 DUP2 ADD PUSH1 0x40 MSTORE DUP1 SWAP3 SWAP2 SWAP1 DUP2 DUP2 MSTORE PUSH1 0x20 ADD DUP3 DUP1 SLOAD PUSH2 0x1151 SWAP1 PUSH2 0x291A JUMP JUMPDEST DUP1 ISZERO PUSH2 0x119C JUMPI DUP1 PUSH1 0x1F LT PUSH2 0x1173 JUMPI PUSH2 0x100 DUP1 DUP4 SLOAD DIV MUL DUP4 MSTORE SWAP2 PUSH1 0x20 ADD SWAP2 PUSH2 0x119C JUMP JUMPDEST DUP3 ADD SWAP2 SWAP1 PUSH0 MSTORE PUSH1 0x20 PUSH0 KECCAK256 SWAP1 JUMPDEST DUP2 SLOAD DUP2 MSTORE SWAP1 PUSH1 0x1 ADD SWAP1 PUSH1 0x20 ADD DUP1 DUP4 GT PUSH2 0x117F JUMPI DUP3 SWAP1 SUB PUSH1 0x1F AND DUP3 ADD SWAP2 JUMPDEST POP POP POP POP POP SWAP1 DUP1 PUSH1 0x3 ADD PUSH0 SWAP1 SLOAD SWAP1 PUSH2 0x100 EXP SWAP1 DIV PUSH1 0xFF AND SWAP1 DUP1 PUSH1 0x4 ADD PUSH1 0x40 MLOAD DUP1 PUSH1 0x40 ADD PUSH1 0x40 MSTORE SWAP1 DUP2 PUSH0 DUP3 ADD DUP1 SLOAD PUSH2 0x11D2 SWAP1 PUSH2 0x291A JUMP JUMPDEST DUP1 PUSH1 0x1F ADD PUSH1 0x20 DUP1 SWAP2 DIV MUL PUSH1 0x20 ADD PUSH1 0x40 MLOAD SWAP1 DUP2 ADD PUSH1 0x40 MSTORE DUP1 SWAP3 SWAP2 SWAP1 DUP2 DUP2 MSTORE PUSH1 0x20 ADD DUP3 DUP1 SLOAD PUSH2 0x11FE SWAP1 PUSH2 0x291A JUMP JUMPDEST DUP1 ISZERO PUSH2 0x1249 JUMPI DUP1 PUSH1 0x1F LT PUSH2 0x1220 JUMPI PUSH2 0x100 DUP1 DUP4 SLOAD DIV MUL DUP4 MSTORE SWAP2 PUSH1 0x20 ADD SWAP2 PUSH2 0x1249 JUMP JUMPDEST DUP3 ADD SWAP2 SWAP1 PUSH0 MSTORE PUSH1 0x20 PUSH0 KECCAK256 SWAP1 JUMPDEST DUP2 SLOAD DUP2 MSTORE SWAP1 PUSH1 0x1 ADD SWAP1 PUSH1 0x20 ADD DUP1 DUP4 GT PUSH2 0x122C JUMPI DUP3 SWAP1 SUB PUSH1 0x1F AND DUP3 ADD SWAP2 JUMPDEST POP POP POP POP POP DUP2 MSTORE PUSH1 0x20 ADD PUSH1 0x1 DUP3 ADD DUP1 SLOAD PUSH2 0x1262 SWAP1 PUSH2 0x291A JUMP JUMPDEST DUP1 PUSH1 0x1F ADD PUSH1 0x20 DUP1 SWAP2 DIV MUL PUSH1 0x20 ADD PUSH1 0x40 MLOAD SWAP1 DUP2 ADD PUSH1 0x40 MSTORE DUP1 SWAP3 SWAP2 SWAP1 DUP2 DUP2 MSTORE PUSH1 0x20 ADD DUP3 DUP1 SLOAD PUSH2 0x128E SWAP1 PUSH2 0x291A JUMP JUMPDEST DUP1 ISZERO PUSH2 0x12D9 JUMPI DUP1 PUSH1 0x1F LT PUSH2 0x12B0 JUMPI PUSH2 0x100 DUP1 DUP4 SLOAD DIV MUL DUP4 MSTORE SWAP2 PUSH1 0x20 ADD SWAP2 PUSH2 0x12D9 JUMP JUMPDEST DUP3 ADD SWAP2 SWAP1 PUSH0 MSTORE PUSH1 0x20 PUSH0 KECCAK256 SWAP1 JUMPDEST DUP2 SLOAD DUP2 MSTORE SWAP1 PUSH1 0x1 ADD SWAP1 PUSH1 0x20 ADD DUP1 DUP4 GT PUSH2 0x12BC JUMPI DUP3 SWAP1 SUB PUSH1 0x1F AND DUP3 ADD SWAP2 JUMPDEST POP POP POP POP POP DUP2 MSTORE POP POP SWAP1 DUP1 PUSH1 0x6 ADD SLOAD SWAP1 POP DUP7 JUMP JUMPDEST PUSH1 0x60 PUSH1 0x3 PUSH0 DUP4 DUP2 MSTORE PUSH1 0x20 ADD SWAP1 DUP2 MSTORE PUSH1 0x20 ADD PUSH0 KECCAK256 DUP1 SLOAD DUP1 PUSH1 0x20 MUL PUSH1 0x20 ADD PUSH1 0x40 MLOAD SWAP1 DUP2 ADD PUSH1 0x40 MSTORE DUP1 SWAP3 SWAP2 SWAP1 DUP2 DUP2 MSTORE PUSH1 0x20 ADD PUSH0 SWAP1 JUMPDEST DUP3 DUP3 LT ISZERO PUSH2 0x13E7 JUMPI DUP4 DUP3 SWAP1 PUSH0 MSTORE PUSH1 0x20 PUSH0 KECCAK256 SWAP1 PUSH1 0x2 MUL ADD PUSH1 0x40 MLOAD DUP1 PUSH1 0x60 ADD PUSH1 0x40 MSTORE SWAP1 DUP2 PUSH0 DUP3 ADD PUSH0 SWAP1 SLOAD SWAP1 PUSH2 0x100 EXP SWAP1 DIV PUSH20 0xFFFFFFFFFFFFFFFFFFFFFFFFFFFFFFFFFFFFFFFF AND PUSH20 0xFFFFFFFFFFFFFFFFFFFFFFFFFFFFFFFFFFFFFFFF AND PUSH20 0xFFFFFFFFFFFFFFFFFFFFFFFFFFFFFFFFFFFFFFFF AND DUP2 MSTORE PUSH1 0x20 ADD PUSH0 DUP3 ADD PUSH1 0x14 SWAP1 SLOAD SWAP1 PUSH2 0x100 EXP SWAP1 DIV PUSH1 0xFF AND PUSH1 0x2 DUP2 GT ISZERO PUSH2 0x13B8 JUMPI PUSH2 0x13B7 PUSH2 0x233C JUMP JUMPDEST JUMPDEST PUSH1 0x2 DUP2 GT ISZERO PUSH2 0x13CA JUMPI PUSH2 0x13C9 PUSH2 0x233C JUMP JUMPDEST JUMPDEST DUP2 MSTORE PUSH1 0x20 ADD PUSH1 0x1 DUP3 ADD SLOAD DUP2 MSTORE POP POP DUP2 MSTORE PUSH1 0x20 ADD SWAP1 PUSH1 0x1 ADD SWAP1 PUSH2 0x131F JUMP JUMPDEST POP POP POP POP SWAP1 POP SWAP2 SWAP1 POP JUMP JUMPDEST PUSH1 0x60 PUSH0 DUP1 JUMPDEST PUSH1 0x5 SLOAD DUP2 LT ISZERO PUSH2 0x1489 JUMPI DUP4 PUSH20 0xFFFFFFFFFFFFFFFFFFFFFFFFFFFFFFFFFFFFFFFF AND PUSH1 0x2 PUSH0 DUP4 DUP2 MSTORE PUSH1 0x20 ADD SWAP1 DUP2 MSTORE PUSH1 0x20 ADD PUSH0 KECCAK256 PUSH1 0x1 ADD PUSH0 SWAP1 SLOAD SWAP1 PUSH2 0x100 EXP SWAP1 DIV PUSH20 0xFFFFFFFFFFFFFFFFFFFFFFFFFFFFFFFFFFFFFFFF AND PUSH20 0xFFFFFFFFFFFFFFFFFFFFFFFFFFFFFFFFFFFFFFFF AND SUB PUSH2 0x1476 JUMPI DUP2 DUP1 PUSH2 0x1472 SWAP1 PUSH2 0x28A6 JUMP JUMPDEST SWAP3 POP POP JUMPDEST DUP1 DUP1 PUSH2 0x1481 SWAP1 PUSH2 0x28A6 JUMP JUMPDEST SWAP2 POP POP PUSH2 0x13F7 JUMP JUMPDEST POP PUSH0 DUP2 PUSH8 0xFFFFFFFFFFFFFFFF DUP2 GT ISZERO PUSH2 0x14A5 JUMPI PUSH2 0x14A4 PUSH2 0x1D4D JUMP JUMPDEST JUMPDEST PUSH1 0x40 MLOAD SWAP1 DUP1 DUP3 MSTORE DUP1 PUSH1 0x20 MUL PUSH1 0x20 ADD DUP3 ADD PUSH1 0x40 MSTORE DUP1 ISZERO PUSH2 0x14DE JUMPI DUP2 PUSH1 0x20 ADD JUMPDEST PUSH2 0x14CB PUSH2 0x1CAA JUMP JUMPDEST DUP2 MSTORE PUSH1 0x20 ADD SWAP1 PUSH1 0x1 SWAP1 SUB SWAP1 DUP2 PUSH2 0x14C3 JUMPI SWAP1 POP JUMPDEST POP SWAP1 POP PUSH0 DUP1 JUMPDEST PUSH1 0x5 SLOAD DUP2 LT ISZERO PUSH2 0x1813 JUMPI DUP6 PUSH20 0xFFFFFFFFFFFFFFFFFFFFFFFFFFFFFFFFFFFFFFFF AND PUSH1 0x2 PUSH0 DUP4 DUP2 MSTORE PUSH1 0x20 ADD SWAP1 DUP2 MSTORE PUSH1 0x20 ADD PUSH0 KECCAK256 PUSH1 0x1 ADD PUSH0 SWAP1 SLOAD SWAP1 PUSH2 0x100 EXP SWAP1 DIV PUSH20 0xFFFFFFFFFFFFFFFFFFFFFFFFFFFFFFFFFFFFFFFF AND PUSH20 0xFFFFFFFFFFFFFFFFFFFFFFFFFFFFFFFFFFFFFFFF AND SUB PUSH2 0x1800 JUMPI PUSH1 0x2 PUSH0 DUP3 DUP2 MSTORE PUSH1 0x20 ADD SWAP1 DUP2 MSTORE PUSH1 0x20 ADD PUSH0 KECCAK256 PUSH1 0x40 MLOAD DUP1 PUSH1 0xC0 ADD PUSH1 0x40 MSTORE SWAP1 DUP2 PUSH0 DUP3 ADD SLOAD DUP2 MSTORE PUSH1 0x20 ADD PUSH1 0x1 DUP3 ADD PUSH0 SWAP1 SLOAD SWAP1 PUSH2 0x100 EXP SWAP1 DIV PUSH20 0xFFFFFFFFFFFFFFFFFFFFFFFFFFFFFFFFFFFFFFFF AND PUSH20 0xFFFFFFFFFFFFFFFFFFFFFFFFFFFFFFFFFFFFFFFF AND PUSH20 0xFFFFFFFFFFFFFFFFFFFFFFFFFFFFFFFFFFFFFFFF AND DUP2 MSTORE PUSH1 0x20 ADD PUSH1 0x2 DUP3 ADD DUP1 SLOAD PUSH2 0x15DE SWAP1 PUSH2 0x291A JUMP JUMPDEST DUP1 PUSH1 0x1F ADD PUSH1 0x20 DUP1 SWAP2 DIV MUL PUSH1 0x20 ADD PUSH1 0x40 MLOAD SWAP1 DUP2 ADD PUSH1 0x40 MSTORE DUP1 SWAP3 SWAP2 SWAP1 DUP2 DUP2 MSTORE PUSH1 0x20 ADD DUP3 DUP1 SLOAD PUSH2 0x160A SWAP1 PUSH2 0x291A JUMP JUMPDEST DUP1 ISZERO PUSH2 0x1655 JUMPI DUP1 PUSH1 0x1F LT PUSH2 0x162C JUMPI PUSH2 0x100 DUP1 DUP4 SLOAD DIV MUL DUP4 MSTORE SWAP2 PUSH1 0x20 ADD SWAP2 PUSH2 0x1655 JUMP JUMPDEST DUP3 ADD SWAP2 SWAP1 PUSH0 MSTORE PUSH1 0x20 PUSH0 KECCAK256 SWAP1 JUMPDEST DUP2 SLOAD DUP2 MSTORE SWAP1 PUSH1 0x1 ADD SWAP1 PUSH1 0x20 ADD DUP1 DUP4 GT PUSH2 0x1638 JUMPI DUP3 SWAP1 SUB PUSH1 0x1F AND DUP3 ADD SWAP2 JUMPDEST POP POP POP POP POP DUP2 MSTORE PUSH1 0x20 ADD PUSH1 0x3 DUP3 ADD PUSH0 SWAP1 SLOAD SWAP1 PUSH2 0x100 EXP SWAP1 DIV PUSH1 0xFF AND PUSH1 0x1 DUP2 GT ISZERO PUSH2 0x1682 JUMPI PUSH2 0x1681 PUSH2 0x233C JUMP JUMPDEST JUMPDEST PUSH1 0x1 DUP2 GT ISZERO PUSH2 0x1694 JUMPI PUSH2 0x1693 PUSH2 0x233C JUMP JUMPDEST JUMPDEST DUP2 MSTORE PUSH1 0x20 ADD PUSH1 0x4 DUP3 ADD PUSH1 0x40 MLOAD DUP1 PUSH1 0x40 ADD PUSH1 0x40 MSTORE SWAP1 DUP2 PUSH0 DUP3 ADD DUP1 SLOAD PUSH2 0x16B7 SWAP1 PUSH2 0x291A JUMP JUMPDEST DUP1 PUSH1 0x1F ADD PUSH1 0x20 DUP1 SWAP2 DIV MUL PUSH1 0x20 ADD PUSH1 0x40 MLOAD SWAP1 DUP2 ADD PUSH1 0x40 MSTORE DUP1 SWAP3 SWAP2 SWAP1 DUP2 DUP2 MSTORE PUSH1 0x20 ADD DUP3 DUP1 SLOAD PUSH2 0x16E3 SWAP1 PUSH2 0x291A JUMP JUMPDEST DUP1 ISZERO PUSH2 0x172E JUMPI DUP1 PUSH1 0x1F LT PUSH2 0x1705 JUMPI PUSH2 0x100 DUP1 DUP4 SLOAD DIV MUL DUP4 MSTORE SWAP2 PUSH1 0x20 ADD SWAP2 PUSH2 0x172E JUMP JUMPDEST DUP3 ADD SWAP2 SWAP1 PUSH0 MSTORE PUSH1 0x20 PUSH0 KECCAK256 SWAP1 JUMPDEST DUP2 SLOAD DUP2 MSTORE SWAP1 PUSH1 0x1 ADD SWAP1 PUSH1 0x20 ADD DUP1 DUP4 GT PUSH2 0x1711 JUMPI DUP3 SWAP1 SUB PUSH1 0x1F AND DUP3 ADD SWAP2 JUMPDEST POP POP POP POP POP DUP2 MSTORE PUSH1 0x20 ADD PUSH1 0x1 DUP3 ADD DUP1 SLOAD PUSH2 0x1747 SWAP1 PUSH2 0x291A JUMP JUMPDEST DUP1 PUSH1 0x1F ADD PUSH1 0x20 DUP1 SWAP2 DIV MUL PUSH1 0x20 ADD PUSH1 0x40 MLOAD SWAP1 DUP2 ADD PUSH1 0x40 MSTORE DUP1 SWAP3 SWAP2 SWAP1 DUP2 DUP2 MSTORE PUSH1 0x20 ADD DUP3 DUP1 SLOAD PUSH2 0x1773 SWAP1 PUSH2 0x291A JUMP JUMPDEST DUP1 ISZERO PUSH2 0x17BE JUMPI DUP1 PUSH1 0x1F LT PUSH2 0x1795 JUMPI PUSH2 0x100 DUP1 DUP4 SLOAD DIV MUL DUP4 MSTORE SWAP2 PUSH1 0x20 ADD SWAP2 PUSH2 0x17BE JUMP JUMPDEST DUP3 ADD SWAP2 SWAP1 PUSH0 MSTORE PUSH1 0x20 PUSH0 KECCAK256 SWAP1 JUMPDEST DUP2 SLOAD DUP2 MSTORE SWAP1 PUSH1 0x1 ADD SWAP1 PUSH1 0x20 ADD DUP1 DUP4 GT PUSH2 0x17A1 JUMPI DUP3 SWAP1 SUB PUSH1 0x1F AND DUP3 ADD SWAP2 JUMPDEST POP POP POP POP POP DUP2 MSTORE POP POP DUP2 MSTORE PUSH1 0x20 ADD PUSH1 0x6 DUP3 ADD SLOAD DUP2 MSTORE POP POP DUP4 DUP4 DUP1 PUSH2 0x17E1 SWAP1 PUSH2 0x28A6 JUMP JUMPDEST SWAP5 POP DUP2 MLOAD DUP2 LT PUSH2 0x17F4 JUMPI PUSH2 0x17F3 PUSH2 0x2BEB JUMP JUMPDEST JUMPDEST PUSH1 0x20 MUL PUSH1 0x20 ADD ADD DUP2 SWAP1 MSTORE POP JUMPDEST DUP1 DUP1 PUSH2 0x180B SWAP1 PUSH2 0x28A6 JUMP JUMPDEST SWAP2 POP POP PUSH2 0x14E4 JUMP JUMPDEST POP DUP2 SWAP4 POP POP POP POP SWAP2 SWAP1 POP JUMP JUMPDEST PUSH0 DUP1 CALLER PUSH20 0xFFFFFFFFFFFFFFFFFFFFFFFFFFFFFFFFFFFFFFFF AND PUSH20 0xFFFFFFFFFFFFFFFFFFFFFFFFFFFFFFFFFFFFFFFF AND DUP2 MSTORE PUSH1 0x20 ADD SWAP1 DUP2 MSTORE PUSH1 0x20 ADD PUSH0 KECCAK256 PUSH0 SWAP1 SLOAD SWAP1 PUSH2 0x100 EXP SWAP1 DIV PUSH1 0xFF AND PUSH2 0x18A7 JUMPI PUSH1 0x40 MLOAD PUSH32 0x8C379A000000000000000000000000000000000000000000000000000000000 DUP2 MSTORE PUSH1 0x4 ADD PUSH2 0x189E SWAP1 PUSH2 0x2C88 JUMP JUMPDEST PUSH1 0x40 MLOAD DUP1 SWAP2 SUB SWAP1 REVERT JUMPDEST PUSH1 0x4 PUSH0 DUP4 DUP2 MSTORE PUSH1 0x20 ADD SWAP1 DUP2 MSTORE PUSH1 0x20 ADD PUSH0 KECCAK256 PUSH1 0x40 MLOAD DUP1 PUSH1 0x60 ADD PUSH1 0x40 MSTORE DUP1 CALLER PUSH20 0xFFFFFFFFFFFFFFFFFFFFFFFFFFFFFFFFFFFFFFFF AND DUP2 MSTORE PUSH1 0x20 ADD DUP4 DUP2 MSTORE PUSH1 0x20 ADD TIMESTAMP DUP2 MSTORE POP SWAP1 DUP1 PUSH1 0x1 DUP2 SLOAD ADD DUP1 DUP3 SSTORE DUP1 SWAP2 POP POP PUSH1 0x1 SWAP1 SUB SWAP1 PUSH0 MSTORE PUSH1 0x20 PUSH0 KECCAK256 SWAP1 PUSH1 0x3 MUL ADD PUSH0 SWAP1 SWAP2 SWAP1 SWAP2 SWAP1 SWAP2 POP PUSH0 DUP3 ADD MLOAD DUP2 PUSH0 ADD PUSH0 PUSH2 0x100 EXP DUP2 SLOAD DUP2 PUSH20 0xFFFFFFFFFFFFFFFFFFFFFFFFFFFFFFFFFFFFFFFF MUL NOT AND SWAP1 DUP4 PUSH20 0xFFFFFFFFFFFFFFFFFFFFFFFFFFFFFFFFFFFFFFFF AND MUL OR SWAP1 SSTORE POP PUSH1 0x20 DUP3 ADD MLOAD DUP2 PUSH1 0x1 ADD SWAP1 DUP2 PUSH2 0x1968 SWAP2 SWAP1 PUSH2 0x2AE7 JUMP JUMPDEST POP PUSH1 0x40 DUP3 ADD MLOAD DUP2 PUSH1 0x2 ADD SSTORE POP POP CALLER PUSH20 0xFFFFFFFFFFFFFFFFFFFFFFFFFFFFFFFFFFFFFFFF AND DUP3 PUSH32 0x5FDE78E53658418A994F35A31FBB22A8CE49370B8678F1663A93E196B8E8896E PUSH1 0x2 TIMESTAMP PUSH1 0x40 MLOAD PUSH2 0x19BF SWAP3 SWAP2 SWAP1 PUSH2 0x2D2E JUMP JUMPDEST PUSH1 0x40 MLOAD DUP1 SWAP2 SUB SWAP1 LOG3 POP POP JUMP JUMPDEST PUSH1 0x60 PUSH1 0x4 PUSH0 DUP4 DUP2 MSTORE PUSH1 0x20 ADD SWAP1 DUP2 MSTORE PUSH1 0x20 ADD PUSH0 KECCAK256 DUP1 SLOAD DUP1 PUSH1 0x20 MUL PUSH1 0x20 ADD PUSH1 0x40 MLOAD SWAP1 DUP2 ADD PUSH1 0x40 MSTORE DUP1 SWAP3 SWAP2 SWAP1 DUP2 DUP2 MSTORE PUSH1 0x20 ADD PUSH0 SWAP1 JUMPDEST DUP3 DUP3 LT ISZERO PUSH2 0x1B1B JUMPI DUP4 DUP3 SWAP1 PUSH0 MSTORE PUSH1 0x20 PUSH0 KECCAK256 SWAP1 PUSH1 0x3 MUL ADD PUSH1 0x40 MLOAD DUP1 PUSH1 0x60 ADD PUSH1 0x40 MSTORE SWAP1 DUP2 PUSH0 DUP3 ADD PUSH0 SWAP1 SLOAD SWAP1 PUSH2 0x100 EXP SWAP1 DIV PUSH20 0xFFFFFFFFFFFFFFFFFFFFFFFFFFFFFFFFFFFFFFFF AND PUSH20 0xFFFFFFFFFFFFFFFFFFFFFFFFFFFFFFFFFFFFFFFF AND PUSH20 0xFFFFFFFFFFFFFFFFFFFFFFFFFFFFFFFFFFFFFFFF AND DUP2 MSTORE PUSH1 0x20 ADD PUSH1 0x1 DUP3 ADD DUP1 SLOAD PUSH2 0x1A82 SWAP1 PUSH2 0x291A JUMP JUMPDEST DUP1 PUSH1 0x1F ADD PUSH1 0x20 DUP1 SWAP2 DIV MUL PUSH1 0x20 ADD PUSH1 0x40 MLOAD SWAP1 DUP2 ADD PUSH1 0x40 MSTORE DUP1 SWAP3 SWAP2 SWAP1 DUP2 DUP2 MSTORE PUSH1 0x20 ADD DUP3 DUP1 SLOAD PUSH2 0x1AAE SWAP1 PUSH2 0x291A JUMP JUMPDEST DUP1 ISZERO PUSH2 0x1AF9 JUMPI DUP1 PUSH1 0x1F LT PUSH2 0x1AD0 JUMPI PUSH2 0x100 DUP1 DUP4 SLOAD DIV MUL DUP4 MSTORE SWAP2 PUSH1 0x20 ADD SWAP2 PUSH2 0x1AF9 JUMP JUMPDEST DUP3 ADD SWAP2 SWAP1 PUSH0 MSTORE PUSH1 0x20 PUSH0 KECCAK256 SWAP1 JUMPDEST DUP2 SLOAD DUP2 MSTORE SWAP1 PUSH1 0x1 ADD SWAP1 PUSH1 0x20 ADD DUP1 DUP4 GT PUSH2 0x1ADC JUMPI DUP3 SWAP1 SUB PUSH1 0x1F AND DUP3 ADD SWAP2 JUMPDEST POP POP POP POP POP DUP2 MSTORE PUSH1 0x20 ADD PUSH1 0x2 DUP3 ADD SLOAD DUP2 MSTORE POP POP DUP2 MSTORE PUSH1 0x20 ADD SWAP1 PUSH1 0x1 ADD SWAP1 PUSH2 0x19FD JUMP JUMPDEST POP POP POP POP SWAP1 POP SWAP2 SWAP1 POP JUMP JUMPDEST PUSH1 0x3 PUSH0 DUP5 DUP2 MSTORE PUSH1 0x20 ADD SWAP1 DUP2 MSTORE PUSH1 0x20 ADD PUSH0 KECCAK256 PUSH1 0x40 MLOAD DUP1 PUSH1 0x60 ADD PUSH1 0x40 MSTORE DUP1 DUP5 PUSH20 0xFFFFFFFFFFFFFFFFFFFFFFFFFFFFFFFFFFFFFFFF AND DUP2 MSTORE PUSH1 0x20 ADD DUP4 PUSH1 0x2 DUP2 GT ISZERO PUSH2 0x1B71 JUMPI PUSH2 0x1B70 PUSH2 0x233C JUMP JUMPDEST JUMPDEST DUP2 MSTORE PUSH1 0x20 ADD TIMESTAMP DUP2 MSTORE POP SWAP1 DUP1 PUSH1 0x1 DUP2 SLOAD ADD DUP1 DUP3 SSTORE DUP1 SWAP2 POP POP PUSH1 0x1 SWAP1 SUB SWAP1 PUSH0 MSTORE PUSH1 0x20 PUSH0 KECCAK256 SWAP1 PUSH1 0x2 MUL ADD PUSH0 SWAP1 SWAP2 SWAP1 SWAP2 SWAP1 SWAP2 POP PUSH0 DUP3 ADD MLOAD DUP2 PUSH0 ADD PUSH0 PUSH2 0x100 EXP DUP2 SLOAD DUP2 PUSH20 0xFFFFFFFFFFFFFFFFFFFFFFFFFFFFFFFFFFFFFFFF MUL NOT AND SWAP1 DUP4 PUSH20 0xFFFFFFFFFFFFFFFFFFFFFFFFFFFFFFFFFFFFFFFF AND MUL OR SWAP1 SSTORE POP PUSH1 0x20 DUP3 ADD MLOAD DUP2 PUSH0 ADD PUSH1 0x14 PUSH2 0x100 EXP DUP2 SLOAD DUP2 PUSH1 0xFF MUL NOT AND SWAP1 DUP4 PUSH1 0x2 DUP2 GT ISZERO PUSH2 0x1C0E JUMPI PUSH2 0x1C0D PUSH2 0x233C JUMP JUMPDEST JUMPDEST MUL OR SWAP1 SSTORE POP PUSH1 0x40 DUP3 ADD MLOAD DUP2 PUSH1 0x1 ADD SSTORE POP POP DUP2 PUSH20 0xFFFFFFFFFFFFFFFFFFFFFFFFFFFFFFFFFFFFFFFF AND DUP4 PUSH32 0x5FDE78E53658418A994F35A31FBB22A8CE49370B8678F1663A93E196B8E8896E DUP4 TIMESTAMP PUSH1 0x40 MLOAD PUSH2 0x1C68 SWAP3 SWAP2 SWAP1 PUSH2 0x2D2E JUMP JUMPDEST PUSH1 0x40 MLOAD DUP1 SWAP2 SUB SWAP1 LOG3 POP POP POP JUMP JUMPDEST PUSH1 0x40 MLOAD DUP1 PUSH1 0x60 ADD PUSH1 0x40 MSTORE DUP1 PUSH0 PUSH20 0xFFFFFFFFFFFFFFFFFFFFFFFFFFFFFFFFFFFFFFFF AND DUP2 MSTORE PUSH1 0x20 ADD PUSH1 0x60 DUP2 MSTORE PUSH1 0x20 ADD PUSH0 DUP2 MSTORE POP SWAP1 JUMP JUMPDEST PUSH1 0x40 MLOAD DUP1 PUSH1 0xC0 ADD PUSH1 0x40 MSTORE DUP1 PUSH0 DUP2 MSTORE PUSH1 0x20 ADD PUSH0 PUSH20 0xFFFFFFFFFFFFFFFFFFFFFFFFFFFFFFFFFFFFFFFF AND DUP2 MSTORE PUSH1 0x20 ADD PUSH1 0x60 DUP2 MSTORE PUSH1 0x20 ADD PUSH0 PUSH1 0x1 DUP2 GT ISZERO PUSH2 0x1CF1 JUMPI PUSH2 0x1CF0 PUSH2 0x233C JUMP JUMPDEST JUMPDEST DUP2 MSTORE PUSH1 0x20 ADD PUSH2 0x1CFE PUSH2 0x1D0A JUMP JUMPDEST DUP2 MSTORE PUSH1 0x20 ADD PUSH0 DUP2 MSTORE POP SWAP1 JUMP JUMPDEST PUSH1 0x40 MLOAD DUP1 PUSH1 0x40 ADD PUSH1 0x40 MSTORE DUP1 PUSH1 0x60 DUP2 MSTORE PUSH1 0x20 ADD PUSH1 0x60 DUP2 MSTORE POP SWAP1 JUMP JUMPDEST PUSH0 PUSH1 0x40 MLOAD SWAP1 POP SWAP1 JUMP JUMPDEST PUSH0 DUP1 REVERT JUMPDEST PUSH0 DUP1 REVERT JUMPDEST PUSH0 DUP1 REVERT JUMPDEST PUSH0 DUP1 REVERT JUMPDEST PUSH0 PUSH1 0x1F NOT PUSH1 0x1F DUP4 ADD AND SWAP1 POP SWAP2 SWAP1 POP JUMP JUMPDEST PUSH32 0x4E487B7100000000000000000000000000000000000000000000000000000000 PUSH0 MSTORE PUSH1 0x41 PUSH1 0x4 MSTORE PUSH1 0x24 PUSH0 REVERT JUMPDEST PUSH2 0x1D83 DUP3 PUSH2 0x1D3D JUMP JUMPDEST DUP2 ADD DUP2 DUP2 LT PUSH8 0xFFFFFFFFFFFFFFFF DUP3 GT OR ISZERO PUSH2 0x1DA2 JUMPI PUSH2 0x1DA1 PUSH2 0x1D4D JUMP JUMPDEST JUMPDEST DUP1 PUSH1 0x40 MSTORE POP POP POP JUMP JUMPDEST PUSH0 PUSH2 0x1DB4 PUSH2 0x1D24 JUMP JUMPDEST SWAP1 POP PUSH2 0x1DC0 DUP3 DUP3 PUSH2 0x1D7A JUMP JUMPDEST SWAP2 SWAP1 POP JUMP JUMPDEST PUSH0 PUSH8 0xFFFFFFFFFFFFFFFF DUP3 GT ISZERO PUSH2 0x1DDF JUMPI PUSH2 0x1DDE PUSH2 0x1D4D JUMP JUMPDEST JUMPDEST PUSH2 0x1DE8 DUP3 PUSH2 0x1D3D JUMP JUMPDEST SWAP1 POP PUSH1 0x20 DUP2 ADD SWAP1 POP SWAP2 SWAP1 POP JUMP JUMPDEST DUP3 DUP2 DUP4 CALLDATACOPY PUSH0 DUP4 DUP4 ADD MSTORE POP POP POP JUMP JUMPDEST PUSH0 PUSH2 0x1E15 PUSH2 0x1E10 DUP5 PUSH2 0x1DC5 JUMP JUMPDEST PUSH2 0x1DAB JUMP JUMPDEST SWAP1 POP DUP3 DUP2 MSTORE PUSH1 0x20 DUP2 ADD DUP5 DUP5 DUP5 ADD GT ISZERO PUSH2 0x1E31 JUMPI PUSH2 0x1E30 PUSH2 0x1D39 JUMP JUMPDEST JUMPDEST PUSH2 0x1E3C DUP5 DUP3 DUP6 PUSH2 0x1DF5 JUMP JUMPDEST POP SWAP4 SWAP3 POP POP POP JUMP JUMPDEST PUSH0 DUP3 PUSH1 0x1F DUP4 ADD SLT PUSH2 0x1E58 JUMPI PUSH2 0x1E57 PUSH2 0x1D35 JUMP JUMPDEST JUMPDEST DUP2 CALLDATALOAD PUSH2 0x1E68 DUP5 DUP3 PUSH1 0x20 DUP7 ADD PUSH2 0x1E03 JUMP JUMPDEST SWAP2 POP POP SWAP3 SWAP2 POP POP JUMP JUMPDEST PUSH0 DUP1 PUSH0 PUSH1 0x60 DUP5 DUP7 SUB SLT ISZERO PUSH2 0x1E88 JUMPI PUSH2 0x1E87 PUSH2 0x1D2D JUMP JUMPDEST JUMPDEST PUSH0 DUP5 ADD CALLDATALOAD PUSH8 0xFFFFFFFFFFFFFFFF DUP2 GT ISZERO PUSH2 0x1EA5 JUMPI PUSH2 0x1EA4 PUSH2 0x1D31 JUMP JUMPDEST JUMPDEST PUSH2 0x1EB1 DUP7 DUP3 DUP8 ADD PUSH2 0x1E44 JUMP JUMPDEST SWAP4 POP POP PUSH1 0x20 DUP5 ADD CALLDATALOAD PUSH8 0xFFFFFFFFFFFFFFFF DUP2 GT ISZERO PUSH2 0x1ED2 JUMPI PUSH2 0x1ED1 PUSH2 0x1D31 JUMP JUMPDEST JUMPDEST PUSH2 0x1EDE DUP7 DUP3 DUP8 ADD PUSH2 0x1E44 JUMP JUMPDEST SWAP3 POP POP PUSH1 0x40 DUP5 ADD CALLDATALOAD PUSH8 0xFFFFFFFFFFFFFFFF DUP2 GT ISZERO PUSH2 0x1EFF JUMPI PUSH2 0x1EFE PUSH2 0x1D31 JUMP JUMPDEST JUMPDEST PUSH2 0x1F0B DUP7 DUP3 DUP8 ADD PUSH2 0x1E44 JUMP JUMPDEST SWAP2 POP POP SWAP3 POP SWAP3 POP SWAP3 JUMP JUMPDEST PUSH0 PUSH20 0xFFFFFFFFFFFFFFFFFFFFFFFFFFFFFFFFFFFFFFFF DUP3 AND SWAP1 POP SWAP2 SWAP1 POP JUMP JUMPDEST PUSH0 PUSH2 0x1F3E DUP3 PUSH2 0x1F15 JUMP JUMPDEST SWAP1 POP SWAP2 SWAP1 POP JUMP JUMPDEST PUSH2 0x1F4E DUP2 PUSH2 0x1F34 JUMP JUMPDEST DUP2 EQ PUSH2 0x1F58 JUMPI PUSH0 DUP1 REVERT JUMPDEST POP JUMP JUMPDEST PUSH0 DUP2 CALLDATALOAD SWAP1 POP PUSH2 0x1F69 DUP2 PUSH2 0x1F45 JUMP JUMPDEST SWAP3 SWAP2 POP POP JUMP JUMPDEST PUSH0 PUSH1 0x20 DUP3 DUP5 SUB SLT ISZERO PUSH2 0x1F84 JUMPI PUSH2 0x1F83 PUSH2 0x1D2D JUMP JUMPDEST JUMPDEST PUSH0 PUSH2 0x1F91 DUP5 DUP3 DUP6 ADD PUSH2 0x1F5B JUMP JUMPDEST SWAP2 POP POP SWAP3 SWAP2 POP POP JUMP JUMPDEST PUSH0 DUP2 MLOAD SWAP1 POP SWAP2 SWAP1 POP JUMP JUMPDEST PUSH0 DUP3 DUP3 MSTORE PUSH1 0x20 DUP3 ADD SWAP1 POP SWAP3 SWAP2 POP POP JUMP JUMPDEST PUSH0 DUP2 SWAP1 POP PUSH1 0x20 DUP3 ADD SWAP1 POP SWAP2 SWAP1 POP JUMP JUMPDEST PUSH2 0x1FCC DUP2 PUSH2 0x1F34 JUMP JUMPDEST DUP3 MSTORE POP POP JUMP JUMPDEST PUSH0 DUP2 MLOAD SWAP1 POP SWAP2 SWAP1 POP JUMP JUMPDEST PUSH0 DUP3 DUP3 MSTORE PUSH1 0x20 DUP3 ADD SWAP1 POP SWAP3 SWAP2 POP POP JUMP JUMPDEST PUSH0 JUMPDEST DUP4 DUP2 LT ISZERO PUSH2 0x2009 JUMPI DUP1 DUP3 ADD MLOAD DUP2 DUP5 ADD MSTORE PUSH1 0x20 DUP2 ADD SWAP1 POP PUSH2 0x1FEE JUMP JUMPDEST PUSH0 DUP5 DUP5 ADD MSTORE POP POP POP POP JUMP JUMPDEST PUSH0 PUSH2 0x201E DUP3 PUSH2 0x1FD2 JUMP JUMPDEST PUSH2 0x2028 DUP2 DUP6 PUSH2 0x1FDC JUMP JUMPDEST SWAP4 POP PUSH2 0x2038 DUP2 DUP6 PUSH1 0x20 DUP7 ADD PUSH2 0x1FEC JUMP JUMPDEST PUSH2 0x2041 DUP2 PUSH2 0x1D3D JUMP JUMPDEST DUP5 ADD SWAP2 POP POP SWAP3 SWAP2 POP POP JUMP JUMPDEST PUSH0 DUP2 SWAP1 POP SWAP2 SWAP1 POP JUMP JUMPDEST PUSH2 0x205E DUP2 PUSH2 0x204C JUMP JUMPDEST DUP3 MSTORE POP POP JUMP JUMPDEST PUSH0 PUSH1 0x60 DUP4 ADD PUSH0 DUP4 ADD MLOAD PUSH2 0x2079 PUSH0 DUP7 ADD DUP3 PUSH2 0x1FC3 JUMP JUMPDEST POP PUSH1 0x20 DUP4 ADD MLOAD DUP5 DUP3 SUB PUSH1 0x20 DUP7 ADD MSTORE PUSH2 0x2091 DUP3 DUP3 PUSH2 0x2014 JUMP JUMPDEST SWAP2 POP POP PUSH1 0x40 DUP4 ADD MLOAD PUSH2 0x20A6 PUSH1 0x40 DUP7 ADD DUP3 PUSH2 0x2055 JUMP JUMPDEST POP DUP1 SWAP2 POP POP SWAP3 SWAP2 POP POP JUMP JUMPDEST PUSH0 PUSH2 0x20BC DUP4 DUP4 PUSH2 0x2064 JUMP JUMPDEST SWAP1 POP SWAP3 SWAP2 POP POP JUMP JUMPDEST PUSH0 PUSH1 0x20 DUP3 ADD SWAP1 POP SWAP2 SWAP1 POP JUMP JUMPDEST PUSH0 PUSH2 0x20DA DUP3 PUSH2 0x1F9A JUMP JUMPDEST PUSH2 0x20E4 DUP2 DUP6 PUSH2 0x1FA4 JUMP JUMPDEST SWAP4 POP DUP4 PUSH1 0x20 DUP3 MUL DUP6 ADD PUSH2 0x20F6 DUP6 PUSH2 0x1FB4 JUMP JUMPDEST DUP1 PUSH0 JUMPDEST DUP6 DUP2 LT ISZERO PUSH2 0x2131 JUMPI DUP5 DUP5 SUB DUP10 MSTORE DUP2 MLOAD PUSH2 0x2112 DUP6 DUP3 PUSH2 0x20B1 JUMP JUMPDEST SWAP5 POP PUSH2 0x211D DUP4 PUSH2 0x20C4 JUMP JUMPDEST SWAP3 POP PUSH1 0x20 DUP11 ADD SWAP10 POP POP PUSH1 0x1 DUP2 ADD SWAP1 POP PUSH2 0x20F9 JUMP JUMPDEST POP DUP3 SWAP8 POP DUP8 SWAP6 POP POP POP POP POP POP SWAP3 SWAP2 POP POP JUMP JUMPDEST PUSH0 PUSH1 0x20 DUP3 ADD SWAP1 POP DUP2 DUP2 SUB PUSH0 DUP4 ADD MSTORE PUSH2 0x215B DUP2 DUP5 PUSH2 0x20D0 JUMP JUMPDEST SWAP1 POP SWAP3 SWAP2 POP POP JUMP JUMPDEST PUSH2 0x216C DUP2 PUSH2 0x204C JUMP JUMPDEST DUP2 EQ PUSH2 0x2176 JUMPI PUSH0 DUP1 REVERT JUMPDEST POP JUMP JUMPDEST PUSH0 DUP2 CALLDATALOAD SWAP1 POP PUSH2 0x2187 DUP2 PUSH2 0x2163 JUMP JUMPDEST SWAP3 SWAP2 POP POP JUMP JUMPDEST PUSH0 DUP1 PUSH1 0x40 DUP4 DUP6 SUB SLT ISZERO PUSH2 0x21A3 JUMPI PUSH2 0x21A2 PUSH2 0x1D2D JUMP JUMPDEST JUMPDEST PUSH0 PUSH2 0x21B0 DUP6 DUP3 DUP7 ADD PUSH2 0x2179 JUMP JUMPDEST SWAP3 POP POP PUSH1 0x20 PUSH2 0x21C1 DUP6 DUP3 DUP7 ADD PUSH2 0x2179 JUMP JUMPDEST SWAP2 POP POP SWAP3 POP SWAP3 SWAP1 POP JUMP JUMPDEST PUSH2 0x21D4 DUP2 PUSH2 0x1F34 JUMP JUMPDEST DUP3 MSTORE POP POP JUMP JUMPDEST PUSH0 DUP3 DUP3 MSTORE PUSH1 0x20 DUP3 ADD SWAP1 POP SWAP3 SWAP2 POP POP JUMP JUMPDEST PUSH0 PUSH2 0x21F4 DUP3 PUSH2 0x1FD2 JUMP JUMPDEST PUSH2 0x21FE DUP2 DUP6 PUSH2 0x21DA JUMP JUMPDEST SWAP4 POP PUSH2 0x220E DUP2 DUP6 PUSH1 0x20 DUP7 ADD PUSH2 0x1FEC JUMP JUMPDEST PUSH2 0x2217 DUP2 PUSH2 0x1D3D JUMP JUMPDEST DUP5 ADD SWAP2 POP POP SWAP3 SWAP2 POP POP JUMP JUMPDEST PUSH2 0x222B DUP2 PUSH2 0x204C JUMP JUMPDEST DUP3 MSTORE POP POP JUMP JUMPDEST PUSH0 PUSH1 0x60 DUP3 ADD SWAP1 POP PUSH2 0x2244 PUSH0 DUP4 ADD DUP7 PUSH2 0x21CB JUMP JUMPDEST DUP2 DUP2 SUB PUSH1 0x20 DUP4 ADD MSTORE PUSH2 0x2256 DUP2 DUP6 PUSH2 0x21EA JUMP JUMPDEST SWAP1 POP PUSH2 0x2265 PUSH1 0x40 DUP4 ADD DUP5 PUSH2 0x2222 JUMP JUMPDEST SWAP5 SWAP4 POP POP POP POP JUMP JUMPDEST PUSH0 DUP2 ISZERO ISZERO SWAP1 POP SWAP2 SWAP1 POP JUMP JUMPDEST PUSH2 0x2281 DUP2 PUSH2 0x226D JUMP JUMPDEST DUP3 MSTORE POP POP JUMP JUMPDEST PUSH0 PUSH1 0x20 DUP3 ADD SWAP1 POP PUSH2 0x229A PUSH0 DUP4 ADD DUP5 PUSH2 0x2278 JUMP JUMPDEST SWAP3 SWAP2 POP POP JUMP JUMPDEST PUSH0 DUP1 PUSH1 0x40 DUP4 DUP6 SUB SLT ISZERO PUSH2 0x22B6 JUMPI PUSH2 0x22B5 PUSH2 0x1D2D JUMP JUMPDEST JUMPDEST PUSH0 PUSH2 0x22C3 DUP6 DUP3 DUP7 ADD PUSH2 0x2179 JUMP JUMPDEST SWAP3 POP POP PUSH1 0x20 DUP4 ADD CALLDATALOAD PUSH8 0xFFFFFFFFFFFFFFFF DUP2 GT ISZERO PUSH2 0x22E4 JUMPI PUSH2 0x22E3 PUSH2 0x1D31 JUMP JUMPDEST JUMPDEST PUSH2 0x22F0 DUP6 DUP3 DUP7 ADD PUSH2 0x1E44 JUMP JUMPDEST SWAP2 POP POP SWAP3 POP SWAP3 SWAP1 POP JUMP JUMPDEST PUSH0 PUSH1 0x20 DUP3 ADD SWAP1 POP PUSH2 0x230D PUSH0 DUP4 ADD DUP5 PUSH2 0x2222 JUMP JUMPDEST SWAP3 SWAP2 POP POP JUMP JUMPDEST PUSH0 DUP2 MLOAD SWAP1 POP SWAP2 SWAP1 POP JUMP JUMPDEST PUSH0 DUP3 DUP3 MSTORE PUSH1 0x20 DUP3 ADD SWAP1 POP SWAP3 SWAP2 POP POP JUMP JUMPDEST PUSH0 DUP2 SWAP1 POP PUSH1 0x20 DUP3 ADD SWAP1 POP SWAP2 SWAP1 POP JUMP JUMPDEST PUSH32 0x4E487B7100000000000000000000000000000000000000000000000000000000 PUSH0 MSTORE PUSH1 0x21 PUSH1 0x4 MSTORE PUSH1 0x24 PUSH0 REVERT JUMPDEST PUSH1 0x2 DUP2 LT PUSH2 0x237A JUMPI PUSH2 0x2379 PUSH2 0x233C JUMP JUMPDEST JUMPDEST POP JUMP JUMPDEST PUSH0 DUP2 SWAP1 POP PUSH2 0x238A DUP3 PUSH2 0x2369 JUMP JUMPDEST SWAP2 SWAP1 POP JUMP JUMPDEST PUSH0 PUSH2 0x2399 DUP3 PUSH2 0x237D JUMP JUMPDEST SWAP1 POP SWAP2 SWAP1 POP JUMP JUMPDEST PUSH2 0x23A9 DUP2 PUSH2 0x238F JUMP JUMPDEST DUP3 MSTORE POP POP JUMP JUMPDEST PUSH0 PUSH1 0x40 DUP4 ADD PUSH0 DUP4 ADD MLOAD DUP5 DUP3 SUB PUSH0 DUP7 ADD MSTORE PUSH2 0x23C9 DUP3 DUP3 PUSH2 0x2014 JUMP JUMPDEST SWAP2 POP POP PUSH1 0x20 DUP4 ADD MLOAD DUP5 DUP3 SUB PUSH1 0x20 DUP7 ADD MSTORE PUSH2 0x23E3 DUP3 DUP3 PUSH2 0x2014 JUMP JUMPDEST SWAP2 POP POP DUP1 SWAP2 POP POP SWAP3 SWAP2 POP POP JUMP JUMPDEST PUSH0 PUSH1 0xC0 DUP4 ADD PUSH0 DUP4 ADD MLOAD PUSH2 0x2405 PUSH0 DUP7 ADD DUP3 PUSH2 0x2055 JUMP JUMPDEST POP PUSH1 0x20 DUP4 ADD MLOAD PUSH2 0x2418 PUSH1 0x20 DUP7 ADD DUP3 PUSH2 0x1FC3 JUMP JUMPDEST POP PUSH1 0x40 DUP4 ADD MLOAD DUP5 DUP3 SUB PUSH1 0x40 DUP7 ADD MSTORE PUSH2 0x2430 DUP3 DUP3 PUSH2 0x2014 JUMP JUMPDEST SWAP2 POP POP PUSH1 0x60 DUP4 ADD MLOAD PUSH2 0x2445 PUSH1 0x60 DUP7 ADD DUP3 PUSH2 0x23A0 JUMP JUMPDEST POP PUSH1 0x80 DUP4 ADD MLOAD DUP5 DUP3 SUB PUSH1 0x80 DUP7 ADD MSTORE PUSH2 0x245D DUP3 DUP3 PUSH2 0x23AF JUMP JUMPDEST SWAP2 POP POP PUSH1 0xA0 DUP4 ADD MLOAD PUSH2 0x2472 PUSH1 0xA0 DUP7 ADD DUP3 PUSH2 0x2055 JUMP JUMPDEST POP DUP1 SWAP2 POP POP SWAP3 SWAP2 POP POP JUMP JUMPDEST PUSH0 PUSH2 0x2488 DUP4 DUP4 PUSH2 0x23F0 JUMP JUMPDEST SWAP1 POP SWAP3 SWAP2 POP POP JUMP JUMPDEST PUSH0 PUSH1 0x20 DUP3 ADD SWAP1 POP SWAP2 SWAP1 POP JUMP JUMPDEST PUSH0 PUSH2 0x24A6 DUP3 PUSH2 0x2313 JUMP JUMPDEST PUSH2 0x24B0 DUP2 DUP6 PUSH2 0x231D JUMP JUMPDEST SWAP4 POP DUP4 PUSH1 0x20 DUP3 MUL DUP6 ADD PUSH2 0x24C2 DUP6 PUSH2 0x232D JUMP JUMPDEST DUP1 PUSH0 JUMPDEST DUP6 DUP2 LT ISZERO PUSH2 0x24FD JUMPI DUP5 DUP5 SUB DUP10 MSTORE DUP2 MLOAD PUSH2 0x24DE DUP6 DUP3 PUSH2 0x247D JUMP JUMPDEST SWAP5 POP PUSH2 0x24E9 DUP4 PUSH2 0x2490 JUMP JUMPDEST SWAP3 POP PUSH1 0x20 DUP11 ADD SWAP10 POP POP PUSH1 0x1 DUP2 ADD SWAP1 POP PUSH2 0x24C5 JUMP JUMPDEST POP DUP3 SWAP8 POP DUP8 SWAP6 POP POP POP POP POP POP SWAP3 SWAP2 POP POP JUMP JUMPDEST PUSH0 PUSH1 0x20 DUP3 ADD SWAP1 POP DUP2 DUP2 SUB PUSH0 DUP4 ADD MSTORE PUSH2 0x2527 DUP2 DUP5 PUSH2 0x249C JUMP JUMPDEST SWAP1 POP SWAP3 SWAP2 POP POP JUMP JUMPDEST PUSH1 0x3 DUP2 LT PUSH2 0x2540 JUMPI PUSH2 0x253F PUSH2 0x233C JUMP JUMPDEST JUMPDEST POP JUMP JUMPDEST PUSH0 DUP2 SWAP1 POP PUSH2 0x2550 DUP3 PUSH2 0x252F JUMP JUMPDEST SWAP2 SWAP1 POP JUMP JUMPDEST PUSH0 PUSH2 0x255F DUP3 PUSH2 0x2543 JUMP JUMPDEST SWAP1 POP SWAP2 SWAP1 POP JUMP JUMPDEST PUSH2 0x256F DUP2 PUSH2 0x2555 JUMP JUMPDEST DUP3 MSTORE POP POP JUMP JUMPDEST PUSH0 PUSH1 0x60 DUP3 ADD SWAP1 POP PUSH2 0x2588 PUSH0 DUP4 ADD DUP7 PUSH2 0x21CB JUMP JUMPDEST PUSH2 0x2595 PUSH1 0x20 DUP4 ADD DUP6 PUSH2 0x2566 JUMP JUMPDEST PUSH2 0x25A2 PUSH1 0x40 DUP4 ADD DUP5 PUSH2 0x2222 JUMP JUMPDEST SWAP5 SWAP4 POP POP POP POP JUMP JUMPDEST PUSH0 PUSH1 0x20 DUP3 DUP5 SUB SLT ISZERO PUSH2 0x25BF JUMPI PUSH2 0x25BE PUSH2 0x1D2D JUMP JUMPDEST JUMPDEST PUSH0 PUSH2 0x25CC DUP5 DUP3 DUP6 ADD PUSH2 0x2179 JUMP JUMPDEST SWAP2 POP POP SWAP3 SWAP2 POP POP JUMP JUMPDEST PUSH2 0x25DE DUP2 PUSH2 0x238F JUMP JUMPDEST DUP3 MSTORE POP POP JUMP JUMPDEST PUSH0 PUSH1 0x40 DUP4 ADD PUSH0 DUP4 ADD MLOAD DUP5 DUP3 SUB PUSH0 DUP7 ADD MSTORE PUSH2 0x25FE DUP3 DUP3 PUSH2 0x2014 JUMP JUMPDEST SWAP2 POP POP PUSH1 0x20 DUP4 ADD MLOAD DUP5 DUP3 SUB PUSH1 0x20 DUP7 ADD MSTORE PUSH2 0x2618 DUP3 DUP3 PUSH2 0x2014 JUMP JUMPDEST SWAP2 POP POP DUP1 SWAP2 POP POP SWAP3 SWAP2 POP POP JUMP JUMPDEST PUSH0 PUSH1 0xC0 DUP3 ADD SWAP1 POP PUSH2 0x2638 PUSH0 DUP4 ADD DUP10 PUSH2 0x2222 JUMP JUMPDEST PUSH2 0x2645 PUSH1 0x20 DUP4 ADD DUP9 PUSH2 0x21CB JUMP JUMPDEST DUP2 DUP2 SUB PUSH1 0x40 DUP4 ADD MSTORE PUSH2 0x2657 DUP2 DUP8 PUSH2 0x21EA JUMP JUMPDEST SWAP1 POP PUSH2 0x2666 PUSH1 0x60 DUP4 ADD DUP7 PUSH2 0x25D5 JUMP JUMPDEST DUP2 DUP2 SUB PUSH1 0x80 DUP4 ADD MSTORE PUSH2 0x2678 DUP2 DUP6 PUSH2 0x25E4 JUMP JUMPDEST SWAP1 POP PUSH2 0x2687 PUSH1 0xA0 DUP4 ADD DUP5 PUSH2 0x2222 JUMP JUMPDEST SWAP8 SWAP7 POP POP POP POP POP POP POP JUMP JUMPDEST PUSH0 DUP2 MLOAD SWAP1 POP SWAP2 SWAP1 POP JUMP JUMPDEST PUSH0 DUP3 DUP3 MSTORE PUSH1 0x20 DUP3 ADD SWAP1 POP SWAP3 SWAP2 POP POP JUMP JUMPDEST PUSH0 DUP2 SWAP1 POP PUSH1 0x20 DUP3 ADD SWAP1 POP SWAP2 SWAP1 POP JUMP JUMPDEST PUSH2 0x26C4 DUP2 PUSH2 0x2555 JUMP JUMPDEST DUP3 MSTORE POP POP JUMP JUMPDEST PUSH1 0x60 DUP3 ADD PUSH0 DUP3 ADD MLOAD PUSH2 0x26DE PUSH0 DUP6 ADD DUP3 PUSH2 0x1FC3 JUMP JUMPDEST POP PUSH1 0x20 DUP3 ADD MLOAD PUSH2 0x26F1 PUSH1 0x20 DUP6 ADD DUP3 PUSH2 0x26BB JUMP JUMPDEST POP PUSH1 0x40 DUP3 ADD MLOAD PUSH2 0x2704 PUSH1 0x40 DUP6 ADD DUP3 PUSH2 0x2055 JUMP JUMPDEST POP POP POP POP JUMP JUMPDEST PUSH0 PUSH2 0x2715 DUP4 DUP4 PUSH2 0x26CA JUMP JUMPDEST PUSH1 0x60 DUP4 ADD SWAP1 POP SWAP3 SWAP2 POP POP JUMP JUMPDEST PUSH0 PUSH1 0x20 DUP3 ADD SWAP1 POP SWAP2 SWAP1 POP JUMP JUMPDEST PUSH0 PUSH2 0x2737 DUP3 PUSH2 0x2692 JUMP JUMPDEST PUSH2 0x2741 DUP2 DUP6 PUSH2 0x269C JUMP JUMPDEST SWAP4 POP PUSH2 0x274C DUP4 PUSH2 0x26AC JUMP JUMPDEST DUP1 PUSH0 JUMPDEST DUP4 DUP2 LT ISZERO PUSH2 0x277C JUMPI DUP2 MLOAD PUSH2 0x2763 DUP9 DUP3 PUSH2 0x270A JUMP JUMPDEST SWAP8 POP PUSH2 0x276E DUP4 PUSH2 0x2721 JUMP JUMPDEST SWAP3 POP POP PUSH1 0x1 DUP2 ADD SWAP1 POP PUSH2 0x274F JUMP JUMPDEST POP DUP6 SWAP4 POP POP POP POP SWAP3 SWAP2 POP POP JUMP JUMPDEST PUSH0 PUSH1 0x20 DUP3 ADD SWAP1 POP DUP2 DUP2 SUB PUSH0 DUP4 ADD MSTORE PUSH2 0x27A1 DUP2 DUP5 PUSH2 0x272D JUMP JUMPDEST SWAP1 POP SWAP3 SWAP2 POP POP JUMP JUMPDEST PUSH32 0x4F6E6C7920757365722063616E2063616C6C20746869732066756E6374696F6E PUSH0 DUP3 ADD MSTORE POP JUMP JUMPDEST PUSH0 PUSH2 0x27DD PUSH1 0x20 DUP4 PUSH2 0x21DA JUMP JUMPDEST SWAP2 POP PUSH2 0x27E8 DUP3 PUSH2 0x27A9 JUMP JUMPDEST PUSH1 0x20 DUP3 ADD SWAP1 POP SWAP2 SWAP1 POP JUMP JUMPDEST PUSH0 PUSH1 0x20 DUP3 ADD SWAP1 POP DUP2 DUP2 SUB PUSH0 DUP4 ADD MSTORE PUSH2 0x280A DUP2 PUSH2 0x27D1 JUMP JUMPDEST SWAP1 POP SWAP2 SWAP1 POP JUMP JUMPDEST PUSH32 0x4E6F2066696C652070726F766964656400000000000000000000000000000000 PUSH0 DUP3 ADD MSTORE POP JUMP JUMPDEST PUSH0 PUSH2 0x2845 PUSH1 0x10 DUP4 PUSH2 0x21DA JUMP JUMPDEST SWAP2 POP PUSH2 0x2850 DUP3 PUSH2 0x2811 JUMP JUMPDEST PUSH1 0x20 DUP3 ADD SWAP1 POP SWAP2 SWAP1 POP JUMP JUMPDEST PUSH0 PUSH1 0x20 DUP3 ADD SWAP1 POP DUP2 DUP2 SUB PUSH0 DUP4 ADD MSTORE PUSH2 0x2872 DUP2 PUSH2 0x2839 JUMP JUMPDEST SWAP1 POP SWAP2 SWAP1 POP JUMP JUMPDEST PUSH32 0x4E487B7100000000000000000000000000000000000000000000000000000000 PUSH0 MSTORE PUSH1 0x11 PUSH1 0x4 MSTORE PUSH1 0x24 PUSH0 REVERT JUMPDEST PUSH0 PUSH2 0x28B0 DUP3 PUSH2 0x204C JUMP JUMPDEST SWAP2 POP PUSH32 0xFFFFFFFFFFFFFFFFFFFFFFFFFFFFFFFFFFFFFFFFFFFFFFFFFFFFFFFFFFFFFFFF DUP3 SUB PUSH2 0x28E2 JUMPI PUSH2 0x28E1 PUSH2 0x2879 JUMP JUMPDEST JUMPDEST PUSH1 0x1 DUP3 ADD SWAP1 POP SWAP2 SWAP1 POP JUMP JUMPDEST PUSH32 0x4E487B7100000000000000000000000000000000000000000000000000000000 PUSH0 MSTORE PUSH1 0x22 PUSH1 0x4 MSTORE PUSH1 0x24 PUSH0 REVERT JUMPDEST PUSH0 PUSH1 0x2 DUP3 DIV SWAP1 POP PUSH1 0x1 DUP3 AND DUP1 PUSH2 0x2931 JUMPI PUSH1 0x7F DUP3 AND SWAP2 POP JUMPDEST PUSH1 0x20 DUP3 LT DUP2 SUB PUSH2 0x2944 JUMPI PUSH2 0x2943 PUSH2 0x28ED JUMP JUMPDEST JUMPDEST POP SWAP2 SWAP1 POP JUMP JUMPDEST PUSH0 DUP2 SWAP1 POP DUP2 PUSH0 MSTORE PUSH1 0x20 PUSH0 KECCAK256 SWAP1 POP SWAP2 SWAP1 POP JUMP JUMPDEST PUSH0 PUSH1 0x20 PUSH1 0x1F DUP4 ADD DIV SWAP1 POP SWAP2 SWAP1 POP JUMP JUMPDEST PUSH0 DUP3 DUP3 SHL SWAP1 POP SWAP3 SWAP2 POP POP JUMP JUMPDEST PUSH0 PUSH1 0x8 DUP4 MUL PUSH2 0x29A6 PUSH32 0xFFFFFFFFFFFFFFFFFFFFFFFFFFFFFFFFFFFFFFFFFFFFFFFFFFFFFFFFFFFFFFFF DUP3 PUSH2 0x296B JUMP JUMPDEST PUSH2 0x29B0 DUP7 DUP4 PUSH2 0x296B JUMP JUMPDEST SWAP6 POP DUP1 NOT DUP5 AND SWAP4 POP DUP1 DUP7 AND DUP5 OR SWAP3 POP POP POP SWAP4 SWAP3 POP POP POP JUMP JUMPDEST PUSH0 DUP2 SWAP1 POP SWAP2 SWAP1 POP JUMP JUMPDEST PUSH0 PUSH2 0x29EB PUSH2 0x29E6 PUSH2 0x29E1 DUP5 PUSH2 0x204C JUMP JUMPDEST PUSH2 0x29C8 JUMP JUMPDEST PUSH2 0x204C JUMP JUMPDEST SWAP1 POP SWAP2 SWAP1 POP JUMP JUMPDEST PUSH0 DUP2 SWAP1 POP SWAP2 SWAP1 POP JUMP JUMPDEST PUSH2 0x2A04 DUP4 PUSH2 0x29D1 JUMP JUMPDEST PUSH2 0x2A18 PUSH2 0x2A10 DUP3 PUSH2 0x29F2 JUMP JUMPDEST DUP5 DUP5 SLOAD PUSH2 0x2977 JUMP JUMPDEST DUP3 SSTORE POP POP POP POP JUMP JUMPDEST PUSH0 SWAP1 JUMP JUMPDEST PUSH2 0x2A2C PUSH2 0x2A20 JUMP JUMPDEST PUSH2 0x2A37 DUP2 DUP5 DUP5 PUSH2 0x29FB JUMP JUMPDEST POP POP POP JUMP JUMPDEST JUMPDEST DUP2 DUP2 LT ISZERO PUSH2 0x2A5A JUMPI PUSH2 0x2A4F PUSH0 DUP3 PUSH2 0x2A24 JUMP JUMPDEST PUSH1 0x1 DUP2 ADD SWAP1 POP PUSH2 0x2A3D JUMP JUMPDEST POP POP JUMP JUMPDEST PUSH1 0x1F DUP3 GT ISZERO PUSH2 0x2A9F JUMPI PUSH2 0x2A70 DUP2 PUSH2 0x294A JUMP JUMPDEST PUSH2 0x2A79 DUP5 PUSH2 0x295C JUMP JUMPDEST DUP2 ADD PUSH1 0x20 DUP6 LT ISZERO PUSH2 0x2A88 JUMPI DUP2 SWAP1 POP JUMPDEST PUSH2 0x2A9C PUSH2 0x2A94 DUP6 PUSH2 0x295C JUMP JUMPDEST DUP4 ADD DUP3 PUSH2 0x2A3C JUMP JUMPDEST POP POP JUMPDEST POP POP POP JUMP JUMPDEST PUSH0 DUP3 DUP3 SHR SWAP1 POP SWAP3 SWAP2 POP POP JUMP JUMPDEST PUSH0 PUSH2 0x2ABF PUSH0 NOT DUP5 PUSH1 0x8 MUL PUSH2 0x2AA4 JUMP JUMPDEST NOT DUP1 DUP4 AND SWAP2 POP POP SWAP3 SWAP2 POP POP JUMP JUMPDEST PUSH0 PUSH2 0x2AD7 DUP4 DUP4 PUSH2 0x2AB0 JUMP JUMPDEST SWAP2 POP DUP3 PUSH1 0x2 MUL DUP3 OR SWAP1 POP SWAP3 SWAP2 POP POP JUMP JUMPDEST PUSH2 0x2AF0 DUP3 PUSH2 0x1FD2 JUMP JUMPDEST PUSH8 0xFFFFFFFFFFFFFFFF DUP2 GT ISZERO PUSH2 0x2B09 JUMPI PUSH2 0x2B08 PUSH2 0x1D4D JUMP JUMPDEST JUMPDEST PUSH2 0x2B13 DUP3 SLOAD PUSH2 0x291A JUMP JUMPDEST PUSH2 0x2B1E DUP3 DUP3 DUP6 PUSH2 0x2A5E JUMP JUMPDEST PUSH0 PUSH1 0x20 SWAP1 POP PUSH1 0x1F DUP4 GT PUSH1 0x1 DUP2 EQ PUSH2 0x2B4F JUMPI PUSH0 DUP5 ISZERO PUSH2 0x2B3D JUMPI DUP3 DUP8 ADD MLOAD SWAP1 POP JUMPDEST PUSH2 0x2B47 DUP6 DUP3 PUSH2 0x2ACC JUMP JUMPDEST DUP7 SSTORE POP PUSH2 0x2BAE JUMP JUMPDEST PUSH1 0x1F NOT DUP5 AND PUSH2 0x2B5D DUP7 PUSH2 0x294A JUMP JUMPDEST PUSH0 JUMPDEST DUP3 DUP2 LT ISZERO PUSH2 0x2B84 JUMPI DUP5 DUP10 ADD MLOAD DUP3 SSTORE PUSH1 0x1 DUP3 ADD SWAP2 POP PUSH1 0x20 DUP6 ADD SWAP5 POP PUSH1 0x20 DUP2 ADD SWAP1 POP PUSH2 0x2B5F JUMP JUMPDEST DUP7 DUP4 LT ISZERO PUSH2 0x2BA1 JUMPI DUP5 DUP10 ADD MLOAD PUSH2 0x2B9D PUSH1 0x1F DUP10 AND DUP3 PUSH2 0x2AB0 JUMP JUMPDEST DUP4 SSTORE POP JUMPDEST PUSH1 0x1 PUSH1 0x2 DUP9 MUL ADD DUP9 SSTORE POP POP POP JUMPDEST POP POP POP POP POP POP JUMP JUMPDEST PUSH0 PUSH1 0x40 DUP3 ADD SWAP1 POP DUP2 DUP2 SUB PUSH0 DUP4 ADD MSTORE PUSH2 0x2BCE DUP2 DUP6 PUSH2 0x21EA JUMP JUMPDEST SWAP1 POP DUP2 DUP2 SUB PUSH1 0x20 DUP4 ADD MSTORE PUSH2 0x2BE2 DUP2 DUP5 PUSH2 0x21EA JUMP JUMPDEST SWAP1 POP SWAP4 SWAP3 POP POP POP JUMP JUMPDEST PUSH32 0x4E487B7100000000000000000000000000000000000000000000000000000000 PUSH0 MSTORE PUSH1 0x32 PUSH1 0x4 MSTORE PUSH1 0x24 PUSH0 REVERT JUMPDEST PUSH32 0x4F6E6C792061646D696E2063616E2063616C6C20746869732066756E6374696F PUSH0 DUP3 ADD MSTORE PUSH32 0x6E00000000000000000000000000000000000000000000000000000000000000 PUSH1 0x20 DUP3 ADD MSTORE POP JUMP JUMPDEST PUSH0 PUSH2 0x2C72 PUSH1 0x21 DUP4 PUSH2 0x21DA JUMP JUMPDEST SWAP2 POP PUSH2 0x2C7D DUP3 PUSH2 0x2C18 JUMP JUMPDEST PUSH1 0x40 DUP3 ADD SWAP1 POP SWAP2 SWAP1 POP JUMP JUMPDEST PUSH0 PUSH1 0x20 DUP3 ADD SWAP1 POP DUP2 DUP2 SUB PUSH0 DUP4 ADD MSTORE PUSH2 0x2C9F DUP2 PUSH2 0x2C66 JUMP JUMPDEST SWAP1 POP SWAP2 SWAP1 POP JUMP JUMPDEST PUSH32 0x436F6D706C61696E7420697320616C7265616479207265736F6C766564000000 PUSH0 DUP3 ADD MSTORE POP JUMP JUMPDEST PUSH0 PUSH2 0x2CDA PUSH1 0x1D DUP4 PUSH2 0x21DA JUMP JUMPDEST SWAP2 POP PUSH2 0x2CE5 DUP3 PUSH2 0x2CA6 JUMP JUMPDEST PUSH1 0x20 DUP3 ADD SWAP1 POP SWAP2 SWAP1 POP JUMP JUMPDEST PUSH0 PUSH1 0x20 DUP3 ADD SWAP1 POP DUP2 DUP2 SUB PUSH0 DUP4 ADD MSTORE PUSH2 0x2D07 DUP2 PUSH2 0x2CCE JUMP JUMPDEST SWAP1 POP SWAP2 SWAP1 POP JUMP JUMPDEST PUSH0 PUSH1 0x20 DUP3 ADD SWAP1 POP DUP2 DUP2 SUB PUSH0 DUP4 ADD MSTORE PUSH2 0x2D26 DUP2 DUP5 PUSH2 0x21EA JUMP JUMPDEST SWAP1 POP SWAP3 SWAP2 POP POP JUMP JUMPDEST PUSH0 PUSH1 0x40 DUP3 ADD SWAP1 POP PUSH2 0x2D41 PUSH0 DUP4 ADD DUP6 PUSH2 0x2566 JUMP JUMPDEST PUSH2 0x2D4E PUSH1 0x20 DUP4 ADD DUP5 PUSH2 0x2222 JUMP JUMPDEST SWAP4 SWAP3 POP POP POP JUMP INVALID LOG2 PUSH5 0x6970667358 0x22 SLT KECCAK256 PUSH15 0x6E25A284375C0058CC1944C4AEAE20 0x26 SDIV ORIGIN 0xC8 SDIV BASEFEE PUSH10 0xD7141A67E889C8B96764 PUSH20 0x6F6C634300081400330000000000000000000000 "},"gasEstimates":{"creation":{"codeDepositCost":"2331800","executionCost":"2499","totalCost":"2334299"},"external":{"accessComplaint(uint256)":"infinite","complaintCount()":"2470","complaints(uint256)":"infinite","createComplaint(string,string,string)":"infinite","getRepliesById(uint256)":"infinite","getTransactionsById(uint256)":"infinite","getUnresolvedComplaints()":"infinite","getUserComplaints(address)":"infinite","getUserReplies(address)":"infinite","isAdmin(address)":"2922","isUser(address)":"2922","registerAdmin()":"25723","registerUser()":"25679","replies(uint256,uint256)":"infinite","replyToComplaint(uint256,string)":"infinite","resolveComplaint(uint256,string)":"infinite","transactions(uint256,uint256)":"infinite"},"internal":{"_addTransaction(uint256,address,enum ComplaintSystem.Action)":"infinite"}},"methodIdentifiers":{"accessComplaint(uint256)":"6d7196eb","complaintCount()":"2edea294","complaints(uint256)":"7e69e912","createComplaint(string,string,string)":"0da3f37e","getRepliesById(uint256)":"f7ddd7a4","getTransactionsById(uint256)":"a9a9ddf1","getUnresolvedComplaints()":"3ae7db25","getUserComplaints(address)":"d395fc04","getUserReplies(address)":"152e1e32","isAdmin(address)":"24d7806c","isUser(address)":"4209fff1","registerAdmin()":"5ab6f71b","registerUser()":"4d3820eb","replies(uint256,uint256)":"204f257c","replyToComplaint(uint256,string)":"deb514ff","resolveComplaint(uint256,string)":"26019e7f","transactions(uint256,uint256)":"4eaf9db6"}},"storageLayout":{"storage":[{"astId":5,"contract":"ComplaintSystem.sol:ComplaintSystem","label":"isAdmin","offset":0,"slot":"0","type":"t_mapping(t_address,t_bool)"},{"astId":9,"contract":"ComplaintSystem.sol:ComplaintSystem","label":"isUser","offset":0,"slot":"1","type":"t_mapping(t_address,t_bool)"},{"astId":56,"contract":"ComplaintSystem.sol:ComplaintSystem","label":"complaints","offset":0,"slot":"2","type":"t_mapping(t_uint256,t_struct(Complaint)44_storage)"},{"astId":62,"contract":"ComplaintSystem.sol:ComplaintSystem","label":"transactions","offset":0,"slot":"3","type":"t_mapping(t_uint256,t_array(t_struct(Transaction)24_storage)dyn_storage)"},{"astId":68,"contract":"ComplaintSystem.sol:ComplaintSystem","label":"replies","offset":0,"slot":"4","type":"t_mapping(t_uint256,t_array(t_struct(Reply)51_storage)dyn_storage)"},{"astId":70,"contract":"ComplaintSystem.sol:ComplaintSystem","label":"complaintCount","offset":0,"slot":"5","type":"t_uint256"}],"types":{"t_address":{"encoding":"inplace","label":"address","numberOfBytes":"20"},"t_array(t_struct(Reply)51_storage)dyn_storage":{"base":"t_struct(Reply)51_storage","encoding":"dynamic_array","label":"struct ComplaintSystem.Reply[]","numberOfBytes":"32"},"t_array(t_struct(Transaction)24_storage)dyn_storage":{"base":"t_struct(Transaction)24_storage","encoding":"dynamic_array","label":"struct ComplaintSystem.Transaction[]","numberOfBytes":"32"},"t_bool":{"encoding":"inplace","label":"bool","numberOfBytes":"1"},"t_enum(Action)16":{"encoding":"inplace","label":"enum ComplaintSystem.Action","numberOfBytes":"1"},"t_enum(ComplaintStatus)12":{"encoding":"inplace","label":"enum ComplaintSystem.ComplaintStatus","numberOfBytes":"1"},"t_mapping(t_address,t_bool)":{"encoding":"mapping","key":"t_address","label":"mapping(address => bool)","numberOfBytes":"32","value":"t_bool"},"t_mapping(t_uint256,t_array(t_struct(Reply)51_storage)dyn_storage)":{"encoding":"mapping","key":"t_uint256","label":"mapping(uint256 => struct ComplaintSystem.Reply[])","numberOfBytes":"32","value":"t_array(t_struct(Reply)51_storage)dyn_storage"},"t_mapping(t_uint256,t_array(t_struct(Transaction)24_storage)dyn_storage)":{"encoding":"mapping","key":"t_uint256","label":"mapping(uint256 => struct ComplaintSystem.Transaction[])","numberOfBytes":"32","value":"t_array(t_struct(Transaction)24_storage)dyn_storage"},"t_mapping(t_uint256,t_struct(Complaint)44_storage)":{"encoding":"mapping","key":"t_uint256","label":"mapping(uint256 => struct ComplaintSystem.Complaint)","numberOfBytes":"32","value":"t_struct(Complaint)44_storage"},"t_string_storage":{"encoding":"bytes","label":"string","numberOfBytes":"32"},"t_struct(Complaint)44_storage":{"encoding":"inplace","label":"struct ComplaintSystem.Complaint","members":[{"astId":31,"contract":"ComplaintSystem.sol:ComplaintSystem","label":"id","offset":0,"slot":"0","type":"t_uint256"},{"astId":33,"contract":"ComplaintSystem.sol:ComplaintSystem","label":"complainant","offset":0,"slot":"1","type":"t_address"},{"astId":35,"contract":"ComplaintSystem.sol:ComplaintSystem","label":"description","offset":0,"slot":"2","type":"t_string_storage"},{"astId":38,"contract":"ComplaintSystem.sol:ComplaintSystem","label":"status","offset":0,"slot":"3","type":"t_enum(ComplaintStatus)12"},{"astId":41,"contract":"ComplaintSystem.sol:ComplaintSystem","label":"file","offset":0,"slot":"4","type":"t_struct(File)29_storage"},{"astId":43,"contract":"ComplaintSystem.sol:ComplaintSystem","label":"timestamp","offset":0,"slot":"6","type":"t_uint256"}],"numberOfBytes":"224"},"t_struct(File)29_storage":{"encoding":"inplace","label":"struct ComplaintSystem.File","members":[{"astId":26,"contract":"ComplaintSystem.sol:ComplaintSystem","label":"ipfsHash","offset":0,"slot":"0","type":"t_string_storage"},{"astId":28,"contract":"ComplaintSystem.sol:ComplaintSystem","label":"name","offset":0,"slot":"1","type":"t_string_storage"}],"numberOfBytes":"64"},"t_struct(Reply)51_storage":{"encoding":"inplace","label":"struct ComplaintSystem.Reply","members":[{"astId":46,"contract":"ComplaintSystem.sol:ComplaintSystem","label":"senderAddress","offset":0,"slot":"0","type":"t_address"},{"astId":48,"contract":"ComplaintSystem.sol:ComplaintSystem","label":"replyText","offset":0,"slot":"1","type":"t_string_storage"},{"astId":50,"contract":"ComplaintSystem.sol:ComplaintSystem","label":"timestamp","offset":0,"slot":"2","type":"t_uint256"}],"numberOfBytes":"96"},"t_struct(Transaction)24_storage":{"encoding":"inplace","label":"struct ComplaintSystem.Transaction","members":[{"astId":18,"contract":"ComplaintSystem.sol:ComplaintSystem","label":"accessor","offset":0,"slot":"0","type":"t_address"},{"astId":21,"contract":"ComplaintSystem.sol:ComplaintSystem","label":"actionType","offset":20,"slot":"0","type":"t_enum(Action)16"},{"astId":23,"contract":"ComplaintSystem.sol:ComplaintSystem","label":"timestamp","offset":0,"slot":"1","type":"t_uint256"}],"numberOfBytes":"64"},"t_uint256":{"encoding":"inplace","label":"uint256","numberOfBytes":"32"}}},"userdoc":{"kind":"user","methods":{},"version":1}}