{
	"abi": [
		{
			"anonymous": false,
			"inputs": [
				{
					"indexed": true,
					"internalType": "address",
					"name": "admin",
					"type": "address"
				}
			],
			"name": "AdminRegistered",
			"type": "event"
		},
		{
			"anonymous": false,
			"inputs": [
				{
					"indexed": false,
					"internalType": "uint256",
					"name": "id",
					"type": "uint256"
				},
				{
					"indexed": true,
					"internalType": "address",
					"name": "complainant",
					"type": "address"
				},
				{
					"indexed": false,
					"internalType": "string",
					"name": "ipfsHash",
					"type": "string"
				},
				{
					"indexed": false,
					"internalType": "string",
					"name": "description",
					"type": "string"
				}
			],
			"name": "ComplaintCreated",
			"type": "event"
		},
		{
			"anonymous": false,
			"inputs": [
				{
					"indexed": false,
					"internalType": "uint256",
					"name": "id",
					"type": "uint256"
				},
				{
					"indexed": false,
					"internalType": "string",
					"name": "response",
					"type": "string"
				}
			],
			"name": "ComplaintResolved",
			"type": "event"
		},
		{
			"anonymous": false,
			"inputs": [
				{
					"indexed": false,
					"internalType": "uint256",
					"name": "complaintId",
					"type": "uint256"
				},
				{
					"indexed": false,
					"internalType": "address",
					"name": "accessor",
					"type": "address"
				},
				{
					"indexed": false,
					"internalType": "string",
					"name": "action",
					"type": "string"
				},
				{
					"indexed": false,
					"internalType": "uint256",
					"name": "timestamp",
					"type": "uint256"
				}
			],
			"name": "TransactionAdded",
			"type": "event"
		},
		{
			"anonymous": false,
			"inputs": [
				{
					"indexed": true,
					"internalType": "address",
					"name": "user",
					"type": "address"
				}
			],
			"name": "UserRegistered",
			"type": "event"
		},
		{
			"inputs": [
				{
					"internalType": "uint256",
					"name": "_complaintId",
					"type": "uint256"
				}
			],
			"name": "accessComplaint",
			"outputs": [],
			"stateMutability": "nonpayable",
			"type": "function"
		},
		{
			"inputs": [
				{
					"internalType": "uint256",
					"name": "",
					"type": "uint256"
				}
			],
			"name": "admins",
			"outputs": [
				{
					"internalType": "address",
					"name": "",
					"type": "address"
				}
			],
			"stateMutability": "view",
			"type": "function"
		},
		{
			"inputs": [],
			"name": "complaintCount",
			"outputs": [
				{
					"internalType": "uint256",
					"name": "",
					"type": "uint256"
				}
			],
			"stateMutability": "view",
			"type": "function"
		},
		{
			"inputs": [
				{
					"internalType": "uint256",
					"name": "",
					"type": "uint256"
				}
			],
			"name": "complaints",
			"outputs": [
				{
					"internalType": "uint256",
					"name": "id",
					"type": "uint256"
				},
				{
					"internalType": "address",
					"name": "complainant",
					"type": "address"
				},
				{
					"internalType": "string",
					"name": "description",
					"type": "string"
				},
				{
					"internalType": "enum ComplaintSystem.ComplaintStatus",
					"name": "status",
					"type": "uint8"
				},
				{
					"components": [
						{
							"internalType": "string",
							"name": "ipfsHash",
							"type": "string"
						},
						{
							"internalType": "string",
							"name": "name",
							"type": "string"
						}
					],
					"internalType": "struct ComplaintSystem.File",
					"name": "file",
					"type": "tuple"
				}
			],
			"stateMutability": "view",
			"type": "function"
		},
		{
			"inputs": [
				{
					"internalType": "string",
					"name": "_ipfsHash",
					"type": "string"
				},
				{
					"internalType": "string",
					"name": "_description",
					"type": "string"
				},
				{
					"internalType": "string",
					"name": "fileName",
					"type": "string"
				}
			],
			"name": "createComplaint",
			"outputs": [],
			"stateMutability": "nonpayable",
			"type": "function"
		},
		{
			"inputs": [],
			"name": "getUnresolvedComplaints",
			"outputs": [
				{
					"components": [
						{
							"internalType": "uint256",
							"name": "id",
							"type": "uint256"
						},
						{
							"internalType": "address",
							"name": "complainant",
							"type": "address"
						},
						{
							"internalType": "string",
							"name": "description",
							"type": "string"
						},
						{
							"internalType": "enum ComplaintSystem.ComplaintStatus",
							"name": "status",
							"type": "uint8"
						},
						{
							"components": [
								{
									"internalType": "string",
									"name": "ipfsHash",
									"type": "string"
								},
								{
									"internalType": "string",
									"name": "name",
									"type": "string"
								}
							],
							"internalType": "struct ComplaintSystem.File",
							"name": "file",
							"type": "tuple"
						}
					],
					"internalType": "struct ComplaintSystem.Complaint[]",
					"name": "",
					"type": "tuple[]"
				}
			],
			"stateMutability": "view",
			"type": "function"
		},
		{
			"inputs": [
				{
					"internalType": "address",
					"name": "_user",
					"type": "address"
				}
			],
			"name": "getUserComplaints",
			"outputs": [
				{
					"components": [
						{
							"internalType": "uint256",
							"name": "id",
							"type": "uint256"
						},
						{
							"internalType": "address",
							"name": "complainant",
							"type": "address"
						},
						{
							"internalType": "string",
							"name": "description",
							"type": "string"
						},
						{
							"internalType": "enum ComplaintSystem.ComplaintStatus",
							"name": "status",
							"type": "uint8"
						},
						{
							"components": [
								{
									"internalType": "string",
									"name": "ipfsHash",
									"type": "string"
								},
								{
									"internalType": "string",
									"name": "name",
									"type": "string"
								}
							],
							"internalType": "struct ComplaintSystem.File",
							"name": "file",
							"type": "tuple"
						}
					],
					"internalType": "struct ComplaintSystem.Complaint[]",
					"name": "",
					"type": "tuple[]"
				}
			],
			"stateMutability": "view",
			"type": "function"
		},
		{
			"inputs": [
				{
					"internalType": "address",
					"name": "_user",
					"type": "address"
				}
			],
			"name": "getUserReplies",
			"outputs": [
				{
					"components": [
						{
							"internalType": "address",
							"name": "senderAddress",
							"type": "address"
						},
						{
							"internalType": "string",
							"name": "replyText",
							"type": "string"
						},
						{
							"internalType": "uint256",
							"name": "timestamp",
							"type": "uint256"
						}
					],
					"internalType": "struct ComplaintSystem.Reply[]",
					"name": "",
					"type": "tuple[]"
				}
			],
			"stateMutability": "view",
			"type": "function"
		},
		{
			"inputs": [
				{
					"internalType": "address",
					"name": "",
					"type": "address"
				}
			],
			"name": "isAdmin",
			"outputs": [
				{
					"internalType": "bool",
					"name": "",
					"type": "bool"
				}
			],
			"stateMutability": "view",
			"type": "function"
		},
		{
			"inputs": [
				{
					"internalType": "address",
					"name": "",
					"type": "address"
				}
			],
			"name": "isUser",
			"outputs": [
				{
					"internalType": "bool",
					"name": "",
					"type": "bool"
				}
			],
			"stateMutability": "view",
			"type": "function"
		},
		{
			"inputs": [],
			"name": "registerAdmin",
			"outputs": [],
			"stateMutability": "nonpayable",
			"type": "function"
		},
		{
			"inputs": [],
			"name": "registerUser",
			"outputs": [],
			"stateMutability": "nonpayable",
			"type": "function"
		},
		{
			"inputs": [
				{
					"internalType": "uint256",
					"name": "",
					"type": "uint256"
				},
				{
					"internalType": "uint256",
					"name": "",
					"type": "uint256"
				}
			],
			"name": "replies",
			"outputs": [
				{
					"internalType": "address",
					"name": "senderAddress",
					"type": "address"
				},
				{
					"internalType": "string",
					"name": "replyText",
					"type": "string"
				},
				{
					"internalType": "uint256",
					"name": "timestamp",
					"type": "uint256"
				}
			],
			"stateMutability": "view",
			"type": "function"
		},
		{
			"inputs": [
				{
					"internalType": "uint256",
					"name": "_complaintId",
					"type": "uint256"
				},
				{
					"internalType": "string",
					"name": "_replyText",
					"type": "string"
				}
			],
			"name": "replyToComplaint",
			"outputs": [],
			"stateMutability": "nonpayable",
			"type": "function"
		},
		{
			"inputs": [
				{
					"internalType": "uint256",
					"name": "_complaintId",
					"type": "uint256"
				},
				{
					"internalType": "string",
					"name": "_response",
					"type": "string"
				}
			],
			"name": "resolveComplaint",
			"outputs": [],
			"stateMutability": "nonpayable",
			"type": "function"
		},
		{
			"inputs": [
				{
					"internalType": "uint256",
					"name": "",
					"type": "uint256"
				},
				{
					"internalType": "uint256",
					"name": "",
					"type": "uint256"
				}
			],
			"name": "transactions",
			"outputs": [
				{
					"internalType": "address",
					"name": "accessor",
					"type": "address"
				},
				{
					"internalType": "enum ComplaintSystem.Action",
					"name": "actionType",
					"type": "uint8"
				},
				{
					"internalType": "uint256",
					"name": "timestamp",
					"type": "uint256"
				}
			],
			"stateMutability": "view",
			"type": "function"
		},
		{
			"inputs": [
				{
					"internalType": "uint256",
					"name": "",
					"type": "uint256"
				}
			],
			"name": "users",
			"outputs": [
				{
					"internalType": "address",
					"name": "",
					"type": "address"
				}
			],
			"stateMutability": "view",
			"type": "function"
		}
	],
	"devdoc": {
		"kind": "dev",
		"methods": {},
		"version": 1
	},
	"evm": {
		"assembly": "    /* \"ComplaintSystem.sol\":60:5747  contract ComplaintSystem {... */\n  mstore(0x40, 0x80)\n  callvalue\n  dup1\n  iszero\n  tag_1\n  jumpi\n  0x00\n  dup1\n  revert\ntag_1:\n  pop\n  dataSize(sub_0)\n  dup1\n  dataOffset(sub_0)\n  0x00\n  codecopy\n  0x00\n  return\nstop\n\nsub_0: assembly {\n        /* \"ComplaintSystem.sol\":60:5747  contract ComplaintSystem {... */\n      mstore(0x40, 0x80)\n      callvalue\n      dup1\n      iszero\n      tag_1\n      jumpi\n      0x00\n      dup1\n      revert\n    tag_1:\n      pop\n      jumpi(tag_2, lt(calldatasize, 0x04))\n      shr(0xe0, calldataload(0x00))\n      dup1\n      0x3ae7db25\n      gt\n      tag_20\n      jumpi\n      dup1\n      0x5ab6f71b\n      gt\n      tag_21\n      jumpi\n      dup1\n      0x5ab6f71b\n      eq\n      tag_15\n      jumpi\n      dup1\n      0x6d7196eb\n      eq\n      tag_16\n      jumpi\n      dup1\n      0x7e69e912\n      eq\n      tag_17\n      jumpi\n      dup1\n      0xd395fc04\n      eq\n      tag_18\n      jumpi\n      dup1\n      0xdeb514ff\n      eq\n      tag_19\n      jumpi\n      jump(tag_2)\n    tag_21:\n      dup1\n      0x3ae7db25\n      eq\n      tag_11\n      jumpi\n      dup1\n      0x4209fff1\n      eq\n      tag_12\n      jumpi\n      dup1\n      0x4d3820eb\n      eq\n      tag_13\n      jumpi\n      dup1\n      0x4eaf9db6\n      eq\n      tag_14\n      jumpi\n      jump(tag_2)\n    tag_20:\n      dup1\n      0x24d7806c\n      gt\n      tag_22\n      jumpi\n      dup1\n      0x24d7806c\n      eq\n      tag_7\n      jumpi\n      dup1\n      0x26019e7f\n      eq\n      tag_8\n      jumpi\n      dup1\n      0x2edea294\n      eq\n      tag_9\n      jumpi\n      dup1\n      0x365b98b2\n      eq\n      tag_10\n      jumpi\n      jump(tag_2)\n    tag_22:\n      dup1\n      0x0da3f37e\n      eq\n      tag_3\n      jumpi\n      dup1\n      0x14bfd6d0\n      eq\n      tag_4\n      jumpi\n      dup1\n      0x152e1e32\n      eq\n      tag_5\n      jumpi\n      dup1\n      0x204f257c\n      eq\n      tag_6\n      jumpi\n    tag_2:\n      0x00\n      dup1\n      revert\n        /* \"ComplaintSystem.sol\":1946:2406  function createComplaint(string memory _ipfsHash, string memory _description, string memory fileName) external onlyUser {... */\n    tag_3:\n      tag_23\n      0x04\n      dup1\n      calldatasize\n      sub\n      dup2\n      add\n      swap1\n      tag_24\n      swap2\n      swap1\n      tag_25\n      jump\t// in\n    tag_24:\n      tag_26\n      jump\t// in\n    tag_23:\n      stop\n        /* \"ComplaintSystem.sol\":92:115  address[] public admins */\n    tag_4:\n      tag_27\n      0x04\n      dup1\n      calldatasize\n      sub\n      dup2\n      add\n      swap1\n      tag_28\n      swap2\n      swap1\n      tag_29\n      jump\t// in\n    tag_28:\n      tag_30\n      jump\t// in\n    tag_27:\n      mload(0x40)\n      tag_31\n      swap2\n      swap1\n      tag_32\n      jump\t// in\n    tag_31:\n      mload(0x40)\n      dup1\n      swap2\n      sub\n      swap1\n      return\n        /* \"ComplaintSystem.sol\":4188:4844  function getUserReplies(address _user) external view returns (Reply[] memory) {... */\n    tag_5:\n      tag_33\n      0x04\n      dup1\n      calldatasize\n      sub\n      dup2\n      add\n      swap1\n      tag_34\n      swap2\n      swap1\n      tag_35\n      jump\t// in\n    tag_34:\n      tag_36\n      jump\t// in\n    tag_33:\n      mload(0x40)\n      tag_37\n      swap2\n      swap1\n      tag_38\n      jump\t// in\n    tag_37:\n      mload(0x40)\n      dup1\n      swap2\n      sub\n      swap1\n      return\n        /* \"ComplaintSystem.sol\":921:960  mapping(uint => Reply[]) public replies */\n    tag_6:\n      tag_39\n      0x04\n      dup1\n      calldatasize\n      sub\n      dup2\n      add\n      swap1\n      tag_40\n      swap2\n      swap1\n      tag_41\n      jump\t// in\n    tag_40:\n      tag_42\n      jump\t// in\n    tag_39:\n      mload(0x40)\n      tag_43\n      swap4\n      swap3\n      swap2\n      swap1\n      tag_44\n      jump\t// in\n    tag_43:\n      mload(0x40)\n      dup1\n      swap2\n      sub\n      swap1\n      return\n        /* \"ComplaintSystem.sol\":122:161  mapping(address => bool) public isAdmin */\n    tag_7:\n      tag_45\n      0x04\n      dup1\n      calldatasize\n      sub\n      dup2\n      add\n      swap1\n      tag_46\n      swap2\n      swap1\n      tag_35\n      jump\t// in\n    tag_46:\n      tag_47\n      jump\t// in\n    tag_45:\n      mload(0x40)\n      tag_48\n      swap2\n      swap1\n      tag_49\n      jump\t// in\n    tag_48:\n      mload(0x40)\n      dup1\n      swap2\n      sub\n      swap1\n      return\n        /* \"ComplaintSystem.sol\":2414:2817  function resolveComplaint(uint _complaintId, string memory _response) external onlyAdmin {... */\n    tag_8:\n      tag_50\n      0x04\n      dup1\n      calldatasize\n      sub\n      dup2\n      add\n      swap1\n      tag_51\n      swap2\n      swap1\n      tag_52\n      jump\t// in\n    tag_51:\n      tag_53\n      jump\t// in\n    tag_50:\n      stop\n        /* \"ComplaintSystem.sol\":967:996  uint256 public complaintCount */\n    tag_9:\n      tag_54\n      tag_55\n      jump\t// in\n    tag_54:\n      mload(0x40)\n      tag_56\n      swap2\n      swap1\n      tag_57\n      jump\t// in\n    tag_56:\n      mload(0x40)\n      dup1\n      swap2\n      sub\n      swap1\n      return\n        /* \"ComplaintSystem.sol\":170:192  address[] public users */\n    tag_10:\n      tag_58\n      0x04\n      dup1\n      calldatasize\n      sub\n      dup2\n      add\n      swap1\n      tag_59\n      swap2\n      swap1\n      tag_29\n      jump\t// in\n    tag_59:\n      tag_60\n      jump\t// in\n    tag_58:\n      mload(0x40)\n      tag_61\n      swap2\n      swap1\n      tag_32\n      jump\t// in\n    tag_61:\n      mload(0x40)\n      dup1\n      swap2\n      sub\n      swap1\n      return\n        /* \"ComplaintSystem.sol\":4852:5744  function getUnresolvedComplaints() external view returns (Complaint[] memory) {... */\n    tag_11:\n      tag_62\n      tag_63\n      jump\t// in\n    tag_62:\n      mload(0x40)\n      tag_64\n      swap2\n      swap1\n      tag_65\n      jump\t// in\n    tag_64:\n      mload(0x40)\n      dup1\n      swap2\n      sub\n      swap1\n      return\n        /* \"ComplaintSystem.sol\":199:237  mapping(address => bool) public isUser */\n    tag_12:\n      tag_66\n      0x04\n      dup1\n      calldatasize\n      sub\n      dup2\n      add\n      swap1\n      tag_67\n      swap2\n      swap1\n      tag_35\n      jump\t// in\n    tag_67:\n      tag_68\n      jump\t// in\n    tag_66:\n      mload(0x40)\n      tag_69\n      swap2\n      swap1\n      tag_49\n      jump\t// in\n    tag_69:\n      mload(0x40)\n      dup1\n      swap2\n      sub\n      swap1\n      return\n        /* \"ComplaintSystem.sol\":1622:1774  function registerUser() external {... */\n    tag_13:\n      tag_70\n      tag_71\n      jump\t// in\n    tag_70:\n      stop\n        /* \"ComplaintSystem.sol\":864:914  mapping(uint => Transaction[]) public transactions */\n    tag_14:\n      tag_72\n      0x04\n      dup1\n      calldatasize\n      sub\n      dup2\n      add\n      swap1\n      tag_73\n      swap2\n      swap1\n      tag_41\n      jump\t// in\n    tag_73:\n      tag_74\n      jump\t// in\n    tag_72:\n      mload(0x40)\n      tag_75\n      swap4\n      swap3\n      swap2\n      swap1\n      tag_76\n      jump\t// in\n    tag_75:\n      mload(0x40)\n      dup1\n      swap2\n      sub\n      swap1\n      return\n        /* \"ComplaintSystem.sol\":1782:1938  function registerAdmin() external {... */\n    tag_15:\n      tag_77\n      tag_78\n      jump\t// in\n    tag_77:\n      stop\n        /* \"ComplaintSystem.sol\":2825:2962  function accessComplaint(uint _complaintId) external onlyUser {... */\n    tag_16:\n      tag_79\n      0x04\n      dup1\n      calldatasize\n      sub\n      dup2\n      add\n      swap1\n      tag_80\n      swap2\n      swap1\n      tag_29\n      jump\t// in\n    tag_80:\n      tag_81\n      jump\t// in\n    tag_79:\n      stop\n        /* \"ComplaintSystem.sol\":813:857  mapping(uint => Complaint) public complaints */\n    tag_17:\n      tag_82\n      0x04\n      dup1\n      calldatasize\n      sub\n      dup2\n      add\n      swap1\n      tag_83\n      swap2\n      swap1\n      tag_29\n      jump\t// in\n    tag_83:\n      tag_84\n      jump\t// in\n    tag_82:\n      mload(0x40)\n      tag_85\n      swap6\n      swap5\n      swap4\n      swap3\n      swap2\n      swap1\n      tag_86\n      jump\t// in\n    tag_85:\n      mload(0x40)\n      dup1\n      swap2\n      sub\n      swap1\n      return\n        /* \"ComplaintSystem.sol\":3576:4180  function getUserComplaints(address _user) external view returns (Complaint[] memory) {... */\n    tag_18:\n      tag_87\n      0x04\n      dup1\n      calldatasize\n      sub\n      dup2\n      add\n      swap1\n      tag_88\n      swap2\n      swap1\n      tag_35\n      jump\t// in\n    tag_88:\n      tag_89\n      jump\t// in\n    tag_87:\n      mload(0x40)\n      tag_90\n      swap2\n      swap1\n      tag_65\n      jump\t// in\n    tag_90:\n      mload(0x40)\n      dup1\n      swap2\n      sub\n      swap1\n      return\n        /* \"ComplaintSystem.sol\":2970:3237  function replyToComplaint(uint _complaintId, string memory _replyText) external onlyAdmin {... */\n    tag_19:\n      tag_91\n      0x04\n      dup1\n      calldatasize\n      sub\n      dup2\n      add\n      swap1\n      tag_92\n      swap2\n      swap1\n      tag_52\n      jump\t// in\n    tag_92:\n      tag_93\n      jump\t// in\n    tag_91:\n      stop\n        /* \"ComplaintSystem.sol\":1946:2406  function createComplaint(string memory _ipfsHash, string memory _description, string memory fileName) external onlyUser {... */\n    tag_26:\n        /* \"ComplaintSystem.sol\":1169:1175  isUser */\n      0x03\n        /* \"ComplaintSystem.sol\":1169:1187  isUser[msg.sender] */\n      0x00\n        /* \"ComplaintSystem.sol\":1176:1186  msg.sender */\n      caller\n        /* \"ComplaintSystem.sol\":1169:1187  isUser[msg.sender] */\n      0xffffffffffffffffffffffffffffffffffffffff\n      and\n      0xffffffffffffffffffffffffffffffffffffffff\n      and\n      dup2\n      mstore\n      0x20\n      add\n      swap1\n      dup2\n      mstore\n      0x20\n      add\n      0x00\n      keccak256\n      0x00\n      swap1\n      sload\n      swap1\n      0x0100\n      exp\n      swap1\n      div\n      0xff\n      and\n        /* \"ComplaintSystem.sol\":1161:1224  require(isUser[msg.sender], \"Only user can call this function\") */\n      tag_95\n      jumpi\n      mload(0x40)\n      0x08c379a000000000000000000000000000000000000000000000000000000000\n      dup2\n      mstore\n      0x04\n      add\n      tag_96\n      swap1\n      tag_97\n      jump\t// in\n    tag_96:\n      mload(0x40)\n      dup1\n      swap2\n      sub\n      swap1\n      revert\n    tag_95:\n        /* \"ComplaintSystem.sol\":2111:2112  0 */\n      0x00\n        /* \"ComplaintSystem.sol\":2091:2100  _ipfsHash */\n      dup4\n        /* \"ComplaintSystem.sol\":2085:2108  bytes(_ipfsHash).length */\n      mload\n        /* \"ComplaintSystem.sol\":2085:2112  bytes(_ipfsHash).length > 0 */\n      gt\n        /* \"ComplaintSystem.sol\":2077:2133  require(bytes(_ipfsHash).length > 0, \"No file provided\") */\n      tag_99\n      jumpi\n      mload(0x40)\n      0x08c379a000000000000000000000000000000000000000000000000000000000\n      dup2\n      mstore\n      0x04\n      add\n      tag_100\n      swap1\n      tag_101\n      jump\t// in\n    tag_100:\n      mload(0x40)\n      dup1\n      swap2\n      sub\n      swap1\n      revert\n    tag_99:\n        /* \"ComplaintSystem.sol\":2144:2160  uint complaintId */\n      0x00\n        /* \"ComplaintSystem.sol\":2163:2177  complaintCount */\n      0x07\n      0x00\n        /* \"ComplaintSystem.sol\":2163:2179  complaintCount++ */\n      dup2\n      sload\n      dup1\n      swap3\n      swap2\n      swap1\n      tag_102\n      swap1\n      tag_103\n      jump\t// in\n    tag_102:\n      swap2\n      swap1\n      pop\n      sstore\n        /* \"ComplaintSystem.sol\":2144:2179  uint complaintId = complaintCount++ */\n      swap1\n      pop\n        /* \"ComplaintSystem.sol\":2216:2316  Complaint(complaintId, msg.sender, _description, ComplaintStatus.Pending, File(_ipfsHash, fileName)) */\n      mload(0x40)\n      dup1\n      0xa0\n      add\n      0x40\n      mstore\n      dup1\n        /* \"ComplaintSystem.sol\":2226:2237  complaintId */\n      dup3\n        /* \"ComplaintSystem.sol\":2216:2316  Complaint(complaintId, msg.sender, _description, ComplaintStatus.Pending, File(_ipfsHash, fileName)) */\n      dup2\n      mstore\n      0x20\n      add\n        /* \"ComplaintSystem.sol\":2239:2249  msg.sender */\n      caller\n        /* \"ComplaintSystem.sol\":2216:2316  Complaint(complaintId, msg.sender, _description, ComplaintStatus.Pending, File(_ipfsHash, fileName)) */\n      0xffffffffffffffffffffffffffffffffffffffff\n      and\n      dup2\n      mstore\n      0x20\n      add\n        /* \"ComplaintSystem.sol\":2251:2263  _description */\n      dup5\n        /* \"ComplaintSystem.sol\":2216:2316  Complaint(complaintId, msg.sender, _description, ComplaintStatus.Pending, File(_ipfsHash, fileName)) */\n      dup2\n      mstore\n      0x20\n      add\n        /* \"ComplaintSystem.sol\":2265:2288  ComplaintStatus.Pending */\n      0x00\n        /* \"ComplaintSystem.sol\":2216:2316  Complaint(complaintId, msg.sender, _description, ComplaintStatus.Pending, File(_ipfsHash, fileName)) */\n      0x01\n      dup2\n      gt\n      iszero\n      tag_104\n      jumpi\n      tag_105\n      tag_106\n      jump\t// in\n    tag_105:\n    tag_104:\n      dup2\n      mstore\n      0x20\n      add\n        /* \"ComplaintSystem.sol\":2290:2315  File(_ipfsHash, fileName) */\n      mload(0x40)\n      dup1\n      0x40\n      add\n      0x40\n      mstore\n      dup1\n        /* \"ComplaintSystem.sol\":2295:2304  _ipfsHash */\n      dup8\n        /* \"ComplaintSystem.sol\":2290:2315  File(_ipfsHash, fileName) */\n      dup2\n      mstore\n      0x20\n      add\n        /* \"ComplaintSystem.sol\":2306:2314  fileName */\n      dup6\n        /* \"ComplaintSystem.sol\":2290:2315  File(_ipfsHash, fileName) */\n      dup2\n      mstore\n      pop\n        /* \"ComplaintSystem.sol\":2216:2316  Complaint(complaintId, msg.sender, _description, ComplaintStatus.Pending, File(_ipfsHash, fileName)) */\n      dup2\n      mstore\n      pop\n        /* \"ComplaintSystem.sol\":2190:2200  complaints */\n      0x04\n        /* \"ComplaintSystem.sol\":2190:2213  complaints[complaintId] */\n      0x00\n        /* \"ComplaintSystem.sol\":2201:2212  complaintId */\n      dup4\n        /* \"ComplaintSystem.sol\":2190:2213  complaints[complaintId] */\n      dup2\n      mstore\n      0x20\n      add\n      swap1\n      dup2\n      mstore\n      0x20\n      add\n      0x00\n      keccak256\n        /* \"ComplaintSystem.sol\":2190:2316  complaints[complaintId] = Complaint(complaintId, msg.sender, _description, ComplaintStatus.Pending, File(_ipfsHash, fileName)) */\n      0x00\n      dup3\n      add\n      mload\n      dup2\n      0x00\n      add\n      sstore\n      0x20\n      dup3\n      add\n      mload\n      dup2\n      0x01\n      add\n      exp(0x0100, 0x00)\n      dup2\n      sload\n      dup2\n      0xffffffffffffffffffffffffffffffffffffffff\n      mul\n      not\n      and\n      swap1\n      dup4\n      0xffffffffffffffffffffffffffffffffffffffff\n      and\n      mul\n      or\n      swap1\n      sstore\n      pop\n      0x40\n      dup3\n      add\n      mload\n      dup2\n      0x02\n      add\n      swap1\n      dup2\n      tag_107\n      swap2\n      swap1\n      tag_108\n      jump\t// in\n    tag_107:\n      pop\n      0x60\n      dup3\n      add\n      mload\n      dup2\n      0x03\n      add\n      exp(0x0100, 0x00)\n      dup2\n      sload\n      dup2\n      0xff\n      mul\n      not\n      and\n      swap1\n      dup4\n      0x01\n      dup2\n      gt\n      iszero\n      tag_109\n      jumpi\n      tag_110\n      tag_106\n      jump\t// in\n    tag_110:\n    tag_109:\n      mul\n      or\n      swap1\n      sstore\n      pop\n      0x80\n      dup3\n      add\n      mload\n      dup2\n      0x04\n      add\n      0x00\n      dup3\n      add\n      mload\n      dup2\n      0x00\n      add\n      swap1\n      dup2\n      tag_111\n      swap2\n      swap1\n      tag_108\n      jump\t// in\n    tag_111:\n      pop\n      0x20\n      dup3\n      add\n      mload\n      dup2\n      0x01\n      add\n      swap1\n      dup2\n      tag_112\n      swap2\n      swap1\n      tag_108\n      jump\t// in\n    tag_112:\n      pop\n      pop\n      pop\n      swap1\n      pop\n      pop\n        /* \"ComplaintSystem.sol\":2362:2372  msg.sender */\n      caller\n        /* \"ComplaintSystem.sol\":2332:2398  ComplaintCreated(complaintId, msg.sender, _ipfsHash, _description) */\n      0xffffffffffffffffffffffffffffffffffffffff\n      and\n      0xb538e4e93715cf36354d0368248193865bc355a0b9906e40e3eeb2298af70869\n        /* \"ComplaintSystem.sol\":2349:2360  complaintId */\n      dup3\n        /* \"ComplaintSystem.sol\":2374:2383  _ipfsHash */\n      dup7\n        /* \"ComplaintSystem.sol\":2385:2397  _description */\n      dup7\n        /* \"ComplaintSystem.sol\":2332:2398  ComplaintCreated(complaintId, msg.sender, _ipfsHash, _description) */\n      mload(0x40)\n      tag_113\n      swap4\n      swap3\n      swap2\n      swap1\n      tag_114\n      jump\t// in\n    tag_113:\n      mload(0x40)\n      dup1\n      swap2\n      sub\n      swap1\n      log2\n        /* \"ComplaintSystem.sol\":2066:2406  {... */\n      pop\n        /* \"ComplaintSystem.sol\":1946:2406  function createComplaint(string memory _ipfsHash, string memory _description, string memory fileName) external onlyUser {... */\n      pop\n      pop\n      pop\n      jump\t// out\n        /* \"ComplaintSystem.sol\":92:115  address[] public admins */\n    tag_30:\n      0x00\n      dup2\n      dup2\n      sload\n      dup2\n      lt\n      tag_115\n      jumpi\n      0x00\n      dup1\n      revert\n    tag_115:\n      swap1\n      0x00\n      mstore\n      keccak256(0x00, 0x20)\n      add\n      0x00\n      swap2\n      pop\n      sload\n      swap1\n      0x0100\n      exp\n      swap1\n      div\n      0xffffffffffffffffffffffffffffffffffffffff\n      and\n      dup2\n      jump\t// out\n        /* \"ComplaintSystem.sol\":4188:4844  function getUserReplies(address _user) external view returns (Reply[] memory) {... */\n    tag_36:\n        /* \"ComplaintSystem.sol\":4250:4264  Reply[] memory */\n      0x60\n        /* \"ComplaintSystem.sol\":4277:4303  Reply[] memory userReplies */\n      0x00\n        /* \"ComplaintSystem.sol\":4318:4332  complaintCount */\n      sload(0x07)\n        /* \"ComplaintSystem.sol\":4306:4333  new Reply[](complaintCount) */\n      0xffffffffffffffff\n      dup2\n      gt\n      iszero\n      tag_118\n      jumpi\n      tag_119\n      tag_120\n      jump\t// in\n    tag_119:\n    tag_118:\n      mload(0x40)\n      swap1\n      dup1\n      dup3\n      mstore\n      dup1\n      0x20\n      mul\n      0x20\n      add\n      dup3\n      add\n      0x40\n      mstore\n      dup1\n      iszero\n      tag_121\n      jumpi\n      dup2\n      0x20\n      add\n    tag_122:\n      tag_123\n      tag_124\n      jump\t// in\n    tag_123:\n      dup2\n      mstore\n      0x20\n      add\n      swap1\n      0x01\n      swap1\n      sub\n      swap1\n      dup2\n      tag_122\n      jumpi\n      swap1\n      pop\n    tag_121:\n      pop\n        /* \"ComplaintSystem.sol\":4277:4333  Reply[] memory userReplies = new Reply[](complaintCount) */\n      swap1\n      pop\n        /* \"ComplaintSystem.sol\":4344:4365  uint userRepliesCount */\n      0x00\n        /* \"ComplaintSystem.sol\":4385:4391  uint i */\n      dup1\n        /* \"ComplaintSystem.sol\":4380:4696  for (uint i = 0; i < complaintCount; i++) {... */\n    tag_125:\n        /* \"ComplaintSystem.sol\":4401:4415  complaintCount */\n      sload(0x07)\n        /* \"ComplaintSystem.sol\":4397:4398  i */\n      dup2\n        /* \"ComplaintSystem.sol\":4397:4415  i < complaintCount */\n      lt\n        /* \"ComplaintSystem.sol\":4380:4696  for (uint i = 0; i < complaintCount; i++) {... */\n      iszero\n      tag_126\n      jumpi\n        /* \"ComplaintSystem.sol\":4470:4475  _user */\n      dup5\n        /* \"ComplaintSystem.sol\":4441:4475  complaints[i].complainant == _user */\n      0xffffffffffffffffffffffffffffffffffffffff\n      and\n        /* \"ComplaintSystem.sol\":4441:4451  complaints */\n      0x04\n        /* \"ComplaintSystem.sol\":4441:4454  complaints[i] */\n      0x00\n        /* \"ComplaintSystem.sol\":4452:4453  i */\n      dup4\n        /* \"ComplaintSystem.sol\":4441:4454  complaints[i] */\n      dup2\n      mstore\n      0x20\n      add\n      swap1\n      dup2\n      mstore\n      0x20\n      add\n      0x00\n      keccak256\n        /* \"ComplaintSystem.sol\":4441:4466  complaints[i].complainant */\n      0x01\n      add\n      0x00\n      swap1\n      sload\n      swap1\n      0x0100\n      exp\n      swap1\n      div\n      0xffffffffffffffffffffffffffffffffffffffff\n      and\n        /* \"ComplaintSystem.sol\":4441:4475  complaints[i].complainant == _user */\n      0xffffffffffffffffffffffffffffffffffffffff\n      and\n      sub\n        /* \"ComplaintSystem.sol\":4437:4685  if (complaints[i].complainant == _user) {... */\n      tag_128\n      jumpi\n        /* \"ComplaintSystem.sol\":4501:4507  uint j */\n      0x00\n        /* \"ComplaintSystem.sol\":4496:4670  for (uint j = 0; j < replies[i].length; j++) {... */\n    tag_129:\n        /* \"ComplaintSystem.sol\":4517:4524  replies */\n      0x06\n        /* \"ComplaintSystem.sol\":4517:4527  replies[i] */\n      0x00\n        /* \"ComplaintSystem.sol\":4525:4526  i */\n      dup4\n        /* \"ComplaintSystem.sol\":4517:4527  replies[i] */\n      dup2\n      mstore\n      0x20\n      add\n      swap1\n      dup2\n      mstore\n      0x20\n      add\n      0x00\n      keccak256\n        /* \"ComplaintSystem.sol\":4517:4534  replies[i].length */\n      dup1\n      sload\n      swap1\n      pop\n        /* \"ComplaintSystem.sol\":4513:4514  j */\n      dup2\n        /* \"ComplaintSystem.sol\":4513:4534  j < replies[i].length */\n      lt\n        /* \"ComplaintSystem.sol\":4496:4670  for (uint j = 0; j < replies[i].length; j++) {... */\n      iszero\n      tag_130\n      jumpi\n        /* \"ComplaintSystem.sol\":4596:4603  replies */\n      0x06\n        /* \"ComplaintSystem.sol\":4596:4606  replies[i] */\n      0x00\n        /* \"ComplaintSystem.sol\":4604:4605  i */\n      dup4\n        /* \"ComplaintSystem.sol\":4596:4606  replies[i] */\n      dup2\n      mstore\n      0x20\n      add\n      swap1\n      dup2\n      mstore\n      0x20\n      add\n      0x00\n      keccak256\n        /* \"ComplaintSystem.sol\":4607:4608  j */\n      dup2\n        /* \"ComplaintSystem.sol\":4596:4609  replies[i][j] */\n      dup2\n      sload\n      dup2\n      lt\n      tag_132\n      jumpi\n      tag_133\n      tag_134\n      jump\t// in\n    tag_133:\n    tag_132:\n      swap1\n      0x00\n      mstore\n      keccak256(0x00, 0x20)\n      swap1\n      0x03\n      mul\n      add\n        /* \"ComplaintSystem.sol\":4564:4609  userReplies[userRepliesCount] = replies[i][j] */\n      mload(0x40)\n      dup1\n      0x60\n      add\n      0x40\n      mstore\n      swap1\n      dup2\n      0x00\n      dup3\n      add\n      0x00\n      swap1\n      sload\n      swap1\n      0x0100\n      exp\n      swap1\n      div\n      0xffffffffffffffffffffffffffffffffffffffff\n      and\n      0xffffffffffffffffffffffffffffffffffffffff\n      and\n      0xffffffffffffffffffffffffffffffffffffffff\n      and\n      dup2\n      mstore\n      0x20\n      add\n      0x01\n      dup3\n      add\n      dup1\n      sload\n      tag_136\n      swap1\n      tag_137\n      jump\t// in\n    tag_136:\n      dup1\n      0x1f\n      add\n      0x20\n      dup1\n      swap2\n      div\n      mul\n      0x20\n      add\n      mload(0x40)\n      swap1\n      dup2\n      add\n      0x40\n      mstore\n      dup1\n      swap3\n      swap2\n      swap1\n      dup2\n      dup2\n      mstore\n      0x20\n      add\n      dup3\n      dup1\n      sload\n      tag_138\n      swap1\n      tag_137\n      jump\t// in\n    tag_138:\n      dup1\n      iszero\n      tag_139\n      jumpi\n      dup1\n      0x1f\n      lt\n      tag_140\n      jumpi\n      0x0100\n      dup1\n      dup4\n      sload\n      div\n      mul\n      dup4\n      mstore\n      swap2\n      0x20\n      add\n      swap2\n      jump(tag_139)\n    tag_140:\n      dup3\n      add\n      swap2\n      swap1\n      0x00\n      mstore\n      keccak256(0x00, 0x20)\n      swap1\n    tag_141:\n      dup2\n      sload\n      dup2\n      mstore\n      swap1\n      0x01\n      add\n      swap1\n      0x20\n      add\n      dup1\n      dup4\n      gt\n      tag_141\n      jumpi\n      dup3\n      swap1\n      sub\n      0x1f\n      and\n      dup3\n      add\n      swap2\n    tag_139:\n      pop\n      pop\n      pop\n      pop\n      pop\n      dup2\n      mstore\n      0x20\n      add\n      0x02\n      dup3\n      add\n      sload\n      dup2\n      mstore\n      pop\n      pop\n        /* \"ComplaintSystem.sol\":4564:4575  userReplies */\n      dup5\n        /* \"ComplaintSystem.sol\":4576:4592  userRepliesCount */\n      dup5\n        /* \"ComplaintSystem.sol\":4564:4593  userReplies[userRepliesCount] */\n      dup2\n      mload\n      dup2\n      lt\n      tag_142\n      jumpi\n      tag_143\n      tag_134\n      jump\t// in\n    tag_143:\n    tag_142:\n      0x20\n      mul\n      0x20\n      add\n      add\n        /* \"ComplaintSystem.sol\":4564:4609  userReplies[userRepliesCount] = replies[i][j] */\n      dup2\n      swap1\n      mstore\n      pop\n        /* \"ComplaintSystem.sol\":4632:4650  userRepliesCount++ */\n      dup3\n      dup1\n      tag_144\n      swap1\n      tag_103\n      jump\t// in\n    tag_144:\n      swap4\n      pop\n      pop\n        /* \"ComplaintSystem.sol\":4536:4539  j++ */\n      dup1\n      dup1\n      0x01\n      add\n      swap2\n      pop\n      pop\n        /* \"ComplaintSystem.sol\":4496:4670  for (uint j = 0; j < replies[i].length; j++) {... */\n      jump(tag_129)\n    tag_130:\n      pop\n        /* \"ComplaintSystem.sol\":4437:4685  if (complaints[i].complainant == _user) {... */\n    tag_128:\n        /* \"ComplaintSystem.sol\":4417:4420  i++ */\n      dup1\n      dup1\n      0x01\n      add\n      swap2\n      pop\n      pop\n        /* \"ComplaintSystem.sol\":4380:4696  for (uint i = 0; i < complaintCount; i++) {... */\n      jump(tag_125)\n    tag_126:\n      pop\n        /* \"ComplaintSystem.sol\":4789:4805  userRepliesCount */\n      dup1\n        /* \"ComplaintSystem.sol\":4776:4787  userReplies */\n      dup3\n        /* \"ComplaintSystem.sol\":4769:4806  mstore(userReplies, userRepliesCount) */\n      mstore\n        /* \"ComplaintSystem.sol\":4825:4836  userReplies */\n      dup2\n        /* \"ComplaintSystem.sol\":4818:4836  return userReplies */\n      swap3\n      pop\n      pop\n      pop\n        /* \"ComplaintSystem.sol\":4188:4844  function getUserReplies(address _user) external view returns (Reply[] memory) {... */\n      swap2\n      swap1\n      pop\n      jump\t// out\n        /* \"ComplaintSystem.sol\":921:960  mapping(uint => Reply[]) public replies */\n    tag_42:\n      mstore(0x20, 0x06)\n      dup2\n      0x00\n      mstore\n      keccak256(0x00, 0x40)\n      dup2\n      dup2\n      sload\n      dup2\n      lt\n      tag_145\n      jumpi\n      0x00\n      dup1\n      revert\n    tag_145:\n      swap1\n      0x00\n      mstore\n      keccak256(0x00, 0x20)\n      swap1\n      0x03\n      mul\n      add\n      0x00\n      swap2\n      pop\n      swap2\n      pop\n      pop\n      dup1\n      0x00\n      add\n      0x00\n      swap1\n      sload\n      swap1\n      0x0100\n      exp\n      swap1\n      div\n      0xffffffffffffffffffffffffffffffffffffffff\n      and\n      swap1\n      dup1\n      0x01\n      add\n      dup1\n      sload\n      tag_147\n      swap1\n      tag_137\n      jump\t// in\n    tag_147:\n      dup1\n      0x1f\n      add\n      0x20\n      dup1\n      swap2\n      div\n      mul\n      0x20\n      add\n      mload(0x40)\n      swap1\n      dup2\n      add\n      0x40\n      mstore\n      dup1\n      swap3\n      swap2\n      swap1\n      dup2\n      dup2\n      mstore\n      0x20\n      add\n      dup3\n      dup1\n      sload\n      tag_148\n      swap1\n      tag_137\n      jump\t// in\n    tag_148:\n      dup1\n      iszero\n      tag_149\n      jumpi\n      dup1\n      0x1f\n      lt\n      tag_150\n      jumpi\n      0x0100\n      dup1\n      dup4\n      sload\n      div\n      mul\n      dup4\n      mstore\n      swap2\n      0x20\n      add\n      swap2\n      jump(tag_149)\n    tag_150:\n      dup3\n      add\n      swap2\n      swap1\n      0x00\n      mstore\n      keccak256(0x00, 0x20)\n      swap1\n    tag_151:\n      dup2\n      sload\n      dup2\n      mstore\n      swap1\n      0x01\n      add\n      swap1\n      0x20\n      add\n      dup1\n      dup4\n      gt\n      tag_151\n      jumpi\n      dup3\n      swap1\n      sub\n      0x1f\n      and\n      dup3\n      add\n      swap2\n    tag_149:\n      pop\n      pop\n      pop\n      pop\n      pop\n      swap1\n      dup1\n      0x02\n      add\n      sload\n      swap1\n      pop\n      dup4\n      jump\t// out\n        /* \"ComplaintSystem.sol\":122:161  mapping(address => bool) public isAdmin */\n    tag_47:\n      mstore(0x20, 0x01)\n      dup1\n      0x00\n      mstore\n      keccak256(0x00, 0x40)\n      0x00\n      swap2\n      pop\n      sload\n      swap1\n      0x0100\n      exp\n      swap1\n      div\n      0xff\n      and\n      dup2\n      jump\t// out\n        /* \"ComplaintSystem.sol\":2414:2817  function resolveComplaint(uint _complaintId, string memory _response) external onlyAdmin {... */\n    tag_53:\n        /* \"ComplaintSystem.sol\":1045:1052  isAdmin */\n      0x01\n        /* \"ComplaintSystem.sol\":1045:1064  isAdmin[msg.sender] */\n      0x00\n        /* \"ComplaintSystem.sol\":1053:1063  msg.sender */\n      caller\n        /* \"ComplaintSystem.sol\":1045:1064  isAdmin[msg.sender] */\n      0xffffffffffffffffffffffffffffffffffffffff\n      and\n      0xffffffffffffffffffffffffffffffffffffffff\n      and\n      dup2\n      mstore\n      0x20\n      add\n      swap1\n      dup2\n      mstore\n      0x20\n      add\n      0x00\n      keccak256\n      0x00\n      swap1\n      sload\n      swap1\n      0x0100\n      exp\n      swap1\n      div\n      0xff\n      and\n        /* \"ComplaintSystem.sol\":1037:1102  require(isAdmin[msg.sender], \"Only admin can call this function\") */\n      tag_153\n      jumpi\n      mload(0x40)\n      0x08c379a000000000000000000000000000000000000000000000000000000000\n      dup2\n      mstore\n      0x04\n      add\n      tag_154\n      swap1\n      tag_155\n      jump\t// in\n    tag_154:\n      mload(0x40)\n      dup1\n      swap2\n      sub\n      swap1\n      revert\n    tag_153:\n        /* \"ComplaintSystem.sol\":2557:2580  ComplaintStatus.Pending */\n      0x00\n        /* \"ComplaintSystem.sol\":2522:2580  complaints[_complaintId].status == ComplaintStatus.Pending */\n      0x01\n      dup2\n      gt\n      iszero\n      tag_157\n      jumpi\n      tag_158\n      tag_106\n      jump\t// in\n    tag_158:\n    tag_157:\n        /* \"ComplaintSystem.sol\":2522:2532  complaints */\n      0x04\n        /* \"ComplaintSystem.sol\":2522:2546  complaints[_complaintId] */\n      0x00\n        /* \"ComplaintSystem.sol\":2533:2545  _complaintId */\n      dup5\n        /* \"ComplaintSystem.sol\":2522:2546  complaints[_complaintId] */\n      dup2\n      mstore\n      0x20\n      add\n      swap1\n      dup2\n      mstore\n      0x20\n      add\n      0x00\n      keccak256\n        /* \"ComplaintSystem.sol\":2522:2553  complaints[_complaintId].status */\n      0x03\n      add\n      0x00\n      swap1\n      sload\n      swap1\n      0x0100\n      exp\n      swap1\n      div\n      0xff\n      and\n        /* \"ComplaintSystem.sol\":2522:2580  complaints[_complaintId].status == ComplaintStatus.Pending */\n      0x01\n      dup2\n      gt\n      iszero\n      tag_159\n      jumpi\n      tag_160\n      tag_106\n      jump\t// in\n    tag_160:\n    tag_159:\n      eq\n        /* \"ComplaintSystem.sol\":2514:2614  require(complaints[_complaintId].status == ComplaintStatus.Pending, \"Complaint is already resolved\") */\n      tag_161\n      jumpi\n      mload(0x40)\n      0x08c379a000000000000000000000000000000000000000000000000000000000\n      dup2\n      mstore\n      0x04\n      add\n      tag_162\n      swap1\n      tag_163\n      jump\t// in\n    tag_162:\n      mload(0x40)\n      dup1\n      swap2\n      sub\n      swap1\n      revert\n    tag_161:\n        /* \"ComplaintSystem.sol\":2659:2683  ComplaintStatus.Resolved */\n      0x01\n        /* \"ComplaintSystem.sol\":2625:2635  complaints */\n      0x04\n        /* \"ComplaintSystem.sol\":2625:2649  complaints[_complaintId] */\n      0x00\n        /* \"ComplaintSystem.sol\":2636:2648  _complaintId */\n      dup5\n        /* \"ComplaintSystem.sol\":2625:2649  complaints[_complaintId] */\n      dup2\n      mstore\n      0x20\n      add\n      swap1\n      dup2\n      mstore\n      0x20\n      add\n      0x00\n      keccak256\n        /* \"ComplaintSystem.sol\":2625:2656  complaints[_complaintId].status */\n      0x03\n      add\n      0x00\n        /* \"ComplaintSystem.sol\":2625:2683  complaints[_complaintId].status = ComplaintStatus.Resolved */\n      0x0100\n      exp\n      dup2\n      sload\n      dup2\n      0xff\n      mul\n      not\n      and\n      swap1\n      dup4\n      0x01\n      dup2\n      gt\n      iszero\n      tag_164\n      jumpi\n      tag_165\n      tag_106\n      jump\t// in\n    tag_165:\n    tag_164:\n      mul\n      or\n      swap1\n      sstore\n      pop\n        /* \"ComplaintSystem.sol\":2699:2741  ComplaintResolved(_complaintId, _response) */\n      0xa0e3a0a30e4ae091855116dfb1b3a775ab1b158763b0a44710be60283214ca73\n        /* \"ComplaintSystem.sol\":2717:2729  _complaintId */\n      dup3\n        /* \"ComplaintSystem.sol\":2731:2740  _response */\n      dup3\n        /* \"ComplaintSystem.sol\":2699:2741  ComplaintResolved(_complaintId, _response) */\n      mload(0x40)\n      tag_166\n      swap3\n      swap2\n      swap1\n      tag_167\n      jump\t// in\n    tag_166:\n      mload(0x40)\n      dup1\n      swap2\n      sub\n      swap1\n      log1\n        /* \"ComplaintSystem.sol\":2752:2809  _addTransaction(_complaintId, msg.sender, Action.Resolve) */\n      tag_168\n        /* \"ComplaintSystem.sol\":2768:2780  _complaintId */\n      dup3\n        /* \"ComplaintSystem.sol\":2782:2792  msg.sender */\n      caller\n        /* \"ComplaintSystem.sol\":2794:2808  Action.Resolve */\n      0x01\n        /* \"ComplaintSystem.sol\":2752:2767  _addTransaction */\n      tag_169\n        /* \"ComplaintSystem.sol\":2752:2809  _addTransaction(_complaintId, msg.sender, Action.Resolve) */\n      jump\t// in\n    tag_168:\n        /* \"ComplaintSystem.sol\":2414:2817  function resolveComplaint(uint _complaintId, string memory _response) external onlyAdmin {... */\n      pop\n      pop\n      jump\t// out\n        /* \"ComplaintSystem.sol\":967:996  uint256 public complaintCount */\n    tag_55:\n      sload(0x07)\n      dup2\n      jump\t// out\n        /* \"ComplaintSystem.sol\":170:192  address[] public users */\n    tag_60:\n      0x02\n      dup2\n      dup2\n      sload\n      dup2\n      lt\n      tag_170\n      jumpi\n      0x00\n      dup1\n      revert\n    tag_170:\n      swap1\n      0x00\n      mstore\n      keccak256(0x00, 0x20)\n      add\n      0x00\n      swap2\n      pop\n      sload\n      swap1\n      0x0100\n      exp\n      swap1\n      div\n      0xffffffffffffffffffffffffffffffffffffffff\n      and\n      dup2\n      jump\t// out\n        /* \"ComplaintSystem.sol\":4852:5744  function getUnresolvedComplaints() external view returns (Complaint[] memory) {... */\n    tag_63:\n        /* \"ComplaintSystem.sol\":4910:4928  Complaint[] memory */\n      0x60\n        /* \"ComplaintSystem.sol\":4941:4961  uint unresolvedCount */\n      0x00\n        /* \"ComplaintSystem.sol\":5035:5041  uint i */\n      dup1\n        /* \"ComplaintSystem.sol\":5030:5203  for (uint i = 0; i < complaintCount; i++) {... */\n    tag_173:\n        /* \"ComplaintSystem.sol\":5051:5065  complaintCount */\n      sload(0x07)\n        /* \"ComplaintSystem.sol\":5047:5048  i */\n      dup2\n        /* \"ComplaintSystem.sol\":5047:5065  i < complaintCount */\n      lt\n        /* \"ComplaintSystem.sol\":5030:5203  for (uint i = 0; i < complaintCount; i++) {... */\n      iszero\n      tag_174\n      jumpi\n        /* \"ComplaintSystem.sol\":5115:5138  ComplaintStatus.Pending */\n      0x00\n        /* \"ComplaintSystem.sol\":5091:5138  complaints[i].status == ComplaintStatus.Pending */\n      0x01\n      dup2\n      gt\n      iszero\n      tag_176\n      jumpi\n      tag_177\n      tag_106\n      jump\t// in\n    tag_177:\n    tag_176:\n        /* \"ComplaintSystem.sol\":5091:5101  complaints */\n      0x04\n        /* \"ComplaintSystem.sol\":5091:5104  complaints[i] */\n      0x00\n        /* \"ComplaintSystem.sol\":5102:5103  i */\n      dup4\n        /* \"ComplaintSystem.sol\":5091:5104  complaints[i] */\n      dup2\n      mstore\n      0x20\n      add\n      swap1\n      dup2\n      mstore\n      0x20\n      add\n      0x00\n      keccak256\n        /* \"ComplaintSystem.sol\":5091:5111  complaints[i].status */\n      0x03\n      add\n      0x00\n      swap1\n      sload\n      swap1\n      0x0100\n      exp\n      swap1\n      div\n      0xff\n      and\n        /* \"ComplaintSystem.sol\":5091:5138  complaints[i].status == ComplaintStatus.Pending */\n      0x01\n      dup2\n      gt\n      iszero\n      tag_178\n      jumpi\n      tag_179\n      tag_106\n      jump\t// in\n    tag_179:\n    tag_178:\n      sub\n        /* \"ComplaintSystem.sol\":5087:5192  if (complaints[i].status == ComplaintStatus.Pending) {... */\n      tag_180\n      jumpi\n        /* \"ComplaintSystem.sol\":5159:5176  unresolvedCount++ */\n      dup2\n      dup1\n      tag_181\n      swap1\n      tag_103\n      jump\t// in\n    tag_181:\n      swap3\n      pop\n      pop\n        /* \"ComplaintSystem.sol\":5087:5192  if (complaints[i].status == ComplaintStatus.Pending) {... */\n    tag_180:\n        /* \"ComplaintSystem.sol\":5067:5070  i++ */\n      dup1\n      dup1\n      0x01\n      add\n      swap2\n      pop\n      pop\n        /* \"ComplaintSystem.sol\":5030:5203  for (uint i = 0; i < complaintCount; i++) {... */\n      jump(tag_173)\n    tag_174:\n      pop\n        /* \"ComplaintSystem.sol\":5276:5315  Complaint[] memory unresolvedComplaints */\n      0x00\n        /* \"ComplaintSystem.sol\":5334:5349  unresolvedCount */\n      dup2\n        /* \"ComplaintSystem.sol\":5318:5350  new Complaint[](unresolvedCount) */\n      0xffffffffffffffff\n      dup2\n      gt\n      iszero\n      tag_182\n      jumpi\n      tag_183\n      tag_120\n      jump\t// in\n    tag_183:\n    tag_182:\n      mload(0x40)\n      swap1\n      dup1\n      dup3\n      mstore\n      dup1\n      0x20\n      mul\n      0x20\n      add\n      dup3\n      add\n      0x40\n      mstore\n      dup1\n      iszero\n      tag_184\n      jumpi\n      dup2\n      0x20\n      add\n    tag_185:\n      tag_186\n      tag_187\n      jump\t// in\n    tag_186:\n      dup2\n      mstore\n      0x20\n      add\n      swap1\n      0x01\n      swap1\n      sub\n      swap1\n      dup2\n      tag_185\n      jumpi\n      swap1\n      pop\n    tag_184:\n      pop\n        /* \"ComplaintSystem.sol\":5276:5350  Complaint[] memory unresolvedComplaints = new Complaint[](unresolvedCount) */\n      swap1\n      pop\n        /* \"ComplaintSystem.sol\":5428:5445  uint currentIndex */\n      0x00\n        /* \"ComplaintSystem.sol\":5465:5471  uint i */\n      dup1\n        /* \"ComplaintSystem.sol\":5460:5699  for (uint i = 0; i < complaintCount; i++) {... */\n    tag_188:\n        /* \"ComplaintSystem.sol\":5481:5495  complaintCount */\n      sload(0x07)\n        /* \"ComplaintSystem.sol\":5477:5478  i */\n      dup2\n        /* \"ComplaintSystem.sol\":5477:5495  i < complaintCount */\n      lt\n        /* \"ComplaintSystem.sol\":5460:5699  for (uint i = 0; i < complaintCount; i++) {... */\n      iszero\n      tag_189\n      jumpi\n        /* \"ComplaintSystem.sol\":5545:5568  ComplaintStatus.Pending */\n      0x00\n        /* \"ComplaintSystem.sol\":5521:5568  complaints[i].status == ComplaintStatus.Pending */\n      0x01\n      dup2\n      gt\n      iszero\n      tag_191\n      jumpi\n      tag_192\n      tag_106\n      jump\t// in\n    tag_192:\n    tag_191:\n        /* \"ComplaintSystem.sol\":5521:5531  complaints */\n      0x04\n        /* \"ComplaintSystem.sol\":5521:5534  complaints[i] */\n      0x00\n        /* \"ComplaintSystem.sol\":5532:5533  i */\n      dup4\n        /* \"ComplaintSystem.sol\":5521:5534  complaints[i] */\n      dup2\n      mstore\n      0x20\n      add\n      swap1\n      dup2\n      mstore\n      0x20\n      add\n      0x00\n      keccak256\n        /* \"ComplaintSystem.sol\":5521:5541  complaints[i].status */\n      0x03\n      add\n      0x00\n      swap1\n      sload\n      swap1\n      0x0100\n      exp\n      swap1\n      div\n      0xff\n      and\n        /* \"ComplaintSystem.sol\":5521:5568  complaints[i].status == ComplaintStatus.Pending */\n      0x01\n      dup2\n      gt\n      iszero\n      tag_193\n      jumpi\n      tag_194\n      tag_106\n      jump\t// in\n    tag_194:\n    tag_193:\n      sub\n        /* \"ComplaintSystem.sol\":5517:5688  if (complaints[i].status == ComplaintStatus.Pending) {... */\n      tag_195\n      jumpi\n        /* \"ComplaintSystem.sol\":5626:5636  complaints */\n      0x04\n        /* \"ComplaintSystem.sol\":5626:5639  complaints[i] */\n      0x00\n        /* \"ComplaintSystem.sol\":5637:5638  i */\n      dup3\n        /* \"ComplaintSystem.sol\":5626:5639  complaints[i] */\n      dup2\n      mstore\n      0x20\n      add\n      swap1\n      dup2\n      mstore\n      0x20\n      add\n      0x00\n      keccak256\n        /* \"ComplaintSystem.sol\":5589:5639  unresolvedComplaints[currentIndex] = complaints[i] */\n      mload(0x40)\n      dup1\n      0xa0\n      add\n      0x40\n      mstore\n      swap1\n      dup2\n      0x00\n      dup3\n      add\n      sload\n      dup2\n      mstore\n      0x20\n      add\n      0x01\n      dup3\n      add\n      0x00\n      swap1\n      sload\n      swap1\n      0x0100\n      exp\n      swap1\n      div\n      0xffffffffffffffffffffffffffffffffffffffff\n      and\n      0xffffffffffffffffffffffffffffffffffffffff\n      and\n      0xffffffffffffffffffffffffffffffffffffffff\n      and\n      dup2\n      mstore\n      0x20\n      add\n      0x02\n      dup3\n      add\n      dup1\n      sload\n      tag_196\n      swap1\n      tag_137\n      jump\t// in\n    tag_196:\n      dup1\n      0x1f\n      add\n      0x20\n      dup1\n      swap2\n      div\n      mul\n      0x20\n      add\n      mload(0x40)\n      swap1\n      dup2\n      add\n      0x40\n      mstore\n      dup1\n      swap3\n      swap2\n      swap1\n      dup2\n      dup2\n      mstore\n      0x20\n      add\n      dup3\n      dup1\n      sload\n      tag_197\n      swap1\n      tag_137\n      jump\t// in\n    tag_197:\n      dup1\n      iszero\n      tag_198\n      jumpi\n      dup1\n      0x1f\n      lt\n      tag_199\n      jumpi\n      0x0100\n      dup1\n      dup4\n      sload\n      div\n      mul\n      dup4\n      mstore\n      swap2\n      0x20\n      add\n      swap2\n      jump(tag_198)\n    tag_199:\n      dup3\n      add\n      swap2\n      swap1\n      0x00\n      mstore\n      keccak256(0x00, 0x20)\n      swap1\n    tag_200:\n      dup2\n      sload\n      dup2\n      mstore\n      swap1\n      0x01\n      add\n      swap1\n      0x20\n      add\n      dup1\n      dup4\n      gt\n      tag_200\n      jumpi\n      dup3\n      swap1\n      sub\n      0x1f\n      and\n      dup3\n      add\n      swap2\n    tag_198:\n      pop\n      pop\n      pop\n      pop\n      pop\n      dup2\n      mstore\n      0x20\n      add\n      0x03\n      dup3\n      add\n      0x00\n      swap1\n      sload\n      swap1\n      0x0100\n      exp\n      swap1\n      div\n      0xff\n      and\n      0x01\n      dup2\n      gt\n      iszero\n      tag_201\n      jumpi\n      tag_202\n      tag_106\n      jump\t// in\n    tag_202:\n    tag_201:\n      0x01\n      dup2\n      gt\n      iszero\n      tag_203\n      jumpi\n      tag_204\n      tag_106\n      jump\t// in\n    tag_204:\n    tag_203:\n      dup2\n      mstore\n      0x20\n      add\n      0x04\n      dup3\n      add\n      mload(0x40)\n      dup1\n      0x40\n      add\n      0x40\n      mstore\n      swap1\n      dup2\n      0x00\n      dup3\n      add\n      dup1\n      sload\n      tag_205\n      swap1\n      tag_137\n      jump\t// in\n    tag_205:\n      dup1\n      0x1f\n      add\n      0x20\n      dup1\n      swap2\n      div\n      mul\n      0x20\n      add\n      mload(0x40)\n      swap1\n      dup2\n      add\n      0x40\n      mstore\n      dup1\n      swap3\n      swap2\n      swap1\n      dup2\n      dup2\n      mstore\n      0x20\n      add\n      dup3\n      dup1\n      sload\n      tag_206\n      swap1\n      tag_137\n      jump\t// in\n    tag_206:\n      dup1\n      iszero\n      tag_207\n      jumpi\n      dup1\n      0x1f\n      lt\n      tag_208\n      jumpi\n      0x0100\n      dup1\n      dup4\n      sload\n      div\n      mul\n      dup4\n      mstore\n      swap2\n      0x20\n      add\n      swap2\n      jump(tag_207)\n    tag_208:\n      dup3\n      add\n      swap2\n      swap1\n      0x00\n      mstore\n      keccak256(0x00, 0x20)\n      swap1\n    tag_209:\n      dup2\n      sload\n      dup2\n      mstore\n      swap1\n      0x01\n      add\n      swap1\n      0x20\n      add\n      dup1\n      dup4\n      gt\n      tag_209\n      jumpi\n      dup3\n      swap1\n      sub\n      0x1f\n      and\n      dup3\n      add\n      swap2\n    tag_207:\n      pop\n      pop\n      pop\n      pop\n      pop\n      dup2\n      mstore\n      0x20\n      add\n      0x01\n      dup3\n      add\n      dup1\n      sload\n      tag_210\n      swap1\n      tag_137\n      jump\t// in\n    tag_210:\n      dup1\n      0x1f\n      add\n      0x20\n      dup1\n      swap2\n      div\n      mul\n      0x20\n      add\n      mload(0x40)\n      swap1\n      dup2\n      add\n      0x40\n      mstore\n      dup1\n      swap3\n      swap2\n      swap1\n      dup2\n      dup2\n      mstore\n      0x20\n      add\n      dup3\n      dup1\n      sload\n      tag_211\n      swap1\n      tag_137\n      jump\t// in\n    tag_211:\n      dup1\n      iszero\n      tag_212\n      jumpi\n      dup1\n      0x1f\n      lt\n      tag_213\n      jumpi\n      0x0100\n      dup1\n      dup4\n      sload\n      div\n      mul\n      dup4\n      mstore\n      swap2\n      0x20\n      add\n      swap2\n      jump(tag_212)\n    tag_213:\n      dup3\n      add\n      swap2\n      swap1\n      0x00\n      mstore\n      keccak256(0x00, 0x20)\n      swap1\n    tag_214:\n      dup2\n      sload\n      dup2\n      mstore\n      swap1\n      0x01\n      add\n      swap1\n      0x20\n      add\n      dup1\n      dup4\n      gt\n      tag_214\n      jumpi\n      dup3\n      swap1\n      sub\n      0x1f\n      and\n      dup3\n      add\n      swap2\n    tag_212:\n      pop\n      pop\n      pop\n      pop\n      pop\n      dup2\n      mstore\n      pop\n      pop\n      dup2\n      mstore\n      pop\n      pop\n        /* \"ComplaintSystem.sol\":5589:5609  unresolvedComplaints */\n      dup4\n        /* \"ComplaintSystem.sol\":5610:5622  currentIndex */\n      dup4\n        /* \"ComplaintSystem.sol\":5589:5623  unresolvedComplaints[currentIndex] */\n      dup2\n      mload\n      dup2\n      lt\n      tag_215\n      jumpi\n      tag_216\n      tag_134\n      jump\t// in\n    tag_216:\n    tag_215:\n      0x20\n      mul\n      0x20\n      add\n      add\n        /* \"ComplaintSystem.sol\":5589:5639  unresolvedComplaints[currentIndex] = complaints[i] */\n      dup2\n      swap1\n      mstore\n      pop\n        /* \"ComplaintSystem.sol\":5658:5672  currentIndex++ */\n      dup2\n      dup1\n      tag_217\n      swap1\n      tag_103\n      jump\t// in\n    tag_217:\n      swap3\n      pop\n      pop\n        /* \"ComplaintSystem.sol\":5517:5688  if (complaints[i].status == ComplaintStatus.Pending) {... */\n    tag_195:\n        /* \"ComplaintSystem.sol\":5497:5500  i++ */\n      dup1\n      dup1\n      0x01\n      add\n      swap2\n      pop\n      pop\n        /* \"ComplaintSystem.sol\":5460:5699  for (uint i = 0; i < complaintCount; i++) {... */\n      jump(tag_188)\n    tag_189:\n      pop\n        /* \"ComplaintSystem.sol\":5716:5736  unresolvedComplaints */\n      dup2\n        /* \"ComplaintSystem.sol\":5709:5736  return unresolvedComplaints */\n      swap4\n      pop\n      pop\n      pop\n      pop\n        /* \"ComplaintSystem.sol\":4852:5744  function getUnresolvedComplaints() external view returns (Complaint[] memory) {... */\n      swap1\n      jump\t// out\n        /* \"ComplaintSystem.sol\":199:237  mapping(address => bool) public isUser */\n    tag_68:\n      mstore(0x20, 0x03)\n      dup1\n      0x00\n      mstore\n      keccak256(0x00, 0x40)\n      0x00\n      swap2\n      pop\n      sload\n      swap1\n      0x0100\n      exp\n      swap1\n      div\n      0xff\n      and\n      dup2\n      jump\t// out\n        /* \"ComplaintSystem.sol\":1622:1774  function registerUser() external {... */\n    tag_71:\n        /* \"ComplaintSystem.sol\":1666:1671  users */\n      0x02\n        /* \"ComplaintSystem.sol\":1677:1687  msg.sender */\n      caller\n        /* \"ComplaintSystem.sol\":1666:1688  users.push(msg.sender) */\n      swap1\n      dup1\n      0x01\n      dup2\n      sload\n      add\n      dup1\n      dup3\n      sstore\n      dup1\n      swap2\n      pop\n      pop\n      0x01\n      swap1\n      sub\n      swap1\n      0x00\n      mstore\n      keccak256(0x00, 0x20)\n      add\n      0x00\n      swap1\n      swap2\n      swap1\n      swap2\n      swap1\n      swap2\n      0x0100\n      exp\n      dup2\n      sload\n      dup2\n      0xffffffffffffffffffffffffffffffffffffffff\n      mul\n      not\n      and\n      swap1\n      dup4\n      0xffffffffffffffffffffffffffffffffffffffff\n      and\n      mul\n      or\n      swap1\n      sstore\n      pop\n        /* \"ComplaintSystem.sol\":1720:1724  true */\n      0x01\n        /* \"ComplaintSystem.sol\":1699:1705  isUser */\n      0x03\n        /* \"ComplaintSystem.sol\":1699:1717  isUser[msg.sender] */\n      0x00\n        /* \"ComplaintSystem.sol\":1706:1716  msg.sender */\n      caller\n        /* \"ComplaintSystem.sol\":1699:1717  isUser[msg.sender] */\n      0xffffffffffffffffffffffffffffffffffffffff\n      and\n      0xffffffffffffffffffffffffffffffffffffffff\n      and\n      dup2\n      mstore\n      0x20\n      add\n      swap1\n      dup2\n      mstore\n      0x20\n      add\n      0x00\n      keccak256\n      0x00\n        /* \"ComplaintSystem.sol\":1699:1724  isUser[msg.sender] = true */\n      0x0100\n      exp\n      dup2\n      sload\n      dup2\n      0xff\n      mul\n      not\n      and\n      swap1\n      dup4\n      iszero\n      iszero\n      mul\n      or\n      swap1\n      sstore\n      pop\n        /* \"ComplaintSystem.sol\":1755:1765  msg.sender */\n      caller\n        /* \"ComplaintSystem.sol\":1740:1766  UserRegistered(msg.sender) */\n      0xffffffffffffffffffffffffffffffffffffffff\n      and\n      0x54db7a5cb4735e1aac1f53db512d3390390bb6637bd30ad4bf9fc98667d9b9b9\n      mload(0x40)\n      mload(0x40)\n      dup1\n      swap2\n      sub\n      swap1\n      log2\n        /* \"ComplaintSystem.sol\":1622:1774  function registerUser() external {... */\n      jump\t// out\n        /* \"ComplaintSystem.sol\":864:914  mapping(uint => Transaction[]) public transactions */\n    tag_74:\n      mstore(0x20, 0x05)\n      dup2\n      0x00\n      mstore\n      keccak256(0x00, 0x40)\n      dup2\n      dup2\n      sload\n      dup2\n      lt\n      tag_220\n      jumpi\n      0x00\n      dup1\n      revert\n    tag_220:\n      swap1\n      0x00\n      mstore\n      keccak256(0x00, 0x20)\n      swap1\n      0x02\n      mul\n      add\n      0x00\n      swap2\n      pop\n      swap2\n      pop\n      pop\n      dup1\n      0x00\n      add\n      0x00\n      swap1\n      sload\n      swap1\n      0x0100\n      exp\n      swap1\n      div\n      0xffffffffffffffffffffffffffffffffffffffff\n      and\n      swap1\n      dup1\n      0x00\n      add\n      0x14\n      swap1\n      sload\n      swap1\n      0x0100\n      exp\n      swap1\n      div\n      0xff\n      and\n      swap1\n      dup1\n      0x01\n      add\n      sload\n      swap1\n      pop\n      dup4\n      jump\t// out\n        /* \"ComplaintSystem.sol\":1782:1938  function registerAdmin() external {... */\n    tag_78:\n        /* \"ComplaintSystem.sol\":1827:1833  admins */\n      0x00\n        /* \"ComplaintSystem.sol\":1839:1849  msg.sender */\n      caller\n        /* \"ComplaintSystem.sol\":1827:1850  admins.push(msg.sender) */\n      swap1\n      dup1\n      0x01\n      dup2\n      sload\n      add\n      dup1\n      dup3\n      sstore\n      dup1\n      swap2\n      pop\n      pop\n      0x01\n      swap1\n      sub\n      swap1\n      0x00\n      mstore\n      keccak256(0x00, 0x20)\n      add\n      0x00\n      swap1\n      swap2\n      swap1\n      swap2\n      swap1\n      swap2\n      0x0100\n      exp\n      dup2\n      sload\n      dup2\n      0xffffffffffffffffffffffffffffffffffffffff\n      mul\n      not\n      and\n      swap1\n      dup4\n      0xffffffffffffffffffffffffffffffffffffffff\n      and\n      mul\n      or\n      swap1\n      sstore\n      pop\n        /* \"ComplaintSystem.sol\":1883:1887  true */\n      0x01\n        /* \"ComplaintSystem.sol\":1861:1868  isAdmin */\n      dup1\n        /* \"ComplaintSystem.sol\":1861:1880  isAdmin[msg.sender] */\n      0x00\n        /* \"ComplaintSystem.sol\":1869:1879  msg.sender */\n      caller\n        /* \"ComplaintSystem.sol\":1861:1880  isAdmin[msg.sender] */\n      0xffffffffffffffffffffffffffffffffffffffff\n      and\n      0xffffffffffffffffffffffffffffffffffffffff\n      and\n      dup2\n      mstore\n      0x20\n      add\n      swap1\n      dup2\n      mstore\n      0x20\n      add\n      0x00\n      keccak256\n      0x00\n        /* \"ComplaintSystem.sol\":1861:1887  isAdmin[msg.sender] = true */\n      0x0100\n      exp\n      dup2\n      sload\n      dup2\n      0xff\n      mul\n      not\n      and\n      swap1\n      dup4\n      iszero\n      iszero\n      mul\n      or\n      swap1\n      sstore\n      pop\n        /* \"ComplaintSystem.sol\":1919:1929  msg.sender */\n      caller\n        /* \"ComplaintSystem.sol\":1903:1930  AdminRegistered(msg.sender) */\n      0xffffffffffffffffffffffffffffffffffffffff\n      and\n      0xac0f15283d37631c15b481bc07dc402bcfc030956bcd94b5585f71d92e84c3da\n      mload(0x40)\n      mload(0x40)\n      dup1\n      swap2\n      sub\n      swap1\n      log2\n        /* \"ComplaintSystem.sol\":1782:1938  function registerAdmin() external {... */\n      jump\t// out\n        /* \"ComplaintSystem.sol\":2825:2962  function accessComplaint(uint _complaintId) external onlyUser {... */\n    tag_81:\n        /* \"ComplaintSystem.sol\":1169:1175  isUser */\n      0x03\n        /* \"ComplaintSystem.sol\":1169:1187  isUser[msg.sender] */\n      0x00\n        /* \"ComplaintSystem.sol\":1176:1186  msg.sender */\n      caller\n        /* \"ComplaintSystem.sol\":1169:1187  isUser[msg.sender] */\n      0xffffffffffffffffffffffffffffffffffffffff\n      and\n      0xffffffffffffffffffffffffffffffffffffffff\n      and\n      dup2\n      mstore\n      0x20\n      add\n      swap1\n      dup2\n      mstore\n      0x20\n      add\n      0x00\n      keccak256\n      0x00\n      swap1\n      sload\n      swap1\n      0x0100\n      exp\n      swap1\n      div\n      0xff\n      and\n        /* \"ComplaintSystem.sol\":1161:1224  require(isUser[msg.sender], \"Only user can call this function\") */\n      tag_225\n      jumpi\n      mload(0x40)\n      0x08c379a000000000000000000000000000000000000000000000000000000000\n      dup2\n      mstore\n      0x04\n      add\n      tag_226\n      swap1\n      tag_97\n      jump\t// in\n    tag_226:\n      mload(0x40)\n      dup1\n      swap2\n      sub\n      swap1\n      revert\n    tag_225:\n        /* \"ComplaintSystem.sol\":2898:2954  _addTransaction(_complaintId, msg.sender, Action.Access) */\n      tag_228\n        /* \"ComplaintSystem.sol\":2914:2926  _complaintId */\n      dup2\n        /* \"ComplaintSystem.sol\":2928:2938  msg.sender */\n      caller\n        /* \"ComplaintSystem.sol\":2940:2953  Action.Access */\n      0x00\n        /* \"ComplaintSystem.sol\":2898:2913  _addTransaction */\n      tag_169\n        /* \"ComplaintSystem.sol\":2898:2954  _addTransaction(_complaintId, msg.sender, Action.Access) */\n      jump\t// in\n    tag_228:\n        /* \"ComplaintSystem.sol\":2825:2962  function accessComplaint(uint _complaintId) external onlyUser {... */\n      pop\n      jump\t// out\n        /* \"ComplaintSystem.sol\":813:857  mapping(uint => Complaint) public complaints */\n    tag_84:\n      mstore(0x20, 0x04)\n      dup1\n      0x00\n      mstore\n      keccak256(0x00, 0x40)\n      0x00\n      swap2\n      pop\n      swap1\n      pop\n      dup1\n      0x00\n      add\n      sload\n      swap1\n      dup1\n      0x01\n      add\n      0x00\n      swap1\n      sload\n      swap1\n      0x0100\n      exp\n      swap1\n      div\n      0xffffffffffffffffffffffffffffffffffffffff\n      and\n      swap1\n      dup1\n      0x02\n      add\n      dup1\n      sload\n      tag_229\n      swap1\n      tag_137\n      jump\t// in\n    tag_229:\n      dup1\n      0x1f\n      add\n      0x20\n      dup1\n      swap2\n      div\n      mul\n      0x20\n      add\n      mload(0x40)\n      swap1\n      dup2\n      add\n      0x40\n      mstore\n      dup1\n      swap3\n      swap2\n      swap1\n      dup2\n      dup2\n      mstore\n      0x20\n      add\n      dup3\n      dup1\n      sload\n      tag_230\n      swap1\n      tag_137\n      jump\t// in\n    tag_230:\n      dup1\n      iszero\n      tag_231\n      jumpi\n      dup1\n      0x1f\n      lt\n      tag_232\n      jumpi\n      0x0100\n      dup1\n      dup4\n      sload\n      div\n      mul\n      dup4\n      mstore\n      swap2\n      0x20\n      add\n      swap2\n      jump(tag_231)\n    tag_232:\n      dup3\n      add\n      swap2\n      swap1\n      0x00\n      mstore\n      keccak256(0x00, 0x20)\n      swap1\n    tag_233:\n      dup2\n      sload\n      dup2\n      mstore\n      swap1\n      0x01\n      add\n      swap1\n      0x20\n      add\n      dup1\n      dup4\n      gt\n      tag_233\n      jumpi\n      dup3\n      swap1\n      sub\n      0x1f\n      and\n      dup3\n      add\n      swap2\n    tag_231:\n      pop\n      pop\n      pop\n      pop\n      pop\n      swap1\n      dup1\n      0x03\n      add\n      0x00\n      swap1\n      sload\n      swap1\n      0x0100\n      exp\n      swap1\n      div\n      0xff\n      and\n      swap1\n      dup1\n      0x04\n      add\n      mload(0x40)\n      dup1\n      0x40\n      add\n      0x40\n      mstore\n      swap1\n      dup2\n      0x00\n      dup3\n      add\n      dup1\n      sload\n      tag_234\n      swap1\n      tag_137\n      jump\t// in\n    tag_234:\n      dup1\n      0x1f\n      add\n      0x20\n      dup1\n      swap2\n      div\n      mul\n      0x20\n      add\n      mload(0x40)\n      swap1\n      dup2\n      add\n      0x40\n      mstore\n      dup1\n      swap3\n      swap2\n      swap1\n      dup2\n      dup2\n      mstore\n      0x20\n      add\n      dup3\n      dup1\n      sload\n      tag_235\n      swap1\n      tag_137\n      jump\t// in\n    tag_235:\n      dup1\n      iszero\n      tag_236\n      jumpi\n      dup1\n      0x1f\n      lt\n      tag_237\n      jumpi\n      0x0100\n      dup1\n      dup4\n      sload\n      div\n      mul\n      dup4\n      mstore\n      swap2\n      0x20\n      add\n      swap2\n      jump(tag_236)\n    tag_237:\n      dup3\n      add\n      swap2\n      swap1\n      0x00\n      mstore\n      keccak256(0x00, 0x20)\n      swap1\n    tag_238:\n      dup2\n      sload\n      dup2\n      mstore\n      swap1\n      0x01\n      add\n      swap1\n      0x20\n      add\n      dup1\n      dup4\n      gt\n      tag_238\n      jumpi\n      dup3\n      swap1\n      sub\n      0x1f\n      and\n      dup3\n      add\n      swap2\n    tag_236:\n      pop\n      pop\n      pop\n      pop\n      pop\n      dup2\n      mstore\n      0x20\n      add\n      0x01\n      dup3\n      add\n      dup1\n      sload\n      tag_239\n      swap1\n      tag_137\n      jump\t// in\n    tag_239:\n      dup1\n      0x1f\n      add\n      0x20\n      dup1\n      swap2\n      div\n      mul\n      0x20\n      add\n      mload(0x40)\n      swap1\n      dup2\n      add\n      0x40\n      mstore\n      dup1\n      swap3\n      swap2\n      swap1\n      dup2\n      dup2\n      mstore\n      0x20\n      add\n      dup3\n      dup1\n      sload\n      tag_240\n      swap1\n      tag_137\n      jump\t// in\n    tag_240:\n      dup1\n      iszero\n      tag_241\n      jumpi\n      dup1\n      0x1f\n      lt\n      tag_242\n      jumpi\n      0x0100\n      dup1\n      dup4\n      sload\n      div\n      mul\n      dup4\n      mstore\n      swap2\n      0x20\n      add\n      swap2\n      jump(tag_241)\n    tag_242:\n      dup3\n      add\n      swap2\n      swap1\n      0x00\n      mstore\n      keccak256(0x00, 0x20)\n      swap1\n    tag_243:\n      dup2\n      sload\n      dup2\n      mstore\n      swap1\n      0x01\n      add\n      swap1\n      0x20\n      add\n      dup1\n      dup4\n      gt\n      tag_243\n      jumpi\n      dup3\n      swap1\n      sub\n      0x1f\n      and\n      dup3\n      add\n      swap2\n    tag_241:\n      pop\n      pop\n      pop\n      pop\n      pop\n      dup2\n      mstore\n      pop\n      pop\n      swap1\n      pop\n      dup6\n      jump\t// out\n        /* \"ComplaintSystem.sol\":3576:4180  function getUserComplaints(address _user) external view returns (Complaint[] memory) {... */\n    tag_89:\n        /* \"ComplaintSystem.sol\":3641:3659  Complaint[] memory */\n      0x60\n        /* \"ComplaintSystem.sol\":3672:3705  Complaint[] memory userComplaints */\n      0x00\n        /* \"ComplaintSystem.sol\":3724:3738  complaintCount */\n      sload(0x07)\n        /* \"ComplaintSystem.sol\":3708:3739  new Complaint[](complaintCount) */\n      0xffffffffffffffff\n      dup2\n      gt\n      iszero\n      tag_245\n      jumpi\n      tag_246\n      tag_120\n      jump\t// in\n    tag_246:\n    tag_245:\n      mload(0x40)\n      swap1\n      dup1\n      dup3\n      mstore\n      dup1\n      0x20\n      mul\n      0x20\n      add\n      dup3\n      add\n      0x40\n      mstore\n      dup1\n      iszero\n      tag_247\n      jumpi\n      dup2\n      0x20\n      add\n    tag_248:\n      tag_249\n      tag_187\n      jump\t// in\n    tag_249:\n      dup2\n      mstore\n      0x20\n      add\n      swap1\n      0x01\n      swap1\n      sub\n      swap1\n      dup2\n      tag_248\n      jumpi\n      swap1\n      pop\n    tag_247:\n      pop\n        /* \"ComplaintSystem.sol\":3672:3739  Complaint[] memory userComplaints = new Complaint[](complaintCount) */\n      swap1\n      pop\n        /* \"ComplaintSystem.sol\":3750:3774  uint userComplaintsCount */\n      0x00\n        /* \"ComplaintSystem.sol\":3794:3800  uint i */\n      dup1\n        /* \"ComplaintSystem.sol\":3789:4023  for (uint i = 0; i < complaintCount; i++) {... */\n    tag_250:\n        /* \"ComplaintSystem.sol\":3810:3824  complaintCount */\n      sload(0x07)\n        /* \"ComplaintSystem.sol\":3806:3807  i */\n      dup2\n        /* \"ComplaintSystem.sol\":3806:3824  i < complaintCount */\n      lt\n        /* \"ComplaintSystem.sol\":3789:4023  for (uint i = 0; i < complaintCount; i++) {... */\n      iszero\n      tag_251\n      jumpi\n        /* \"ComplaintSystem.sol\":3879:3884  _user */\n      dup5\n        /* \"ComplaintSystem.sol\":3850:3884  complaints[i].complainant == _user */\n      0xffffffffffffffffffffffffffffffffffffffff\n      and\n        /* \"ComplaintSystem.sol\":3850:3860  complaints */\n      0x04\n        /* \"ComplaintSystem.sol\":3850:3863  complaints[i] */\n      0x00\n        /* \"ComplaintSystem.sol\":3861:3862  i */\n      dup4\n        /* \"ComplaintSystem.sol\":3850:3863  complaints[i] */\n      dup2\n      mstore\n      0x20\n      add\n      swap1\n      dup2\n      mstore\n      0x20\n      add\n      0x00\n      keccak256\n        /* \"ComplaintSystem.sol\":3850:3875  complaints[i].complainant */\n      0x01\n      add\n      0x00\n      swap1\n      sload\n      swap1\n      0x0100\n      exp\n      swap1\n      div\n      0xffffffffffffffffffffffffffffffffffffffff\n      and\n        /* \"ComplaintSystem.sol\":3850:3884  complaints[i].complainant == _user */\n      0xffffffffffffffffffffffffffffffffffffffff\n      and\n      sub\n        /* \"ComplaintSystem.sol\":3846:4012  if (complaints[i].complainant == _user) {... */\n      tag_253\n      jumpi\n        /* \"ComplaintSystem.sol\":3943:3953  complaints */\n      0x04\n        /* \"ComplaintSystem.sol\":3943:3956  complaints[i] */\n      0x00\n        /* \"ComplaintSystem.sol\":3954:3955  i */\n      dup3\n        /* \"ComplaintSystem.sol\":3943:3956  complaints[i] */\n      dup2\n      mstore\n      0x20\n      add\n      swap1\n      dup2\n      mstore\n      0x20\n      add\n      0x00\n      keccak256\n        /* \"ComplaintSystem.sol\":3905:3956  userComplaints[userComplaintsCount] = complaints[i] */\n      mload(0x40)\n      dup1\n      0xa0\n      add\n      0x40\n      mstore\n      swap1\n      dup2\n      0x00\n      dup3\n      add\n      sload\n      dup2\n      mstore\n      0x20\n      add\n      0x01\n      dup3\n      add\n      0x00\n      swap1\n      sload\n      swap1\n      0x0100\n      exp\n      swap1\n      div\n      0xffffffffffffffffffffffffffffffffffffffff\n      and\n      0xffffffffffffffffffffffffffffffffffffffff\n      and\n      0xffffffffffffffffffffffffffffffffffffffff\n      and\n      dup2\n      mstore\n      0x20\n      add\n      0x02\n      dup3\n      add\n      dup1\n      sload\n      tag_254\n      swap1\n      tag_137\n      jump\t// in\n    tag_254:\n      dup1\n      0x1f\n      add\n      0x20\n      dup1\n      swap2\n      div\n      mul\n      0x20\n      add\n      mload(0x40)\n      swap1\n      dup2\n      add\n      0x40\n      mstore\n      dup1\n      swap3\n      swap2\n      swap1\n      dup2\n      dup2\n      mstore\n      0x20\n      add\n      dup3\n      dup1\n      sload\n      tag_255\n      swap1\n      tag_137\n      jump\t// in\n    tag_255:\n      dup1\n      iszero\n      tag_256\n      jumpi\n      dup1\n      0x1f\n      lt\n      tag_257\n      jumpi\n      0x0100\n      dup1\n      dup4\n      sload\n      div\n      mul\n      dup4\n      mstore\n      swap2\n      0x20\n      add\n      swap2\n      jump(tag_256)\n    tag_257:\n      dup3\n      add\n      swap2\n      swap1\n      0x00\n      mstore\n      keccak256(0x00, 0x20)\n      swap1\n    tag_258:\n      dup2\n      sload\n      dup2\n      mstore\n      swap1\n      0x01\n      add\n      swap1\n      0x20\n      add\n      dup1\n      dup4\n      gt\n      tag_258\n      jumpi\n      dup3\n      swap1\n      sub\n      0x1f\n      and\n      dup3\n      add\n      swap2\n    tag_256:\n      pop\n      pop\n      pop\n      pop\n      pop\n      dup2\n      mstore\n      0x20\n      add\n      0x03\n      dup3\n      add\n      0x00\n      swap1\n      sload\n      swap1\n      0x0100\n      exp\n      swap1\n      div\n      0xff\n      and\n      0x01\n      dup2\n      gt\n      iszero\n      tag_259\n      jumpi\n      tag_260\n      tag_106\n      jump\t// in\n    tag_260:\n    tag_259:\n      0x01\n      dup2\n      gt\n      iszero\n      tag_261\n      jumpi\n      tag_262\n      tag_106\n      jump\t// in\n    tag_262:\n    tag_261:\n      dup2\n      mstore\n      0x20\n      add\n      0x04\n      dup3\n      add\n      mload(0x40)\n      dup1\n      0x40\n      add\n      0x40\n      mstore\n      swap1\n      dup2\n      0x00\n      dup3\n      add\n      dup1\n      sload\n      tag_263\n      swap1\n      tag_137\n      jump\t// in\n    tag_263:\n      dup1\n      0x1f\n      add\n      0x20\n      dup1\n      swap2\n      div\n      mul\n      0x20\n      add\n      mload(0x40)\n      swap1\n      dup2\n      add\n      0x40\n      mstore\n      dup1\n      swap3\n      swap2\n      swap1\n      dup2\n      dup2\n      mstore\n      0x20\n      add\n      dup3\n      dup1\n      sload\n      tag_264\n      swap1\n      tag_137\n      jump\t// in\n    tag_264:\n      dup1\n      iszero\n      tag_265\n      jumpi\n      dup1\n      0x1f\n      lt\n      tag_266\n      jumpi\n      0x0100\n      dup1\n      dup4\n      sload\n      div\n      mul\n      dup4\n      mstore\n      swap2\n      0x20\n      add\n      swap2\n      jump(tag_265)\n    tag_266:\n      dup3\n      add\n      swap2\n      swap1\n      0x00\n      mstore\n      keccak256(0x00, 0x20)\n      swap1\n    tag_267:\n      dup2\n      sload\n      dup2\n      mstore\n      swap1\n      0x01\n      add\n      swap1\n      0x20\n      add\n      dup1\n      dup4\n      gt\n      tag_267\n      jumpi\n      dup3\n      swap1\n      sub\n      0x1f\n      and\n      dup3\n      add\n      swap2\n    tag_265:\n      pop\n      pop\n      pop\n      pop\n      pop\n      dup2\n      mstore\n      0x20\n      add\n      0x01\n      dup3\n      add\n      dup1\n      sload\n      tag_268\n      swap1\n      tag_137\n      jump\t// in\n    tag_268:\n      dup1\n      0x1f\n      add\n      0x20\n      dup1\n      swap2\n      div\n      mul\n      0x20\n      add\n      mload(0x40)\n      swap1\n      dup2\n      add\n      0x40\n      mstore\n      dup1\n      swap3\n      swap2\n      swap1\n      dup2\n      dup2\n      mstore\n      0x20\n      add\n      dup3\n      dup1\n      sload\n      tag_269\n      swap1\n      tag_137\n      jump\t// in\n    tag_269:\n      dup1\n      iszero\n      tag_270\n      jumpi\n      dup1\n      0x1f\n      lt\n      tag_271\n      jumpi\n      0x0100\n      dup1\n      dup4\n      sload\n      div\n      mul\n      dup4\n      mstore\n      swap2\n      0x20\n      add\n      swap2\n      jump(tag_270)\n    tag_271:\n      dup3\n      add\n      swap2\n      swap1\n      0x00\n      mstore\n      keccak256(0x00, 0x20)\n      swap1\n    tag_272:\n      dup2\n      sload\n      dup2\n      mstore\n      swap1\n      0x01\n      add\n      swap1\n      0x20\n      add\n      dup1\n      dup4\n      gt\n      tag_272\n      jumpi\n      dup3\n      swap1\n      sub\n      0x1f\n      and\n      dup3\n      add\n      swap2\n    tag_270:\n      pop\n      pop\n      pop\n      pop\n      pop\n      dup2\n      mstore\n      pop\n      pop\n      dup2\n      mstore\n      pop\n      pop\n        /* \"ComplaintSystem.sol\":3905:3919  userComplaints */\n      dup4\n        /* \"ComplaintSystem.sol\":3920:3939  userComplaintsCount */\n      dup4\n        /* \"ComplaintSystem.sol\":3905:3940  userComplaints[userComplaintsCount] */\n      dup2\n      mload\n      dup2\n      lt\n      tag_273\n      jumpi\n      tag_274\n      tag_134\n      jump\t// in\n    tag_274:\n    tag_273:\n      0x20\n      mul\n      0x20\n      add\n      add\n        /* \"ComplaintSystem.sol\":3905:3956  userComplaints[userComplaintsCount] = complaints[i] */\n      dup2\n      swap1\n      mstore\n      pop\n        /* \"ComplaintSystem.sol\":3975:3996  userComplaintsCount++ */\n      dup2\n      dup1\n      tag_275\n      swap1\n      tag_103\n      jump\t// in\n    tag_275:\n      swap3\n      pop\n      pop\n        /* \"ComplaintSystem.sol\":3846:4012  if (complaints[i].complainant == _user) {... */\n    tag_253:\n        /* \"ComplaintSystem.sol\":3826:3829  i++ */\n      dup1\n      dup1\n      0x01\n      add\n      swap2\n      pop\n      pop\n        /* \"ComplaintSystem.sol\":3789:4023  for (uint i = 0; i < complaintCount; i++) {... */\n      jump(tag_250)\n    tag_251:\n      pop\n        /* \"ComplaintSystem.sol\":4119:4138  userComplaintsCount */\n      dup1\n        /* \"ComplaintSystem.sol\":4103:4117  userComplaints */\n      dup3\n        /* \"ComplaintSystem.sol\":4096:4139  mstore(userComplaints, userComplaintsCount) */\n      mstore\n        /* \"ComplaintSystem.sol\":4158:4172  userComplaints */\n      dup2\n        /* \"ComplaintSystem.sol\":4151:4172  return userComplaints */\n      swap3\n      pop\n      pop\n      pop\n        /* \"ComplaintSystem.sol\":3576:4180  function getUserComplaints(address _user) external view returns (Complaint[] memory) {... */\n      swap2\n      swap1\n      pop\n      jump\t// out\n        /* \"ComplaintSystem.sol\":2970:3237  function replyToComplaint(uint _complaintId, string memory _replyText) external onlyAdmin {... */\n    tag_93:\n        /* \"ComplaintSystem.sol\":1045:1052  isAdmin */\n      0x01\n        /* \"ComplaintSystem.sol\":1045:1064  isAdmin[msg.sender] */\n      0x00\n        /* \"ComplaintSystem.sol\":1053:1063  msg.sender */\n      caller\n        /* \"ComplaintSystem.sol\":1045:1064  isAdmin[msg.sender] */\n      0xffffffffffffffffffffffffffffffffffffffff\n      and\n      0xffffffffffffffffffffffffffffffffffffffff\n      and\n      dup2\n      mstore\n      0x20\n      add\n      swap1\n      dup2\n      mstore\n      0x20\n      add\n      0x00\n      keccak256\n      0x00\n      swap1\n      sload\n      swap1\n      0x0100\n      exp\n      swap1\n      div\n      0xff\n      and\n        /* \"ComplaintSystem.sol\":1037:1102  require(isAdmin[msg.sender], \"Only admin can call this function\") */\n      tag_277\n      jumpi\n      mload(0x40)\n      0x08c379a000000000000000000000000000000000000000000000000000000000\n      dup2\n      mstore\n      0x04\n      add\n      tag_278\n      swap1\n      tag_155\n      jump\t// in\n    tag_278:\n      mload(0x40)\n      dup1\n      swap2\n      sub\n      swap1\n      revert\n    tag_277:\n        /* \"ComplaintSystem.sol\":3071:3078  replies */\n      0x06\n        /* \"ComplaintSystem.sol\":3071:3092  replies[_complaintId] */\n      0x00\n        /* \"ComplaintSystem.sol\":3079:3091  _complaintId */\n      dup4\n        /* \"ComplaintSystem.sol\":3071:3092  replies[_complaintId] */\n      dup2\n      mstore\n      0x20\n      add\n      swap1\n      dup2\n      mstore\n      0x20\n      add\n      0x00\n      keccak256\n        /* \"ComplaintSystem.sol\":3098:3144  Reply(msg.sender, _replyText, block.timestamp) */\n      mload(0x40)\n      dup1\n      0x60\n      add\n      0x40\n      mstore\n      dup1\n        /* \"ComplaintSystem.sol\":3104:3114  msg.sender */\n      caller\n        /* \"ComplaintSystem.sol\":3098:3144  Reply(msg.sender, _replyText, block.timestamp) */\n      0xffffffffffffffffffffffffffffffffffffffff\n      and\n      dup2\n      mstore\n      0x20\n      add\n        /* \"ComplaintSystem.sol\":3116:3126  _replyText */\n      dup4\n        /* \"ComplaintSystem.sol\":3098:3144  Reply(msg.sender, _replyText, block.timestamp) */\n      dup2\n      mstore\n      0x20\n      add\n        /* \"ComplaintSystem.sol\":3128:3143  block.timestamp */\n      timestamp\n        /* \"ComplaintSystem.sol\":3098:3144  Reply(msg.sender, _replyText, block.timestamp) */\n      dup2\n      mstore\n      pop\n        /* \"ComplaintSystem.sol\":3071:3145  replies[_complaintId].push(Reply(msg.sender, _replyText, block.timestamp)) */\n      swap1\n      dup1\n      0x01\n      dup2\n      sload\n      add\n      dup1\n      dup3\n      sstore\n      dup1\n      swap2\n      pop\n      pop\n      0x01\n      swap1\n      sub\n      swap1\n      0x00\n      mstore\n      keccak256(0x00, 0x20)\n      swap1\n      0x03\n      mul\n      add\n      0x00\n      swap1\n      swap2\n      swap1\n      swap2\n      swap1\n      swap2\n      pop\n      0x00\n      dup3\n      add\n      mload\n      dup2\n      0x00\n      add\n      exp(0x0100, 0x00)\n      dup2\n      sload\n      dup2\n      0xffffffffffffffffffffffffffffffffffffffff\n      mul\n      not\n      and\n      swap1\n      dup4\n      0xffffffffffffffffffffffffffffffffffffffff\n      and\n      mul\n      or\n      swap1\n      sstore\n      pop\n      0x20\n      dup3\n      add\n      mload\n      dup2\n      0x01\n      add\n      swap1\n      dup2\n      tag_281\n      swap2\n      swap1\n      tag_108\n      jump\t// in\n    tag_281:\n      pop\n      0x40\n      dup3\n      add\n      mload\n      dup2\n      0x02\n      add\n      sstore\n      pop\n      pop\n        /* \"ComplaintSystem.sol\":3161:3229  TransactionAdded(_complaintId, msg.sender, \"reply\", block.timestamp) */\n      0x70acc6ca6341bab0b9c04df16281d0d498328dc28b62dc6950f9619e291381ec\n        /* \"ComplaintSystem.sol\":3178:3190  _complaintId */\n      dup3\n        /* \"ComplaintSystem.sol\":3192:3202  msg.sender */\n      caller\n        /* \"ComplaintSystem.sol\":3213:3228  block.timestamp */\n      timestamp\n        /* \"ComplaintSystem.sol\":3161:3229  TransactionAdded(_complaintId, msg.sender, \"reply\", block.timestamp) */\n      mload(0x40)\n      tag_282\n      swap4\n      swap3\n      swap2\n      swap1\n      tag_283\n      jump\t// in\n    tag_282:\n      mload(0x40)\n      dup1\n      swap2\n      sub\n      swap1\n      log1\n        /* \"ComplaintSystem.sol\":2970:3237  function replyToComplaint(uint _complaintId, string memory _replyText) external onlyAdmin {... */\n      pop\n      pop\n      jump\t// out\n        /* \"ComplaintSystem.sol\":3245:3568  function _addTransaction(uint _complaintId, address _accessor, Action _actionType) internal {... */\n    tag_169:\n        /* \"ComplaintSystem.sol\":3348:3360  transactions */\n      0x05\n        /* \"ComplaintSystem.sol\":3348:3374  transactions[_complaintId] */\n      0x00\n        /* \"ComplaintSystem.sol\":3361:3373  _complaintId */\n      dup5\n        /* \"ComplaintSystem.sol\":3348:3374  transactions[_complaintId] */\n      dup2\n      mstore\n      0x20\n      add\n      swap1\n      dup2\n      mstore\n      0x20\n      add\n      0x00\n      keccak256\n        /* \"ComplaintSystem.sol\":3380:3432  Transaction(_accessor, _actionType, block.timestamp) */\n      mload(0x40)\n      dup1\n      0x60\n      add\n      0x40\n      mstore\n      dup1\n        /* \"ComplaintSystem.sol\":3392:3401  _accessor */\n      dup5\n        /* \"ComplaintSystem.sol\":3380:3432  Transaction(_accessor, _actionType, block.timestamp) */\n      0xffffffffffffffffffffffffffffffffffffffff\n      and\n      dup2\n      mstore\n      0x20\n      add\n        /* \"ComplaintSystem.sol\":3403:3414  _actionType */\n      dup4\n        /* \"ComplaintSystem.sol\":3380:3432  Transaction(_accessor, _actionType, block.timestamp) */\n      0x02\n      dup2\n      gt\n      iszero\n      tag_285\n      jumpi\n      tag_286\n      tag_106\n      jump\t// in\n    tag_286:\n    tag_285:\n      dup2\n      mstore\n      0x20\n      add\n        /* \"ComplaintSystem.sol\":3416:3431  block.timestamp */\n      timestamp\n        /* \"ComplaintSystem.sol\":3380:3432  Transaction(_accessor, _actionType, block.timestamp) */\n      dup2\n      mstore\n      pop\n        /* \"ComplaintSystem.sol\":3348:3433  transactions[_complaintId].push(Transaction(_accessor, _actionType, block.timestamp)) */\n      swap1\n      dup1\n      0x01\n      dup2\n      sload\n      add\n      dup1\n      dup3\n      sstore\n      dup1\n      swap2\n      pop\n      pop\n      0x01\n      swap1\n      sub\n      swap1\n      0x00\n      mstore\n      keccak256(0x00, 0x20)\n      swap1\n      0x02\n      mul\n      add\n      0x00\n      swap1\n      swap2\n      swap1\n      swap2\n      swap1\n      swap2\n      pop\n      0x00\n      dup3\n      add\n      mload\n      dup2\n      0x00\n      add\n      exp(0x0100, 0x00)\n      dup2\n      sload\n      dup2\n      0xffffffffffffffffffffffffffffffffffffffff\n      mul\n      not\n      and\n      swap1\n      dup4\n      0xffffffffffffffffffffffffffffffffffffffff\n      and\n      mul\n      or\n      swap1\n      sstore\n      pop\n      0x20\n      dup3\n      add\n      mload\n      dup2\n      0x00\n      add\n      exp(0x0100, 0x14)\n      dup2\n      sload\n      dup2\n      0xff\n      mul\n      not\n      and\n      swap1\n      dup4\n      0x02\n      dup2\n      gt\n      iszero\n      tag_288\n      jumpi\n      tag_289\n      tag_106\n      jump\t// in\n    tag_289:\n    tag_288:\n      mul\n      or\n      swap1\n      sstore\n      pop\n      0x40\n      dup3\n      add\n      mload\n      dup2\n      0x01\n      add\n      sstore\n      pop\n      pop\n        /* \"ComplaintSystem.sol\":3449:3560  TransactionAdded(_complaintId, _accessor, _actionType == Action.Access ? \"access\" : \"resolve\", block.timestamp) */\n      0x70acc6ca6341bab0b9c04df16281d0d498328dc28b62dc6950f9619e291381ec\n        /* \"ComplaintSystem.sol\":3466:3478  _complaintId */\n      dup4\n        /* \"ComplaintSystem.sol\":3480:3489  _accessor */\n      dup4\n        /* \"ComplaintSystem.sol\":3506:3519  Action.Access */\n      0x00\n        /* \"ComplaintSystem.sol\":3491:3519  _actionType == Action.Access */\n      0x02\n      dup2\n      gt\n      iszero\n      tag_290\n      jumpi\n      tag_291\n      tag_106\n      jump\t// in\n    tag_291:\n    tag_290:\n        /* \"ComplaintSystem.sol\":3491:3502  _actionType */\n      dup5\n        /* \"ComplaintSystem.sol\":3491:3519  _actionType == Action.Access */\n      0x02\n      dup2\n      gt\n      iszero\n      tag_292\n      jumpi\n      tag_293\n      tag_106\n      jump\t// in\n    tag_293:\n    tag_292:\n      eq\n        /* \"ComplaintSystem.sol\":3491:3542  _actionType == Action.Access ? \"access\" : \"resolve\" */\n      tag_294\n      jumpi\n      mload(0x40)\n      dup1\n      0x40\n      add\n      0x40\n      mstore\n      dup1\n      0x07\n      dup2\n      mstore\n      0x20\n      add\n      0x7265736f6c766500000000000000000000000000000000000000000000000000\n      dup2\n      mstore\n      pop\n      jump(tag_295)\n    tag_294:\n      mload(0x40)\n      dup1\n      0x40\n      add\n      0x40\n      mstore\n      dup1\n      0x06\n      dup2\n      mstore\n      0x20\n      add\n      0x6163636573730000000000000000000000000000000000000000000000000000\n      dup2\n      mstore\n      pop\n    tag_295:\n        /* \"ComplaintSystem.sol\":3544:3559  block.timestamp */\n      timestamp\n        /* \"ComplaintSystem.sol\":3449:3560  TransactionAdded(_complaintId, _accessor, _actionType == Action.Access ? \"access\" : \"resolve\", block.timestamp) */\n      mload(0x40)\n      tag_296\n      swap5\n      swap4\n      swap3\n      swap2\n      swap1\n      tag_297\n      jump\t// in\n    tag_296:\n      mload(0x40)\n      dup1\n      swap2\n      sub\n      swap1\n      log1\n        /* \"ComplaintSystem.sol\":3245:3568  function _addTransaction(uint _complaintId, address _accessor, Action _actionType) internal {... */\n      pop\n      pop\n      pop\n      jump\t// out\n    tag_124:\n      mload(0x40)\n      dup1\n      0x60\n      add\n      0x40\n      mstore\n      dup1\n      and(0xffffffffffffffffffffffffffffffffffffffff, 0x00)\n      dup2\n      mstore\n      0x20\n      add\n      0x60\n      dup2\n      mstore\n      0x20\n      add\n      0x00\n      dup2\n      mstore\n      pop\n      swap1\n      jump\t// out\n    tag_187:\n      mload(0x40)\n      dup1\n      0xa0\n      add\n      0x40\n      mstore\n      dup1\n      0x00\n      dup2\n      mstore\n      0x20\n      add\n      and(0xffffffffffffffffffffffffffffffffffffffff, 0x00)\n      dup2\n      mstore\n      0x20\n      add\n      0x60\n      dup2\n      mstore\n      0x20\n      add\n      0x00\n      0x01\n      dup2\n      gt\n      iszero\n      tag_298\n      jumpi\n      tag_299\n      tag_106\n      jump\t// in\n    tag_299:\n    tag_298:\n      dup2\n      mstore\n      0x20\n      add\n      tag_300\n      tag_301\n      jump\t// in\n    tag_300:\n      dup2\n      mstore\n      pop\n      swap1\n      jump\t// out\n    tag_301:\n      mload(0x40)\n      dup1\n      0x40\n      add\n      0x40\n      mstore\n      dup1\n      0x60\n      dup2\n      mstore\n      0x20\n      add\n      0x60\n      dup2\n      mstore\n      pop\n      swap1\n      jump\t// out\n        /* \"#utility.yul\":7:82   */\n    tag_302:\n        /* \"#utility.yul\":40:46   */\n      0x00\n        /* \"#utility.yul\":73:75   */\n      0x40\n        /* \"#utility.yul\":67:76   */\n      mload\n        /* \"#utility.yul\":57:76   */\n      swap1\n      pop\n        /* \"#utility.yul\":7:82   */\n      swap1\n      jump\t// out\n        /* \"#utility.yul\":88:205   */\n    tag_303:\n        /* \"#utility.yul\":197:198   */\n      0x00\n        /* \"#utility.yul\":194:195   */\n      dup1\n        /* \"#utility.yul\":187:199   */\n      revert\n        /* \"#utility.yul\":211:328   */\n    tag_304:\n        /* \"#utility.yul\":320:321   */\n      0x00\n        /* \"#utility.yul\":317:318   */\n      dup1\n        /* \"#utility.yul\":310:322   */\n      revert\n        /* \"#utility.yul\":334:451   */\n    tag_305:\n        /* \"#utility.yul\":443:444   */\n      0x00\n        /* \"#utility.yul\":440:441   */\n      dup1\n        /* \"#utility.yul\":433:445   */\n      revert\n        /* \"#utility.yul\":457:574   */\n    tag_306:\n        /* \"#utility.yul\":566:567   */\n      0x00\n        /* \"#utility.yul\":563:564   */\n      dup1\n        /* \"#utility.yul\":556:568   */\n      revert\n        /* \"#utility.yul\":580:682   */\n    tag_307:\n        /* \"#utility.yul\":621:627   */\n      0x00\n        /* \"#utility.yul\":672:674   */\n      0x1f\n        /* \"#utility.yul\":668:675   */\n      not\n        /* \"#utility.yul\":663:665   */\n      0x1f\n        /* \"#utility.yul\":656:661   */\n      dup4\n        /* \"#utility.yul\":652:666   */\n      add\n        /* \"#utility.yul\":648:676   */\n      and\n        /* \"#utility.yul\":638:676   */\n      swap1\n      pop\n        /* \"#utility.yul\":580:682   */\n      swap2\n      swap1\n      pop\n      jump\t// out\n        /* \"#utility.yul\":688:868   */\n    tag_120:\n        /* \"#utility.yul\":736:813   */\n      0x4e487b7100000000000000000000000000000000000000000000000000000000\n        /* \"#utility.yul\":733:734   */\n      0x00\n        /* \"#utility.yul\":726:814   */\n      mstore\n        /* \"#utility.yul\":833:837   */\n      0x41\n        /* \"#utility.yul\":830:831   */\n      0x04\n        /* \"#utility.yul\":823:838   */\n      mstore\n        /* \"#utility.yul\":857:861   */\n      0x24\n        /* \"#utility.yul\":854:855   */\n      0x00\n        /* \"#utility.yul\":847:862   */\n      revert\n        /* \"#utility.yul\":874:1155   */\n    tag_308:\n        /* \"#utility.yul\":957:984   */\n      tag_394\n        /* \"#utility.yul\":979:983   */\n      dup3\n        /* \"#utility.yul\":957:984   */\n      tag_307\n      jump\t// in\n    tag_394:\n        /* \"#utility.yul\":949:955   */\n      dup2\n        /* \"#utility.yul\":945:985   */\n      add\n        /* \"#utility.yul\":1087:1093   */\n      dup2\n        /* \"#utility.yul\":1075:1085   */\n      dup2\n        /* \"#utility.yul\":1072:1094   */\n      lt\n        /* \"#utility.yul\":1051:1069   */\n      0xffffffffffffffff\n        /* \"#utility.yul\":1039:1049   */\n      dup3\n        /* \"#utility.yul\":1036:1070   */\n      gt\n        /* \"#utility.yul\":1033:1095   */\n      or\n        /* \"#utility.yul\":1030:1118   */\n      iszero\n      tag_395\n      jumpi\n        /* \"#utility.yul\":1098:1116   */\n      tag_396\n      tag_120\n      jump\t// in\n    tag_396:\n        /* \"#utility.yul\":1030:1118   */\n    tag_395:\n        /* \"#utility.yul\":1138:1148   */\n      dup1\n        /* \"#utility.yul\":1134:1136   */\n      0x40\n        /* \"#utility.yul\":1127:1149   */\n      mstore\n        /* \"#utility.yul\":917:1155   */\n      pop\n        /* \"#utility.yul\":874:1155   */\n      pop\n      pop\n      jump\t// out\n        /* \"#utility.yul\":1161:1290   */\n    tag_309:\n        /* \"#utility.yul\":1195:1201   */\n      0x00\n        /* \"#utility.yul\":1222:1242   */\n      tag_398\n      tag_302\n      jump\t// in\n    tag_398:\n        /* \"#utility.yul\":1212:1242   */\n      swap1\n      pop\n        /* \"#utility.yul\":1251:1284   */\n      tag_399\n        /* \"#utility.yul\":1279:1283   */\n      dup3\n        /* \"#utility.yul\":1271:1277   */\n      dup3\n        /* \"#utility.yul\":1251:1284   */\n      tag_308\n      jump\t// in\n    tag_399:\n        /* \"#utility.yul\":1161:1290   */\n      swap2\n      swap1\n      pop\n      jump\t// out\n        /* \"#utility.yul\":1296:1604   */\n    tag_310:\n        /* \"#utility.yul\":1358:1362   */\n      0x00\n        /* \"#utility.yul\":1448:1466   */\n      0xffffffffffffffff\n        /* \"#utility.yul\":1440:1446   */\n      dup3\n        /* \"#utility.yul\":1437:1467   */\n      gt\n        /* \"#utility.yul\":1434:1490   */\n      iszero\n      tag_401\n      jumpi\n        /* \"#utility.yul\":1470:1488   */\n      tag_402\n      tag_120\n      jump\t// in\n    tag_402:\n        /* \"#utility.yul\":1434:1490   */\n    tag_401:\n        /* \"#utility.yul\":1508:1537   */\n      tag_403\n        /* \"#utility.yul\":1530:1536   */\n      dup3\n        /* \"#utility.yul\":1508:1537   */\n      tag_307\n      jump\t// in\n    tag_403:\n        /* \"#utility.yul\":1500:1537   */\n      swap1\n      pop\n        /* \"#utility.yul\":1592:1596   */\n      0x20\n        /* \"#utility.yul\":1586:1590   */\n      dup2\n        /* \"#utility.yul\":1582:1597   */\n      add\n        /* \"#utility.yul\":1574:1597   */\n      swap1\n      pop\n        /* \"#utility.yul\":1296:1604   */\n      swap2\n      swap1\n      pop\n      jump\t// out\n        /* \"#utility.yul\":1610:1758   */\n    tag_311:\n        /* \"#utility.yul\":1708:1714   */\n      dup3\n        /* \"#utility.yul\":1703:1706   */\n      dup2\n        /* \"#utility.yul\":1698:1701   */\n      dup4\n        /* \"#utility.yul\":1685:1715   */\n      calldatacopy\n        /* \"#utility.yul\":1749:1750   */\n      0x00\n        /* \"#utility.yul\":1740:1746   */\n      dup4\n        /* \"#utility.yul\":1735:1738   */\n      dup4\n        /* \"#utility.yul\":1731:1747   */\n      add\n        /* \"#utility.yul\":1724:1751   */\n      mstore\n        /* \"#utility.yul\":1610:1758   */\n      pop\n      pop\n      pop\n      jump\t// out\n        /* \"#utility.yul\":1764:2189   */\n    tag_312:\n        /* \"#utility.yul\":1842:1847   */\n      0x00\n        /* \"#utility.yul\":1867:1933   */\n      tag_406\n        /* \"#utility.yul\":1883:1932   */\n      tag_407\n        /* \"#utility.yul\":1925:1931   */\n      dup5\n        /* \"#utility.yul\":1883:1932   */\n      tag_310\n      jump\t// in\n    tag_407:\n        /* \"#utility.yul\":1867:1933   */\n      tag_309\n      jump\t// in\n    tag_406:\n        /* \"#utility.yul\":1858:1933   */\n      swap1\n      pop\n        /* \"#utility.yul\":1956:1962   */\n      dup3\n        /* \"#utility.yul\":1949:1954   */\n      dup2\n        /* \"#utility.yul\":1942:1963   */\n      mstore\n        /* \"#utility.yul\":1994:1998   */\n      0x20\n        /* \"#utility.yul\":1987:1992   */\n      dup2\n        /* \"#utility.yul\":1983:1999   */\n      add\n        /* \"#utility.yul\":2032:2035   */\n      dup5\n        /* \"#utility.yul\":2023:2029   */\n      dup5\n        /* \"#utility.yul\":2018:2021   */\n      dup5\n        /* \"#utility.yul\":2014:2030   */\n      add\n        /* \"#utility.yul\":2011:2036   */\n      gt\n        /* \"#utility.yul\":2008:2120   */\n      iszero\n      tag_408\n      jumpi\n        /* \"#utility.yul\":2039:2118   */\n      tag_409\n      tag_306\n      jump\t// in\n    tag_409:\n        /* \"#utility.yul\":2008:2120   */\n    tag_408:\n        /* \"#utility.yul\":2129:2183   */\n      tag_410\n        /* \"#utility.yul\":2176:2182   */\n      dup5\n        /* \"#utility.yul\":2171:2174   */\n      dup3\n        /* \"#utility.yul\":2166:2169   */\n      dup6\n        /* \"#utility.yul\":2129:2183   */\n      tag_311\n      jump\t// in\n    tag_410:\n        /* \"#utility.yul\":1848:2189   */\n      pop\n        /* \"#utility.yul\":1764:2189   */\n      swap4\n      swap3\n      pop\n      pop\n      pop\n      jump\t// out\n        /* \"#utility.yul\":2209:2549   */\n    tag_313:\n        /* \"#utility.yul\":2265:2270   */\n      0x00\n        /* \"#utility.yul\":2314:2317   */\n      dup3\n        /* \"#utility.yul\":2307:2311   */\n      0x1f\n        /* \"#utility.yul\":2299:2305   */\n      dup4\n        /* \"#utility.yul\":2295:2312   */\n      add\n        /* \"#utility.yul\":2291:2318   */\n      slt\n        /* \"#utility.yul\":2281:2403   */\n      tag_412\n      jumpi\n        /* \"#utility.yul\":2322:2401   */\n      tag_413\n      tag_305\n      jump\t// in\n    tag_413:\n        /* \"#utility.yul\":2281:2403   */\n    tag_412:\n        /* \"#utility.yul\":2439:2445   */\n      dup2\n        /* \"#utility.yul\":2426:2446   */\n      calldataload\n        /* \"#utility.yul\":2464:2543   */\n      tag_414\n        /* \"#utility.yul\":2539:2542   */\n      dup5\n        /* \"#utility.yul\":2531:2537   */\n      dup3\n        /* \"#utility.yul\":2524:2528   */\n      0x20\n        /* \"#utility.yul\":2516:2522   */\n      dup7\n        /* \"#utility.yul\":2512:2529   */\n      add\n        /* \"#utility.yul\":2464:2543   */\n      tag_312\n      jump\t// in\n    tag_414:\n        /* \"#utility.yul\":2455:2543   */\n      swap2\n      pop\n        /* \"#utility.yul\":2271:2549   */\n      pop\n        /* \"#utility.yul\":2209:2549   */\n      swap3\n      swap2\n      pop\n      pop\n      jump\t// out\n        /* \"#utility.yul\":2555:3714   */\n    tag_25:\n        /* \"#utility.yul\":2662:2668   */\n      0x00\n        /* \"#utility.yul\":2670:2676   */\n      dup1\n        /* \"#utility.yul\":2678:2684   */\n      0x00\n        /* \"#utility.yul\":2727:2729   */\n      0x60\n        /* \"#utility.yul\":2715:2724   */\n      dup5\n        /* \"#utility.yul\":2706:2713   */\n      dup7\n        /* \"#utility.yul\":2702:2725   */\n      sub\n        /* \"#utility.yul\":2698:2730   */\n      slt\n        /* \"#utility.yul\":2695:2814   */\n      iszero\n      tag_416\n      jumpi\n        /* \"#utility.yul\":2733:2812   */\n      tag_417\n      tag_303\n      jump\t// in\n    tag_417:\n        /* \"#utility.yul\":2695:2814   */\n    tag_416:\n        /* \"#utility.yul\":2881:2882   */\n      0x00\n        /* \"#utility.yul\":2870:2879   */\n      dup5\n        /* \"#utility.yul\":2866:2883   */\n      add\n        /* \"#utility.yul\":2853:2884   */\n      calldataload\n        /* \"#utility.yul\":2911:2929   */\n      0xffffffffffffffff\n        /* \"#utility.yul\":2903:2909   */\n      dup2\n        /* \"#utility.yul\":2900:2930   */\n      gt\n        /* \"#utility.yul\":2897:3014   */\n      iszero\n      tag_418\n      jumpi\n        /* \"#utility.yul\":2933:3012   */\n      tag_419\n      tag_304\n      jump\t// in\n    tag_419:\n        /* \"#utility.yul\":2897:3014   */\n    tag_418:\n        /* \"#utility.yul\":3038:3101   */\n      tag_420\n        /* \"#utility.yul\":3093:3100   */\n      dup7\n        /* \"#utility.yul\":3084:3090   */\n      dup3\n        /* \"#utility.yul\":3073:3082   */\n      dup8\n        /* \"#utility.yul\":3069:3091   */\n      add\n        /* \"#utility.yul\":3038:3101   */\n      tag_313\n      jump\t// in\n    tag_420:\n        /* \"#utility.yul\":3028:3101   */\n      swap4\n      pop\n        /* \"#utility.yul\":2824:3111   */\n      pop\n        /* \"#utility.yul\":3178:3180   */\n      0x20\n        /* \"#utility.yul\":3167:3176   */\n      dup5\n        /* \"#utility.yul\":3163:3181   */\n      add\n        /* \"#utility.yul\":3150:3182   */\n      calldataload\n        /* \"#utility.yul\":3209:3227   */\n      0xffffffffffffffff\n        /* \"#utility.yul\":3201:3207   */\n      dup2\n        /* \"#utility.yul\":3198:3228   */\n      gt\n        /* \"#utility.yul\":3195:3312   */\n      iszero\n      tag_421\n      jumpi\n        /* \"#utility.yul\":3231:3310   */\n      tag_422\n      tag_304\n      jump\t// in\n    tag_422:\n        /* \"#utility.yul\":3195:3312   */\n    tag_421:\n        /* \"#utility.yul\":3336:3399   */\n      tag_423\n        /* \"#utility.yul\":3391:3398   */\n      dup7\n        /* \"#utility.yul\":3382:3388   */\n      dup3\n        /* \"#utility.yul\":3371:3380   */\n      dup8\n        /* \"#utility.yul\":3367:3389   */\n      add\n        /* \"#utility.yul\":3336:3399   */\n      tag_313\n      jump\t// in\n    tag_423:\n        /* \"#utility.yul\":3326:3399   */\n      swap3\n      pop\n        /* \"#utility.yul\":3121:3409   */\n      pop\n        /* \"#utility.yul\":3476:3478   */\n      0x40\n        /* \"#utility.yul\":3465:3474   */\n      dup5\n        /* \"#utility.yul\":3461:3479   */\n      add\n        /* \"#utility.yul\":3448:3480   */\n      calldataload\n        /* \"#utility.yul\":3507:3525   */\n      0xffffffffffffffff\n        /* \"#utility.yul\":3499:3505   */\n      dup2\n        /* \"#utility.yul\":3496:3526   */\n      gt\n        /* \"#utility.yul\":3493:3610   */\n      iszero\n      tag_424\n      jumpi\n        /* \"#utility.yul\":3529:3608   */\n      tag_425\n      tag_304\n      jump\t// in\n    tag_425:\n        /* \"#utility.yul\":3493:3610   */\n    tag_424:\n        /* \"#utility.yul\":3634:3697   */\n      tag_426\n        /* \"#utility.yul\":3689:3696   */\n      dup7\n        /* \"#utility.yul\":3680:3686   */\n      dup3\n        /* \"#utility.yul\":3669:3678   */\n      dup8\n        /* \"#utility.yul\":3665:3687   */\n      add\n        /* \"#utility.yul\":3634:3697   */\n      tag_313\n      jump\t// in\n    tag_426:\n        /* \"#utility.yul\":3624:3697   */\n      swap2\n      pop\n        /* \"#utility.yul\":3419:3707   */\n      pop\n        /* \"#utility.yul\":2555:3714   */\n      swap3\n      pop\n      swap3\n      pop\n      swap3\n      jump\t// out\n        /* \"#utility.yul\":3720:3797   */\n    tag_314:\n        /* \"#utility.yul\":3757:3764   */\n      0x00\n        /* \"#utility.yul\":3786:3791   */\n      dup2\n        /* \"#utility.yul\":3775:3791   */\n      swap1\n      pop\n        /* \"#utility.yul\":3720:3797   */\n      swap2\n      swap1\n      pop\n      jump\t// out\n        /* \"#utility.yul\":3803:3925   */\n    tag_315:\n        /* \"#utility.yul\":3876:3900   */\n      tag_429\n        /* \"#utility.yul\":3894:3899   */\n      dup2\n        /* \"#utility.yul\":3876:3900   */\n      tag_314\n      jump\t// in\n    tag_429:\n        /* \"#utility.yul\":3869:3874   */\n      dup2\n        /* \"#utility.yul\":3866:3901   */\n      eq\n        /* \"#utility.yul\":3856:3919   */\n      tag_430\n      jumpi\n        /* \"#utility.yul\":3915:3916   */\n      0x00\n        /* \"#utility.yul\":3912:3913   */\n      dup1\n        /* \"#utility.yul\":3905:3917   */\n      revert\n        /* \"#utility.yul\":3856:3919   */\n    tag_430:\n        /* \"#utility.yul\":3803:3925   */\n      pop\n      jump\t// out\n        /* \"#utility.yul\":3931:4070   */\n    tag_316:\n        /* \"#utility.yul\":3977:3982   */\n      0x00\n        /* \"#utility.yul\":4015:4021   */\n      dup2\n        /* \"#utility.yul\":4002:4022   */\n      calldataload\n        /* \"#utility.yul\":3993:4022   */\n      swap1\n      pop\n        /* \"#utility.yul\":4031:4064   */\n      tag_432\n        /* \"#utility.yul\":4058:4063   */\n      dup2\n        /* \"#utility.yul\":4031:4064   */\n      tag_315\n      jump\t// in\n    tag_432:\n        /* \"#utility.yul\":3931:4070   */\n      swap3\n      swap2\n      pop\n      pop\n      jump\t// out\n        /* \"#utility.yul\":4076:4405   */\n    tag_29:\n        /* \"#utility.yul\":4135:4141   */\n      0x00\n        /* \"#utility.yul\":4184:4186   */\n      0x20\n        /* \"#utility.yul\":4172:4181   */\n      dup3\n        /* \"#utility.yul\":4163:4170   */\n      dup5\n        /* \"#utility.yul\":4159:4182   */\n      sub\n        /* \"#utility.yul\":4155:4187   */\n      slt\n        /* \"#utility.yul\":4152:4271   */\n      iszero\n      tag_434\n      jumpi\n        /* \"#utility.yul\":4190:4269   */\n      tag_435\n      tag_303\n      jump\t// in\n    tag_435:\n        /* \"#utility.yul\":4152:4271   */\n    tag_434:\n        /* \"#utility.yul\":4310:4311   */\n      0x00\n        /* \"#utility.yul\":4335:4388   */\n      tag_436\n        /* \"#utility.yul\":4380:4387   */\n      dup5\n        /* \"#utility.yul\":4371:4377   */\n      dup3\n        /* \"#utility.yul\":4360:4369   */\n      dup6\n        /* \"#utility.yul\":4356:4378   */\n      add\n        /* \"#utility.yul\":4335:4388   */\n      tag_316\n      jump\t// in\n    tag_436:\n        /* \"#utility.yul\":4325:4388   */\n      swap2\n      pop\n        /* \"#utility.yul\":4281:4398   */\n      pop\n        /* \"#utility.yul\":4076:4405   */\n      swap3\n      swap2\n      pop\n      pop\n      jump\t// out\n        /* \"#utility.yul\":4411:4537   */\n    tag_317:\n        /* \"#utility.yul\":4448:4455   */\n      0x00\n        /* \"#utility.yul\":4488:4530   */\n      0xffffffffffffffffffffffffffffffffffffffff\n        /* \"#utility.yul\":4481:4486   */\n      dup3\n        /* \"#utility.yul\":4477:4531   */\n      and\n        /* \"#utility.yul\":4466:4531   */\n      swap1\n      pop\n        /* \"#utility.yul\":4411:4537   */\n      swap2\n      swap1\n      pop\n      jump\t// out\n        /* \"#utility.yul\":4543:4639   */\n    tag_318:\n        /* \"#utility.yul\":4580:4587   */\n      0x00\n        /* \"#utility.yul\":4609:4633   */\n      tag_439\n        /* \"#utility.yul\":4627:4632   */\n      dup3\n        /* \"#utility.yul\":4609:4633   */\n      tag_317\n      jump\t// in\n    tag_439:\n        /* \"#utility.yul\":4598:4633   */\n      swap1\n      pop\n        /* \"#utility.yul\":4543:4639   */\n      swap2\n      swap1\n      pop\n      jump\t// out\n        /* \"#utility.yul\":4645:4763   */\n    tag_319:\n        /* \"#utility.yul\":4732:4756   */\n      tag_441\n        /* \"#utility.yul\":4750:4755   */\n      dup2\n        /* \"#utility.yul\":4732:4756   */\n      tag_318\n      jump\t// in\n    tag_441:\n        /* \"#utility.yul\":4727:4730   */\n      dup3\n        /* \"#utility.yul\":4720:4757   */\n      mstore\n        /* \"#utility.yul\":4645:4763   */\n      pop\n      pop\n      jump\t// out\n        /* \"#utility.yul\":4769:4991   */\n    tag_32:\n        /* \"#utility.yul\":4862:4866   */\n      0x00\n        /* \"#utility.yul\":4900:4902   */\n      0x20\n        /* \"#utility.yul\":4889:4898   */\n      dup3\n        /* \"#utility.yul\":4885:4903   */\n      add\n        /* \"#utility.yul\":4877:4903   */\n      swap1\n      pop\n        /* \"#utility.yul\":4913:4984   */\n      tag_443\n        /* \"#utility.yul\":4981:4982   */\n      0x00\n        /* \"#utility.yul\":4970:4979   */\n      dup4\n        /* \"#utility.yul\":4966:4983   */\n      add\n        /* \"#utility.yul\":4957:4963   */\n      dup5\n        /* \"#utility.yul\":4913:4984   */\n      tag_319\n      jump\t// in\n    tag_443:\n        /* \"#utility.yul\":4769:4991   */\n      swap3\n      swap2\n      pop\n      pop\n      jump\t// out\n        /* \"#utility.yul\":4997:5119   */\n    tag_320:\n        /* \"#utility.yul\":5070:5094   */\n      tag_445\n        /* \"#utility.yul\":5088:5093   */\n      dup2\n        /* \"#utility.yul\":5070:5094   */\n      tag_318\n      jump\t// in\n    tag_445:\n        /* \"#utility.yul\":5063:5068   */\n      dup2\n        /* \"#utility.yul\":5060:5095   */\n      eq\n        /* \"#utility.yul\":5050:5113   */\n      tag_446\n      jumpi\n        /* \"#utility.yul\":5109:5110   */\n      0x00\n        /* \"#utility.yul\":5106:5107   */\n      dup1\n        /* \"#utility.yul\":5099:5111   */\n      revert\n        /* \"#utility.yul\":5050:5113   */\n    tag_446:\n        /* \"#utility.yul\":4997:5119   */\n      pop\n      jump\t// out\n        /* \"#utility.yul\":5125:5264   */\n    tag_321:\n        /* \"#utility.yul\":5171:5176   */\n      0x00\n        /* \"#utility.yul\":5209:5215   */\n      dup2\n        /* \"#utility.yul\":5196:5216   */\n      calldataload\n        /* \"#utility.yul\":5187:5216   */\n      swap1\n      pop\n        /* \"#utility.yul\":5225:5258   */\n      tag_448\n        /* \"#utility.yul\":5252:5257   */\n      dup2\n        /* \"#utility.yul\":5225:5258   */\n      tag_320\n      jump\t// in\n    tag_448:\n        /* \"#utility.yul\":5125:5264   */\n      swap3\n      swap2\n      pop\n      pop\n      jump\t// out\n        /* \"#utility.yul\":5270:5599   */\n    tag_35:\n        /* \"#utility.yul\":5329:5335   */\n      0x00\n        /* \"#utility.yul\":5378:5380   */\n      0x20\n        /* \"#utility.yul\":5366:5375   */\n      dup3\n        /* \"#utility.yul\":5357:5364   */\n      dup5\n        /* \"#utility.yul\":5353:5376   */\n      sub\n        /* \"#utility.yul\":5349:5381   */\n      slt\n        /* \"#utility.yul\":5346:5465   */\n      iszero\n      tag_450\n      jumpi\n        /* \"#utility.yul\":5384:5463   */\n      tag_451\n      tag_303\n      jump\t// in\n    tag_451:\n        /* \"#utility.yul\":5346:5465   */\n    tag_450:\n        /* \"#utility.yul\":5504:5505   */\n      0x00\n        /* \"#utility.yul\":5529:5582   */\n      tag_452\n        /* \"#utility.yul\":5574:5581   */\n      dup5\n        /* \"#utility.yul\":5565:5571   */\n      dup3\n        /* \"#utility.yul\":5554:5563   */\n      dup6\n        /* \"#utility.yul\":5550:5572   */\n      add\n        /* \"#utility.yul\":5529:5582   */\n      tag_321\n      jump\t// in\n    tag_452:\n        /* \"#utility.yul\":5519:5582   */\n      swap2\n      pop\n        /* \"#utility.yul\":5475:5592   */\n      pop\n        /* \"#utility.yul\":5270:5599   */\n      swap3\n      swap2\n      pop\n      pop\n      jump\t// out\n        /* \"#utility.yul\":5605:5740   */\n    tag_322:\n        /* \"#utility.yul\":5693:5699   */\n      0x00\n        /* \"#utility.yul\":5727:5732   */\n      dup2\n        /* \"#utility.yul\":5721:5733   */\n      mload\n        /* \"#utility.yul\":5711:5733   */\n      swap1\n      pop\n        /* \"#utility.yul\":5605:5740   */\n      swap2\n      swap1\n      pop\n      jump\t// out\n        /* \"#utility.yul\":5746:5951   */\n    tag_323:\n        /* \"#utility.yul\":5866:5877   */\n      0x00\n        /* \"#utility.yul\":5900:5906   */\n      dup3\n        /* \"#utility.yul\":5895:5898   */\n      dup3\n        /* \"#utility.yul\":5888:5907   */\n      mstore\n        /* \"#utility.yul\":5940:5944   */\n      0x20\n        /* \"#utility.yul\":5935:5938   */\n      dup3\n        /* \"#utility.yul\":5931:5945   */\n      add\n        /* \"#utility.yul\":5916:5945   */\n      swap1\n      pop\n        /* \"#utility.yul\":5746:5951   */\n      swap3\n      swap2\n      pop\n      pop\n      jump\t// out\n        /* \"#utility.yul\":5957:6110   */\n    tag_324:\n        /* \"#utility.yul\":6045:6049   */\n      0x00\n        /* \"#utility.yul\":6068:6071   */\n      dup2\n        /* \"#utility.yul\":6060:6071   */\n      swap1\n      pop\n        /* \"#utility.yul\":6098:6102   */\n      0x20\n        /* \"#utility.yul\":6093:6096   */\n      dup3\n        /* \"#utility.yul\":6089:6103   */\n      add\n        /* \"#utility.yul\":6081:6103   */\n      swap1\n      pop\n        /* \"#utility.yul\":5957:6110   */\n      swap2\n      swap1\n      pop\n      jump\t// out\n        /* \"#utility.yul\":6116:6224   */\n    tag_325:\n        /* \"#utility.yul\":6193:6217   */\n      tag_457\n        /* \"#utility.yul\":6211:6216   */\n      dup2\n        /* \"#utility.yul\":6193:6217   */\n      tag_318\n      jump\t// in\n    tag_457:\n        /* \"#utility.yul\":6188:6191   */\n      dup3\n        /* \"#utility.yul\":6181:6218   */\n      mstore\n        /* \"#utility.yul\":6116:6224   */\n      pop\n      pop\n      jump\t// out\n        /* \"#utility.yul\":6230:6329   */\n    tag_326:\n        /* \"#utility.yul\":6282:6288   */\n      0x00\n        /* \"#utility.yul\":6316:6321   */\n      dup2\n        /* \"#utility.yul\":6310:6322   */\n      mload\n        /* \"#utility.yul\":6300:6322   */\n      swap1\n      pop\n        /* \"#utility.yul\":6230:6329   */\n      swap2\n      swap1\n      pop\n      jump\t// out\n        /* \"#utility.yul\":6335:6494   */\n    tag_327:\n        /* \"#utility.yul\":6409:6420   */\n      0x00\n        /* \"#utility.yul\":6443:6449   */\n      dup3\n        /* \"#utility.yul\":6438:6441   */\n      dup3\n        /* \"#utility.yul\":6431:6450   */\n      mstore\n        /* \"#utility.yul\":6483:6487   */\n      0x20\n        /* \"#utility.yul\":6478:6481   */\n      dup3\n        /* \"#utility.yul\":6474:6488   */\n      add\n        /* \"#utility.yul\":6459:6488   */\n      swap1\n      pop\n        /* \"#utility.yul\":6335:6494   */\n      swap3\n      swap2\n      pop\n      pop\n      jump\t// out\n        /* \"#utility.yul\":6500:6639   */\n    tag_328:\n        /* \"#utility.yul\":6589:6595   */\n      dup3\n        /* \"#utility.yul\":6584:6587   */\n      dup2\n        /* \"#utility.yul\":6579:6582   */\n      dup4\n        /* \"#utility.yul\":6573:6596   */\n      mcopy\n        /* \"#utility.yul\":6630:6631   */\n      0x00\n        /* \"#utility.yul\":6621:6627   */\n      dup4\n        /* \"#utility.yul\":6616:6619   */\n      dup4\n        /* \"#utility.yul\":6612:6628   */\n      add\n        /* \"#utility.yul\":6605:6632   */\n      mstore\n        /* \"#utility.yul\":6500:6639   */\n      pop\n      pop\n      pop\n      jump\t// out\n        /* \"#utility.yul\":6645:7002   */\n    tag_329:\n        /* \"#utility.yul\":6723:6726   */\n      0x00\n        /* \"#utility.yul\":6751:6790   */\n      tag_462\n        /* \"#utility.yul\":6784:6789   */\n      dup3\n        /* \"#utility.yul\":6751:6790   */\n      tag_326\n      jump\t// in\n    tag_462:\n        /* \"#utility.yul\":6806:6867   */\n      tag_463\n        /* \"#utility.yul\":6860:6866   */\n      dup2\n        /* \"#utility.yul\":6855:6858   */\n      dup6\n        /* \"#utility.yul\":6806:6867   */\n      tag_327\n      jump\t// in\n    tag_463:\n        /* \"#utility.yul\":6799:6867   */\n      swap4\n      pop\n        /* \"#utility.yul\":6876:6941   */\n      tag_464\n        /* \"#utility.yul\":6934:6940   */\n      dup2\n        /* \"#utility.yul\":6929:6932   */\n      dup6\n        /* \"#utility.yul\":6922:6926   */\n      0x20\n        /* \"#utility.yul\":6915:6920   */\n      dup7\n        /* \"#utility.yul\":6911:6927   */\n      add\n        /* \"#utility.yul\":6876:6941   */\n      tag_328\n      jump\t// in\n    tag_464:\n        /* \"#utility.yul\":6966:6995   */\n      tag_465\n        /* \"#utility.yul\":6988:6994   */\n      dup2\n        /* \"#utility.yul\":6966:6995   */\n      tag_307\n      jump\t// in\n    tag_465:\n        /* \"#utility.yul\":6961:6964   */\n      dup5\n        /* \"#utility.yul\":6957:6996   */\n      add\n        /* \"#utility.yul\":6950:6996   */\n      swap2\n      pop\n        /* \"#utility.yul\":6727:7002   */\n      pop\n        /* \"#utility.yul\":6645:7002   */\n      swap3\n      swap2\n      pop\n      pop\n      jump\t// out\n        /* \"#utility.yul\":7008:7116   */\n    tag_330:\n        /* \"#utility.yul\":7085:7109   */\n      tag_467\n        /* \"#utility.yul\":7103:7108   */\n      dup2\n        /* \"#utility.yul\":7085:7109   */\n      tag_314\n      jump\t// in\n    tag_467:\n        /* \"#utility.yul\":7080:7083   */\n      dup3\n        /* \"#utility.yul\":7073:7110   */\n      mstore\n        /* \"#utility.yul\":7008:7116   */\n      pop\n      pop\n      jump\t// out\n        /* \"#utility.yul\":7190:7971   */\n    tag_331:\n        /* \"#utility.yul\":7291:7294   */\n      0x00\n        /* \"#utility.yul\":7327:7331   */\n      0x60\n        /* \"#utility.yul\":7322:7325   */\n      dup4\n        /* \"#utility.yul\":7318:7332   */\n      add\n        /* \"#utility.yul\":7423:7427   */\n      0x00\n        /* \"#utility.yul\":7416:7421   */\n      dup4\n        /* \"#utility.yul\":7412:7428   */\n      add\n        /* \"#utility.yul\":7406:7429   */\n      mload\n        /* \"#utility.yul\":7442:7505   */\n      tag_469\n        /* \"#utility.yul\":7499:7503   */\n      0x00\n        /* \"#utility.yul\":7494:7497   */\n      dup7\n        /* \"#utility.yul\":7490:7504   */\n      add\n        /* \"#utility.yul\":7476:7488   */\n      dup3\n        /* \"#utility.yul\":7442:7505   */\n      tag_325\n      jump\t// in\n    tag_469:\n        /* \"#utility.yul\":7342:7515   */\n      pop\n        /* \"#utility.yul\":7602:7606   */\n      0x20\n        /* \"#utility.yul\":7595:7600   */\n      dup4\n        /* \"#utility.yul\":7591:7607   */\n      add\n        /* \"#utility.yul\":7585:7608   */\n      mload\n        /* \"#utility.yul\":7655:7658   */\n      dup5\n        /* \"#utility.yul\":7649:7653   */\n      dup3\n        /* \"#utility.yul\":7645:7659   */\n      sub\n        /* \"#utility.yul\":7638:7642   */\n      0x20\n        /* \"#utility.yul\":7633:7636   */\n      dup7\n        /* \"#utility.yul\":7629:7643   */\n      add\n        /* \"#utility.yul\":7622:7660   */\n      mstore\n        /* \"#utility.yul\":7681:7754   */\n      tag_470\n        /* \"#utility.yul\":7749:7753   */\n      dup3\n        /* \"#utility.yul\":7735:7747   */\n      dup3\n        /* \"#utility.yul\":7681:7754   */\n      tag_329\n      jump\t// in\n    tag_470:\n        /* \"#utility.yul\":7673:7754   */\n      swap2\n      pop\n        /* \"#utility.yul\":7525:7765   */\n      pop\n        /* \"#utility.yul\":7852:7856   */\n      0x40\n        /* \"#utility.yul\":7845:7850   */\n      dup4\n        /* \"#utility.yul\":7841:7857   */\n      add\n        /* \"#utility.yul\":7835:7858   */\n      mload\n        /* \"#utility.yul\":7871:7934   */\n      tag_471\n        /* \"#utility.yul\":7928:7932   */\n      0x40\n        /* \"#utility.yul\":7923:7926   */\n      dup7\n        /* \"#utility.yul\":7919:7933   */\n      add\n        /* \"#utility.yul\":7905:7917   */\n      dup3\n        /* \"#utility.yul\":7871:7934   */\n      tag_330\n      jump\t// in\n    tag_471:\n        /* \"#utility.yul\":7775:7944   */\n      pop\n        /* \"#utility.yul\":7961:7965   */\n      dup1\n        /* \"#utility.yul\":7954:7965   */\n      swap2\n      pop\n        /* \"#utility.yul\":7296:7971   */\n      pop\n        /* \"#utility.yul\":7190:7971   */\n      swap3\n      swap2\n      pop\n      pop\n      jump\t// out\n        /* \"#utility.yul\":7977:8217   */\n    tag_332:\n        /* \"#utility.yul\":8088:8098   */\n      0x00\n        /* \"#utility.yul\":8123:8211   */\n      tag_473\n        /* \"#utility.yul\":8207:8210   */\n      dup4\n        /* \"#utility.yul\":8199:8205   */\n      dup4\n        /* \"#utility.yul\":8123:8211   */\n      tag_331\n      jump\t// in\n    tag_473:\n        /* \"#utility.yul\":8109:8211   */\n      swap1\n      pop\n        /* \"#utility.yul\":7977:8217   */\n      swap3\n      swap2\n      pop\n      pop\n      jump\t// out\n        /* \"#utility.yul\":8223:8357   */\n    tag_333:\n        /* \"#utility.yul\":8314:8318   */\n      0x00\n        /* \"#utility.yul\":8346:8350   */\n      0x20\n        /* \"#utility.yul\":8341:8344   */\n      dup3\n        /* \"#utility.yul\":8337:8351   */\n      add\n        /* \"#utility.yul\":8329:8351   */\n      swap1\n      pop\n        /* \"#utility.yul\":8223:8357   */\n      swap2\n      swap1\n      pop\n      jump\t// out\n        /* \"#utility.yul\":8435:9514   */\n    tag_334:\n        /* \"#utility.yul\":8596:8599   */\n      0x00\n        /* \"#utility.yul\":8625:8700   */\n      tag_476\n        /* \"#utility.yul\":8694:8699   */\n      dup3\n        /* \"#utility.yul\":8625:8700   */\n      tag_322\n      jump\t// in\n    tag_476:\n        /* \"#utility.yul\":8716:8823   */\n      tag_477\n        /* \"#utility.yul\":8816:8822   */\n      dup2\n        /* \"#utility.yul\":8811:8814   */\n      dup6\n        /* \"#utility.yul\":8716:8823   */\n      tag_323\n      jump\t// in\n    tag_477:\n        /* \"#utility.yul\":8709:8823   */\n      swap4\n      pop\n        /* \"#utility.yul\":8849:8852   */\n      dup4\n        /* \"#utility.yul\":8894:8898   */\n      0x20\n        /* \"#utility.yul\":8886:8892   */\n      dup3\n        /* \"#utility.yul\":8882:8899   */\n      mul\n        /* \"#utility.yul\":8877:8880   */\n      dup6\n        /* \"#utility.yul\":8873:8900   */\n      add\n        /* \"#utility.yul\":8924:9001   */\n      tag_478\n        /* \"#utility.yul\":8995:9000   */\n      dup6\n        /* \"#utility.yul\":8924:9001   */\n      tag_324\n      jump\t// in\n    tag_478:\n        /* \"#utility.yul\":9024:9031   */\n      dup1\n        /* \"#utility.yul\":9055:9056   */\n      0x00\n        /* \"#utility.yul\":9040:9469   */\n    tag_479:\n        /* \"#utility.yul\":9065:9071   */\n      dup6\n        /* \"#utility.yul\":9062:9063   */\n      dup2\n        /* \"#utility.yul\":9059:9072   */\n      lt\n        /* \"#utility.yul\":9040:9469   */\n      iszero\n      tag_481\n      jumpi\n        /* \"#utility.yul\":9136:9145   */\n      dup5\n        /* \"#utility.yul\":9130:9134   */\n      dup5\n        /* \"#utility.yul\":9126:9146   */\n      sub\n        /* \"#utility.yul\":9121:9124   */\n      dup10\n        /* \"#utility.yul\":9114:9147   */\n      mstore\n        /* \"#utility.yul\":9187:9193   */\n      dup2\n        /* \"#utility.yul\":9181:9194   */\n      mload\n        /* \"#utility.yul\":9215:9321   */\n      tag_482\n        /* \"#utility.yul\":9316:9320   */\n      dup6\n        /* \"#utility.yul\":9301:9314   */\n      dup3\n        /* \"#utility.yul\":9215:9321   */\n      tag_332\n      jump\t// in\n    tag_482:\n        /* \"#utility.yul\":9207:9321   */\n      swap5\n      pop\n        /* \"#utility.yul\":9344:9425   */\n      tag_483\n        /* \"#utility.yul\":9418:9424   */\n      dup4\n        /* \"#utility.yul\":9344:9425   */\n      tag_333\n      jump\t// in\n    tag_483:\n        /* \"#utility.yul\":9334:9425   */\n      swap3\n      pop\n        /* \"#utility.yul\":9454:9458   */\n      0x20\n        /* \"#utility.yul\":9449:9452   */\n      dup11\n        /* \"#utility.yul\":9445:9459   */\n      add\n        /* \"#utility.yul\":9438:9459   */\n      swap10\n      pop\n        /* \"#utility.yul\":9100:9469   */\n      pop\n        /* \"#utility.yul\":9087:9088   */\n      0x01\n        /* \"#utility.yul\":9084:9085   */\n      dup2\n        /* \"#utility.yul\":9080:9089   */\n      add\n        /* \"#utility.yul\":9075:9089   */\n      swap1\n      pop\n        /* \"#utility.yul\":9040:9469   */\n      jump(tag_479)\n    tag_481:\n        /* \"#utility.yul\":9044:9058   */\n      pop\n        /* \"#utility.yul\":9485:9489   */\n      dup3\n        /* \"#utility.yul\":9478:9489   */\n      swap8\n      pop\n        /* \"#utility.yul\":9505:9508   */\n      dup8\n        /* \"#utility.yul\":9498:9508   */\n      swap6\n      pop\n        /* \"#utility.yul\":8601:9514   */\n      pop\n      pop\n      pop\n      pop\n      pop\n        /* \"#utility.yul\":8435:9514   */\n      swap3\n      swap2\n      pop\n      pop\n      jump\t// out\n        /* \"#utility.yul\":9520:9977   */\n    tag_38:\n        /* \"#utility.yul\":9705:9709   */\n      0x00\n        /* \"#utility.yul\":9743:9745   */\n      0x20\n        /* \"#utility.yul\":9732:9741   */\n      dup3\n        /* \"#utility.yul\":9728:9746   */\n      add\n        /* \"#utility.yul\":9720:9746   */\n      swap1\n      pop\n        /* \"#utility.yul\":9792:9801   */\n      dup2\n        /* \"#utility.yul\":9786:9790   */\n      dup2\n        /* \"#utility.yul\":9782:9802   */\n      sub\n        /* \"#utility.yul\":9778:9779   */\n      0x00\n        /* \"#utility.yul\":9767:9776   */\n      dup4\n        /* \"#utility.yul\":9763:9780   */\n      add\n        /* \"#utility.yul\":9756:9803   */\n      mstore\n        /* \"#utility.yul\":9820:9970   */\n      tag_485\n        /* \"#utility.yul\":9965:9969   */\n      dup2\n        /* \"#utility.yul\":9956:9962   */\n      dup5\n        /* \"#utility.yul\":9820:9970   */\n      tag_334\n      jump\t// in\n    tag_485:\n        /* \"#utility.yul\":9812:9970   */\n      swap1\n      pop\n        /* \"#utility.yul\":9520:9977   */\n      swap3\n      swap2\n      pop\n      pop\n      jump\t// out\n        /* \"#utility.yul\":9983:10457   */\n    tag_41:\n        /* \"#utility.yul\":10051:10057   */\n      0x00\n        /* \"#utility.yul\":10059:10065   */\n      dup1\n        /* \"#utility.yul\":10108:10110   */\n      0x40\n        /* \"#utility.yul\":10096:10105   */\n      dup4\n        /* \"#utility.yul\":10087:10094   */\n      dup6\n        /* \"#utility.yul\":10083:10106   */\n      sub\n        /* \"#utility.yul\":10079:10111   */\n      slt\n        /* \"#utility.yul\":10076:10195   */\n      iszero\n      tag_487\n      jumpi\n        /* \"#utility.yul\":10114:10193   */\n      tag_488\n      tag_303\n      jump\t// in\n    tag_488:\n        /* \"#utility.yul\":10076:10195   */\n    tag_487:\n        /* \"#utility.yul\":10234:10235   */\n      0x00\n        /* \"#utility.yul\":10259:10312   */\n      tag_489\n        /* \"#utility.yul\":10304:10311   */\n      dup6\n        /* \"#utility.yul\":10295:10301   */\n      dup3\n        /* \"#utility.yul\":10284:10293   */\n      dup7\n        /* \"#utility.yul\":10280:10302   */\n      add\n        /* \"#utility.yul\":10259:10312   */\n      tag_316\n      jump\t// in\n    tag_489:\n        /* \"#utility.yul\":10249:10312   */\n      swap3\n      pop\n        /* \"#utility.yul\":10205:10322   */\n      pop\n        /* \"#utility.yul\":10361:10363   */\n      0x20\n        /* \"#utility.yul\":10387:10440   */\n      tag_490\n        /* \"#utility.yul\":10432:10439   */\n      dup6\n        /* \"#utility.yul\":10423:10429   */\n      dup3\n        /* \"#utility.yul\":10412:10421   */\n      dup7\n        /* \"#utility.yul\":10408:10430   */\n      add\n        /* \"#utility.yul\":10387:10440   */\n      tag_316\n      jump\t// in\n    tag_490:\n        /* \"#utility.yul\":10377:10440   */\n      swap2\n      pop\n        /* \"#utility.yul\":10332:10450   */\n      pop\n        /* \"#utility.yul\":9983:10457   */\n      swap3\n      pop\n      swap3\n      swap1\n      pop\n      jump\t// out\n        /* \"#utility.yul\":10463:10632   */\n    tag_335:\n        /* \"#utility.yul\":10547:10558   */\n      0x00\n        /* \"#utility.yul\":10581:10587   */\n      dup3\n        /* \"#utility.yul\":10576:10579   */\n      dup3\n        /* \"#utility.yul\":10569:10588   */\n      mstore\n        /* \"#utility.yul\":10621:10625   */\n      0x20\n        /* \"#utility.yul\":10616:10619   */\n      dup3\n        /* \"#utility.yul\":10612:10626   */\n      add\n        /* \"#utility.yul\":10597:10626   */\n      swap1\n      pop\n        /* \"#utility.yul\":10463:10632   */\n      swap3\n      swap2\n      pop\n      pop\n      jump\t// out\n        /* \"#utility.yul\":10638:11015   */\n    tag_336:\n        /* \"#utility.yul\":10726:10729   */\n      0x00\n        /* \"#utility.yul\":10754:10793   */\n      tag_493\n        /* \"#utility.yul\":10787:10792   */\n      dup3\n        /* \"#utility.yul\":10754:10793   */\n      tag_326\n      jump\t// in\n    tag_493:\n        /* \"#utility.yul\":10809:10880   */\n      tag_494\n        /* \"#utility.yul\":10873:10879   */\n      dup2\n        /* \"#utility.yul\":10868:10871   */\n      dup6\n        /* \"#utility.yul\":10809:10880   */\n      tag_335\n      jump\t// in\n    tag_494:\n        /* \"#utility.yul\":10802:10880   */\n      swap4\n      pop\n        /* \"#utility.yul\":10889:10954   */\n      tag_495\n        /* \"#utility.yul\":10947:10953   */\n      dup2\n        /* \"#utility.yul\":10942:10945   */\n      dup6\n        /* \"#utility.yul\":10935:10939   */\n      0x20\n        /* \"#utility.yul\":10928:10933   */\n      dup7\n        /* \"#utility.yul\":10924:10940   */\n      add\n        /* \"#utility.yul\":10889:10954   */\n      tag_328\n      jump\t// in\n    tag_495:\n        /* \"#utility.yul\":10979:11008   */\n      tag_496\n        /* \"#utility.yul\":11001:11007   */\n      dup2\n        /* \"#utility.yul\":10979:11008   */\n      tag_307\n      jump\t// in\n    tag_496:\n        /* \"#utility.yul\":10974:10977   */\n      dup5\n        /* \"#utility.yul\":10970:11009   */\n      add\n        /* \"#utility.yul\":10963:11009   */\n      swap2\n      pop\n        /* \"#utility.yul\":10730:11015   */\n      pop\n        /* \"#utility.yul\":10638:11015   */\n      swap3\n      swap2\n      pop\n      pop\n      jump\t// out\n        /* \"#utility.yul\":11021:11139   */\n    tag_337:\n        /* \"#utility.yul\":11108:11132   */\n      tag_498\n        /* \"#utility.yul\":11126:11131   */\n      dup2\n        /* \"#utility.yul\":11108:11132   */\n      tag_314\n      jump\t// in\n    tag_498:\n        /* \"#utility.yul\":11103:11106   */\n      dup3\n        /* \"#utility.yul\":11096:11133   */\n      mstore\n        /* \"#utility.yul\":11021:11139   */\n      pop\n      pop\n      jump\t// out\n        /* \"#utility.yul\":11145:11678   */\n    tag_44:\n        /* \"#utility.yul\":11314:11318   */\n      0x00\n        /* \"#utility.yul\":11352:11354   */\n      0x60\n        /* \"#utility.yul\":11341:11350   */\n      dup3\n        /* \"#utility.yul\":11337:11355   */\n      add\n        /* \"#utility.yul\":11329:11355   */\n      swap1\n      pop\n        /* \"#utility.yul\":11365:11436   */\n      tag_500\n        /* \"#utility.yul\":11433:11434   */\n      0x00\n        /* \"#utility.yul\":11422:11431   */\n      dup4\n        /* \"#utility.yul\":11418:11435   */\n      add\n        /* \"#utility.yul\":11409:11415   */\n      dup7\n        /* \"#utility.yul\":11365:11436   */\n      tag_319\n      jump\t// in\n    tag_500:\n        /* \"#utility.yul\":11483:11492   */\n      dup2\n        /* \"#utility.yul\":11477:11481   */\n      dup2\n        /* \"#utility.yul\":11473:11493   */\n      sub\n        /* \"#utility.yul\":11468:11470   */\n      0x20\n        /* \"#utility.yul\":11457:11466   */\n      dup4\n        /* \"#utility.yul\":11453:11471   */\n      add\n        /* \"#utility.yul\":11446:11494   */\n      mstore\n        /* \"#utility.yul\":11511:11589   */\n      tag_501\n        /* \"#utility.yul\":11584:11588   */\n      dup2\n        /* \"#utility.yul\":11575:11581   */\n      dup6\n        /* \"#utility.yul\":11511:11589   */\n      tag_336\n      jump\t// in\n    tag_501:\n        /* \"#utility.yul\":11503:11589   */\n      swap1\n      pop\n        /* \"#utility.yul\":11599:11671   */\n      tag_502\n        /* \"#utility.yul\":11667:11669   */\n      0x40\n        /* \"#utility.yul\":11656:11665   */\n      dup4\n        /* \"#utility.yul\":11652:11670   */\n      add\n        /* \"#utility.yul\":11643:11649   */\n      dup5\n        /* \"#utility.yul\":11599:11671   */\n      tag_337\n      jump\t// in\n    tag_502:\n        /* \"#utility.yul\":11145:11678   */\n      swap5\n      swap4\n      pop\n      pop\n      pop\n      pop\n      jump\t// out\n        /* \"#utility.yul\":11684:11774   */\n    tag_338:\n        /* \"#utility.yul\":11718:11725   */\n      0x00\n        /* \"#utility.yul\":11761:11766   */\n      dup2\n        /* \"#utility.yul\":11754:11767   */\n      iszero\n        /* \"#utility.yul\":11747:11768   */\n      iszero\n        /* \"#utility.yul\":11736:11768   */\n      swap1\n      pop\n        /* \"#utility.yul\":11684:11774   */\n      swap2\n      swap1\n      pop\n      jump\t// out\n        /* \"#utility.yul\":11780:11889   */\n    tag_339:\n        /* \"#utility.yul\":11861:11882   */\n      tag_505\n        /* \"#utility.yul\":11876:11881   */\n      dup2\n        /* \"#utility.yul\":11861:11882   */\n      tag_338\n      jump\t// in\n    tag_505:\n        /* \"#utility.yul\":11856:11859   */\n      dup3\n        /* \"#utility.yul\":11849:11883   */\n      mstore\n        /* \"#utility.yul\":11780:11889   */\n      pop\n      pop\n      jump\t// out\n        /* \"#utility.yul\":11895:12105   */\n    tag_49:\n        /* \"#utility.yul\":11982:11986   */\n      0x00\n        /* \"#utility.yul\":12020:12022   */\n      0x20\n        /* \"#utility.yul\":12009:12018   */\n      dup3\n        /* \"#utility.yul\":12005:12023   */\n      add\n        /* \"#utility.yul\":11997:12023   */\n      swap1\n      pop\n        /* \"#utility.yul\":12033:12098   */\n      tag_507\n        /* \"#utility.yul\":12095:12096   */\n      0x00\n        /* \"#utility.yul\":12084:12093   */\n      dup4\n        /* \"#utility.yul\":12080:12097   */\n      add\n        /* \"#utility.yul\":12071:12077   */\n      dup5\n        /* \"#utility.yul\":12033:12098   */\n      tag_339\n      jump\t// in\n    tag_507:\n        /* \"#utility.yul\":11895:12105   */\n      swap3\n      swap2\n      pop\n      pop\n      jump\t// out\n        /* \"#utility.yul\":12111:12765   */\n    tag_52:\n        /* \"#utility.yul\":12189:12195   */\n      0x00\n        /* \"#utility.yul\":12197:12203   */\n      dup1\n        /* \"#utility.yul\":12246:12248   */\n      0x40\n        /* \"#utility.yul\":12234:12243   */\n      dup4\n        /* \"#utility.yul\":12225:12232   */\n      dup6\n        /* \"#utility.yul\":12221:12244   */\n      sub\n        /* \"#utility.yul\":12217:12249   */\n      slt\n        /* \"#utility.yul\":12214:12333   */\n      iszero\n      tag_509\n      jumpi\n        /* \"#utility.yul\":12252:12331   */\n      tag_510\n      tag_303\n      jump\t// in\n    tag_510:\n        /* \"#utility.yul\":12214:12333   */\n    tag_509:\n        /* \"#utility.yul\":12372:12373   */\n      0x00\n        /* \"#utility.yul\":12397:12450   */\n      tag_511\n        /* \"#utility.yul\":12442:12449   */\n      dup6\n        /* \"#utility.yul\":12433:12439   */\n      dup3\n        /* \"#utility.yul\":12422:12431   */\n      dup7\n        /* \"#utility.yul\":12418:12440   */\n      add\n        /* \"#utility.yul\":12397:12450   */\n      tag_316\n      jump\t// in\n    tag_511:\n        /* \"#utility.yul\":12387:12450   */\n      swap3\n      pop\n        /* \"#utility.yul\":12343:12460   */\n      pop\n        /* \"#utility.yul\":12527:12529   */\n      0x20\n        /* \"#utility.yul\":12516:12525   */\n      dup4\n        /* \"#utility.yul\":12512:12530   */\n      add\n        /* \"#utility.yul\":12499:12531   */\n      calldataload\n        /* \"#utility.yul\":12558:12576   */\n      0xffffffffffffffff\n        /* \"#utility.yul\":12550:12556   */\n      dup2\n        /* \"#utility.yul\":12547:12577   */\n      gt\n        /* \"#utility.yul\":12544:12661   */\n      iszero\n      tag_512\n      jumpi\n        /* \"#utility.yul\":12580:12659   */\n      tag_513\n      tag_304\n      jump\t// in\n    tag_513:\n        /* \"#utility.yul\":12544:12661   */\n    tag_512:\n        /* \"#utility.yul\":12685:12748   */\n      tag_514\n        /* \"#utility.yul\":12740:12747   */\n      dup6\n        /* \"#utility.yul\":12731:12737   */\n      dup3\n        /* \"#utility.yul\":12720:12729   */\n      dup7\n        /* \"#utility.yul\":12716:12738   */\n      add\n        /* \"#utility.yul\":12685:12748   */\n      tag_313\n      jump\t// in\n    tag_514:\n        /* \"#utility.yul\":12675:12748   */\n      swap2\n      pop\n        /* \"#utility.yul\":12470:12758   */\n      pop\n        /* \"#utility.yul\":12111:12765   */\n      swap3\n      pop\n      swap3\n      swap1\n      pop\n      jump\t// out\n        /* \"#utility.yul\":12771:12993   */\n    tag_57:\n        /* \"#utility.yul\":12864:12868   */\n      0x00\n        /* \"#utility.yul\":12902:12904   */\n      0x20\n        /* \"#utility.yul\":12891:12900   */\n      dup3\n        /* \"#utility.yul\":12887:12905   */\n      add\n        /* \"#utility.yul\":12879:12905   */\n      swap1\n      pop\n        /* \"#utility.yul\":12915:12986   */\n      tag_516\n        /* \"#utility.yul\":12983:12984   */\n      0x00\n        /* \"#utility.yul\":12972:12981   */\n      dup4\n        /* \"#utility.yul\":12968:12985   */\n      add\n        /* \"#utility.yul\":12959:12965   */\n      dup5\n        /* \"#utility.yul\":12915:12986   */\n      tag_337\n      jump\t// in\n    tag_516:\n        /* \"#utility.yul\":12771:12993   */\n      swap3\n      swap2\n      pop\n      pop\n      jump\t// out\n        /* \"#utility.yul\":12999:13138   */\n    tag_340:\n        /* \"#utility.yul\":13091:13097   */\n      0x00\n        /* \"#utility.yul\":13125:13130   */\n      dup2\n        /* \"#utility.yul\":13119:13131   */\n      mload\n        /* \"#utility.yul\":13109:13131   */\n      swap1\n      pop\n        /* \"#utility.yul\":12999:13138   */\n      swap2\n      swap1\n      pop\n      jump\t// out\n        /* \"#utility.yul\":13144:13353   */\n    tag_341:\n        /* \"#utility.yul\":13268:13279   */\n      0x00\n        /* \"#utility.yul\":13302:13308   */\n      dup3\n        /* \"#utility.yul\":13297:13300   */\n      dup3\n        /* \"#utility.yul\":13290:13309   */\n      mstore\n        /* \"#utility.yul\":13342:13346   */\n      0x20\n        /* \"#utility.yul\":13337:13340   */\n      dup3\n        /* \"#utility.yul\":13333:13347   */\n      add\n        /* \"#utility.yul\":13318:13347   */\n      swap1\n      pop\n        /* \"#utility.yul\":13144:13353   */\n      swap3\n      swap2\n      pop\n      pop\n      jump\t// out\n        /* \"#utility.yul\":13359:13516   */\n    tag_342:\n        /* \"#utility.yul\":13451:13455   */\n      0x00\n        /* \"#utility.yul\":13474:13477   */\n      dup2\n        /* \"#utility.yul\":13466:13477   */\n      swap1\n      pop\n        /* \"#utility.yul\":13504:13508   */\n      0x20\n        /* \"#utility.yul\":13499:13502   */\n      dup3\n        /* \"#utility.yul\":13495:13509   */\n      add\n        /* \"#utility.yul\":13487:13509   */\n      swap1\n      pop\n        /* \"#utility.yul\":13359:13516   */\n      swap2\n      swap1\n      pop\n      jump\t// out\n        /* \"#utility.yul\":13522:13702   */\n    tag_106:\n        /* \"#utility.yul\":13570:13647   */\n      0x4e487b7100000000000000000000000000000000000000000000000000000000\n        /* \"#utility.yul\":13567:13568   */\n      0x00\n        /* \"#utility.yul\":13560:13648   */\n      mstore\n        /* \"#utility.yul\":13667:13671   */\n      0x21\n        /* \"#utility.yul\":13664:13665   */\n      0x04\n        /* \"#utility.yul\":13657:13672   */\n      mstore\n        /* \"#utility.yul\":13691:13695   */\n      0x24\n        /* \"#utility.yul\":13688:13689   */\n      0x00\n        /* \"#utility.yul\":13681:13696   */\n      revert\n        /* \"#utility.yul\":13708:13831   */\n    tag_343:\n        /* \"#utility.yul\":13799:13800   */\n      0x02\n        /* \"#utility.yul\":13792:13797   */\n      dup2\n        /* \"#utility.yul\":13789:13801   */\n      lt\n        /* \"#utility.yul\":13779:13825   */\n      tag_522\n      jumpi\n        /* \"#utility.yul\":13805:13823   */\n      tag_523\n      tag_106\n      jump\t// in\n    tag_523:\n        /* \"#utility.yul\":13779:13825   */\n    tag_522:\n        /* \"#utility.yul\":13708:13831   */\n      pop\n      jump\t// out\n        /* \"#utility.yul\":13837:13984   */\n    tag_344:\n        /* \"#utility.yul\":13892:13899   */\n      0x00\n        /* \"#utility.yul\":13921:13926   */\n      dup2\n        /* \"#utility.yul\":13910:13926   */\n      swap1\n      pop\n        /* \"#utility.yul\":13927:13978   */\n      tag_525\n        /* \"#utility.yul\":13972:13977   */\n      dup3\n        /* \"#utility.yul\":13927:13978   */\n      tag_343\n      jump\t// in\n    tag_525:\n        /* \"#utility.yul\":13837:13984   */\n      swap2\n      swap1\n      pop\n      jump\t// out\n        /* \"#utility.yul\":13990:14137   */\n    tag_345:\n        /* \"#utility.yul\":14056:14065   */\n      0x00\n        /* \"#utility.yul\":14089:14131   */\n      tag_527\n        /* \"#utility.yul\":14125:14130   */\n      dup3\n        /* \"#utility.yul\":14089:14131   */\n      tag_344\n      jump\t// in\n    tag_527:\n        /* \"#utility.yul\":14076:14131   */\n      swap1\n      pop\n        /* \"#utility.yul\":13990:14137   */\n      swap2\n      swap1\n      pop\n      jump\t// out\n        /* \"#utility.yul\":14143:14296   */\n    tag_346:\n        /* \"#utility.yul\":14236:14289   */\n      tag_529\n        /* \"#utility.yul\":14283:14288   */\n      dup2\n        /* \"#utility.yul\":14236:14289   */\n      tag_345\n      jump\t// in\n    tag_529:\n        /* \"#utility.yul\":14231:14234   */\n      dup3\n        /* \"#utility.yul\":14224:14290   */\n      mstore\n        /* \"#utility.yul\":14143:14296   */\n      pop\n      pop\n      jump\t// out\n        /* \"#utility.yul\":14368:15029   */\n    tag_347:\n        /* \"#utility.yul\":14467:14470   */\n      0x00\n        /* \"#utility.yul\":14503:14507   */\n      0x40\n        /* \"#utility.yul\":14498:14501   */\n      dup4\n        /* \"#utility.yul\":14494:14508   */\n      add\n        /* \"#utility.yul\":14594:14598   */\n      0x00\n        /* \"#utility.yul\":14587:14592   */\n      dup4\n        /* \"#utility.yul\":14583:14599   */\n      add\n        /* \"#utility.yul\":14577:14600   */\n      mload\n        /* \"#utility.yul\":14647:14650   */\n      dup5\n        /* \"#utility.yul\":14641:14645   */\n      dup3\n        /* \"#utility.yul\":14637:14651   */\n      sub\n        /* \"#utility.yul\":14630:14634   */\n      0x00\n        /* \"#utility.yul\":14625:14628   */\n      dup7\n        /* \"#utility.yul\":14621:14635   */\n      add\n        /* \"#utility.yul\":14614:14652   */\n      mstore\n        /* \"#utility.yul\":14673:14746   */\n      tag_531\n        /* \"#utility.yul\":14741:14745   */\n      dup3\n        /* \"#utility.yul\":14727:14739   */\n      dup3\n        /* \"#utility.yul\":14673:14746   */\n      tag_329\n      jump\t// in\n    tag_531:\n        /* \"#utility.yul\":14665:14746   */\n      swap2\n      pop\n        /* \"#utility.yul\":14518:14757   */\n      pop\n        /* \"#utility.yul\":14839:14843   */\n      0x20\n        /* \"#utility.yul\":14832:14837   */\n      dup4\n        /* \"#utility.yul\":14828:14844   */\n      add\n        /* \"#utility.yul\":14822:14845   */\n      mload\n        /* \"#utility.yul\":14892:14895   */\n      dup5\n        /* \"#utility.yul\":14886:14890   */\n      dup3\n        /* \"#utility.yul\":14882:14896   */\n      sub\n        /* \"#utility.yul\":14875:14879   */\n      0x20\n        /* \"#utility.yul\":14870:14873   */\n      dup7\n        /* \"#utility.yul\":14866:14880   */\n      add\n        /* \"#utility.yul\":14859:14897   */\n      mstore\n        /* \"#utility.yul\":14918:14991   */\n      tag_532\n        /* \"#utility.yul\":14986:14990   */\n      dup3\n        /* \"#utility.yul\":14972:14984   */\n      dup3\n        /* \"#utility.yul\":14918:14991   */\n      tag_329\n      jump\t// in\n    tag_532:\n        /* \"#utility.yul\":14910:14991   */\n      swap2\n      pop\n        /* \"#utility.yul\":14767:15002   */\n      pop\n        /* \"#utility.yul\":15019:15023   */\n      dup1\n        /* \"#utility.yul\":15012:15023   */\n      swap2\n      pop\n        /* \"#utility.yul\":14472:15029   */\n      pop\n        /* \"#utility.yul\":14368:15029   */\n      swap3\n      swap2\n      pop\n      pop\n      jump\t// out\n        /* \"#utility.yul\":15111:16350   */\n    tag_348:\n        /* \"#utility.yul\":15220:15223   */\n      0x00\n        /* \"#utility.yul\":15256:15260   */\n      0xa0\n        /* \"#utility.yul\":15251:15254   */\n      dup4\n        /* \"#utility.yul\":15247:15261   */\n      add\n        /* \"#utility.yul\":15341:15345   */\n      0x00\n        /* \"#utility.yul\":15334:15339   */\n      dup4\n        /* \"#utility.yul\":15330:15346   */\n      add\n        /* \"#utility.yul\":15324:15347   */\n      mload\n        /* \"#utility.yul\":15360:15423   */\n      tag_534\n        /* \"#utility.yul\":15417:15421   */\n      0x00\n        /* \"#utility.yul\":15412:15415   */\n      dup7\n        /* \"#utility.yul\":15408:15422   */\n      add\n        /* \"#utility.yul\":15394:15406   */\n      dup3\n        /* \"#utility.yul\":15360:15423   */\n      tag_330\n      jump\t// in\n    tag_534:\n        /* \"#utility.yul\":15271:15433   */\n      pop\n        /* \"#utility.yul\":15522:15526   */\n      0x20\n        /* \"#utility.yul\":15515:15520   */\n      dup4\n        /* \"#utility.yul\":15511:15527   */\n      add\n        /* \"#utility.yul\":15505:15528   */\n      mload\n        /* \"#utility.yul\":15541:15604   */\n      tag_535\n        /* \"#utility.yul\":15598:15602   */\n      0x20\n        /* \"#utility.yul\":15593:15596   */\n      dup7\n        /* \"#utility.yul\":15589:15603   */\n      add\n        /* \"#utility.yul\":15575:15587   */\n      dup3\n        /* \"#utility.yul\":15541:15604   */\n      tag_325\n      jump\t// in\n    tag_535:\n        /* \"#utility.yul\":15443:15614   */\n      pop\n        /* \"#utility.yul\":15703:15707   */\n      0x40\n        /* \"#utility.yul\":15696:15701   */\n      dup4\n        /* \"#utility.yul\":15692:15708   */\n      add\n        /* \"#utility.yul\":15686:15709   */\n      mload\n        /* \"#utility.yul\":15756:15759   */\n      dup5\n        /* \"#utility.yul\":15750:15754   */\n      dup3\n        /* \"#utility.yul\":15746:15760   */\n      sub\n        /* \"#utility.yul\":15739:15743   */\n      0x40\n        /* \"#utility.yul\":15734:15737   */\n      dup7\n        /* \"#utility.yul\":15730:15744   */\n      add\n        /* \"#utility.yul\":15723:15761   */\n      mstore\n        /* \"#utility.yul\":15782:15855   */\n      tag_536\n        /* \"#utility.yul\":15850:15854   */\n      dup3\n        /* \"#utility.yul\":15836:15848   */\n      dup3\n        /* \"#utility.yul\":15782:15855   */\n      tag_329\n      jump\t// in\n    tag_536:\n        /* \"#utility.yul\":15774:15855   */\n      swap2\n      pop\n        /* \"#utility.yul\":15624:15866   */\n      pop\n        /* \"#utility.yul\":15950:15954   */\n      0x60\n        /* \"#utility.yul\":15943:15948   */\n      dup4\n        /* \"#utility.yul\":15939:15955   */\n      add\n        /* \"#utility.yul\":15933:15956   */\n      mload\n        /* \"#utility.yul\":15969:16048   */\n      tag_537\n        /* \"#utility.yul\":16042:16046   */\n      0x60\n        /* \"#utility.yul\":16037:16040   */\n      dup7\n        /* \"#utility.yul\":16033:16047   */\n      add\n        /* \"#utility.yul\":16019:16031   */\n      dup3\n        /* \"#utility.yul\":15969:16048   */\n      tag_346\n      jump\t// in\n    tag_537:\n        /* \"#utility.yul\":15876:16058   */\n      pop\n        /* \"#utility.yul\":16140:16144   */\n      0x80\n        /* \"#utility.yul\":16133:16138   */\n      dup4\n        /* \"#utility.yul\":16129:16145   */\n      add\n        /* \"#utility.yul\":16123:16146   */\n      mload\n        /* \"#utility.yul\":16193:16196   */\n      dup5\n        /* \"#utility.yul\":16187:16191   */\n      dup3\n        /* \"#utility.yul\":16183:16197   */\n      sub\n        /* \"#utility.yul\":16176:16180   */\n      0x80\n        /* \"#utility.yul\":16171:16174   */\n      dup7\n        /* \"#utility.yul\":16167:16181   */\n      add\n        /* \"#utility.yul\":16160:16198   */\n      mstore\n        /* \"#utility.yul\":16219:16312   */\n      tag_538\n        /* \"#utility.yul\":16307:16311   */\n      dup3\n        /* \"#utility.yul\":16293:16305   */\n      dup3\n        /* \"#utility.yul\":16219:16312   */\n      tag_347\n      jump\t// in\n    tag_538:\n        /* \"#utility.yul\":16211:16312   */\n      swap2\n      pop\n        /* \"#utility.yul\":16068:16323   */\n      pop\n        /* \"#utility.yul\":16340:16344   */\n      dup1\n        /* \"#utility.yul\":16333:16344   */\n      swap2\n      pop\n        /* \"#utility.yul\":15225:16350   */\n      pop\n        /* \"#utility.yul\":15111:16350   */\n      swap3\n      swap2\n      pop\n      pop\n      jump\t// out\n        /* \"#utility.yul\":16356:16612   */\n    tag_349:\n        /* \"#utility.yul\":16475:16485   */\n      0x00\n        /* \"#utility.yul\":16510:16606   */\n      tag_540\n        /* \"#utility.yul\":16602:16605   */\n      dup4\n        /* \"#utility.yul\":16594:16600   */\n      dup4\n        /* \"#utility.yul\":16510:16606   */\n      tag_348\n      jump\t// in\n    tag_540:\n        /* \"#utility.yul\":16496:16606   */\n      swap1\n      pop\n        /* \"#utility.yul\":16356:16612   */\n      swap3\n      swap2\n      pop\n      pop\n      jump\t// out\n        /* \"#utility.yul\":16618:16756   */\n    tag_350:\n        /* \"#utility.yul\":16713:16717   */\n      0x00\n        /* \"#utility.yul\":16745:16749   */\n      0x20\n        /* \"#utility.yul\":16740:16743   */\n      dup3\n        /* \"#utility.yul\":16736:16750   */\n      add\n        /* \"#utility.yul\":16728:16750   */\n      swap1\n      pop\n        /* \"#utility.yul\":16618:16756   */\n      swap2\n      swap1\n      pop\n      jump\t// out\n        /* \"#utility.yul\":16842:17953   */\n    tag_351:\n        /* \"#utility.yul\":17011:17014   */\n      0x00\n        /* \"#utility.yul\":17040:17119   */\n      tag_543\n        /* \"#utility.yul\":17113:17118   */\n      dup3\n        /* \"#utility.yul\":17040:17119   */\n      tag_340\n      jump\t// in\n    tag_543:\n        /* \"#utility.yul\":17135:17246   */\n      tag_544\n        /* \"#utility.yul\":17239:17245   */\n      dup2\n        /* \"#utility.yul\":17234:17237   */\n      dup6\n        /* \"#utility.yul\":17135:17246   */\n      tag_341\n      jump\t// in\n    tag_544:\n        /* \"#utility.yul\":17128:17246   */\n      swap4\n      pop\n        /* \"#utility.yul\":17272:17275   */\n      dup4\n        /* \"#utility.yul\":17317:17321   */\n      0x20\n        /* \"#utility.yul\":17309:17315   */\n      dup3\n        /* \"#utility.yul\":17305:17322   */\n      mul\n        /* \"#utility.yul\":17300:17303   */\n      dup6\n        /* \"#utility.yul\":17296:17323   */\n      add\n        /* \"#utility.yul\":17347:17428   */\n      tag_545\n        /* \"#utility.yul\":17422:17427   */\n      dup6\n        /* \"#utility.yul\":17347:17428   */\n      tag_342\n      jump\t// in\n    tag_545:\n        /* \"#utility.yul\":17451:17458   */\n      dup1\n        /* \"#utility.yul\":17482:17483   */\n      0x00\n        /* \"#utility.yul\":17467:17908   */\n    tag_546:\n        /* \"#utility.yul\":17492:17498   */\n      dup6\n        /* \"#utility.yul\":17489:17490   */\n      dup2\n        /* \"#utility.yul\":17486:17499   */\n      lt\n        /* \"#utility.yul\":17467:17908   */\n      iszero\n      tag_548\n      jumpi\n        /* \"#utility.yul\":17563:17572   */\n      dup5\n        /* \"#utility.yul\":17557:17561   */\n      dup5\n        /* \"#utility.yul\":17553:17573   */\n      sub\n        /* \"#utility.yul\":17548:17551   */\n      dup10\n        /* \"#utility.yul\":17541:17574   */\n      mstore\n        /* \"#utility.yul\":17614:17620   */\n      dup2\n        /* \"#utility.yul\":17608:17621   */\n      mload\n        /* \"#utility.yul\":17642:17756   */\n      tag_549\n        /* \"#utility.yul\":17751:17755   */\n      dup6\n        /* \"#utility.yul\":17736:17749   */\n      dup3\n        /* \"#utility.yul\":17642:17756   */\n      tag_349\n      jump\t// in\n    tag_549:\n        /* \"#utility.yul\":17634:17756   */\n      swap5\n      pop\n        /* \"#utility.yul\":17779:17864   */\n      tag_550\n        /* \"#utility.yul\":17857:17863   */\n      dup4\n        /* \"#utility.yul\":17779:17864   */\n      tag_350\n      jump\t// in\n    tag_550:\n        /* \"#utility.yul\":17769:17864   */\n      swap3\n      pop\n        /* \"#utility.yul\":17893:17897   */\n      0x20\n        /* \"#utility.yul\":17888:17891   */\n      dup11\n        /* \"#utility.yul\":17884:17898   */\n      add\n        /* \"#utility.yul\":17877:17898   */\n      swap10\n      pop\n        /* \"#utility.yul\":17527:17908   */\n      pop\n        /* \"#utility.yul\":17514:17515   */\n      0x01\n        /* \"#utility.yul\":17511:17512   */\n      dup2\n        /* \"#utility.yul\":17507:17516   */\n      add\n        /* \"#utility.yul\":17502:17516   */\n      swap1\n      pop\n        /* \"#utility.yul\":17467:17908   */\n      jump(tag_546)\n    tag_548:\n        /* \"#utility.yul\":17471:17485   */\n      pop\n        /* \"#utility.yul\":17924:17928   */\n      dup3\n        /* \"#utility.yul\":17917:17928   */\n      swap8\n      pop\n        /* \"#utility.yul\":17944:17947   */\n      dup8\n        /* \"#utility.yul\":17937:17947   */\n      swap6\n      pop\n        /* \"#utility.yul\":17016:17953   */\n      pop\n      pop\n      pop\n      pop\n      pop\n        /* \"#utility.yul\":16842:17953   */\n      swap3\n      swap2\n      pop\n      pop\n      jump\t// out\n        /* \"#utility.yul\":17959:18432   */\n    tag_65:\n        /* \"#utility.yul\":18152:18156   */\n      0x00\n        /* \"#utility.yul\":18190:18192   */\n      0x20\n        /* \"#utility.yul\":18179:18188   */\n      dup3\n        /* \"#utility.yul\":18175:18193   */\n      add\n        /* \"#utility.yul\":18167:18193   */\n      swap1\n      pop\n        /* \"#utility.yul\":18239:18248   */\n      dup2\n        /* \"#utility.yul\":18233:18237   */\n      dup2\n        /* \"#utility.yul\":18229:18249   */\n      sub\n        /* \"#utility.yul\":18225:18226   */\n      0x00\n        /* \"#utility.yul\":18214:18223   */\n      dup4\n        /* \"#utility.yul\":18210:18227   */\n      add\n        /* \"#utility.yul\":18203:18250   */\n      mstore\n        /* \"#utility.yul\":18267:18425   */\n      tag_552\n        /* \"#utility.yul\":18420:18424   */\n      dup2\n        /* \"#utility.yul\":18411:18417   */\n      dup5\n        /* \"#utility.yul\":18267:18425   */\n      tag_351\n      jump\t// in\n    tag_552:\n        /* \"#utility.yul\":18259:18425   */\n      swap1\n      pop\n        /* \"#utility.yul\":17959:18432   */\n      swap3\n      swap2\n      pop\n      pop\n      jump\t// out\n        /* \"#utility.yul\":18438:18552   */\n    tag_352:\n        /* \"#utility.yul\":18520:18521   */\n      0x03\n        /* \"#utility.yul\":18513:18518   */\n      dup2\n        /* \"#utility.yul\":18510:18522   */\n      lt\n        /* \"#utility.yul\":18500:18546   */\n      tag_554\n      jumpi\n        /* \"#utility.yul\":18526:18544   */\n      tag_555\n      tag_106\n      jump\t// in\n    tag_555:\n        /* \"#utility.yul\":18500:18546   */\n    tag_554:\n        /* \"#utility.yul\":18438:18552   */\n      pop\n      jump\t// out\n        /* \"#utility.yul\":18558:18687   */\n    tag_353:\n        /* \"#utility.yul\":18604:18611   */\n      0x00\n        /* \"#utility.yul\":18633:18638   */\n      dup2\n        /* \"#utility.yul\":18622:18638   */\n      swap1\n      pop\n        /* \"#utility.yul\":18639:18681   */\n      tag_557\n        /* \"#utility.yul\":18675:18680   */\n      dup3\n        /* \"#utility.yul\":18639:18681   */\n      tag_352\n      jump\t// in\n    tag_557:\n        /* \"#utility.yul\":18558:18687   */\n      swap2\n      swap1\n      pop\n      jump\t// out\n        /* \"#utility.yul\":18693:18822   */\n    tag_354:\n        /* \"#utility.yul\":18750:18759   */\n      0x00\n        /* \"#utility.yul\":18783:18816   */\n      tag_559\n        /* \"#utility.yul\":18810:18815   */\n      dup3\n        /* \"#utility.yul\":18783:18816   */\n      tag_353\n      jump\t// in\n    tag_559:\n        /* \"#utility.yul\":18770:18816   */\n      swap1\n      pop\n        /* \"#utility.yul\":18693:18822   */\n      swap2\n      swap1\n      pop\n      jump\t// out\n        /* \"#utility.yul\":18828:18973   */\n    tag_355:\n        /* \"#utility.yul\":18922:18966   */\n      tag_561\n        /* \"#utility.yul\":18960:18965   */\n      dup2\n        /* \"#utility.yul\":18922:18966   */\n      tag_354\n      jump\t// in\n    tag_561:\n        /* \"#utility.yul\":18917:18920   */\n      dup3\n        /* \"#utility.yul\":18910:18967   */\n      mstore\n        /* \"#utility.yul\":18828:18973   */\n      pop\n      pop\n      jump\t// out\n        /* \"#utility.yul\":18979:19435   */\n    tag_76:\n        /* \"#utility.yul\":19135:19139   */\n      0x00\n        /* \"#utility.yul\":19173:19175   */\n      0x60\n        /* \"#utility.yul\":19162:19171   */\n      dup3\n        /* \"#utility.yul\":19158:19176   */\n      add\n        /* \"#utility.yul\":19150:19176   */\n      swap1\n      pop\n        /* \"#utility.yul\":19186:19257   */\n      tag_563\n        /* \"#utility.yul\":19254:19255   */\n      0x00\n        /* \"#utility.yul\":19243:19252   */\n      dup4\n        /* \"#utility.yul\":19239:19256   */\n      add\n        /* \"#utility.yul\":19230:19236   */\n      dup7\n        /* \"#utility.yul\":19186:19257   */\n      tag_319\n      jump\t// in\n    tag_563:\n        /* \"#utility.yul\":19267:19346   */\n      tag_564\n        /* \"#utility.yul\":19342:19344   */\n      0x20\n        /* \"#utility.yul\":19331:19340   */\n      dup4\n        /* \"#utility.yul\":19327:19345   */\n      add\n        /* \"#utility.yul\":19318:19324   */\n      dup6\n        /* \"#utility.yul\":19267:19346   */\n      tag_355\n      jump\t// in\n    tag_564:\n        /* \"#utility.yul\":19356:19428   */\n      tag_565\n        /* \"#utility.yul\":19424:19426   */\n      0x40\n        /* \"#utility.yul\":19413:19422   */\n      dup4\n        /* \"#utility.yul\":19409:19427   */\n      add\n        /* \"#utility.yul\":19400:19406   */\n      dup5\n        /* \"#utility.yul\":19356:19428   */\n      tag_337\n      jump\t// in\n    tag_565:\n        /* \"#utility.yul\":18979:19435   */\n      swap5\n      swap4\n      pop\n      pop\n      pop\n      pop\n      jump\t// out\n        /* \"#utility.yul\":19441:19604   */\n    tag_356:\n        /* \"#utility.yul\":19544:19597   */\n      tag_567\n        /* \"#utility.yul\":19591:19596   */\n      dup2\n        /* \"#utility.yul\":19544:19597   */\n      tag_345\n      jump\t// in\n    tag_567:\n        /* \"#utility.yul\":19539:19542   */\n      dup3\n        /* \"#utility.yul\":19532:19598   */\n      mstore\n        /* \"#utility.yul\":19441:19604   */\n      pop\n      pop\n      jump\t// out\n        /* \"#utility.yul\":19676:20347   */\n    tag_357:\n        /* \"#utility.yul\":19785:19788   */\n      0x00\n        /* \"#utility.yul\":19821:19825   */\n      0x40\n        /* \"#utility.yul\":19816:19819   */\n      dup4\n        /* \"#utility.yul\":19812:19826   */\n      add\n        /* \"#utility.yul\":19912:19916   */\n      0x00\n        /* \"#utility.yul\":19905:19910   */\n      dup4\n        /* \"#utility.yul\":19901:19917   */\n      add\n        /* \"#utility.yul\":19895:19918   */\n      mload\n        /* \"#utility.yul\":19965:19968   */\n      dup5\n        /* \"#utility.yul\":19959:19963   */\n      dup3\n        /* \"#utility.yul\":19955:19969   */\n      sub\n        /* \"#utility.yul\":19948:19952   */\n      0x00\n        /* \"#utility.yul\":19943:19946   */\n      dup7\n        /* \"#utility.yul\":19939:19953   */\n      add\n        /* \"#utility.yul\":19932:19970   */\n      mstore\n        /* \"#utility.yul\":19991:20064   */\n      tag_569\n        /* \"#utility.yul\":20059:20063   */\n      dup3\n        /* \"#utility.yul\":20045:20057   */\n      dup3\n        /* \"#utility.yul\":19991:20064   */\n      tag_329\n      jump\t// in\n    tag_569:\n        /* \"#utility.yul\":19983:20064   */\n      swap2\n      pop\n        /* \"#utility.yul\":19836:20075   */\n      pop\n        /* \"#utility.yul\":20157:20161   */\n      0x20\n        /* \"#utility.yul\":20150:20155   */\n      dup4\n        /* \"#utility.yul\":20146:20162   */\n      add\n        /* \"#utility.yul\":20140:20163   */\n      mload\n        /* \"#utility.yul\":20210:20213   */\n      dup5\n        /* \"#utility.yul\":20204:20208   */\n      dup3\n        /* \"#utility.yul\":20200:20214   */\n      sub\n        /* \"#utility.yul\":20193:20197   */\n      0x20\n        /* \"#utility.yul\":20188:20191   */\n      dup7\n        /* \"#utility.yul\":20184:20198   */\n      add\n        /* \"#utility.yul\":20177:20215   */\n      mstore\n        /* \"#utility.yul\":20236:20309   */\n      tag_570\n        /* \"#utility.yul\":20304:20308   */\n      dup3\n        /* \"#utility.yul\":20290:20302   */\n      dup3\n        /* \"#utility.yul\":20236:20309   */\n      tag_329\n      jump\t// in\n    tag_570:\n        /* \"#utility.yul\":20228:20309   */\n      swap2\n      pop\n        /* \"#utility.yul\":20085:20320   */\n      pop\n        /* \"#utility.yul\":20337:20341   */\n      dup1\n        /* \"#utility.yul\":20330:20341   */\n      swap2\n      pop\n        /* \"#utility.yul\":19790:20347   */\n      pop\n        /* \"#utility.yul\":19676:20347   */\n      swap3\n      swap2\n      pop\n      pop\n      jump\t// out\n        /* \"#utility.yul\":20353:21271   */\n    tag_86:\n        /* \"#utility.yul\":20634:20638   */\n      0x00\n        /* \"#utility.yul\":20672:20675   */\n      0xa0\n        /* \"#utility.yul\":20661:20670   */\n      dup3\n        /* \"#utility.yul\":20657:20676   */\n      add\n        /* \"#utility.yul\":20649:20676   */\n      swap1\n      pop\n        /* \"#utility.yul\":20686:20757   */\n      tag_572\n        /* \"#utility.yul\":20754:20755   */\n      0x00\n        /* \"#utility.yul\":20743:20752   */\n      dup4\n        /* \"#utility.yul\":20739:20756   */\n      add\n        /* \"#utility.yul\":20730:20736   */\n      dup9\n        /* \"#utility.yul\":20686:20757   */\n      tag_337\n      jump\t// in\n    tag_572:\n        /* \"#utility.yul\":20767:20839   */\n      tag_573\n        /* \"#utility.yul\":20835:20837   */\n      0x20\n        /* \"#utility.yul\":20824:20833   */\n      dup4\n        /* \"#utility.yul\":20820:20838   */\n      add\n        /* \"#utility.yul\":20811:20817   */\n      dup8\n        /* \"#utility.yul\":20767:20839   */\n      tag_319\n      jump\t// in\n    tag_573:\n        /* \"#utility.yul\":20886:20895   */\n      dup2\n        /* \"#utility.yul\":20880:20884   */\n      dup2\n        /* \"#utility.yul\":20876:20896   */\n      sub\n        /* \"#utility.yul\":20871:20873   */\n      0x40\n        /* \"#utility.yul\":20860:20869   */\n      dup4\n        /* \"#utility.yul\":20856:20874   */\n      add\n        /* \"#utility.yul\":20849:20897   */\n      mstore\n        /* \"#utility.yul\":20914:20992   */\n      tag_574\n        /* \"#utility.yul\":20987:20991   */\n      dup2\n        /* \"#utility.yul\":20978:20984   */\n      dup7\n        /* \"#utility.yul\":20914:20992   */\n      tag_336\n      jump\t// in\n    tag_574:\n        /* \"#utility.yul\":20906:20992   */\n      swap1\n      pop\n        /* \"#utility.yul\":21002:21090   */\n      tag_575\n        /* \"#utility.yul\":21086:21088   */\n      0x60\n        /* \"#utility.yul\":21075:21084   */\n      dup4\n        /* \"#utility.yul\":21071:21089   */\n      add\n        /* \"#utility.yul\":21062:21068   */\n      dup6\n        /* \"#utility.yul\":21002:21090   */\n      tag_356\n      jump\t// in\n    tag_575:\n        /* \"#utility.yul\":21138:21147   */\n      dup2\n        /* \"#utility.yul\":21132:21136   */\n      dup2\n        /* \"#utility.yul\":21128:21148   */\n      sub\n        /* \"#utility.yul\":21122:21125   */\n      0x80\n        /* \"#utility.yul\":21111:21120   */\n      dup4\n        /* \"#utility.yul\":21107:21126   */\n      add\n        /* \"#utility.yul\":21100:21149   */\n      mstore\n        /* \"#utility.yul\":21166:21264   */\n      tag_576\n        /* \"#utility.yul\":21259:21263   */\n      dup2\n        /* \"#utility.yul\":21250:21256   */\n      dup5\n        /* \"#utility.yul\":21166:21264   */\n      tag_357\n      jump\t// in\n    tag_576:\n        /* \"#utility.yul\":21158:21264   */\n      swap1\n      pop\n        /* \"#utility.yul\":20353:21271   */\n      swap7\n      swap6\n      pop\n      pop\n      pop\n      pop\n      pop\n      pop\n      jump\t// out\n        /* \"#utility.yul\":21277:21459   */\n    tag_358:\n        /* \"#utility.yul\":21417:21451   */\n      0x4f6e6c7920757365722063616e2063616c6c20746869732066756e6374696f6e\n        /* \"#utility.yul\":21413:21414   */\n      0x00\n        /* \"#utility.yul\":21405:21411   */\n      dup3\n        /* \"#utility.yul\":21401:21415   */\n      add\n        /* \"#utility.yul\":21394:21452   */\n      mstore\n        /* \"#utility.yul\":21277:21459   */\n      pop\n      jump\t// out\n        /* \"#utility.yul\":21465:21831   */\n    tag_359:\n        /* \"#utility.yul\":21607:21610   */\n      0x00\n        /* \"#utility.yul\":21628:21695   */\n      tag_579\n        /* \"#utility.yul\":21692:21694   */\n      0x20\n        /* \"#utility.yul\":21687:21690   */\n      dup4\n        /* \"#utility.yul\":21628:21695   */\n      tag_335\n      jump\t// in\n    tag_579:\n        /* \"#utility.yul\":21621:21695   */\n      swap2\n      pop\n        /* \"#utility.yul\":21704:21797   */\n      tag_580\n        /* \"#utility.yul\":21793:21796   */\n      dup3\n        /* \"#utility.yul\":21704:21797   */\n      tag_358\n      jump\t// in\n    tag_580:\n        /* \"#utility.yul\":21822:21824   */\n      0x20\n        /* \"#utility.yul\":21817:21820   */\n      dup3\n        /* \"#utility.yul\":21813:21825   */\n      add\n        /* \"#utility.yul\":21806:21825   */\n      swap1\n      pop\n        /* \"#utility.yul\":21465:21831   */\n      swap2\n      swap1\n      pop\n      jump\t// out\n        /* \"#utility.yul\":21837:22256   */\n    tag_97:\n        /* \"#utility.yul\":22003:22007   */\n      0x00\n        /* \"#utility.yul\":22041:22043   */\n      0x20\n        /* \"#utility.yul\":22030:22039   */\n      dup3\n        /* \"#utility.yul\":22026:22044   */\n      add\n        /* \"#utility.yul\":22018:22044   */\n      swap1\n      pop\n        /* \"#utility.yul\":22090:22099   */\n      dup2\n        /* \"#utility.yul\":22084:22088   */\n      dup2\n        /* \"#utility.yul\":22080:22100   */\n      sub\n        /* \"#utility.yul\":22076:22077   */\n      0x00\n        /* \"#utility.yul\":22065:22074   */\n      dup4\n        /* \"#utility.yul\":22061:22078   */\n      add\n        /* \"#utility.yul\":22054:22101   */\n      mstore\n        /* \"#utility.yul\":22118:22249   */\n      tag_582\n        /* \"#utility.yul\":22244:22248   */\n      dup2\n        /* \"#utility.yul\":22118:22249   */\n      tag_359\n      jump\t// in\n    tag_582:\n        /* \"#utility.yul\":22110:22249   */\n      swap1\n      pop\n        /* \"#utility.yul\":21837:22256   */\n      swap2\n      swap1\n      pop\n      jump\t// out\n        /* \"#utility.yul\":22262:22428   */\n    tag_360:\n        /* \"#utility.yul\":22402:22420   */\n      0x4e6f2066696c652070726f766964656400000000000000000000000000000000\n        /* \"#utility.yul\":22398:22399   */\n      0x00\n        /* \"#utility.yul\":22390:22396   */\n      dup3\n        /* \"#utility.yul\":22386:22400   */\n      add\n        /* \"#utility.yul\":22379:22421   */\n      mstore\n        /* \"#utility.yul\":22262:22428   */\n      pop\n      jump\t// out\n        /* \"#utility.yul\":22434:22800   */\n    tag_361:\n        /* \"#utility.yul\":22576:22579   */\n      0x00\n        /* \"#utility.yul\":22597:22664   */\n      tag_585\n        /* \"#utility.yul\":22661:22663   */\n      0x10\n        /* \"#utility.yul\":22656:22659   */\n      dup4\n        /* \"#utility.yul\":22597:22664   */\n      tag_335\n      jump\t// in\n    tag_585:\n        /* \"#utility.yul\":22590:22664   */\n      swap2\n      pop\n        /* \"#utility.yul\":22673:22766   */\n      tag_586\n        /* \"#utility.yul\":22762:22765   */\n      dup3\n        /* \"#utility.yul\":22673:22766   */\n      tag_360\n      jump\t// in\n    tag_586:\n        /* \"#utility.yul\":22791:22793   */\n      0x20\n        /* \"#utility.yul\":22786:22789   */\n      dup3\n        /* \"#utility.yul\":22782:22794   */\n      add\n        /* \"#utility.yul\":22775:22794   */\n      swap1\n      pop\n        /* \"#utility.yul\":22434:22800   */\n      swap2\n      swap1\n      pop\n      jump\t// out\n        /* \"#utility.yul\":22806:23225   */\n    tag_101:\n        /* \"#utility.yul\":22972:22976   */\n      0x00\n        /* \"#utility.yul\":23010:23012   */\n      0x20\n        /* \"#utility.yul\":22999:23008   */\n      dup3\n        /* \"#utility.yul\":22995:23013   */\n      add\n        /* \"#utility.yul\":22987:23013   */\n      swap1\n      pop\n        /* \"#utility.yul\":23059:23068   */\n      dup2\n        /* \"#utility.yul\":23053:23057   */\n      dup2\n        /* \"#utility.yul\":23049:23069   */\n      sub\n        /* \"#utility.yul\":23045:23046   */\n      0x00\n        /* \"#utility.yul\":23034:23043   */\n      dup4\n        /* \"#utility.yul\":23030:23047   */\n      add\n        /* \"#utility.yul\":23023:23070   */\n      mstore\n        /* \"#utility.yul\":23087:23218   */\n      tag_588\n        /* \"#utility.yul\":23213:23217   */\n      dup2\n        /* \"#utility.yul\":23087:23218   */\n      tag_361\n      jump\t// in\n    tag_588:\n        /* \"#utility.yul\":23079:23218   */\n      swap1\n      pop\n        /* \"#utility.yul\":22806:23225   */\n      swap2\n      swap1\n      pop\n      jump\t// out\n        /* \"#utility.yul\":23231:23411   */\n    tag_362:\n        /* \"#utility.yul\":23279:23356   */\n      0x4e487b7100000000000000000000000000000000000000000000000000000000\n        /* \"#utility.yul\":23276:23277   */\n      0x00\n        /* \"#utility.yul\":23269:23357   */\n      mstore\n        /* \"#utility.yul\":23376:23380   */\n      0x11\n        /* \"#utility.yul\":23373:23374   */\n      0x04\n        /* \"#utility.yul\":23366:23381   */\n      mstore\n        /* \"#utility.yul\":23400:23404   */\n      0x24\n        /* \"#utility.yul\":23397:23398   */\n      0x00\n        /* \"#utility.yul\":23390:23405   */\n      revert\n        /* \"#utility.yul\":23417:23650   */\n    tag_103:\n        /* \"#utility.yul\":23456:23459   */\n      0x00\n        /* \"#utility.yul\":23479:23503   */\n      tag_591\n        /* \"#utility.yul\":23497:23502   */\n      dup3\n        /* \"#utility.yul\":23479:23503   */\n      tag_314\n      jump\t// in\n    tag_591:\n        /* \"#utility.yul\":23470:23503   */\n      swap2\n      pop\n        /* \"#utility.yul\":23525:23591   */\n      0xffffffffffffffffffffffffffffffffffffffffffffffffffffffffffffffff\n        /* \"#utility.yul\":23518:23523   */\n      dup3\n        /* \"#utility.yul\":23515:23592   */\n      sub\n        /* \"#utility.yul\":23512:23615   */\n      tag_592\n      jumpi\n        /* \"#utility.yul\":23595:23613   */\n      tag_593\n      tag_362\n      jump\t// in\n    tag_593:\n        /* \"#utility.yul\":23512:23615   */\n    tag_592:\n        /* \"#utility.yul\":23642:23643   */\n      0x01\n        /* \"#utility.yul\":23635:23640   */\n      dup3\n        /* \"#utility.yul\":23631:23644   */\n      add\n        /* \"#utility.yul\":23624:23644   */\n      swap1\n      pop\n        /* \"#utility.yul\":23417:23650   */\n      swap2\n      swap1\n      pop\n      jump\t// out\n        /* \"#utility.yul\":23656:23836   */\n    tag_363:\n        /* \"#utility.yul\":23704:23781   */\n      0x4e487b7100000000000000000000000000000000000000000000000000000000\n        /* \"#utility.yul\":23701:23702   */\n      0x00\n        /* \"#utility.yul\":23694:23782   */\n      mstore\n        /* \"#utility.yul\":23801:23805   */\n      0x22\n        /* \"#utility.yul\":23798:23799   */\n      0x04\n        /* \"#utility.yul\":23791:23806   */\n      mstore\n        /* \"#utility.yul\":23825:23829   */\n      0x24\n        /* \"#utility.yul\":23822:23823   */\n      0x00\n        /* \"#utility.yul\":23815:23830   */\n      revert\n        /* \"#utility.yul\":23842:24162   */\n    tag_137:\n        /* \"#utility.yul\":23886:23892   */\n      0x00\n        /* \"#utility.yul\":23923:23924   */\n      0x02\n        /* \"#utility.yul\":23917:23921   */\n      dup3\n        /* \"#utility.yul\":23913:23925   */\n      div\n        /* \"#utility.yul\":23903:23925   */\n      swap1\n      pop\n        /* \"#utility.yul\":23970:23971   */\n      0x01\n        /* \"#utility.yul\":23964:23968   */\n      dup3\n        /* \"#utility.yul\":23960:23972   */\n      and\n        /* \"#utility.yul\":23991:24009   */\n      dup1\n        /* \"#utility.yul\":23981:24062   */\n      tag_596\n      jumpi\n        /* \"#utility.yul\":24047:24051   */\n      0x7f\n        /* \"#utility.yul\":24039:24045   */\n      dup3\n        /* \"#utility.yul\":24035:24052   */\n      and\n        /* \"#utility.yul\":24025:24052   */\n      swap2\n      pop\n        /* \"#utility.yul\":23981:24062   */\n    tag_596:\n        /* \"#utility.yul\":24109:24111   */\n      0x20\n        /* \"#utility.yul\":24101:24107   */\n      dup3\n        /* \"#utility.yul\":24098:24112   */\n      lt\n        /* \"#utility.yul\":24078:24096   */\n      dup2\n        /* \"#utility.yul\":24075:24113   */\n      sub\n        /* \"#utility.yul\":24072:24156   */\n      tag_597\n      jumpi\n        /* \"#utility.yul\":24128:24146   */\n      tag_598\n      tag_363\n      jump\t// in\n    tag_598:\n        /* \"#utility.yul\":24072:24156   */\n    tag_597:\n        /* \"#utility.yul\":23893:24162   */\n      pop\n        /* \"#utility.yul\":23842:24162   */\n      swap2\n      swap1\n      pop\n      jump\t// out\n        /* \"#utility.yul\":24168:24309   */\n    tag_364:\n        /* \"#utility.yul\":24217:24221   */\n      0x00\n        /* \"#utility.yul\":24240:24243   */\n      dup2\n        /* \"#utility.yul\":24232:24243   */\n      swap1\n      pop\n        /* \"#utility.yul\":24263:24266   */\n      dup2\n        /* \"#utility.yul\":24260:24261   */\n      0x00\n        /* \"#utility.yul\":24253:24267   */\n      mstore\n        /* \"#utility.yul\":24297:24301   */\n      0x20\n        /* \"#utility.yul\":24294:24295   */\n      0x00\n        /* \"#utility.yul\":24284:24302   */\n      keccak256\n        /* \"#utility.yul\":24276:24302   */\n      swap1\n      pop\n        /* \"#utility.yul\":24168:24309   */\n      swap2\n      swap1\n      pop\n      jump\t// out\n        /* \"#utility.yul\":24315:24408   */\n    tag_365:\n        /* \"#utility.yul\":24352:24358   */\n      0x00\n        /* \"#utility.yul\":24399:24401   */\n      0x20\n        /* \"#utility.yul\":24394:24396   */\n      0x1f\n        /* \"#utility.yul\":24387:24392   */\n      dup4\n        /* \"#utility.yul\":24383:24397   */\n      add\n        /* \"#utility.yul\":24379:24402   */\n      div\n        /* \"#utility.yul\":24369:24402   */\n      swap1\n      pop\n        /* \"#utility.yul\":24315:24408   */\n      swap2\n      swap1\n      pop\n      jump\t// out\n        /* \"#utility.yul\":24414:24521   */\n    tag_366:\n        /* \"#utility.yul\":24458:24466   */\n      0x00\n        /* \"#utility.yul\":24508:24513   */\n      dup3\n        /* \"#utility.yul\":24502:24506   */\n      dup3\n        /* \"#utility.yul\":24498:24514   */\n      shl\n        /* \"#utility.yul\":24477:24514   */\n      swap1\n      pop\n        /* \"#utility.yul\":24414:24521   */\n      swap3\n      swap2\n      pop\n      pop\n      jump\t// out\n        /* \"#utility.yul\":24527:24920   */\n    tag_367:\n        /* \"#utility.yul\":24596:24602   */\n      0x00\n        /* \"#utility.yul\":24646:24647   */\n      0x08\n        /* \"#utility.yul\":24634:24644   */\n      dup4\n        /* \"#utility.yul\":24630:24648   */\n      mul\n        /* \"#utility.yul\":24669:24766   */\n      tag_603\n        /* \"#utility.yul\":24699:24765   */\n      0xffffffffffffffffffffffffffffffffffffffffffffffffffffffffffffffff\n        /* \"#utility.yul\":24688:24697   */\n      dup3\n        /* \"#utility.yul\":24669:24766   */\n      tag_366\n      jump\t// in\n    tag_603:\n        /* \"#utility.yul\":24787:24826   */\n      tag_604\n        /* \"#utility.yul\":24817:24825   */\n      dup7\n        /* \"#utility.yul\":24806:24815   */\n      dup4\n        /* \"#utility.yul\":24787:24826   */\n      tag_366\n      jump\t// in\n    tag_604:\n        /* \"#utility.yul\":24775:24826   */\n      swap6\n      pop\n        /* \"#utility.yul\":24859:24863   */\n      dup1\n        /* \"#utility.yul\":24855:24864   */\n      not\n        /* \"#utility.yul\":24848:24853   */\n      dup5\n        /* \"#utility.yul\":24844:24865   */\n      and\n        /* \"#utility.yul\":24835:24865   */\n      swap4\n      pop\n        /* \"#utility.yul\":24908:24912   */\n      dup1\n        /* \"#utility.yul\":24898:24906   */\n      dup7\n        /* \"#utility.yul\":24894:24913   */\n      and\n        /* \"#utility.yul\":24887:24892   */\n      dup5\n        /* \"#utility.yul\":24884:24914   */\n      or\n        /* \"#utility.yul\":24874:24914   */\n      swap3\n      pop\n        /* \"#utility.yul\":24603:24920   */\n      pop\n      pop\n        /* \"#utility.yul\":24527:24920   */\n      swap4\n      swap3\n      pop\n      pop\n      pop\n      jump\t// out\n        /* \"#utility.yul\":24926:24986   */\n    tag_368:\n        /* \"#utility.yul\":24954:24957   */\n      0x00\n        /* \"#utility.yul\":24975:24980   */\n      dup2\n        /* \"#utility.yul\":24968:24980   */\n      swap1\n      pop\n        /* \"#utility.yul\":24926:24986   */\n      swap2\n      swap1\n      pop\n      jump\t// out\n        /* \"#utility.yul\":24992:25134   */\n    tag_369:\n        /* \"#utility.yul\":25042:25051   */\n      0x00\n        /* \"#utility.yul\":25075:25128   */\n      tag_607\n        /* \"#utility.yul\":25093:25127   */\n      tag_608\n        /* \"#utility.yul\":25102:25126   */\n      tag_609\n        /* \"#utility.yul\":25120:25125   */\n      dup5\n        /* \"#utility.yul\":25102:25126   */\n      tag_314\n      jump\t// in\n    tag_609:\n        /* \"#utility.yul\":25093:25127   */\n      tag_368\n      jump\t// in\n    tag_608:\n        /* \"#utility.yul\":25075:25128   */\n      tag_314\n      jump\t// in\n    tag_607:\n        /* \"#utility.yul\":25062:25128   */\n      swap1\n      pop\n        /* \"#utility.yul\":24992:25134   */\n      swap2\n      swap1\n      pop\n      jump\t// out\n        /* \"#utility.yul\":25140:25215   */\n    tag_370:\n        /* \"#utility.yul\":25183:25186   */\n      0x00\n        /* \"#utility.yul\":25204:25209   */\n      dup2\n        /* \"#utility.yul\":25197:25209   */\n      swap1\n      pop\n        /* \"#utility.yul\":25140:25215   */\n      swap2\n      swap1\n      pop\n      jump\t// out\n        /* \"#utility.yul\":25221:25490   */\n    tag_371:\n        /* \"#utility.yul\":25331:25370   */\n      tag_612\n        /* \"#utility.yul\":25362:25369   */\n      dup4\n        /* \"#utility.yul\":25331:25370   */\n      tag_369\n      jump\t// in\n    tag_612:\n        /* \"#utility.yul\":25392:25483   */\n      tag_613\n        /* \"#utility.yul\":25441:25482   */\n      tag_614\n        /* \"#utility.yul\":25465:25481   */\n      dup3\n        /* \"#utility.yul\":25441:25482   */\n      tag_370\n      jump\t// in\n    tag_614:\n        /* \"#utility.yul\":25433:25439   */\n      dup5\n        /* \"#utility.yul\":25426:25430   */\n      dup5\n        /* \"#utility.yul\":25420:25431   */\n      sload\n        /* \"#utility.yul\":25392:25483   */\n      tag_367\n      jump\t// in\n    tag_613:\n        /* \"#utility.yul\":25386:25390   */\n      dup3\n        /* \"#utility.yul\":25379:25484   */\n      sstore\n        /* \"#utility.yul\":25297:25490   */\n      pop\n        /* \"#utility.yul\":25221:25490   */\n      pop\n      pop\n      pop\n      jump\t// out\n        /* \"#utility.yul\":25496:25569   */\n    tag_372:\n        /* \"#utility.yul\":25541:25544   */\n      0x00\n        /* \"#utility.yul\":25496:25569   */\n      swap1\n      jump\t// out\n        /* \"#utility.yul\":25575:25764   */\n    tag_373:\n        /* \"#utility.yul\":25652:25684   */\n      tag_617\n      tag_372\n      jump\t// in\n    tag_617:\n        /* \"#utility.yul\":25693:25758   */\n      tag_618\n        /* \"#utility.yul\":25751:25757   */\n      dup2\n        /* \"#utility.yul\":25743:25749   */\n      dup5\n        /* \"#utility.yul\":25737:25741   */\n      dup5\n        /* \"#utility.yul\":25693:25758   */\n      tag_371\n      jump\t// in\n    tag_618:\n        /* \"#utility.yul\":25628:25764   */\n      pop\n        /* \"#utility.yul\":25575:25764   */\n      pop\n      pop\n      jump\t// out\n        /* \"#utility.yul\":25770:25956   */\n    tag_374:\n        /* \"#utility.yul\":25830:25950   */\n    tag_620:\n        /* \"#utility.yul\":25847:25850   */\n      dup2\n        /* \"#utility.yul\":25840:25845   */\n      dup2\n        /* \"#utility.yul\":25837:25851   */\n      lt\n        /* \"#utility.yul\":25830:25950   */\n      iszero\n      tag_622\n      jumpi\n        /* \"#utility.yul\":25901:25940   */\n      tag_623\n        /* \"#utility.yul\":25938:25939   */\n      0x00\n        /* \"#utility.yul\":25931:25936   */\n      dup3\n        /* \"#utility.yul\":25901:25940   */\n      tag_373\n      jump\t// in\n    tag_623:\n        /* \"#utility.yul\":25874:25875   */\n      0x01\n        /* \"#utility.yul\":25867:25872   */\n      dup2\n        /* \"#utility.yul\":25863:25876   */\n      add\n        /* \"#utility.yul\":25854:25876   */\n      swap1\n      pop\n        /* \"#utility.yul\":25830:25950   */\n      jump(tag_620)\n    tag_622:\n        /* \"#utility.yul\":25770:25956   */\n      pop\n      pop\n      jump\t// out\n        /* \"#utility.yul\":25962:26505   */\n    tag_375:\n        /* \"#utility.yul\":26063:26065   */\n      0x1f\n        /* \"#utility.yul\":26058:26061   */\n      dup3\n        /* \"#utility.yul\":26055:26066   */\n      gt\n        /* \"#utility.yul\":26052:26498   */\n      iszero\n      tag_625\n      jumpi\n        /* \"#utility.yul\":26097:26135   */\n      tag_626\n        /* \"#utility.yul\":26129:26134   */\n      dup2\n        /* \"#utility.yul\":26097:26135   */\n      tag_364\n      jump\t// in\n    tag_626:\n        /* \"#utility.yul\":26181:26210   */\n      tag_627\n        /* \"#utility.yul\":26199:26209   */\n      dup5\n        /* \"#utility.yul\":26181:26210   */\n      tag_365\n      jump\t// in\n    tag_627:\n        /* \"#utility.yul\":26171:26179   */\n      dup2\n        /* \"#utility.yul\":26167:26211   */\n      add\n        /* \"#utility.yul\":26364:26366   */\n      0x20\n        /* \"#utility.yul\":26352:26362   */\n      dup6\n        /* \"#utility.yul\":26349:26367   */\n      lt\n        /* \"#utility.yul\":26346:26395   */\n      iszero\n      tag_628\n      jumpi\n        /* \"#utility.yul\":26385:26393   */\n      dup2\n        /* \"#utility.yul\":26370:26393   */\n      swap1\n      pop\n        /* \"#utility.yul\":26346:26395   */\n    tag_628:\n        /* \"#utility.yul\":26408:26488   */\n      tag_629\n        /* \"#utility.yul\":26464:26486   */\n      tag_630\n        /* \"#utility.yul\":26482:26485   */\n      dup6\n        /* \"#utility.yul\":26464:26486   */\n      tag_365\n      jump\t// in\n    tag_630:\n        /* \"#utility.yul\":26454:26462   */\n      dup4\n        /* \"#utility.yul\":26450:26487   */\n      add\n        /* \"#utility.yul\":26437:26448   */\n      dup3\n        /* \"#utility.yul\":26408:26488   */\n      tag_374\n      jump\t// in\n    tag_629:\n        /* \"#utility.yul\":26067:26498   */\n      pop\n      pop\n        /* \"#utility.yul\":26052:26498   */\n    tag_625:\n        /* \"#utility.yul\":25962:26505   */\n      pop\n      pop\n      pop\n      jump\t// out\n        /* \"#utility.yul\":26511:26628   */\n    tag_376:\n        /* \"#utility.yul\":26565:26573   */\n      0x00\n        /* \"#utility.yul\":26615:26620   */\n      dup3\n        /* \"#utility.yul\":26609:26613   */\n      dup3\n        /* \"#utility.yul\":26605:26621   */\n      shr\n        /* \"#utility.yul\":26584:26621   */\n      swap1\n      pop\n        /* \"#utility.yul\":26511:26628   */\n      swap3\n      swap2\n      pop\n      pop\n      jump\t// out\n        /* \"#utility.yul\":26634:26803   */\n    tag_377:\n        /* \"#utility.yul\":26678:26684   */\n      0x00\n        /* \"#utility.yul\":26711:26762   */\n      tag_633\n        /* \"#utility.yul\":26759:26760   */\n      0x00\n        /* \"#utility.yul\":26755:26761   */\n      not\n        /* \"#utility.yul\":26747:26752   */\n      dup5\n        /* \"#utility.yul\":26744:26745   */\n      0x08\n        /* \"#utility.yul\":26740:26753   */\n      mul\n        /* \"#utility.yul\":26711:26762   */\n      tag_376\n      jump\t// in\n    tag_633:\n        /* \"#utility.yul\":26707:26763   */\n      not\n        /* \"#utility.yul\":26792:26796   */\n      dup1\n        /* \"#utility.yul\":26786:26790   */\n      dup4\n        /* \"#utility.yul\":26782:26797   */\n      and\n        /* \"#utility.yul\":26772:26797   */\n      swap2\n      pop\n        /* \"#utility.yul\":26685:26803   */\n      pop\n        /* \"#utility.yul\":26634:26803   */\n      swap3\n      swap2\n      pop\n      pop\n      jump\t// out\n        /* \"#utility.yul\":26808:27103   */\n    tag_378:\n        /* \"#utility.yul\":26884:26888   */\n      0x00\n        /* \"#utility.yul\":27030:27059   */\n      tag_635\n        /* \"#utility.yul\":27055:27058   */\n      dup4\n        /* \"#utility.yul\":27049:27053   */\n      dup4\n        /* \"#utility.yul\":27030:27059   */\n      tag_377\n      jump\t// in\n    tag_635:\n        /* \"#utility.yul\":27022:27059   */\n      swap2\n      pop\n        /* \"#utility.yul\":27092:27095   */\n      dup3\n        /* \"#utility.yul\":27089:27090   */\n      0x02\n        /* \"#utility.yul\":27085:27096   */\n      mul\n        /* \"#utility.yul\":27079:27083   */\n      dup3\n        /* \"#utility.yul\":27076:27097   */\n      or\n        /* \"#utility.yul\":27068:27097   */\n      swap1\n      pop\n        /* \"#utility.yul\":26808:27103   */\n      swap3\n      swap2\n      pop\n      pop\n      jump\t// out\n        /* \"#utility.yul\":27108:28503   */\n    tag_108:\n        /* \"#utility.yul\":27225:27262   */\n      tag_637\n        /* \"#utility.yul\":27258:27261   */\n      dup3\n        /* \"#utility.yul\":27225:27262   */\n      tag_326\n      jump\t// in\n    tag_637:\n        /* \"#utility.yul\":27327:27345   */\n      0xffffffffffffffff\n        /* \"#utility.yul\":27319:27325   */\n      dup2\n        /* \"#utility.yul\":27316:27346   */\n      gt\n        /* \"#utility.yul\":27313:27369   */\n      iszero\n      tag_638\n      jumpi\n        /* \"#utility.yul\":27349:27367   */\n      tag_639\n      tag_120\n      jump\t// in\n    tag_639:\n        /* \"#utility.yul\":27313:27369   */\n    tag_638:\n        /* \"#utility.yul\":27393:27431   */\n      tag_640\n        /* \"#utility.yul\":27425:27429   */\n      dup3\n        /* \"#utility.yul\":27419:27430   */\n      sload\n        /* \"#utility.yul\":27393:27431   */\n      tag_137\n      jump\t// in\n    tag_640:\n        /* \"#utility.yul\":27478:27545   */\n      tag_641\n        /* \"#utility.yul\":27538:27544   */\n      dup3\n        /* \"#utility.yul\":27530:27536   */\n      dup3\n        /* \"#utility.yul\":27524:27528   */\n      dup6\n        /* \"#utility.yul\":27478:27545   */\n      tag_375\n      jump\t// in\n    tag_641:\n        /* \"#utility.yul\":27572:27573   */\n      0x00\n        /* \"#utility.yul\":27596:27600   */\n      0x20\n        /* \"#utility.yul\":27583:27600   */\n      swap1\n      pop\n        /* \"#utility.yul\":27628:27630   */\n      0x1f\n        /* \"#utility.yul\":27620:27626   */\n      dup4\n        /* \"#utility.yul\":27617:27631   */\n      gt\n        /* \"#utility.yul\":27645:27646   */\n      0x01\n        /* \"#utility.yul\":27640:28258   */\n      dup2\n      eq\n      tag_643\n      jumpi\n        /* \"#utility.yul\":28302:28303   */\n      0x00\n        /* \"#utility.yul\":28319:28325   */\n      dup5\n        /* \"#utility.yul\":28316:28393   */\n      iszero\n      tag_644\n      jumpi\n        /* \"#utility.yul\":28368:28377   */\n      dup3\n        /* \"#utility.yul\":28363:28366   */\n      dup8\n        /* \"#utility.yul\":28359:28378   */\n      add\n        /* \"#utility.yul\":28353:28379   */\n      mload\n        /* \"#utility.yul\":28344:28379   */\n      swap1\n      pop\n        /* \"#utility.yul\":28316:28393   */\n    tag_644:\n        /* \"#utility.yul\":28419:28486   */\n      tag_645\n        /* \"#utility.yul\":28479:28485   */\n      dup6\n        /* \"#utility.yul\":28472:28477   */\n      dup3\n        /* \"#utility.yul\":28419:28486   */\n      tag_378\n      jump\t// in\n    tag_645:\n        /* \"#utility.yul\":28413:28417   */\n      dup7\n        /* \"#utility.yul\":28406:28487   */\n      sstore\n        /* \"#utility.yul\":28275:28497   */\n      pop\n        /* \"#utility.yul\":27610:28497   */\n      jump(tag_642)\n        /* \"#utility.yul\":27640:28258   */\n    tag_643:\n        /* \"#utility.yul\":27692:27696   */\n      0x1f\n        /* \"#utility.yul\":27688:27697   */\n      not\n        /* \"#utility.yul\":27680:27686   */\n      dup5\n        /* \"#utility.yul\":27676:27698   */\n      and\n        /* \"#utility.yul\":27726:27763   */\n      tag_646\n        /* \"#utility.yul\":27758:27762   */\n      dup7\n        /* \"#utility.yul\":27726:27763   */\n      tag_364\n      jump\t// in\n    tag_646:\n        /* \"#utility.yul\":27785:27786   */\n      0x00\n        /* \"#utility.yul\":27799:28007   */\n    tag_647:\n        /* \"#utility.yul\":27813:27820   */\n      dup3\n        /* \"#utility.yul\":27810:27811   */\n      dup2\n        /* \"#utility.yul\":27807:27821   */\n      lt\n        /* \"#utility.yul\":27799:28007   */\n      iszero\n      tag_649\n      jumpi\n        /* \"#utility.yul\":27892:27901   */\n      dup5\n        /* \"#utility.yul\":27887:27890   */\n      dup10\n        /* \"#utility.yul\":27883:27902   */\n      add\n        /* \"#utility.yul\":27877:27903   */\n      mload\n        /* \"#utility.yul\":27869:27875   */\n      dup3\n        /* \"#utility.yul\":27862:27904   */\n      sstore\n        /* \"#utility.yul\":27943:27944   */\n      0x01\n        /* \"#utility.yul\":27935:27941   */\n      dup3\n        /* \"#utility.yul\":27931:27945   */\n      add\n        /* \"#utility.yul\":27921:27945   */\n      swap2\n      pop\n        /* \"#utility.yul\":27990:27992   */\n      0x20\n        /* \"#utility.yul\":27979:27988   */\n      dup6\n        /* \"#utility.yul\":27975:27993   */\n      add\n        /* \"#utility.yul\":27962:27993   */\n      swap5\n      pop\n        /* \"#utility.yul\":27836:27840   */\n      0x20\n        /* \"#utility.yul\":27833:27834   */\n      dup2\n        /* \"#utility.yul\":27829:27841   */\n      add\n        /* \"#utility.yul\":27824:27841   */\n      swap1\n      pop\n        /* \"#utility.yul\":27799:28007   */\n      jump(tag_647)\n    tag_649:\n        /* \"#utility.yul\":28035:28041   */\n      dup7\n        /* \"#utility.yul\":28026:28033   */\n      dup4\n        /* \"#utility.yul\":28023:28042   */\n      lt\n        /* \"#utility.yul\":28020:28199   */\n      iszero\n      tag_650\n      jumpi\n        /* \"#utility.yul\":28093:28102   */\n      dup5\n        /* \"#utility.yul\":28088:28091   */\n      dup10\n        /* \"#utility.yul\":28084:28103   */\n      add\n        /* \"#utility.yul\":28078:28104   */\n      mload\n        /* \"#utility.yul\":28136:28184   */\n      tag_651\n        /* \"#utility.yul\":28178:28182   */\n      0x1f\n        /* \"#utility.yul\":28170:28176   */\n      dup10\n        /* \"#utility.yul\":28166:28183   */\n      and\n        /* \"#utility.yul\":28155:28164   */\n      dup3\n        /* \"#utility.yul\":28136:28184   */\n      tag_377\n      jump\t// in\n    tag_651:\n        /* \"#utility.yul\":28128:28134   */\n      dup4\n        /* \"#utility.yul\":28121:28185   */\n      sstore\n        /* \"#utility.yul\":28043:28199   */\n      pop\n        /* \"#utility.yul\":28020:28199   */\n    tag_650:\n        /* \"#utility.yul\":28245:28246   */\n      0x01\n        /* \"#utility.yul\":28241:28242   */\n      0x02\n        /* \"#utility.yul\":28233:28239   */\n      dup9\n        /* \"#utility.yul\":28229:28243   */\n      mul\n        /* \"#utility.yul\":28225:28247   */\n      add\n        /* \"#utility.yul\":28219:28223   */\n      dup9\n        /* \"#utility.yul\":28212:28248   */\n      sstore\n        /* \"#utility.yul\":27647:28258   */\n      pop\n      pop\n      pop\n        /* \"#utility.yul\":27610:28497   */\n    tag_642:\n      pop\n        /* \"#utility.yul\":27200:28503   */\n      pop\n      pop\n      pop\n        /* \"#utility.yul\":27108:28503   */\n      pop\n      pop\n      jump\t// out\n        /* \"#utility.yul\":28509:29133   */\n    tag_114:\n        /* \"#utility.yul\":28698:28702   */\n      0x00\n        /* \"#utility.yul\":28736:28738   */\n      0x60\n        /* \"#utility.yul\":28725:28734   */\n      dup3\n        /* \"#utility.yul\":28721:28739   */\n      add\n        /* \"#utility.yul\":28713:28739   */\n      swap1\n      pop\n        /* \"#utility.yul\":28749:28820   */\n      tag_653\n        /* \"#utility.yul\":28817:28818   */\n      0x00\n        /* \"#utility.yul\":28806:28815   */\n      dup4\n        /* \"#utility.yul\":28802:28819   */\n      add\n        /* \"#utility.yul\":28793:28799   */\n      dup7\n        /* \"#utility.yul\":28749:28820   */\n      tag_337\n      jump\t// in\n    tag_653:\n        /* \"#utility.yul\":28867:28876   */\n      dup2\n        /* \"#utility.yul\":28861:28865   */\n      dup2\n        /* \"#utility.yul\":28857:28877   */\n      sub\n        /* \"#utility.yul\":28852:28854   */\n      0x20\n        /* \"#utility.yul\":28841:28850   */\n      dup4\n        /* \"#utility.yul\":28837:28855   */\n      add\n        /* \"#utility.yul\":28830:28878   */\n      mstore\n        /* \"#utility.yul\":28895:28973   */\n      tag_654\n        /* \"#utility.yul\":28968:28972   */\n      dup2\n        /* \"#utility.yul\":28959:28965   */\n      dup6\n        /* \"#utility.yul\":28895:28973   */\n      tag_336\n      jump\t// in\n    tag_654:\n        /* \"#utility.yul\":28887:28973   */\n      swap1\n      pop\n        /* \"#utility.yul\":29020:29029   */\n      dup2\n        /* \"#utility.yul\":29014:29018   */\n      dup2\n        /* \"#utility.yul\":29010:29030   */\n      sub\n        /* \"#utility.yul\":29005:29007   */\n      0x40\n        /* \"#utility.yul\":28994:29003   */\n      dup4\n        /* \"#utility.yul\":28990:29008   */\n      add\n        /* \"#utility.yul\":28983:29031   */\n      mstore\n        /* \"#utility.yul\":29048:29126   */\n      tag_655\n        /* \"#utility.yul\":29121:29125   */\n      dup2\n        /* \"#utility.yul\":29112:29118   */\n      dup5\n        /* \"#utility.yul\":29048:29126   */\n      tag_336\n      jump\t// in\n    tag_655:\n        /* \"#utility.yul\":29040:29126   */\n      swap1\n      pop\n        /* \"#utility.yul\":28509:29133   */\n      swap5\n      swap4\n      pop\n      pop\n      pop\n      pop\n      jump\t// out\n        /* \"#utility.yul\":29139:29319   */\n    tag_134:\n        /* \"#utility.yul\":29187:29264   */\n      0x4e487b7100000000000000000000000000000000000000000000000000000000\n        /* \"#utility.yul\":29184:29185   */\n      0x00\n        /* \"#utility.yul\":29177:29265   */\n      mstore\n        /* \"#utility.yul\":29284:29288   */\n      0x32\n        /* \"#utility.yul\":29281:29282   */\n      0x04\n        /* \"#utility.yul\":29274:29289   */\n      mstore\n        /* \"#utility.yul\":29308:29312   */\n      0x24\n        /* \"#utility.yul\":29305:29306   */\n      0x00\n        /* \"#utility.yul\":29298:29313   */\n      revert\n        /* \"#utility.yul\":29325:29545   */\n    tag_379:\n        /* \"#utility.yul\":29465:29499   */\n      0x4f6e6c792061646d696e2063616e2063616c6c20746869732066756e6374696f\n        /* \"#utility.yul\":29461:29462   */\n      0x00\n        /* \"#utility.yul\":29453:29459   */\n      dup3\n        /* \"#utility.yul\":29449:29463   */\n      add\n        /* \"#utility.yul\":29442:29500   */\n      mstore\n        /* \"#utility.yul\":29534:29537   */\n      0x6e00000000000000000000000000000000000000000000000000000000000000\n        /* \"#utility.yul\":29529:29531   */\n      0x20\n        /* \"#utility.yul\":29521:29527   */\n      dup3\n        /* \"#utility.yul\":29517:29532   */\n      add\n        /* \"#utility.yul\":29510:29538   */\n      mstore\n        /* \"#utility.yul\":29325:29545   */\n      pop\n      jump\t// out\n        /* \"#utility.yul\":29551:29917   */\n    tag_380:\n        /* \"#utility.yul\":29693:29696   */\n      0x00\n        /* \"#utility.yul\":29714:29781   */\n      tag_659\n        /* \"#utility.yul\":29778:29780   */\n      0x21\n        /* \"#utility.yul\":29773:29776   */\n      dup4\n        /* \"#utility.yul\":29714:29781   */\n      tag_335\n      jump\t// in\n    tag_659:\n        /* \"#utility.yul\":29707:29781   */\n      swap2\n      pop\n        /* \"#utility.yul\":29790:29883   */\n      tag_660\n        /* \"#utility.yul\":29879:29882   */\n      dup3\n        /* \"#utility.yul\":29790:29883   */\n      tag_379\n      jump\t// in\n    tag_660:\n        /* \"#utility.yul\":29908:29910   */\n      0x40\n        /* \"#utility.yul\":29903:29906   */\n      dup3\n        /* \"#utility.yul\":29899:29911   */\n      add\n        /* \"#utility.yul\":29892:29911   */\n      swap1\n      pop\n        /* \"#utility.yul\":29551:29917   */\n      swap2\n      swap1\n      pop\n      jump\t// out\n        /* \"#utility.yul\":29923:30342   */\n    tag_155:\n        /* \"#utility.yul\":30089:30093   */\n      0x00\n        /* \"#utility.yul\":30127:30129   */\n      0x20\n        /* \"#utility.yul\":30116:30125   */\n      dup3\n        /* \"#utility.yul\":30112:30130   */\n      add\n        /* \"#utility.yul\":30104:30130   */\n      swap1\n      pop\n        /* \"#utility.yul\":30176:30185   */\n      dup2\n        /* \"#utility.yul\":30170:30174   */\n      dup2\n        /* \"#utility.yul\":30166:30186   */\n      sub\n        /* \"#utility.yul\":30162:30163   */\n      0x00\n        /* \"#utility.yul\":30151:30160   */\n      dup4\n        /* \"#utility.yul\":30147:30164   */\n      add\n        /* \"#utility.yul\":30140:30187   */\n      mstore\n        /* \"#utility.yul\":30204:30335   */\n      tag_662\n        /* \"#utility.yul\":30330:30334   */\n      dup2\n        /* \"#utility.yul\":30204:30335   */\n      tag_380\n      jump\t// in\n    tag_662:\n        /* \"#utility.yul\":30196:30335   */\n      swap1\n      pop\n        /* \"#utility.yul\":29923:30342   */\n      swap2\n      swap1\n      pop\n      jump\t// out\n        /* \"#utility.yul\":30348:30527   */\n    tag_381:\n        /* \"#utility.yul\":30488:30519   */\n      0x436f6d706c61696e7420697320616c7265616479207265736f6c766564000000\n        /* \"#utility.yul\":30484:30485   */\n      0x00\n        /* \"#utility.yul\":30476:30482   */\n      dup3\n        /* \"#utility.yul\":30472:30486   */\n      add\n        /* \"#utility.yul\":30465:30520   */\n      mstore\n        /* \"#utility.yul\":30348:30527   */\n      pop\n      jump\t// out\n        /* \"#utility.yul\":30533:30899   */\n    tag_382:\n        /* \"#utility.yul\":30675:30678   */\n      0x00\n        /* \"#utility.yul\":30696:30763   */\n      tag_665\n        /* \"#utility.yul\":30760:30762   */\n      0x1d\n        /* \"#utility.yul\":30755:30758   */\n      dup4\n        /* \"#utility.yul\":30696:30763   */\n      tag_335\n      jump\t// in\n    tag_665:\n        /* \"#utility.yul\":30689:30763   */\n      swap2\n      pop\n        /* \"#utility.yul\":30772:30865   */\n      tag_666\n        /* \"#utility.yul\":30861:30864   */\n      dup3\n        /* \"#utility.yul\":30772:30865   */\n      tag_381\n      jump\t// in\n    tag_666:\n        /* \"#utility.yul\":30890:30892   */\n      0x20\n        /* \"#utility.yul\":30885:30888   */\n      dup3\n        /* \"#utility.yul\":30881:30893   */\n      add\n        /* \"#utility.yul\":30874:30893   */\n      swap1\n      pop\n        /* \"#utility.yul\":30533:30899   */\n      swap2\n      swap1\n      pop\n      jump\t// out\n        /* \"#utility.yul\":30905:31324   */\n    tag_163:\n        /* \"#utility.yul\":31071:31075   */\n      0x00\n        /* \"#utility.yul\":31109:31111   */\n      0x20\n        /* \"#utility.yul\":31098:31107   */\n      dup3\n        /* \"#utility.yul\":31094:31112   */\n      add\n        /* \"#utility.yul\":31086:31112   */\n      swap1\n      pop\n        /* \"#utility.yul\":31158:31167   */\n      dup2\n        /* \"#utility.yul\":31152:31156   */\n      dup2\n        /* \"#utility.yul\":31148:31168   */\n      sub\n        /* \"#utility.yul\":31144:31145   */\n      0x00\n        /* \"#utility.yul\":31133:31142   */\n      dup4\n        /* \"#utility.yul\":31129:31146   */\n      add\n        /* \"#utility.yul\":31122:31169   */\n      mstore\n        /* \"#utility.yul\":31186:31317   */\n      tag_668\n        /* \"#utility.yul\":31312:31316   */\n      dup2\n        /* \"#utility.yul\":31186:31317   */\n      tag_382\n      jump\t// in\n    tag_668:\n        /* \"#utility.yul\":31178:31317   */\n      swap1\n      pop\n        /* \"#utility.yul\":30905:31324   */\n      swap2\n      swap1\n      pop\n      jump\t// out\n        /* \"#utility.yul\":31330:31753   */\n    tag_167:\n        /* \"#utility.yul\":31471:31475   */\n      0x00\n        /* \"#utility.yul\":31509:31511   */\n      0x40\n        /* \"#utility.yul\":31498:31507   */\n      dup3\n        /* \"#utility.yul\":31494:31512   */\n      add\n        /* \"#utility.yul\":31486:31512   */\n      swap1\n      pop\n        /* \"#utility.yul\":31522:31593   */\n      tag_670\n        /* \"#utility.yul\":31590:31591   */\n      0x00\n        /* \"#utility.yul\":31579:31588   */\n      dup4\n        /* \"#utility.yul\":31575:31592   */\n      add\n        /* \"#utility.yul\":31566:31572   */\n      dup6\n        /* \"#utility.yul\":31522:31593   */\n      tag_337\n      jump\t// in\n    tag_670:\n        /* \"#utility.yul\":31640:31649   */\n      dup2\n        /* \"#utility.yul\":31634:31638   */\n      dup2\n        /* \"#utility.yul\":31630:31650   */\n      sub\n        /* \"#utility.yul\":31625:31627   */\n      0x20\n        /* \"#utility.yul\":31614:31623   */\n      dup4\n        /* \"#utility.yul\":31610:31628   */\n      add\n        /* \"#utility.yul\":31603:31651   */\n      mstore\n        /* \"#utility.yul\":31668:31746   */\n      tag_671\n        /* \"#utility.yul\":31741:31745   */\n      dup2\n        /* \"#utility.yul\":31732:31738   */\n      dup5\n        /* \"#utility.yul\":31668:31746   */\n      tag_336\n      jump\t// in\n    tag_671:\n        /* \"#utility.yul\":31660:31746   */\n      swap1\n      pop\n        /* \"#utility.yul\":31330:31753   */\n      swap4\n      swap3\n      pop\n      pop\n      pop\n      jump\t// out\n        /* \"#utility.yul\":31759:31914   */\n    tag_383:\n        /* \"#utility.yul\":31899:31906   */\n      0x7265706c79000000000000000000000000000000000000000000000000000000\n        /* \"#utility.yul\":31895:31896   */\n      0x00\n        /* \"#utility.yul\":31887:31893   */\n      dup3\n        /* \"#utility.yul\":31883:31897   */\n      add\n        /* \"#utility.yul\":31876:31907   */\n      mstore\n        /* \"#utility.yul\":31759:31914   */\n      pop\n      jump\t// out\n        /* \"#utility.yul\":31920:32285   */\n    tag_384:\n        /* \"#utility.yul\":32062:32065   */\n      0x00\n        /* \"#utility.yul\":32083:32149   */\n      tag_674\n        /* \"#utility.yul\":32147:32148   */\n      0x05\n        /* \"#utility.yul\":32142:32145   */\n      dup4\n        /* \"#utility.yul\":32083:32149   */\n      tag_335\n      jump\t// in\n    tag_674:\n        /* \"#utility.yul\":32076:32149   */\n      swap2\n      pop\n        /* \"#utility.yul\":32158:32251   */\n      tag_675\n        /* \"#utility.yul\":32247:32250   */\n      dup3\n        /* \"#utility.yul\":32158:32251   */\n      tag_383\n      jump\t// in\n    tag_675:\n        /* \"#utility.yul\":32276:32278   */\n      0x20\n        /* \"#utility.yul\":32271:32274   */\n      dup3\n        /* \"#utility.yul\":32267:32279   */\n      add\n        /* \"#utility.yul\":32260:32279   */\n      swap1\n      pop\n        /* \"#utility.yul\":31920:32285   */\n      swap2\n      swap1\n      pop\n      jump\t// out\n        /* \"#utility.yul\":32291:33041   */\n    tag_283:\n        /* \"#utility.yul\":32541:32545   */\n      0x00\n        /* \"#utility.yul\":32579:32582   */\n      0x80\n        /* \"#utility.yul\":32568:32577   */\n      dup3\n        /* \"#utility.yul\":32564:32583   */\n      add\n        /* \"#utility.yul\":32556:32583   */\n      swap1\n      pop\n        /* \"#utility.yul\":32593:32664   */\n      tag_677\n        /* \"#utility.yul\":32661:32662   */\n      0x00\n        /* \"#utility.yul\":32650:32659   */\n      dup4\n        /* \"#utility.yul\":32646:32663   */\n      add\n        /* \"#utility.yul\":32637:32643   */\n      dup7\n        /* \"#utility.yul\":32593:32664   */\n      tag_337\n      jump\t// in\n    tag_677:\n        /* \"#utility.yul\":32674:32746   */\n      tag_678\n        /* \"#utility.yul\":32742:32744   */\n      0x20\n        /* \"#utility.yul\":32731:32740   */\n      dup4\n        /* \"#utility.yul\":32727:32745   */\n      add\n        /* \"#utility.yul\":32718:32724   */\n      dup6\n        /* \"#utility.yul\":32674:32746   */\n      tag_319\n      jump\t// in\n    tag_678:\n        /* \"#utility.yul\":32793:32802   */\n      dup2\n        /* \"#utility.yul\":32787:32791   */\n      dup2\n        /* \"#utility.yul\":32783:32803   */\n      sub\n        /* \"#utility.yul\":32778:32780   */\n      0x40\n        /* \"#utility.yul\":32767:32776   */\n      dup4\n        /* \"#utility.yul\":32763:32781   */\n      add\n        /* \"#utility.yul\":32756:32804   */\n      mstore\n        /* \"#utility.yul\":32821:32952   */\n      tag_679\n        /* \"#utility.yul\":32947:32951   */\n      dup2\n        /* \"#utility.yul\":32821:32952   */\n      tag_384\n      jump\t// in\n    tag_679:\n        /* \"#utility.yul\":32813:32952   */\n      swap1\n      pop\n        /* \"#utility.yul\":32962:33034   */\n      tag_680\n        /* \"#utility.yul\":33030:33032   */\n      0x60\n        /* \"#utility.yul\":33019:33028   */\n      dup4\n        /* \"#utility.yul\":33015:33033   */\n      add\n        /* \"#utility.yul\":33006:33012   */\n      dup5\n        /* \"#utility.yul\":32962:33034   */\n      tag_337\n      jump\t// in\n    tag_680:\n        /* \"#utility.yul\":32291:33041   */\n      swap5\n      swap4\n      pop\n      pop\n      pop\n      pop\n      jump\t// out\n        /* \"#utility.yul\":33047:33691   */\n    tag_297:\n        /* \"#utility.yul\":33244:33248   */\n      0x00\n        /* \"#utility.yul\":33282:33285   */\n      0x80\n        /* \"#utility.yul\":33271:33280   */\n      dup3\n        /* \"#utility.yul\":33267:33286   */\n      add\n        /* \"#utility.yul\":33259:33286   */\n      swap1\n      pop\n        /* \"#utility.yul\":33296:33367   */\n      tag_682\n        /* \"#utility.yul\":33364:33365   */\n      0x00\n        /* \"#utility.yul\":33353:33362   */\n      dup4\n        /* \"#utility.yul\":33349:33366   */\n      add\n        /* \"#utility.yul\":33340:33346   */\n      dup8\n        /* \"#utility.yul\":33296:33367   */\n      tag_337\n      jump\t// in\n    tag_682:\n        /* \"#utility.yul\":33377:33449   */\n      tag_683\n        /* \"#utility.yul\":33445:33447   */\n      0x20\n        /* \"#utility.yul\":33434:33443   */\n      dup4\n        /* \"#utility.yul\":33430:33448   */\n      add\n        /* \"#utility.yul\":33421:33427   */\n      dup7\n        /* \"#utility.yul\":33377:33449   */\n      tag_319\n      jump\t// in\n    tag_683:\n        /* \"#utility.yul\":33496:33505   */\n      dup2\n        /* \"#utility.yul\":33490:33494   */\n      dup2\n        /* \"#utility.yul\":33486:33506   */\n      sub\n        /* \"#utility.yul\":33481:33483   */\n      0x40\n        /* \"#utility.yul\":33470:33479   */\n      dup4\n        /* \"#utility.yul\":33466:33484   */\n      add\n        /* \"#utility.yul\":33459:33507   */\n      mstore\n        /* \"#utility.yul\":33524:33602   */\n      tag_684\n        /* \"#utility.yul\":33597:33601   */\n      dup2\n        /* \"#utility.yul\":33588:33594   */\n      dup6\n        /* \"#utility.yul\":33524:33602   */\n      tag_336\n      jump\t// in\n    tag_684:\n        /* \"#utility.yul\":33516:33602   */\n      swap1\n      pop\n        /* \"#utility.yul\":33612:33684   */\n      tag_685\n        /* \"#utility.yul\":33680:33682   */\n      0x60\n        /* \"#utility.yul\":33669:33678   */\n      dup4\n        /* \"#utility.yul\":33665:33683   */\n      add\n        /* \"#utility.yul\":33656:33662   */\n      dup5\n        /* \"#utility.yul\":33612:33684   */\n      tag_337\n      jump\t// in\n    tag_685:\n        /* \"#utility.yul\":33047:33691   */\n      swap6\n      swap5\n      pop\n      pop\n      pop\n      pop\n      pop\n      jump\t// out\n\n    auxdata: 0xa26469706673582212205860a6a9b6f40bc23f364ea65140491ba8c62f71f52e904fa6b6a9782c665b9d64736f6c63430008190033\n}\n",
		"bytecode": {
			"linkReferences": {},
			"object": "6080604052348015600e575f80fd5b50612c1c8061001c5f395ff3fe608060405234801561000f575f80fd5b5060043610610109575f3560e01c80633ae7db25116100a05780635ab6f71b1161006f5780635ab6f71b146102df5780636d7196eb146102e95780637e69e91214610305578063d395fc0414610339578063deb514ff1461036957610109565b80633ae7db25146102555780634209fff1146102735780634d3820eb146102a35780634eaf9db6146102ad57610109565b806324d7806c116100dc57806324d7806c146101bb57806326019e7f146101eb5780632edea29414610207578063365b98b21461022557610109565b80630da3f37e1461010d57806314bfd6d014610129578063152e1e3214610159578063204f257c14610189575b5f80fd5b61012760048036038101906101229190611d6a565b610385565b005b610143600480360381019061013e9190611e41565b610601565b6040516101509190611eab565b60405180910390f35b610173600480360381019061016e9190611eee565b61063b565b604051610180919061209f565b60405180910390f35b6101a3600480360381019061019e91906120bf565b6108a5565b6040516101b293929190612154565b60405180910390f35b6101d560048036038101906101d09190611eee565b61098a565b6040516101e291906121aa565b60405180910390f35b610205600480360381019061020091906121c3565b6109a7565b005b61020f610b3b565b60405161021c919061221d565b60405180910390f35b61023f600480360381019061023a9190611e41565b610b41565b60405161024c9190611eab565b60405180910390f35b61025d610b7c565b60405161026a919061241f565b60405180910390f35b61028d60048036038101906102889190611eee565b610f5d565b60405161029a91906121aa565b60405180910390f35b6102ab610f7a565b005b6102c760048036038101906102c291906120bf565b611074565b6040516102d693929190612485565b60405180910390f35b6102e76110df565b005b61030360048036038101906102fe9190611e41565b6111d7565b005b61031f600480360381019061031a9190611e41565b61126e565b60405161033095949392919061250a565b60405180910390f35b610353600480360381019061034e9190611eee565b61147a565b604051610360919061241f565b60405180910390f35b610383600480360381019061037e91906121c3565b611807565b005b60035f3373ffffffffffffffffffffffffffffffffffffffff1673ffffffffffffffffffffffffffffffffffffffff1681526020019081526020015f205f9054906101000a900460ff1661040e576040517f08c379a0000000000000000000000000000000000000000000000000000000008152600401610405906125b3565b60405180910390fd5b5f835111610451576040517f08c379a00000000000000000000000000000000000000000000000000000000081526004016104489061261b565b60405180910390fd5b5f60075f81548092919061046490612666565b9190505590506040518060a001604052808281526020013373ffffffffffffffffffffffffffffffffffffffff1681526020018481526020015f60018111156104b0576104af61225f565b5b815260200160405180604001604052808781526020018581525081525060045f8381526020019081526020015f205f820151815f01556020820151816001015f6101000a81548173ffffffffffffffffffffffffffffffffffffffff021916908373ffffffffffffffffffffffffffffffffffffffff160217905550604082015181600201908161054191906128a7565b506060820151816003015f6101000a81548160ff0219169083600181111561056c5761056b61225f565b5b02179055506080820151816004015f820151815f01908161058d91906128a7565b5060208201518160010190816105a391906128a7565b5050509050503373ffffffffffffffffffffffffffffffffffffffff167fb538e4e93715cf36354d0368248193865bc355a0b9906e40e3eeb2298af708698286866040516105f393929190612976565b60405180910390a250505050565b5f818154811061060f575f80fd5b905f5260205f20015f915054906101000a900473ffffffffffffffffffffffffffffffffffffffff1681565b60605f60075467ffffffffffffffff81111561065a57610659611c46565b5b60405190808252806020026020018201604052801561069357816020015b610680611b74565b8152602001906001900390816106785790505b5090505f805b600754811015610897578473ffffffffffffffffffffffffffffffffffffffff1660045f8381526020019081526020015f206001015f9054906101000a900473ffffffffffffffffffffffffffffffffffffffff1673ffffffffffffffffffffffffffffffffffffffff160361088a575f5b60065f8381526020019081526020015f20805490508110156108885760065f8381526020019081526020015f20818154811061074a576107496129b9565b5b905f5260205f2090600302016040518060600160405290815f82015f9054906101000a900473ffffffffffffffffffffffffffffffffffffffff1673ffffffffffffffffffffffffffffffffffffffff1673ffffffffffffffffffffffffffffffffffffffff1681526020016001820180546107c5906126da565b80601f01602080910402602001604051908101604052809291908181526020018280546107f1906126da565b801561083c5780601f106108135761010080835404028352916020019161083c565b820191905f5260205f20905b81548152906001019060200180831161081f57829003601f168201915b50505050508152602001600282015481525050848481518110610862576108616129b9565b5b6020026020010181905250828061087890612666565b935050808060010191505061070b565b505b8080600101915050610699565b508082528192505050919050565b6006602052815f5260405f2081815481106108be575f80fd5b905f5260205f2090600302015f9150915050805f015f9054906101000a900473ffffffffffffffffffffffffffffffffffffffff1690806001018054610903906126da565b80601f016020809104026020016040519081016040528092919081815260200182805461092f906126da565b801561097a5780601f106109515761010080835404028352916020019161097a565b820191905f5260205f20905b81548152906001019060200180831161095d57829003601f168201915b5050505050908060020154905083565b6001602052805f5260405f205f915054906101000a900460ff1681565b60015f3373ffffffffffffffffffffffffffffffffffffffff1673ffffffffffffffffffffffffffffffffffffffff1681526020019081526020015f205f9054906101000a900460ff16610a30576040517f08c379a0000000000000000000000000000000000000000000000000000000008152600401610a2790612a56565b60405180910390fd5b5f6001811115610a4357610a4261225f565b5b60045f8481526020019081526020015f206003015f9054906101000a900460ff166001811115610a7657610a7561225f565b5b14610ab6576040517f08c379a0000000000000000000000000000000000000000000000000000000008152600401610aad90612abe565b60405180910390fd5b600160045f8481526020019081526020015f206003015f6101000a81548160ff02191690836001811115610aed57610aec61225f565b5b02179055507fa0e3a0a30e4ae091855116dfb1b3a775ab1b158763b0a44710be60283214ca738282604051610b23929190612adc565b60405180910390a1610b378233600161199d565b5050565b60075481565b60028181548110610b50575f80fd5b905f5260205f20015f915054906101000a900473ffffffffffffffffffffffffffffffffffffffff1681565b60605f805b600754811015610bf2575f6001811115610b9e57610b9d61225f565b5b60045f8381526020019081526020015f206003015f9054906101000a900460ff166001811115610bd157610bd061225f565b5b03610be5578180610be190612666565b9250505b8080600101915050610b81565b505f8167ffffffffffffffff811115610c0e57610c0d611c46565b5b604051908082528060200260200182016040528015610c4757816020015b610c34611ba9565b815260200190600190039081610c2c5790505b5090505f805b600754811015610f53575f6001811115610c6a57610c6961225f565b5b60045f8381526020019081526020015f206003015f9054906101000a900460ff166001811115610c9d57610c9c61225f565b5b03610f465760045f8281526020019081526020015f206040518060a00160405290815f8201548152602001600182015f9054906101000a900473ffffffffffffffffffffffffffffffffffffffff1673ffffffffffffffffffffffffffffffffffffffff1673ffffffffffffffffffffffffffffffffffffffff168152602001600282018054610d2c906126da565b80601f0160208091040260200160405190810160405280929190818152602001828054610d58906126da565b8015610da35780601f10610d7a57610100808354040283529160200191610da3565b820191905f5260205f20905b815481529060010190602001808311610d8657829003601f168201915b50505050508152602001600382015f9054906101000a900460ff166001811115610dd057610dcf61225f565b5b6001811115610de257610de161225f565b5b8152602001600482016040518060400160405290815f82018054610e05906126da565b80601f0160208091040260200160405190810160405280929190818152602001828054610e31906126da565b8015610e7c5780601f10610e5357610100808354040283529160200191610e7c565b820191905f5260205f20905b815481529060010190602001808311610e5f57829003601f168201915b50505050508152602001600182018054610e95906126da565b80601f0160208091040260200160405190810160405280929190818152602001828054610ec1906126da565b8015610f0c5780601f10610ee357610100808354040283529160200191610f0c565b820191905f5260205f20905b815481529060010190602001808311610eef57829003601f168201915b50505050508152505081525050838381518110610f2c57610f2b6129b9565b5b60200260200101819052508180610f4290612666565b9250505b8080600101915050610c4d565b5081935050505090565b6003602052805f5260405f205f915054906101000a900460ff1681565b600233908060018154018082558091505060019003905f5260205f20015f9091909190916101000a81548173ffffffffffffffffffffffffffffffffffffffff021916908373ffffffffffffffffffffffffffffffffffffffff160217905550600160035f3373ffffffffffffffffffffffffffffffffffffffff1673ffffffffffffffffffffffffffffffffffffffff1681526020019081526020015f205f6101000a81548160ff0219169083151502179055503373ffffffffffffffffffffffffffffffffffffffff167f54db7a5cb4735e1aac1f53db512d3390390bb6637bd30ad4bf9fc98667d9b9b960405160405180910390a2565b6005602052815f5260405f20818154811061108d575f80fd5b905f5260205f2090600202015f9150915050805f015f9054906101000a900473ffffffffffffffffffffffffffffffffffffffff1690805f0160149054906101000a900460ff16908060010154905083565b5f33908060018154018082558091505060019003905f5260205f20015f9091909190916101000a81548173ffffffffffffffffffffffffffffffffffffffff021916908373ffffffffffffffffffffffffffffffffffffffff1602179055506001805f3373ffffffffffffffffffffffffffffffffffffffff1673ffffffffffffffffffffffffffffffffffffffff1681526020019081526020015f205f6101000a81548160ff0219169083151502179055503373ffffffffffffffffffffffffffffffffffffffff167fac0f15283d37631c15b481bc07dc402bcfc030956bcd94b5585f71d92e84c3da60405160405180910390a2565b60035f3373ffffffffffffffffffffffffffffffffffffffff1673ffffffffffffffffffffffffffffffffffffffff1681526020019081526020015f205f9054906101000a900460ff16611260576040517f08c379a0000000000000000000000000000000000000000000000000000000008152600401611257906125b3565b60405180910390fd5b61126b81335f61199d565b50565b6004602052805f5260405f205f91509050805f015490806001015f9054906101000a900473ffffffffffffffffffffffffffffffffffffffff16908060020180546112b8906126da565b80601f01602080910402602001604051908101604052809291908181526020018280546112e4906126da565b801561132f5780601f106113065761010080835404028352916020019161132f565b820191905f5260205f20905b81548152906001019060200180831161131257829003601f168201915b505050505090806003015f9054906101000a900460ff1690806004016040518060400160405290815f82018054611365906126da565b80601f0160208091040260200160405190810160405280929190818152602001828054611391906126da565b80156113dc5780601f106113b3576101008083540402835291602001916113dc565b820191905f5260205f20905b8154815290600101906020018083116113bf57829003601f168201915b505050505081526020016001820180546113f5906126da565b80601f0160208091040260200160405190810160405280929190818152602001828054611421906126da565b801561146c5780601f106114435761010080835404028352916020019161146c565b820191905f5260205f20905b81548152906001019060200180831161144f57829003601f168201915b505050505081525050905085565b60605f60075467ffffffffffffffff81111561149957611498611c46565b5b6040519080825280602002602001820160405280156114d257816020015b6114bf611ba9565b8152602001906001900390816114b75790505b5090505f805b6007548110156117f9578473ffffffffffffffffffffffffffffffffffffffff1660045f8381526020019081526020015f206001015f9054906101000a900473ffffffffffffffffffffffffffffffffffffffff1673ffffffffffffffffffffffffffffffffffffffff16036117ec5760045f8281526020019081526020015f206040518060a00160405290815f8201548152602001600182015f9054906101000a900473ffffffffffffffffffffffffffffffffffffffff1673ffffffffffffffffffffffffffffffffffffffff1673ffffffffffffffffffffffffffffffffffffffff1681526020016002820180546115d2906126da565b80601f01602080910402602001604051908101604052809291908181526020018280546115fe906126da565b80156116495780601f1061162057610100808354040283529160200191611649565b820191905f5260205f20905b81548152906001019060200180831161162c57829003601f168201915b50505050508152602001600382015f9054906101000a900460ff1660018111156116765761167561225f565b5b60018111156116885761168761225f565b5b8152602001600482016040518060400160405290815f820180546116ab906126da565b80601f01602080910402602001604051908101604052809291908181526020018280546116d7906126da565b80156117225780601f106116f957610100808354040283529160200191611722565b820191905f5260205f20905b81548152906001019060200180831161170557829003601f168201915b5050505050815260200160018201805461173b906126da565b80601f0160208091040260200160405190810160405280929190818152602001828054611767906126da565b80156117b25780601f10611789576101008083540402835291602001916117b2565b820191905f5260205f20905b81548152906001019060200180831161179557829003601f168201915b505050505081525050815250508383815181106117d2576117d16129b9565b5b602002602001018190525081806117e890612666565b9250505b80806001019150506114d8565b508082528192505050919050565b60015f3373ffffffffffffffffffffffffffffffffffffffff1673ffffffffffffffffffffffffffffffffffffffff1681526020019081526020015f205f9054906101000a900460ff16611890576040517f08c379a000000000000000000000000000000000000000000000000000000000815260040161188790612a56565b60405180910390fd5b60065f8381526020019081526020015f2060405180606001604052803373ffffffffffffffffffffffffffffffffffffffff16815260200183815260200142815250908060018154018082558091505060019003905f5260205f2090600302015f909190919091505f820151815f015f6101000a81548173ffffffffffffffffffffffffffffffffffffffff021916908373ffffffffffffffffffffffffffffffffffffffff160217905550602082015181600101908161195191906128a7565b506040820151816002015550507f70acc6ca6341bab0b9c04df16281d0d498328dc28b62dc6950f9619e291381ec82334260405161199193929190612b54565b60405180910390a15050565b60055f8481526020019081526020015f2060405180606001604052808473ffffffffffffffffffffffffffffffffffffffff1681526020018360028111156119e8576119e761225f565b5b815260200142815250908060018154018082558091505060019003905f5260205f2090600202015f909190919091505f820151815f015f6101000a81548173ffffffffffffffffffffffffffffffffffffffff021916908373ffffffffffffffffffffffffffffffffffffffff1602179055506020820151815f0160146101000a81548160ff02191690836002811115611a8557611a8461225f565b5b02179055506040820151816001015550507f70acc6ca6341bab0b9c04df16281d0d498328dc28b62dc6950f9619e291381ec83835f6002811115611acc57611acb61225f565b5b846002811115611adf57611ade61225f565b5b14611b1f576040518060400160405280600781526020017f7265736f6c766500000000000000000000000000000000000000000000000000815250611b56565b6040518060400160405280600681526020017f61636365737300000000000000000000000000000000000000000000000000008152505b42604051611b679493929190612b9c565b60405180910390a1505050565b60405180606001604052805f73ffffffffffffffffffffffffffffffffffffffff168152602001606081526020015f81525090565b6040518060a001604052805f81526020015f73ffffffffffffffffffffffffffffffffffffffff168152602001606081526020015f6001811115611bf057611bef61225f565b5b8152602001611bfd611c03565b81525090565b604051806040016040528060608152602001606081525090565b5f604051905090565b5f80fd5b5f80fd5b5f80fd5b5f80fd5b5f601f19601f8301169050919050565b7f4e487b71000000000000000000000000000000000000000000000000000000005f52604160045260245ffd5b611c7c82611c36565b810181811067ffffffffffffffff82111715611c9b57611c9a611c46565b5b80604052505050565b5f611cad611c1d565b9050611cb98282611c73565b919050565b5f67ffffffffffffffff821115611cd857611cd7611c46565b5b611ce182611c36565b9050602081019050919050565b828183375f83830152505050565b5f611d0e611d0984611cbe565b611ca4565b905082815260208101848484011115611d2a57611d29611c32565b5b611d35848285611cee565b509392505050565b5f82601f830112611d5157611d50611c2e565b5b8135611d61848260208601611cfc565b91505092915050565b5f805f60608486031215611d8157611d80611c26565b5b5f84013567ffffffffffffffff811115611d9e57611d9d611c2a565b5b611daa86828701611d3d565b935050602084013567ffffffffffffffff811115611dcb57611dca611c2a565b5b611dd786828701611d3d565b925050604084013567ffffffffffffffff811115611df857611df7611c2a565b5b611e0486828701611d3d565b9150509250925092565b5f819050919050565b611e2081611e0e565b8114611e2a575f80fd5b50565b5f81359050611e3b81611e17565b92915050565b5f60208284031215611e5657611e55611c26565b5b5f611e6384828501611e2d565b91505092915050565b5f73ffffffffffffffffffffffffffffffffffffffff82169050919050565b5f611e9582611e6c565b9050919050565b611ea581611e8b565b82525050565b5f602082019050611ebe5f830184611e9c565b92915050565b611ecd81611e8b565b8114611ed7575f80fd5b50565b5f81359050611ee881611ec4565b92915050565b5f60208284031215611f0357611f02611c26565b5b5f611f1084828501611eda565b91505092915050565b5f81519050919050565b5f82825260208201905092915050565b5f819050602082019050919050565b611f4b81611e8b565b82525050565b5f81519050919050565b5f82825260208201905092915050565b8281835e5f83830152505050565b5f611f8382611f51565b611f8d8185611f5b565b9350611f9d818560208601611f6b565b611fa681611c36565b840191505092915050565b611fba81611e0e565b82525050565b5f606083015f830151611fd55f860182611f42565b5060208301518482036020860152611fed8282611f79565b91505060408301516120026040860182611fb1565b508091505092915050565b5f6120188383611fc0565b905092915050565b5f602082019050919050565b5f61203682611f19565b6120408185611f23565b93508360208202850161205285611f33565b805f5b8581101561208d578484038952815161206e858261200d565b945061207983612020565b925060208a01995050600181019050612055565b50829750879550505050505092915050565b5f6020820190508181035f8301526120b7818461202c565b905092915050565b5f80604083850312156120d5576120d4611c26565b5b5f6120e285828601611e2d565b92505060206120f385828601611e2d565b9150509250929050565b5f82825260208201905092915050565b5f61211782611f51565b61212181856120fd565b9350612131818560208601611f6b565b61213a81611c36565b840191505092915050565b61214e81611e0e565b82525050565b5f6060820190506121675f830186611e9c565b8181036020830152612179818561210d565b90506121886040830184612145565b949350505050565b5f8115159050919050565b6121a481612190565b82525050565b5f6020820190506121bd5f83018461219b565b92915050565b5f80604083850312156121d9576121d8611c26565b5b5f6121e685828601611e2d565b925050602083013567ffffffffffffffff81111561220757612206611c2a565b5b61221385828601611d3d565b9150509250929050565b5f6020820190506122305f830184612145565b92915050565b5f81519050919050565b5f82825260208201905092915050565b5f819050602082019050919050565b7f4e487b71000000000000000000000000000000000000000000000000000000005f52602160045260245ffd5b6002811061229d5761229c61225f565b5b50565b5f8190506122ad8261228c565b919050565b5f6122bc826122a0565b9050919050565b6122cc816122b2565b82525050565b5f604083015f8301518482035f8601526122ec8282611f79565b915050602083015184820360208601526123068282611f79565b9150508091505092915050565b5f60a083015f8301516123285f860182611fb1565b50602083015161233b6020860182611f42565b50604083015184820360408601526123538282611f79565b915050606083015161236860608601826122c3565b506080830151848203608086015261238082826122d2565b9150508091505092915050565b5f6123988383612313565b905092915050565b5f602082019050919050565b5f6123b682612236565b6123c08185612240565b9350836020820285016123d285612250565b805f5b8581101561240d57848403895281516123ee858261238d565b94506123f9836123a0565b925060208a019950506001810190506123d5565b50829750879550505050505092915050565b5f6020820190508181035f83015261243781846123ac565b905092915050565b600381106124505761244f61225f565b5b50565b5f8190506124608261243f565b919050565b5f61246f82612453565b9050919050565b61247f81612465565b82525050565b5f6060820190506124985f830186611e9c565b6124a56020830185612476565b6124b26040830184612145565b949350505050565b6124c3816122b2565b82525050565b5f604083015f8301518482035f8601526124e38282611f79565b915050602083015184820360208601526124fd8282611f79565b9150508091505092915050565b5f60a08201905061251d5f830188612145565b61252a6020830187611e9c565b818103604083015261253c818661210d565b905061254b60608301856124ba565b818103608083015261255d81846124c9565b90509695505050505050565b7f4f6e6c7920757365722063616e2063616c6c20746869732066756e6374696f6e5f82015250565b5f61259d6020836120fd565b91506125a882612569565b602082019050919050565b5f6020820190508181035f8301526125ca81612591565b9050919050565b7f4e6f2066696c652070726f7669646564000000000000000000000000000000005f82015250565b5f6126056010836120fd565b9150612610826125d1565b602082019050919050565b5f6020820190508181035f830152612632816125f9565b9050919050565b7f4e487b71000000000000000000000000000000000000000000000000000000005f52601160045260245ffd5b5f61267082611e0e565b91507fffffffffffffffffffffffffffffffffffffffffffffffffffffffffffffffff82036126a2576126a1612639565b5b600182019050919050565b7f4e487b71000000000000000000000000000000000000000000000000000000005f52602260045260245ffd5b5f60028204905060018216806126f157607f821691505b602082108103612704576127036126ad565b5b50919050565b5f819050815f5260205f209050919050565b5f6020601f8301049050919050565b5f82821b905092915050565b5f600883026127667fffffffffffffffffffffffffffffffffffffffffffffffffffffffffffffffff8261272b565b612770868361272b565b95508019841693508086168417925050509392505050565b5f819050919050565b5f6127ab6127a66127a184611e0e565b612788565b611e0e565b9050919050565b5f819050919050565b6127c483612791565b6127d86127d0826127b2565b848454612737565b825550505050565b5f90565b6127ec6127e0565b6127f78184846127bb565b505050565b5b8181101561281a5761280f5f826127e4565b6001810190506127fd565b5050565b601f82111561285f576128308161270a565b6128398461271c565b81016020851015612848578190505b61285c6128548561271c565b8301826127fc565b50505b505050565b5f82821c905092915050565b5f61287f5f1984600802612864565b1980831691505092915050565b5f6128978383612870565b9150826002028217905092915050565b6128b082611f51565b67ffffffffffffffff8111156128c9576128c8611c46565b5b6128d382546126da565b6128de82828561281e565b5f60209050601f83116001811461290f575f84156128fd578287015190505b612907858261288c565b86555061296e565b601f19841661291d8661270a565b5f5b828110156129445784890151825560018201915060208501945060208101905061291f565b86831015612961578489015161295d601f891682612870565b8355505b6001600288020188555050505b505050505050565b5f6060820190506129895f830186612145565b818103602083015261299b818561210d565b905081810360408301526129af818461210d565b9050949350505050565b7f4e487b71000000000000000000000000000000000000000000000000000000005f52603260045260245ffd5b7f4f6e6c792061646d696e2063616e2063616c6c20746869732066756e6374696f5f8201527f6e00000000000000000000000000000000000000000000000000000000000000602082015250565b5f612a406021836120fd565b9150612a4b826129e6565b604082019050919050565b5f6020820190508181035f830152612a6d81612a34565b9050919050565b7f436f6d706c61696e7420697320616c7265616479207265736f6c7665640000005f82015250565b5f612aa8601d836120fd565b9150612ab382612a74565b602082019050919050565b5f6020820190508181035f830152612ad581612a9c565b9050919050565b5f604082019050612aef5f830185612145565b8181036020830152612b01818461210d565b90509392505050565b7f7265706c790000000000000000000000000000000000000000000000000000005f82015250565b5f612b3e6005836120fd565b9150612b4982612b0a565b602082019050919050565b5f608082019050612b675f830186612145565b612b746020830185611e9c565b8181036040830152612b8581612b32565b9050612b946060830184612145565b949350505050565b5f608082019050612baf5f830187612145565b612bbc6020830186611e9c565b8181036040830152612bce818561210d565b9050612bdd6060830184612145565b9594505050505056fea26469706673582212205860a6a9b6f40bc23f364ea65140491ba8c62f71f52e904fa6b6a9782c665b9d64736f6c63430008190033",
			"opcodes": "PUSH1 0x80 PUSH1 0x40 MSTORE CALLVALUE DUP1 ISZERO PUSH1 0xE JUMPI PUSH0 DUP1 REVERT JUMPDEST POP PUSH2 0x2C1C DUP1 PUSH2 0x1C PUSH0 CODECOPY PUSH0 RETURN INVALID PUSH1 0x80 PUSH1 0x40 MSTORE CALLVALUE DUP1 ISZERO PUSH2 0xF JUMPI PUSH0 DUP1 REVERT JUMPDEST POP PUSH1 0x4 CALLDATASIZE LT PUSH2 0x109 JUMPI PUSH0 CALLDATALOAD PUSH1 0xE0 SHR DUP1 PUSH4 0x3AE7DB25 GT PUSH2 0xA0 JUMPI DUP1 PUSH4 0x5AB6F71B GT PUSH2 0x6F JUMPI DUP1 PUSH4 0x5AB6F71B EQ PUSH2 0x2DF JUMPI DUP1 PUSH4 0x6D7196EB EQ PUSH2 0x2E9 JUMPI DUP1 PUSH4 0x7E69E912 EQ PUSH2 0x305 JUMPI DUP1 PUSH4 0xD395FC04 EQ PUSH2 0x339 JUMPI DUP1 PUSH4 0xDEB514FF EQ PUSH2 0x369 JUMPI PUSH2 0x109 JUMP JUMPDEST DUP1 PUSH4 0x3AE7DB25 EQ PUSH2 0x255 JUMPI DUP1 PUSH4 0x4209FFF1 EQ PUSH2 0x273 JUMPI DUP1 PUSH4 0x4D3820EB EQ PUSH2 0x2A3 JUMPI DUP1 PUSH4 0x4EAF9DB6 EQ PUSH2 0x2AD JUMPI PUSH2 0x109 JUMP JUMPDEST DUP1 PUSH4 0x24D7806C GT PUSH2 0xDC JUMPI DUP1 PUSH4 0x24D7806C EQ PUSH2 0x1BB JUMPI DUP1 PUSH4 0x26019E7F EQ PUSH2 0x1EB JUMPI DUP1 PUSH4 0x2EDEA294 EQ PUSH2 0x207 JUMPI DUP1 PUSH4 0x365B98B2 EQ PUSH2 0x225 JUMPI PUSH2 0x109 JUMP JUMPDEST DUP1 PUSH4 0xDA3F37E EQ PUSH2 0x10D JUMPI DUP1 PUSH4 0x14BFD6D0 EQ PUSH2 0x129 JUMPI DUP1 PUSH4 0x152E1E32 EQ PUSH2 0x159 JUMPI DUP1 PUSH4 0x204F257C EQ PUSH2 0x189 JUMPI JUMPDEST PUSH0 DUP1 REVERT JUMPDEST PUSH2 0x127 PUSH1 0x4 DUP1 CALLDATASIZE SUB DUP2 ADD SWAP1 PUSH2 0x122 SWAP2 SWAP1 PUSH2 0x1D6A JUMP JUMPDEST PUSH2 0x385 JUMP JUMPDEST STOP JUMPDEST PUSH2 0x143 PUSH1 0x4 DUP1 CALLDATASIZE SUB DUP2 ADD SWAP1 PUSH2 0x13E SWAP2 SWAP1 PUSH2 0x1E41 JUMP JUMPDEST PUSH2 0x601 JUMP JUMPDEST PUSH1 0x40 MLOAD PUSH2 0x150 SWAP2 SWAP1 PUSH2 0x1EAB JUMP JUMPDEST PUSH1 0x40 MLOAD DUP1 SWAP2 SUB SWAP1 RETURN JUMPDEST PUSH2 0x173 PUSH1 0x4 DUP1 CALLDATASIZE SUB DUP2 ADD SWAP1 PUSH2 0x16E SWAP2 SWAP1 PUSH2 0x1EEE JUMP JUMPDEST PUSH2 0x63B JUMP JUMPDEST PUSH1 0x40 MLOAD PUSH2 0x180 SWAP2 SWAP1 PUSH2 0x209F JUMP JUMPDEST PUSH1 0x40 MLOAD DUP1 SWAP2 SUB SWAP1 RETURN JUMPDEST PUSH2 0x1A3 PUSH1 0x4 DUP1 CALLDATASIZE SUB DUP2 ADD SWAP1 PUSH2 0x19E SWAP2 SWAP1 PUSH2 0x20BF JUMP JUMPDEST PUSH2 0x8A5 JUMP JUMPDEST PUSH1 0x40 MLOAD PUSH2 0x1B2 SWAP4 SWAP3 SWAP2 SWAP1 PUSH2 0x2154 JUMP JUMPDEST PUSH1 0x40 MLOAD DUP1 SWAP2 SUB SWAP1 RETURN JUMPDEST PUSH2 0x1D5 PUSH1 0x4 DUP1 CALLDATASIZE SUB DUP2 ADD SWAP1 PUSH2 0x1D0 SWAP2 SWAP1 PUSH2 0x1EEE JUMP JUMPDEST PUSH2 0x98A JUMP JUMPDEST PUSH1 0x40 MLOAD PUSH2 0x1E2 SWAP2 SWAP1 PUSH2 0x21AA JUMP JUMPDEST PUSH1 0x40 MLOAD DUP1 SWAP2 SUB SWAP1 RETURN JUMPDEST PUSH2 0x205 PUSH1 0x4 DUP1 CALLDATASIZE SUB DUP2 ADD SWAP1 PUSH2 0x200 SWAP2 SWAP1 PUSH2 0x21C3 JUMP JUMPDEST PUSH2 0x9A7 JUMP JUMPDEST STOP JUMPDEST PUSH2 0x20F PUSH2 0xB3B JUMP JUMPDEST PUSH1 0x40 MLOAD PUSH2 0x21C SWAP2 SWAP1 PUSH2 0x221D JUMP JUMPDEST PUSH1 0x40 MLOAD DUP1 SWAP2 SUB SWAP1 RETURN JUMPDEST PUSH2 0x23F PUSH1 0x4 DUP1 CALLDATASIZE SUB DUP2 ADD SWAP1 PUSH2 0x23A SWAP2 SWAP1 PUSH2 0x1E41 JUMP JUMPDEST PUSH2 0xB41 JUMP JUMPDEST PUSH1 0x40 MLOAD PUSH2 0x24C SWAP2 SWAP1 PUSH2 0x1EAB JUMP JUMPDEST PUSH1 0x40 MLOAD DUP1 SWAP2 SUB SWAP1 RETURN JUMPDEST PUSH2 0x25D PUSH2 0xB7C JUMP JUMPDEST PUSH1 0x40 MLOAD PUSH2 0x26A SWAP2 SWAP1 PUSH2 0x241F JUMP JUMPDEST PUSH1 0x40 MLOAD DUP1 SWAP2 SUB SWAP1 RETURN JUMPDEST PUSH2 0x28D PUSH1 0x4 DUP1 CALLDATASIZE SUB DUP2 ADD SWAP1 PUSH2 0x288 SWAP2 SWAP1 PUSH2 0x1EEE JUMP JUMPDEST PUSH2 0xF5D JUMP JUMPDEST PUSH1 0x40 MLOAD PUSH2 0x29A SWAP2 SWAP1 PUSH2 0x21AA JUMP JUMPDEST PUSH1 0x40 MLOAD DUP1 SWAP2 SUB SWAP1 RETURN JUMPDEST PUSH2 0x2AB PUSH2 0xF7A JUMP JUMPDEST STOP JUMPDEST PUSH2 0x2C7 PUSH1 0x4 DUP1 CALLDATASIZE SUB DUP2 ADD SWAP1 PUSH2 0x2C2 SWAP2 SWAP1 PUSH2 0x20BF JUMP JUMPDEST PUSH2 0x1074 JUMP JUMPDEST PUSH1 0x40 MLOAD PUSH2 0x2D6 SWAP4 SWAP3 SWAP2 SWAP1 PUSH2 0x2485 JUMP JUMPDEST PUSH1 0x40 MLOAD DUP1 SWAP2 SUB SWAP1 RETURN JUMPDEST PUSH2 0x2E7 PUSH2 0x10DF JUMP JUMPDEST STOP JUMPDEST PUSH2 0x303 PUSH1 0x4 DUP1 CALLDATASIZE SUB DUP2 ADD SWAP1 PUSH2 0x2FE SWAP2 SWAP1 PUSH2 0x1E41 JUMP JUMPDEST PUSH2 0x11D7 JUMP JUMPDEST STOP JUMPDEST PUSH2 0x31F PUSH1 0x4 DUP1 CALLDATASIZE SUB DUP2 ADD SWAP1 PUSH2 0x31A SWAP2 SWAP1 PUSH2 0x1E41 JUMP JUMPDEST PUSH2 0x126E JUMP JUMPDEST PUSH1 0x40 MLOAD PUSH2 0x330 SWAP6 SWAP5 SWAP4 SWAP3 SWAP2 SWAP1 PUSH2 0x250A JUMP JUMPDEST PUSH1 0x40 MLOAD DUP1 SWAP2 SUB SWAP1 RETURN JUMPDEST PUSH2 0x353 PUSH1 0x4 DUP1 CALLDATASIZE SUB DUP2 ADD SWAP1 PUSH2 0x34E SWAP2 SWAP1 PUSH2 0x1EEE JUMP JUMPDEST PUSH2 0x147A JUMP JUMPDEST PUSH1 0x40 MLOAD PUSH2 0x360 SWAP2 SWAP1 PUSH2 0x241F JUMP JUMPDEST PUSH1 0x40 MLOAD DUP1 SWAP2 SUB SWAP1 RETURN JUMPDEST PUSH2 0x383 PUSH1 0x4 DUP1 CALLDATASIZE SUB DUP2 ADD SWAP1 PUSH2 0x37E SWAP2 SWAP1 PUSH2 0x21C3 JUMP JUMPDEST PUSH2 0x1807 JUMP JUMPDEST STOP JUMPDEST PUSH1 0x3 PUSH0 CALLER PUSH20 0xFFFFFFFFFFFFFFFFFFFFFFFFFFFFFFFFFFFFFFFF AND PUSH20 0xFFFFFFFFFFFFFFFFFFFFFFFFFFFFFFFFFFFFFFFF AND DUP2 MSTORE PUSH1 0x20 ADD SWAP1 DUP2 MSTORE PUSH1 0x20 ADD PUSH0 KECCAK256 PUSH0 SWAP1 SLOAD SWAP1 PUSH2 0x100 EXP SWAP1 DIV PUSH1 0xFF AND PUSH2 0x40E JUMPI PUSH1 0x40 MLOAD PUSH32 0x8C379A000000000000000000000000000000000000000000000000000000000 DUP2 MSTORE PUSH1 0x4 ADD PUSH2 0x405 SWAP1 PUSH2 0x25B3 JUMP JUMPDEST PUSH1 0x40 MLOAD DUP1 SWAP2 SUB SWAP1 REVERT JUMPDEST PUSH0 DUP4 MLOAD GT PUSH2 0x451 JUMPI PUSH1 0x40 MLOAD PUSH32 0x8C379A000000000000000000000000000000000000000000000000000000000 DUP2 MSTORE PUSH1 0x4 ADD PUSH2 0x448 SWAP1 PUSH2 0x261B JUMP JUMPDEST PUSH1 0x40 MLOAD DUP1 SWAP2 SUB SWAP1 REVERT JUMPDEST PUSH0 PUSH1 0x7 PUSH0 DUP2 SLOAD DUP1 SWAP3 SWAP2 SWAP1 PUSH2 0x464 SWAP1 PUSH2 0x2666 JUMP JUMPDEST SWAP2 SWAP1 POP SSTORE SWAP1 POP PUSH1 0x40 MLOAD DUP1 PUSH1 0xA0 ADD PUSH1 0x40 MSTORE DUP1 DUP3 DUP2 MSTORE PUSH1 0x20 ADD CALLER PUSH20 0xFFFFFFFFFFFFFFFFFFFFFFFFFFFFFFFFFFFFFFFF AND DUP2 MSTORE PUSH1 0x20 ADD DUP5 DUP2 MSTORE PUSH1 0x20 ADD PUSH0 PUSH1 0x1 DUP2 GT ISZERO PUSH2 0x4B0 JUMPI PUSH2 0x4AF PUSH2 0x225F JUMP JUMPDEST JUMPDEST DUP2 MSTORE PUSH1 0x20 ADD PUSH1 0x40 MLOAD DUP1 PUSH1 0x40 ADD PUSH1 0x40 MSTORE DUP1 DUP8 DUP2 MSTORE PUSH1 0x20 ADD DUP6 DUP2 MSTORE POP DUP2 MSTORE POP PUSH1 0x4 PUSH0 DUP4 DUP2 MSTORE PUSH1 0x20 ADD SWAP1 DUP2 MSTORE PUSH1 0x20 ADD PUSH0 KECCAK256 PUSH0 DUP3 ADD MLOAD DUP2 PUSH0 ADD SSTORE PUSH1 0x20 DUP3 ADD MLOAD DUP2 PUSH1 0x1 ADD PUSH0 PUSH2 0x100 EXP DUP2 SLOAD DUP2 PUSH20 0xFFFFFFFFFFFFFFFFFFFFFFFFFFFFFFFFFFFFFFFF MUL NOT AND SWAP1 DUP4 PUSH20 0xFFFFFFFFFFFFFFFFFFFFFFFFFFFFFFFFFFFFFFFF AND MUL OR SWAP1 SSTORE POP PUSH1 0x40 DUP3 ADD MLOAD DUP2 PUSH1 0x2 ADD SWAP1 DUP2 PUSH2 0x541 SWAP2 SWAP1 PUSH2 0x28A7 JUMP JUMPDEST POP PUSH1 0x60 DUP3 ADD MLOAD DUP2 PUSH1 0x3 ADD PUSH0 PUSH2 0x100 EXP DUP2 SLOAD DUP2 PUSH1 0xFF MUL NOT AND SWAP1 DUP4 PUSH1 0x1 DUP2 GT ISZERO PUSH2 0x56C JUMPI PUSH2 0x56B PUSH2 0x225F JUMP JUMPDEST JUMPDEST MUL OR SWAP1 SSTORE POP PUSH1 0x80 DUP3 ADD MLOAD DUP2 PUSH1 0x4 ADD PUSH0 DUP3 ADD MLOAD DUP2 PUSH0 ADD SWAP1 DUP2 PUSH2 0x58D SWAP2 SWAP1 PUSH2 0x28A7 JUMP JUMPDEST POP PUSH1 0x20 DUP3 ADD MLOAD DUP2 PUSH1 0x1 ADD SWAP1 DUP2 PUSH2 0x5A3 SWAP2 SWAP1 PUSH2 0x28A7 JUMP JUMPDEST POP POP POP SWAP1 POP POP CALLER PUSH20 0xFFFFFFFFFFFFFFFFFFFFFFFFFFFFFFFFFFFFFFFF AND PUSH32 0xB538E4E93715CF36354D0368248193865BC355A0B9906E40E3EEB2298AF70869 DUP3 DUP7 DUP7 PUSH1 0x40 MLOAD PUSH2 0x5F3 SWAP4 SWAP3 SWAP2 SWAP1 PUSH2 0x2976 JUMP JUMPDEST PUSH1 0x40 MLOAD DUP1 SWAP2 SUB SWAP1 LOG2 POP POP POP POP JUMP JUMPDEST PUSH0 DUP2 DUP2 SLOAD DUP2 LT PUSH2 0x60F JUMPI PUSH0 DUP1 REVERT JUMPDEST SWAP1 PUSH0 MSTORE PUSH1 0x20 PUSH0 KECCAK256 ADD PUSH0 SWAP2 POP SLOAD SWAP1 PUSH2 0x100 EXP SWAP1 DIV PUSH20 0xFFFFFFFFFFFFFFFFFFFFFFFFFFFFFFFFFFFFFFFF AND DUP2 JUMP JUMPDEST PUSH1 0x60 PUSH0 PUSH1 0x7 SLOAD PUSH8 0xFFFFFFFFFFFFFFFF DUP2 GT ISZERO PUSH2 0x65A JUMPI PUSH2 0x659 PUSH2 0x1C46 JUMP JUMPDEST JUMPDEST PUSH1 0x40 MLOAD SWAP1 DUP1 DUP3 MSTORE DUP1 PUSH1 0x20 MUL PUSH1 0x20 ADD DUP3 ADD PUSH1 0x40 MSTORE DUP1 ISZERO PUSH2 0x693 JUMPI DUP2 PUSH1 0x20 ADD JUMPDEST PUSH2 0x680 PUSH2 0x1B74 JUMP JUMPDEST DUP2 MSTORE PUSH1 0x20 ADD SWAP1 PUSH1 0x1 SWAP1 SUB SWAP1 DUP2 PUSH2 0x678 JUMPI SWAP1 POP JUMPDEST POP SWAP1 POP PUSH0 DUP1 JUMPDEST PUSH1 0x7 SLOAD DUP2 LT ISZERO PUSH2 0x897 JUMPI DUP5 PUSH20 0xFFFFFFFFFFFFFFFFFFFFFFFFFFFFFFFFFFFFFFFF AND PUSH1 0x4 PUSH0 DUP4 DUP2 MSTORE PUSH1 0x20 ADD SWAP1 DUP2 MSTORE PUSH1 0x20 ADD PUSH0 KECCAK256 PUSH1 0x1 ADD PUSH0 SWAP1 SLOAD SWAP1 PUSH2 0x100 EXP SWAP1 DIV PUSH20 0xFFFFFFFFFFFFFFFFFFFFFFFFFFFFFFFFFFFFFFFF AND PUSH20 0xFFFFFFFFFFFFFFFFFFFFFFFFFFFFFFFFFFFFFFFF AND SUB PUSH2 0x88A JUMPI PUSH0 JUMPDEST PUSH1 0x6 PUSH0 DUP4 DUP2 MSTORE PUSH1 0x20 ADD SWAP1 DUP2 MSTORE PUSH1 0x20 ADD PUSH0 KECCAK256 DUP1 SLOAD SWAP1 POP DUP2 LT ISZERO PUSH2 0x888 JUMPI PUSH1 0x6 PUSH0 DUP4 DUP2 MSTORE PUSH1 0x20 ADD SWAP1 DUP2 MSTORE PUSH1 0x20 ADD PUSH0 KECCAK256 DUP2 DUP2 SLOAD DUP2 LT PUSH2 0x74A JUMPI PUSH2 0x749 PUSH2 0x29B9 JUMP JUMPDEST JUMPDEST SWAP1 PUSH0 MSTORE PUSH1 0x20 PUSH0 KECCAK256 SWAP1 PUSH1 0x3 MUL ADD PUSH1 0x40 MLOAD DUP1 PUSH1 0x60 ADD PUSH1 0x40 MSTORE SWAP1 DUP2 PUSH0 DUP3 ADD PUSH0 SWAP1 SLOAD SWAP1 PUSH2 0x100 EXP SWAP1 DIV PUSH20 0xFFFFFFFFFFFFFFFFFFFFFFFFFFFFFFFFFFFFFFFF AND PUSH20 0xFFFFFFFFFFFFFFFFFFFFFFFFFFFFFFFFFFFFFFFF AND PUSH20 0xFFFFFFFFFFFFFFFFFFFFFFFFFFFFFFFFFFFFFFFF AND DUP2 MSTORE PUSH1 0x20 ADD PUSH1 0x1 DUP3 ADD DUP1 SLOAD PUSH2 0x7C5 SWAP1 PUSH2 0x26DA JUMP JUMPDEST DUP1 PUSH1 0x1F ADD PUSH1 0x20 DUP1 SWAP2 DIV MUL PUSH1 0x20 ADD PUSH1 0x40 MLOAD SWAP1 DUP2 ADD PUSH1 0x40 MSTORE DUP1 SWAP3 SWAP2 SWAP1 DUP2 DUP2 MSTORE PUSH1 0x20 ADD DUP3 DUP1 SLOAD PUSH2 0x7F1 SWAP1 PUSH2 0x26DA JUMP JUMPDEST DUP1 ISZERO PUSH2 0x83C JUMPI DUP1 PUSH1 0x1F LT PUSH2 0x813 JUMPI PUSH2 0x100 DUP1 DUP4 SLOAD DIV MUL DUP4 MSTORE SWAP2 PUSH1 0x20 ADD SWAP2 PUSH2 0x83C JUMP JUMPDEST DUP3 ADD SWAP2 SWAP1 PUSH0 MSTORE PUSH1 0x20 PUSH0 KECCAK256 SWAP1 JUMPDEST DUP2 SLOAD DUP2 MSTORE SWAP1 PUSH1 0x1 ADD SWAP1 PUSH1 0x20 ADD DUP1 DUP4 GT PUSH2 0x81F JUMPI DUP3 SWAP1 SUB PUSH1 0x1F AND DUP3 ADD SWAP2 JUMPDEST POP POP POP POP POP DUP2 MSTORE PUSH1 0x20 ADD PUSH1 0x2 DUP3 ADD SLOAD DUP2 MSTORE POP POP DUP5 DUP5 DUP2 MLOAD DUP2 LT PUSH2 0x862 JUMPI PUSH2 0x861 PUSH2 0x29B9 JUMP JUMPDEST JUMPDEST PUSH1 0x20 MUL PUSH1 0x20 ADD ADD DUP2 SWAP1 MSTORE POP DUP3 DUP1 PUSH2 0x878 SWAP1 PUSH2 0x2666 JUMP JUMPDEST SWAP4 POP POP DUP1 DUP1 PUSH1 0x1 ADD SWAP2 POP POP PUSH2 0x70B JUMP JUMPDEST POP JUMPDEST DUP1 DUP1 PUSH1 0x1 ADD SWAP2 POP POP PUSH2 0x699 JUMP JUMPDEST POP DUP1 DUP3 MSTORE DUP2 SWAP3 POP POP POP SWAP2 SWAP1 POP JUMP JUMPDEST PUSH1 0x6 PUSH1 0x20 MSTORE DUP2 PUSH0 MSTORE PUSH1 0x40 PUSH0 KECCAK256 DUP2 DUP2 SLOAD DUP2 LT PUSH2 0x8BE JUMPI PUSH0 DUP1 REVERT JUMPDEST SWAP1 PUSH0 MSTORE PUSH1 0x20 PUSH0 KECCAK256 SWAP1 PUSH1 0x3 MUL ADD PUSH0 SWAP2 POP SWAP2 POP POP DUP1 PUSH0 ADD PUSH0 SWAP1 SLOAD SWAP1 PUSH2 0x100 EXP SWAP1 DIV PUSH20 0xFFFFFFFFFFFFFFFFFFFFFFFFFFFFFFFFFFFFFFFF AND SWAP1 DUP1 PUSH1 0x1 ADD DUP1 SLOAD PUSH2 0x903 SWAP1 PUSH2 0x26DA JUMP JUMPDEST DUP1 PUSH1 0x1F ADD PUSH1 0x20 DUP1 SWAP2 DIV MUL PUSH1 0x20 ADD PUSH1 0x40 MLOAD SWAP1 DUP2 ADD PUSH1 0x40 MSTORE DUP1 SWAP3 SWAP2 SWAP1 DUP2 DUP2 MSTORE PUSH1 0x20 ADD DUP3 DUP1 SLOAD PUSH2 0x92F SWAP1 PUSH2 0x26DA JUMP JUMPDEST DUP1 ISZERO PUSH2 0x97A JUMPI DUP1 PUSH1 0x1F LT PUSH2 0x951 JUMPI PUSH2 0x100 DUP1 DUP4 SLOAD DIV MUL DUP4 MSTORE SWAP2 PUSH1 0x20 ADD SWAP2 PUSH2 0x97A JUMP JUMPDEST DUP3 ADD SWAP2 SWAP1 PUSH0 MSTORE PUSH1 0x20 PUSH0 KECCAK256 SWAP1 JUMPDEST DUP2 SLOAD DUP2 MSTORE SWAP1 PUSH1 0x1 ADD SWAP1 PUSH1 0x20 ADD DUP1 DUP4 GT PUSH2 0x95D JUMPI DUP3 SWAP1 SUB PUSH1 0x1F AND DUP3 ADD SWAP2 JUMPDEST POP POP POP POP POP SWAP1 DUP1 PUSH1 0x2 ADD SLOAD SWAP1 POP DUP4 JUMP JUMPDEST PUSH1 0x1 PUSH1 0x20 MSTORE DUP1 PUSH0 MSTORE PUSH1 0x40 PUSH0 KECCAK256 PUSH0 SWAP2 POP SLOAD SWAP1 PUSH2 0x100 EXP SWAP1 DIV PUSH1 0xFF AND DUP2 JUMP JUMPDEST PUSH1 0x1 PUSH0 CALLER PUSH20 0xFFFFFFFFFFFFFFFFFFFFFFFFFFFFFFFFFFFFFFFF AND PUSH20 0xFFFFFFFFFFFFFFFFFFFFFFFFFFFFFFFFFFFFFFFF AND DUP2 MSTORE PUSH1 0x20 ADD SWAP1 DUP2 MSTORE PUSH1 0x20 ADD PUSH0 KECCAK256 PUSH0 SWAP1 SLOAD SWAP1 PUSH2 0x100 EXP SWAP1 DIV PUSH1 0xFF AND PUSH2 0xA30 JUMPI PUSH1 0x40 MLOAD PUSH32 0x8C379A000000000000000000000000000000000000000000000000000000000 DUP2 MSTORE PUSH1 0x4 ADD PUSH2 0xA27 SWAP1 PUSH2 0x2A56 JUMP JUMPDEST PUSH1 0x40 MLOAD DUP1 SWAP2 SUB SWAP1 REVERT JUMPDEST PUSH0 PUSH1 0x1 DUP2 GT ISZERO PUSH2 0xA43 JUMPI PUSH2 0xA42 PUSH2 0x225F JUMP JUMPDEST JUMPDEST PUSH1 0x4 PUSH0 DUP5 DUP2 MSTORE PUSH1 0x20 ADD SWAP1 DUP2 MSTORE PUSH1 0x20 ADD PUSH0 KECCAK256 PUSH1 0x3 ADD PUSH0 SWAP1 SLOAD SWAP1 PUSH2 0x100 EXP SWAP1 DIV PUSH1 0xFF AND PUSH1 0x1 DUP2 GT ISZERO PUSH2 0xA76 JUMPI PUSH2 0xA75 PUSH2 0x225F JUMP JUMPDEST JUMPDEST EQ PUSH2 0xAB6 JUMPI PUSH1 0x40 MLOAD PUSH32 0x8C379A000000000000000000000000000000000000000000000000000000000 DUP2 MSTORE PUSH1 0x4 ADD PUSH2 0xAAD SWAP1 PUSH2 0x2ABE JUMP JUMPDEST PUSH1 0x40 MLOAD DUP1 SWAP2 SUB SWAP1 REVERT JUMPDEST PUSH1 0x1 PUSH1 0x4 PUSH0 DUP5 DUP2 MSTORE PUSH1 0x20 ADD SWAP1 DUP2 MSTORE PUSH1 0x20 ADD PUSH0 KECCAK256 PUSH1 0x3 ADD PUSH0 PUSH2 0x100 EXP DUP2 SLOAD DUP2 PUSH1 0xFF MUL NOT AND SWAP1 DUP4 PUSH1 0x1 DUP2 GT ISZERO PUSH2 0xAED JUMPI PUSH2 0xAEC PUSH2 0x225F JUMP JUMPDEST JUMPDEST MUL OR SWAP1 SSTORE POP PUSH32 0xA0E3A0A30E4AE091855116DFB1B3A775AB1B158763B0A44710BE60283214CA73 DUP3 DUP3 PUSH1 0x40 MLOAD PUSH2 0xB23 SWAP3 SWAP2 SWAP1 PUSH2 0x2ADC JUMP JUMPDEST PUSH1 0x40 MLOAD DUP1 SWAP2 SUB SWAP1 LOG1 PUSH2 0xB37 DUP3 CALLER PUSH1 0x1 PUSH2 0x199D JUMP JUMPDEST POP POP JUMP JUMPDEST PUSH1 0x7 SLOAD DUP2 JUMP JUMPDEST PUSH1 0x2 DUP2 DUP2 SLOAD DUP2 LT PUSH2 0xB50 JUMPI PUSH0 DUP1 REVERT JUMPDEST SWAP1 PUSH0 MSTORE PUSH1 0x20 PUSH0 KECCAK256 ADD PUSH0 SWAP2 POP SLOAD SWAP1 PUSH2 0x100 EXP SWAP1 DIV PUSH20 0xFFFFFFFFFFFFFFFFFFFFFFFFFFFFFFFFFFFFFFFF AND DUP2 JUMP JUMPDEST PUSH1 0x60 PUSH0 DUP1 JUMPDEST PUSH1 0x7 SLOAD DUP2 LT ISZERO PUSH2 0xBF2 JUMPI PUSH0 PUSH1 0x1 DUP2 GT ISZERO PUSH2 0xB9E JUMPI PUSH2 0xB9D PUSH2 0x225F JUMP JUMPDEST JUMPDEST PUSH1 0x4 PUSH0 DUP4 DUP2 MSTORE PUSH1 0x20 ADD SWAP1 DUP2 MSTORE PUSH1 0x20 ADD PUSH0 KECCAK256 PUSH1 0x3 ADD PUSH0 SWAP1 SLOAD SWAP1 PUSH2 0x100 EXP SWAP1 DIV PUSH1 0xFF AND PUSH1 0x1 DUP2 GT ISZERO PUSH2 0xBD1 JUMPI PUSH2 0xBD0 PUSH2 0x225F JUMP JUMPDEST JUMPDEST SUB PUSH2 0xBE5 JUMPI DUP2 DUP1 PUSH2 0xBE1 SWAP1 PUSH2 0x2666 JUMP JUMPDEST SWAP3 POP POP JUMPDEST DUP1 DUP1 PUSH1 0x1 ADD SWAP2 POP POP PUSH2 0xB81 JUMP JUMPDEST POP PUSH0 DUP2 PUSH8 0xFFFFFFFFFFFFFFFF DUP2 GT ISZERO PUSH2 0xC0E JUMPI PUSH2 0xC0D PUSH2 0x1C46 JUMP JUMPDEST JUMPDEST PUSH1 0x40 MLOAD SWAP1 DUP1 DUP3 MSTORE DUP1 PUSH1 0x20 MUL PUSH1 0x20 ADD DUP3 ADD PUSH1 0x40 MSTORE DUP1 ISZERO PUSH2 0xC47 JUMPI DUP2 PUSH1 0x20 ADD JUMPDEST PUSH2 0xC34 PUSH2 0x1BA9 JUMP JUMPDEST DUP2 MSTORE PUSH1 0x20 ADD SWAP1 PUSH1 0x1 SWAP1 SUB SWAP1 DUP2 PUSH2 0xC2C JUMPI SWAP1 POP JUMPDEST POP SWAP1 POP PUSH0 DUP1 JUMPDEST PUSH1 0x7 SLOAD DUP2 LT ISZERO PUSH2 0xF53 JUMPI PUSH0 PUSH1 0x1 DUP2 GT ISZERO PUSH2 0xC6A JUMPI PUSH2 0xC69 PUSH2 0x225F JUMP JUMPDEST JUMPDEST PUSH1 0x4 PUSH0 DUP4 DUP2 MSTORE PUSH1 0x20 ADD SWAP1 DUP2 MSTORE PUSH1 0x20 ADD PUSH0 KECCAK256 PUSH1 0x3 ADD PUSH0 SWAP1 SLOAD SWAP1 PUSH2 0x100 EXP SWAP1 DIV PUSH1 0xFF AND PUSH1 0x1 DUP2 GT ISZERO PUSH2 0xC9D JUMPI PUSH2 0xC9C PUSH2 0x225F JUMP JUMPDEST JUMPDEST SUB PUSH2 0xF46 JUMPI PUSH1 0x4 PUSH0 DUP3 DUP2 MSTORE PUSH1 0x20 ADD SWAP1 DUP2 MSTORE PUSH1 0x20 ADD PUSH0 KECCAK256 PUSH1 0x40 MLOAD DUP1 PUSH1 0xA0 ADD PUSH1 0x40 MSTORE SWAP1 DUP2 PUSH0 DUP3 ADD SLOAD DUP2 MSTORE PUSH1 0x20 ADD PUSH1 0x1 DUP3 ADD PUSH0 SWAP1 SLOAD SWAP1 PUSH2 0x100 EXP SWAP1 DIV PUSH20 0xFFFFFFFFFFFFFFFFFFFFFFFFFFFFFFFFFFFFFFFF AND PUSH20 0xFFFFFFFFFFFFFFFFFFFFFFFFFFFFFFFFFFFFFFFF AND PUSH20 0xFFFFFFFFFFFFFFFFFFFFFFFFFFFFFFFFFFFFFFFF AND DUP2 MSTORE PUSH1 0x20 ADD PUSH1 0x2 DUP3 ADD DUP1 SLOAD PUSH2 0xD2C SWAP1 PUSH2 0x26DA JUMP JUMPDEST DUP1 PUSH1 0x1F ADD PUSH1 0x20 DUP1 SWAP2 DIV MUL PUSH1 0x20 ADD PUSH1 0x40 MLOAD SWAP1 DUP2 ADD PUSH1 0x40 MSTORE DUP1 SWAP3 SWAP2 SWAP1 DUP2 DUP2 MSTORE PUSH1 0x20 ADD DUP3 DUP1 SLOAD PUSH2 0xD58 SWAP1 PUSH2 0x26DA JUMP JUMPDEST DUP1 ISZERO PUSH2 0xDA3 JUMPI DUP1 PUSH1 0x1F LT PUSH2 0xD7A JUMPI PUSH2 0x100 DUP1 DUP4 SLOAD DIV MUL DUP4 MSTORE SWAP2 PUSH1 0x20 ADD SWAP2 PUSH2 0xDA3 JUMP JUMPDEST DUP3 ADD SWAP2 SWAP1 PUSH0 MSTORE PUSH1 0x20 PUSH0 KECCAK256 SWAP1 JUMPDEST DUP2 SLOAD DUP2 MSTORE SWAP1 PUSH1 0x1 ADD SWAP1 PUSH1 0x20 ADD DUP1 DUP4 GT PUSH2 0xD86 JUMPI DUP3 SWAP1 SUB PUSH1 0x1F AND DUP3 ADD SWAP2 JUMPDEST POP POP POP POP POP DUP2 MSTORE PUSH1 0x20 ADD PUSH1 0x3 DUP3 ADD PUSH0 SWAP1 SLOAD SWAP1 PUSH2 0x100 EXP SWAP1 DIV PUSH1 0xFF AND PUSH1 0x1 DUP2 GT ISZERO PUSH2 0xDD0 JUMPI PUSH2 0xDCF PUSH2 0x225F JUMP JUMPDEST JUMPDEST PUSH1 0x1 DUP2 GT ISZERO PUSH2 0xDE2 JUMPI PUSH2 0xDE1 PUSH2 0x225F JUMP JUMPDEST JUMPDEST DUP2 MSTORE PUSH1 0x20 ADD PUSH1 0x4 DUP3 ADD PUSH1 0x40 MLOAD DUP1 PUSH1 0x40 ADD PUSH1 0x40 MSTORE SWAP1 DUP2 PUSH0 DUP3 ADD DUP1 SLOAD PUSH2 0xE05 SWAP1 PUSH2 0x26DA JUMP JUMPDEST DUP1 PUSH1 0x1F ADD PUSH1 0x20 DUP1 SWAP2 DIV MUL PUSH1 0x20 ADD PUSH1 0x40 MLOAD SWAP1 DUP2 ADD PUSH1 0x40 MSTORE DUP1 SWAP3 SWAP2 SWAP1 DUP2 DUP2 MSTORE PUSH1 0x20 ADD DUP3 DUP1 SLOAD PUSH2 0xE31 SWAP1 PUSH2 0x26DA JUMP JUMPDEST DUP1 ISZERO PUSH2 0xE7C JUMPI DUP1 PUSH1 0x1F LT PUSH2 0xE53 JUMPI PUSH2 0x100 DUP1 DUP4 SLOAD DIV MUL DUP4 MSTORE SWAP2 PUSH1 0x20 ADD SWAP2 PUSH2 0xE7C JUMP JUMPDEST DUP3 ADD SWAP2 SWAP1 PUSH0 MSTORE PUSH1 0x20 PUSH0 KECCAK256 SWAP1 JUMPDEST DUP2 SLOAD DUP2 MSTORE SWAP1 PUSH1 0x1 ADD SWAP1 PUSH1 0x20 ADD DUP1 DUP4 GT PUSH2 0xE5F JUMPI DUP3 SWAP1 SUB PUSH1 0x1F AND DUP3 ADD SWAP2 JUMPDEST POP POP POP POP POP DUP2 MSTORE PUSH1 0x20 ADD PUSH1 0x1 DUP3 ADD DUP1 SLOAD PUSH2 0xE95 SWAP1 PUSH2 0x26DA JUMP JUMPDEST DUP1 PUSH1 0x1F ADD PUSH1 0x20 DUP1 SWAP2 DIV MUL PUSH1 0x20 ADD PUSH1 0x40 MLOAD SWAP1 DUP2 ADD PUSH1 0x40 MSTORE DUP1 SWAP3 SWAP2 SWAP1 DUP2 DUP2 MSTORE PUSH1 0x20 ADD DUP3 DUP1 SLOAD PUSH2 0xEC1 SWAP1 PUSH2 0x26DA JUMP JUMPDEST DUP1 ISZERO PUSH2 0xF0C JUMPI DUP1 PUSH1 0x1F LT PUSH2 0xEE3 JUMPI PUSH2 0x100 DUP1 DUP4 SLOAD DIV MUL DUP4 MSTORE SWAP2 PUSH1 0x20 ADD SWAP2 PUSH2 0xF0C JUMP JUMPDEST DUP3 ADD SWAP2 SWAP1 PUSH0 MSTORE PUSH1 0x20 PUSH0 KECCAK256 SWAP1 JUMPDEST DUP2 SLOAD DUP2 MSTORE SWAP1 PUSH1 0x1 ADD SWAP1 PUSH1 0x20 ADD DUP1 DUP4 GT PUSH2 0xEEF JUMPI DUP3 SWAP1 SUB PUSH1 0x1F AND DUP3 ADD SWAP2 JUMPDEST POP POP POP POP POP DUP2 MSTORE POP POP DUP2 MSTORE POP POP DUP4 DUP4 DUP2 MLOAD DUP2 LT PUSH2 0xF2C JUMPI PUSH2 0xF2B PUSH2 0x29B9 JUMP JUMPDEST JUMPDEST PUSH1 0x20 MUL PUSH1 0x20 ADD ADD DUP2 SWAP1 MSTORE POP DUP2 DUP1 PUSH2 0xF42 SWAP1 PUSH2 0x2666 JUMP JUMPDEST SWAP3 POP POP JUMPDEST DUP1 DUP1 PUSH1 0x1 ADD SWAP2 POP POP PUSH2 0xC4D JUMP JUMPDEST POP DUP2 SWAP4 POP POP POP POP SWAP1 JUMP JUMPDEST PUSH1 0x3 PUSH1 0x20 MSTORE DUP1 PUSH0 MSTORE PUSH1 0x40 PUSH0 KECCAK256 PUSH0 SWAP2 POP SLOAD SWAP1 PUSH2 0x100 EXP SWAP1 DIV PUSH1 0xFF AND DUP2 JUMP JUMPDEST PUSH1 0x2 CALLER SWAP1 DUP1 PUSH1 0x1 DUP2 SLOAD ADD DUP1 DUP3 SSTORE DUP1 SWAP2 POP POP PUSH1 0x1 SWAP1 SUB SWAP1 PUSH0 MSTORE PUSH1 0x20 PUSH0 KECCAK256 ADD PUSH0 SWAP1 SWAP2 SWAP1 SWAP2 SWAP1 SWAP2 PUSH2 0x100 EXP DUP2 SLOAD DUP2 PUSH20 0xFFFFFFFFFFFFFFFFFFFFFFFFFFFFFFFFFFFFFFFF MUL NOT AND SWAP1 DUP4 PUSH20 0xFFFFFFFFFFFFFFFFFFFFFFFFFFFFFFFFFFFFFFFF AND MUL OR SWAP1 SSTORE POP PUSH1 0x1 PUSH1 0x3 PUSH0 CALLER PUSH20 0xFFFFFFFFFFFFFFFFFFFFFFFFFFFFFFFFFFFFFFFF AND PUSH20 0xFFFFFFFFFFFFFFFFFFFFFFFFFFFFFFFFFFFFFFFF AND DUP2 MSTORE PUSH1 0x20 ADD SWAP1 DUP2 MSTORE PUSH1 0x20 ADD PUSH0 KECCAK256 PUSH0 PUSH2 0x100 EXP DUP2 SLOAD DUP2 PUSH1 0xFF MUL NOT AND SWAP1 DUP4 ISZERO ISZERO MUL OR SWAP1 SSTORE POP CALLER PUSH20 0xFFFFFFFFFFFFFFFFFFFFFFFFFFFFFFFFFFFFFFFF AND PUSH32 0x54DB7A5CB4735E1AAC1F53DB512D3390390BB6637BD30AD4BF9FC98667D9B9B9 PUSH1 0x40 MLOAD PUSH1 0x40 MLOAD DUP1 SWAP2 SUB SWAP1 LOG2 JUMP JUMPDEST PUSH1 0x5 PUSH1 0x20 MSTORE DUP2 PUSH0 MSTORE PUSH1 0x40 PUSH0 KECCAK256 DUP2 DUP2 SLOAD DUP2 LT PUSH2 0x108D JUMPI PUSH0 DUP1 REVERT JUMPDEST SWAP1 PUSH0 MSTORE PUSH1 0x20 PUSH0 KECCAK256 SWAP1 PUSH1 0x2 MUL ADD PUSH0 SWAP2 POP SWAP2 POP POP DUP1 PUSH0 ADD PUSH0 SWAP1 SLOAD SWAP1 PUSH2 0x100 EXP SWAP1 DIV PUSH20 0xFFFFFFFFFFFFFFFFFFFFFFFFFFFFFFFFFFFFFFFF AND SWAP1 DUP1 PUSH0 ADD PUSH1 0x14 SWAP1 SLOAD SWAP1 PUSH2 0x100 EXP SWAP1 DIV PUSH1 0xFF AND SWAP1 DUP1 PUSH1 0x1 ADD SLOAD SWAP1 POP DUP4 JUMP JUMPDEST PUSH0 CALLER SWAP1 DUP1 PUSH1 0x1 DUP2 SLOAD ADD DUP1 DUP3 SSTORE DUP1 SWAP2 POP POP PUSH1 0x1 SWAP1 SUB SWAP1 PUSH0 MSTORE PUSH1 0x20 PUSH0 KECCAK256 ADD PUSH0 SWAP1 SWAP2 SWAP1 SWAP2 SWAP1 SWAP2 PUSH2 0x100 EXP DUP2 SLOAD DUP2 PUSH20 0xFFFFFFFFFFFFFFFFFFFFFFFFFFFFFFFFFFFFFFFF MUL NOT AND SWAP1 DUP4 PUSH20 0xFFFFFFFFFFFFFFFFFFFFFFFFFFFFFFFFFFFFFFFF AND MUL OR SWAP1 SSTORE POP PUSH1 0x1 DUP1 PUSH0 CALLER PUSH20 0xFFFFFFFFFFFFFFFFFFFFFFFFFFFFFFFFFFFFFFFF AND PUSH20 0xFFFFFFFFFFFFFFFFFFFFFFFFFFFFFFFFFFFFFFFF AND DUP2 MSTORE PUSH1 0x20 ADD SWAP1 DUP2 MSTORE PUSH1 0x20 ADD PUSH0 KECCAK256 PUSH0 PUSH2 0x100 EXP DUP2 SLOAD DUP2 PUSH1 0xFF MUL NOT AND SWAP1 DUP4 ISZERO ISZERO MUL OR SWAP1 SSTORE POP CALLER PUSH20 0xFFFFFFFFFFFFFFFFFFFFFFFFFFFFFFFFFFFFFFFF AND PUSH32 0xAC0F15283D37631C15B481BC07DC402BCFC030956BCD94B5585F71D92E84C3DA PUSH1 0x40 MLOAD PUSH1 0x40 MLOAD DUP1 SWAP2 SUB SWAP1 LOG2 JUMP JUMPDEST PUSH1 0x3 PUSH0 CALLER PUSH20 0xFFFFFFFFFFFFFFFFFFFFFFFFFFFFFFFFFFFFFFFF AND PUSH20 0xFFFFFFFFFFFFFFFFFFFFFFFFFFFFFFFFFFFFFFFF AND DUP2 MSTORE PUSH1 0x20 ADD SWAP1 DUP2 MSTORE PUSH1 0x20 ADD PUSH0 KECCAK256 PUSH0 SWAP1 SLOAD SWAP1 PUSH2 0x100 EXP SWAP1 DIV PUSH1 0xFF AND PUSH2 0x1260 JUMPI PUSH1 0x40 MLOAD PUSH32 0x8C379A000000000000000000000000000000000000000000000000000000000 DUP2 MSTORE PUSH1 0x4 ADD PUSH2 0x1257 SWAP1 PUSH2 0x25B3 JUMP JUMPDEST PUSH1 0x40 MLOAD DUP1 SWAP2 SUB SWAP1 REVERT JUMPDEST PUSH2 0x126B DUP2 CALLER PUSH0 PUSH2 0x199D JUMP JUMPDEST POP JUMP JUMPDEST PUSH1 0x4 PUSH1 0x20 MSTORE DUP1 PUSH0 MSTORE PUSH1 0x40 PUSH0 KECCAK256 PUSH0 SWAP2 POP SWAP1 POP DUP1 PUSH0 ADD SLOAD SWAP1 DUP1 PUSH1 0x1 ADD PUSH0 SWAP1 SLOAD SWAP1 PUSH2 0x100 EXP SWAP1 DIV PUSH20 0xFFFFFFFFFFFFFFFFFFFFFFFFFFFFFFFFFFFFFFFF AND SWAP1 DUP1 PUSH1 0x2 ADD DUP1 SLOAD PUSH2 0x12B8 SWAP1 PUSH2 0x26DA JUMP JUMPDEST DUP1 PUSH1 0x1F ADD PUSH1 0x20 DUP1 SWAP2 DIV MUL PUSH1 0x20 ADD PUSH1 0x40 MLOAD SWAP1 DUP2 ADD PUSH1 0x40 MSTORE DUP1 SWAP3 SWAP2 SWAP1 DUP2 DUP2 MSTORE PUSH1 0x20 ADD DUP3 DUP1 SLOAD PUSH2 0x12E4 SWAP1 PUSH2 0x26DA JUMP JUMPDEST DUP1 ISZERO PUSH2 0x132F JUMPI DUP1 PUSH1 0x1F LT PUSH2 0x1306 JUMPI PUSH2 0x100 DUP1 DUP4 SLOAD DIV MUL DUP4 MSTORE SWAP2 PUSH1 0x20 ADD SWAP2 PUSH2 0x132F JUMP JUMPDEST DUP3 ADD SWAP2 SWAP1 PUSH0 MSTORE PUSH1 0x20 PUSH0 KECCAK256 SWAP1 JUMPDEST DUP2 SLOAD DUP2 MSTORE SWAP1 PUSH1 0x1 ADD SWAP1 PUSH1 0x20 ADD DUP1 DUP4 GT PUSH2 0x1312 JUMPI DUP3 SWAP1 SUB PUSH1 0x1F AND DUP3 ADD SWAP2 JUMPDEST POP POP POP POP POP SWAP1 DUP1 PUSH1 0x3 ADD PUSH0 SWAP1 SLOAD SWAP1 PUSH2 0x100 EXP SWAP1 DIV PUSH1 0xFF AND SWAP1 DUP1 PUSH1 0x4 ADD PUSH1 0x40 MLOAD DUP1 PUSH1 0x40 ADD PUSH1 0x40 MSTORE SWAP1 DUP2 PUSH0 DUP3 ADD DUP1 SLOAD PUSH2 0x1365 SWAP1 PUSH2 0x26DA JUMP JUMPDEST DUP1 PUSH1 0x1F ADD PUSH1 0x20 DUP1 SWAP2 DIV MUL PUSH1 0x20 ADD PUSH1 0x40 MLOAD SWAP1 DUP2 ADD PUSH1 0x40 MSTORE DUP1 SWAP3 SWAP2 SWAP1 DUP2 DUP2 MSTORE PUSH1 0x20 ADD DUP3 DUP1 SLOAD PUSH2 0x1391 SWAP1 PUSH2 0x26DA JUMP JUMPDEST DUP1 ISZERO PUSH2 0x13DC JUMPI DUP1 PUSH1 0x1F LT PUSH2 0x13B3 JUMPI PUSH2 0x100 DUP1 DUP4 SLOAD DIV MUL DUP4 MSTORE SWAP2 PUSH1 0x20 ADD SWAP2 PUSH2 0x13DC JUMP JUMPDEST DUP3 ADD SWAP2 SWAP1 PUSH0 MSTORE PUSH1 0x20 PUSH0 KECCAK256 SWAP1 JUMPDEST DUP2 SLOAD DUP2 MSTORE SWAP1 PUSH1 0x1 ADD SWAP1 PUSH1 0x20 ADD DUP1 DUP4 GT PUSH2 0x13BF JUMPI DUP3 SWAP1 SUB PUSH1 0x1F AND DUP3 ADD SWAP2 JUMPDEST POP POP POP POP POP DUP2 MSTORE PUSH1 0x20 ADD PUSH1 0x1 DUP3 ADD DUP1 SLOAD PUSH2 0x13F5 SWAP1 PUSH2 0x26DA JUMP JUMPDEST DUP1 PUSH1 0x1F ADD PUSH1 0x20 DUP1 SWAP2 DIV MUL PUSH1 0x20 ADD PUSH1 0x40 MLOAD SWAP1 DUP2 ADD PUSH1 0x40 MSTORE DUP1 SWAP3 SWAP2 SWAP1 DUP2 DUP2 MSTORE PUSH1 0x20 ADD DUP3 DUP1 SLOAD PUSH2 0x1421 SWAP1 PUSH2 0x26DA JUMP JUMPDEST DUP1 ISZERO PUSH2 0x146C JUMPI DUP1 PUSH1 0x1F LT PUSH2 0x1443 JUMPI PUSH2 0x100 DUP1 DUP4 SLOAD DIV MUL DUP4 MSTORE SWAP2 PUSH1 0x20 ADD SWAP2 PUSH2 0x146C JUMP JUMPDEST DUP3 ADD SWAP2 SWAP1 PUSH0 MSTORE PUSH1 0x20 PUSH0 KECCAK256 SWAP1 JUMPDEST DUP2 SLOAD DUP2 MSTORE SWAP1 PUSH1 0x1 ADD SWAP1 PUSH1 0x20 ADD DUP1 DUP4 GT PUSH2 0x144F JUMPI DUP3 SWAP1 SUB PUSH1 0x1F AND DUP3 ADD SWAP2 JUMPDEST POP POP POP POP POP DUP2 MSTORE POP POP SWAP1 POP DUP6 JUMP JUMPDEST PUSH1 0x60 PUSH0 PUSH1 0x7 SLOAD PUSH8 0xFFFFFFFFFFFFFFFF DUP2 GT ISZERO PUSH2 0x1499 JUMPI PUSH2 0x1498 PUSH2 0x1C46 JUMP JUMPDEST JUMPDEST PUSH1 0x40 MLOAD SWAP1 DUP1 DUP3 MSTORE DUP1 PUSH1 0x20 MUL PUSH1 0x20 ADD DUP3 ADD PUSH1 0x40 MSTORE DUP1 ISZERO PUSH2 0x14D2 JUMPI DUP2 PUSH1 0x20 ADD JUMPDEST PUSH2 0x14BF PUSH2 0x1BA9 JUMP JUMPDEST DUP2 MSTORE PUSH1 0x20 ADD SWAP1 PUSH1 0x1 SWAP1 SUB SWAP1 DUP2 PUSH2 0x14B7 JUMPI SWAP1 POP JUMPDEST POP SWAP1 POP PUSH0 DUP1 JUMPDEST PUSH1 0x7 SLOAD DUP2 LT ISZERO PUSH2 0x17F9 JUMPI DUP5 PUSH20 0xFFFFFFFFFFFFFFFFFFFFFFFFFFFFFFFFFFFFFFFF AND PUSH1 0x4 PUSH0 DUP4 DUP2 MSTORE PUSH1 0x20 ADD SWAP1 DUP2 MSTORE PUSH1 0x20 ADD PUSH0 KECCAK256 PUSH1 0x1 ADD PUSH0 SWAP1 SLOAD SWAP1 PUSH2 0x100 EXP SWAP1 DIV PUSH20 0xFFFFFFFFFFFFFFFFFFFFFFFFFFFFFFFFFFFFFFFF AND PUSH20 0xFFFFFFFFFFFFFFFFFFFFFFFFFFFFFFFFFFFFFFFF AND SUB PUSH2 0x17EC JUMPI PUSH1 0x4 PUSH0 DUP3 DUP2 MSTORE PUSH1 0x20 ADD SWAP1 DUP2 MSTORE PUSH1 0x20 ADD PUSH0 KECCAK256 PUSH1 0x40 MLOAD DUP1 PUSH1 0xA0 ADD PUSH1 0x40 MSTORE SWAP1 DUP2 PUSH0 DUP3 ADD SLOAD DUP2 MSTORE PUSH1 0x20 ADD PUSH1 0x1 DUP3 ADD PUSH0 SWAP1 SLOAD SWAP1 PUSH2 0x100 EXP SWAP1 DIV PUSH20 0xFFFFFFFFFFFFFFFFFFFFFFFFFFFFFFFFFFFFFFFF AND PUSH20 0xFFFFFFFFFFFFFFFFFFFFFFFFFFFFFFFFFFFFFFFF AND PUSH20 0xFFFFFFFFFFFFFFFFFFFFFFFFFFFFFFFFFFFFFFFF AND DUP2 MSTORE PUSH1 0x20 ADD PUSH1 0x2 DUP3 ADD DUP1 SLOAD PUSH2 0x15D2 SWAP1 PUSH2 0x26DA JUMP JUMPDEST DUP1 PUSH1 0x1F ADD PUSH1 0x20 DUP1 SWAP2 DIV MUL PUSH1 0x20 ADD PUSH1 0x40 MLOAD SWAP1 DUP2 ADD PUSH1 0x40 MSTORE DUP1 SWAP3 SWAP2 SWAP1 DUP2 DUP2 MSTORE PUSH1 0x20 ADD DUP3 DUP1 SLOAD PUSH2 0x15FE SWAP1 PUSH2 0x26DA JUMP JUMPDEST DUP1 ISZERO PUSH2 0x1649 JUMPI DUP1 PUSH1 0x1F LT PUSH2 0x1620 JUMPI PUSH2 0x100 DUP1 DUP4 SLOAD DIV MUL DUP4 MSTORE SWAP2 PUSH1 0x20 ADD SWAP2 PUSH2 0x1649 JUMP JUMPDEST DUP3 ADD SWAP2 SWAP1 PUSH0 MSTORE PUSH1 0x20 PUSH0 KECCAK256 SWAP1 JUMPDEST DUP2 SLOAD DUP2 MSTORE SWAP1 PUSH1 0x1 ADD SWAP1 PUSH1 0x20 ADD DUP1 DUP4 GT PUSH2 0x162C JUMPI DUP3 SWAP1 SUB PUSH1 0x1F AND DUP3 ADD SWAP2 JUMPDEST POP POP POP POP POP DUP2 MSTORE PUSH1 0x20 ADD PUSH1 0x3 DUP3 ADD PUSH0 SWAP1 SLOAD SWAP1 PUSH2 0x100 EXP SWAP1 DIV PUSH1 0xFF AND PUSH1 0x1 DUP2 GT ISZERO PUSH2 0x1676 JUMPI PUSH2 0x1675 PUSH2 0x225F JUMP JUMPDEST JUMPDEST PUSH1 0x1 DUP2 GT ISZERO PUSH2 0x1688 JUMPI PUSH2 0x1687 PUSH2 0x225F JUMP JUMPDEST JUMPDEST DUP2 MSTORE PUSH1 0x20 ADD PUSH1 0x4 DUP3 ADD PUSH1 0x40 MLOAD DUP1 PUSH1 0x40 ADD PUSH1 0x40 MSTORE SWAP1 DUP2 PUSH0 DUP3 ADD DUP1 SLOAD PUSH2 0x16AB SWAP1 PUSH2 0x26DA JUMP JUMPDEST DUP1 PUSH1 0x1F ADD PUSH1 0x20 DUP1 SWAP2 DIV MUL PUSH1 0x20 ADD PUSH1 0x40 MLOAD SWAP1 DUP2 ADD PUSH1 0x40 MSTORE DUP1 SWAP3 SWAP2 SWAP1 DUP2 DUP2 MSTORE PUSH1 0x20 ADD DUP3 DUP1 SLOAD PUSH2 0x16D7 SWAP1 PUSH2 0x26DA JUMP JUMPDEST DUP1 ISZERO PUSH2 0x1722 JUMPI DUP1 PUSH1 0x1F LT PUSH2 0x16F9 JUMPI PUSH2 0x100 DUP1 DUP4 SLOAD DIV MUL DUP4 MSTORE SWAP2 PUSH1 0x20 ADD SWAP2 PUSH2 0x1722 JUMP JUMPDEST DUP3 ADD SWAP2 SWAP1 PUSH0 MSTORE PUSH1 0x20 PUSH0 KECCAK256 SWAP1 JUMPDEST DUP2 SLOAD DUP2 MSTORE SWAP1 PUSH1 0x1 ADD SWAP1 PUSH1 0x20 ADD DUP1 DUP4 GT PUSH2 0x1705 JUMPI DUP3 SWAP1 SUB PUSH1 0x1F AND DUP3 ADD SWAP2 JUMPDEST POP POP POP POP POP DUP2 MSTORE PUSH1 0x20 ADD PUSH1 0x1 DUP3 ADD DUP1 SLOAD PUSH2 0x173B SWAP1 PUSH2 0x26DA JUMP JUMPDEST DUP1 PUSH1 0x1F ADD PUSH1 0x20 DUP1 SWAP2 DIV MUL PUSH1 0x20 ADD PUSH1 0x40 MLOAD SWAP1 DUP2 ADD PUSH1 0x40 MSTORE DUP1 SWAP3 SWAP2 SWAP1 DUP2 DUP2 MSTORE PUSH1 0x20 ADD DUP3 DUP1 SLOAD PUSH2 0x1767 SWAP1 PUSH2 0x26DA JUMP JUMPDEST DUP1 ISZERO PUSH2 0x17B2 JUMPI DUP1 PUSH1 0x1F LT PUSH2 0x1789 JUMPI PUSH2 0x100 DUP1 DUP4 SLOAD DIV MUL DUP4 MSTORE SWAP2 PUSH1 0x20 ADD SWAP2 PUSH2 0x17B2 JUMP JUMPDEST DUP3 ADD SWAP2 SWAP1 PUSH0 MSTORE PUSH1 0x20 PUSH0 KECCAK256 SWAP1 JUMPDEST DUP2 SLOAD DUP2 MSTORE SWAP1 PUSH1 0x1 ADD SWAP1 PUSH1 0x20 ADD DUP1 DUP4 GT PUSH2 0x1795 JUMPI DUP3 SWAP1 SUB PUSH1 0x1F AND DUP3 ADD SWAP2 JUMPDEST POP POP POP POP POP DUP2 MSTORE POP POP DUP2 MSTORE POP POP DUP4 DUP4 DUP2 MLOAD DUP2 LT PUSH2 0x17D2 JUMPI PUSH2 0x17D1 PUSH2 0x29B9 JUMP JUMPDEST JUMPDEST PUSH1 0x20 MUL PUSH1 0x20 ADD ADD DUP2 SWAP1 MSTORE POP DUP2 DUP1 PUSH2 0x17E8 SWAP1 PUSH2 0x2666 JUMP JUMPDEST SWAP3 POP POP JUMPDEST DUP1 DUP1 PUSH1 0x1 ADD SWAP2 POP POP PUSH2 0x14D8 JUMP JUMPDEST POP DUP1 DUP3 MSTORE DUP2 SWAP3 POP POP POP SWAP2 SWAP1 POP JUMP JUMPDEST PUSH1 0x1 PUSH0 CALLER PUSH20 0xFFFFFFFFFFFFFFFFFFFFFFFFFFFFFFFFFFFFFFFF AND PUSH20 0xFFFFFFFFFFFFFFFFFFFFFFFFFFFFFFFFFFFFFFFF AND DUP2 MSTORE PUSH1 0x20 ADD SWAP1 DUP2 MSTORE PUSH1 0x20 ADD PUSH0 KECCAK256 PUSH0 SWAP1 SLOAD SWAP1 PUSH2 0x100 EXP SWAP1 DIV PUSH1 0xFF AND PUSH2 0x1890 JUMPI PUSH1 0x40 MLOAD PUSH32 0x8C379A000000000000000000000000000000000000000000000000000000000 DUP2 MSTORE PUSH1 0x4 ADD PUSH2 0x1887 SWAP1 PUSH2 0x2A56 JUMP JUMPDEST PUSH1 0x40 MLOAD DUP1 SWAP2 SUB SWAP1 REVERT JUMPDEST PUSH1 0x6 PUSH0 DUP4 DUP2 MSTORE PUSH1 0x20 ADD SWAP1 DUP2 MSTORE PUSH1 0x20 ADD PUSH0 KECCAK256 PUSH1 0x40 MLOAD DUP1 PUSH1 0x60 ADD PUSH1 0x40 MSTORE DUP1 CALLER PUSH20 0xFFFFFFFFFFFFFFFFFFFFFFFFFFFFFFFFFFFFFFFF AND DUP2 MSTORE PUSH1 0x20 ADD DUP4 DUP2 MSTORE PUSH1 0x20 ADD TIMESTAMP DUP2 MSTORE POP SWAP1 DUP1 PUSH1 0x1 DUP2 SLOAD ADD DUP1 DUP3 SSTORE DUP1 SWAP2 POP POP PUSH1 0x1 SWAP1 SUB SWAP1 PUSH0 MSTORE PUSH1 0x20 PUSH0 KECCAK256 SWAP1 PUSH1 0x3 MUL ADD PUSH0 SWAP1 SWAP2 SWAP1 SWAP2 SWAP1 SWAP2 POP PUSH0 DUP3 ADD MLOAD DUP2 PUSH0 ADD PUSH0 PUSH2 0x100 EXP DUP2 SLOAD DUP2 PUSH20 0xFFFFFFFFFFFFFFFFFFFFFFFFFFFFFFFFFFFFFFFF MUL NOT AND SWAP1 DUP4 PUSH20 0xFFFFFFFFFFFFFFFFFFFFFFFFFFFFFFFFFFFFFFFF AND MUL OR SWAP1 SSTORE POP PUSH1 0x20 DUP3 ADD MLOAD DUP2 PUSH1 0x1 ADD SWAP1 DUP2 PUSH2 0x1951 SWAP2 SWAP1 PUSH2 0x28A7 JUMP JUMPDEST POP PUSH1 0x40 DUP3 ADD MLOAD DUP2 PUSH1 0x2 ADD SSTORE POP POP PUSH32 0x70ACC6CA6341BAB0B9C04DF16281D0D498328DC28B62DC6950F9619E291381EC DUP3 CALLER TIMESTAMP PUSH1 0x40 MLOAD PUSH2 0x1991 SWAP4 SWAP3 SWAP2 SWAP1 PUSH2 0x2B54 JUMP JUMPDEST PUSH1 0x40 MLOAD DUP1 SWAP2 SUB SWAP1 LOG1 POP POP JUMP JUMPDEST PUSH1 0x5 PUSH0 DUP5 DUP2 MSTORE PUSH1 0x20 ADD SWAP1 DUP2 MSTORE PUSH1 0x20 ADD PUSH0 KECCAK256 PUSH1 0x40 MLOAD DUP1 PUSH1 0x60 ADD PUSH1 0x40 MSTORE DUP1 DUP5 PUSH20 0xFFFFFFFFFFFFFFFFFFFFFFFFFFFFFFFFFFFFFFFF AND DUP2 MSTORE PUSH1 0x20 ADD DUP4 PUSH1 0x2 DUP2 GT ISZERO PUSH2 0x19E8 JUMPI PUSH2 0x19E7 PUSH2 0x225F JUMP JUMPDEST JUMPDEST DUP2 MSTORE PUSH1 0x20 ADD TIMESTAMP DUP2 MSTORE POP SWAP1 DUP1 PUSH1 0x1 DUP2 SLOAD ADD DUP1 DUP3 SSTORE DUP1 SWAP2 POP POP PUSH1 0x1 SWAP1 SUB SWAP1 PUSH0 MSTORE PUSH1 0x20 PUSH0 KECCAK256 SWAP1 PUSH1 0x2 MUL ADD PUSH0 SWAP1 SWAP2 SWAP1 SWAP2 SWAP1 SWAP2 POP PUSH0 DUP3 ADD MLOAD DUP2 PUSH0 ADD PUSH0 PUSH2 0x100 EXP DUP2 SLOAD DUP2 PUSH20 0xFFFFFFFFFFFFFFFFFFFFFFFFFFFFFFFFFFFFFFFF MUL NOT AND SWAP1 DUP4 PUSH20 0xFFFFFFFFFFFFFFFFFFFFFFFFFFFFFFFFFFFFFFFF AND MUL OR SWAP1 SSTORE POP PUSH1 0x20 DUP3 ADD MLOAD DUP2 PUSH0 ADD PUSH1 0x14 PUSH2 0x100 EXP DUP2 SLOAD DUP2 PUSH1 0xFF MUL NOT AND SWAP1 DUP4 PUSH1 0x2 DUP2 GT ISZERO PUSH2 0x1A85 JUMPI PUSH2 0x1A84 PUSH2 0x225F JUMP JUMPDEST JUMPDEST MUL OR SWAP1 SSTORE POP PUSH1 0x40 DUP3 ADD MLOAD DUP2 PUSH1 0x1 ADD SSTORE POP POP PUSH32 0x70ACC6CA6341BAB0B9C04DF16281D0D498328DC28B62DC6950F9619E291381EC DUP4 DUP4 PUSH0 PUSH1 0x2 DUP2 GT ISZERO PUSH2 0x1ACC JUMPI PUSH2 0x1ACB PUSH2 0x225F JUMP JUMPDEST JUMPDEST DUP5 PUSH1 0x2 DUP2 GT ISZERO PUSH2 0x1ADF JUMPI PUSH2 0x1ADE PUSH2 0x225F JUMP JUMPDEST JUMPDEST EQ PUSH2 0x1B1F JUMPI PUSH1 0x40 MLOAD DUP1 PUSH1 0x40 ADD PUSH1 0x40 MSTORE DUP1 PUSH1 0x7 DUP2 MSTORE PUSH1 0x20 ADD PUSH32 0x7265736F6C766500000000000000000000000000000000000000000000000000 DUP2 MSTORE POP PUSH2 0x1B56 JUMP JUMPDEST PUSH1 0x40 MLOAD DUP1 PUSH1 0x40 ADD PUSH1 0x40 MSTORE DUP1 PUSH1 0x6 DUP2 MSTORE PUSH1 0x20 ADD PUSH32 0x6163636573730000000000000000000000000000000000000000000000000000 DUP2 MSTORE POP JUMPDEST TIMESTAMP PUSH1 0x40 MLOAD PUSH2 0x1B67 SWAP5 SWAP4 SWAP3 SWAP2 SWAP1 PUSH2 0x2B9C JUMP JUMPDEST PUSH1 0x40 MLOAD DUP1 SWAP2 SUB SWAP1 LOG1 POP POP POP JUMP JUMPDEST PUSH1 0x40 MLOAD DUP1 PUSH1 0x60 ADD PUSH1 0x40 MSTORE DUP1 PUSH0 PUSH20 0xFFFFFFFFFFFFFFFFFFFFFFFFFFFFFFFFFFFFFFFF AND DUP2 MSTORE PUSH1 0x20 ADD PUSH1 0x60 DUP2 MSTORE PUSH1 0x20 ADD PUSH0 DUP2 MSTORE POP SWAP1 JUMP JUMPDEST PUSH1 0x40 MLOAD DUP1 PUSH1 0xA0 ADD PUSH1 0x40 MSTORE DUP1 PUSH0 DUP2 MSTORE PUSH1 0x20 ADD PUSH0 PUSH20 0xFFFFFFFFFFFFFFFFFFFFFFFFFFFFFFFFFFFFFFFF AND DUP2 MSTORE PUSH1 0x20 ADD PUSH1 0x60 DUP2 MSTORE PUSH1 0x20 ADD PUSH0 PUSH1 0x1 DUP2 GT ISZERO PUSH2 0x1BF0 JUMPI PUSH2 0x1BEF PUSH2 0x225F JUMP JUMPDEST JUMPDEST DUP2 MSTORE PUSH1 0x20 ADD PUSH2 0x1BFD PUSH2 0x1C03 JUMP JUMPDEST DUP2 MSTORE POP SWAP1 JUMP JUMPDEST PUSH1 0x40 MLOAD DUP1 PUSH1 0x40 ADD PUSH1 0x40 MSTORE DUP1 PUSH1 0x60 DUP2 MSTORE PUSH1 0x20 ADD PUSH1 0x60 DUP2 MSTORE POP SWAP1 JUMP JUMPDEST PUSH0 PUSH1 0x40 MLOAD SWAP1 POP SWAP1 JUMP JUMPDEST PUSH0 DUP1 REVERT JUMPDEST PUSH0 DUP1 REVERT JUMPDEST PUSH0 DUP1 REVERT JUMPDEST PUSH0 DUP1 REVERT JUMPDEST PUSH0 PUSH1 0x1F NOT PUSH1 0x1F DUP4 ADD AND SWAP1 POP SWAP2 SWAP1 POP JUMP JUMPDEST PUSH32 0x4E487B7100000000000000000000000000000000000000000000000000000000 PUSH0 MSTORE PUSH1 0x41 PUSH1 0x4 MSTORE PUSH1 0x24 PUSH0 REVERT JUMPDEST PUSH2 0x1C7C DUP3 PUSH2 0x1C36 JUMP JUMPDEST DUP2 ADD DUP2 DUP2 LT PUSH8 0xFFFFFFFFFFFFFFFF DUP3 GT OR ISZERO PUSH2 0x1C9B JUMPI PUSH2 0x1C9A PUSH2 0x1C46 JUMP JUMPDEST JUMPDEST DUP1 PUSH1 0x40 MSTORE POP POP POP JUMP JUMPDEST PUSH0 PUSH2 0x1CAD PUSH2 0x1C1D JUMP JUMPDEST SWAP1 POP PUSH2 0x1CB9 DUP3 DUP3 PUSH2 0x1C73 JUMP JUMPDEST SWAP2 SWAP1 POP JUMP JUMPDEST PUSH0 PUSH8 0xFFFFFFFFFFFFFFFF DUP3 GT ISZERO PUSH2 0x1CD8 JUMPI PUSH2 0x1CD7 PUSH2 0x1C46 JUMP JUMPDEST JUMPDEST PUSH2 0x1CE1 DUP3 PUSH2 0x1C36 JUMP JUMPDEST SWAP1 POP PUSH1 0x20 DUP2 ADD SWAP1 POP SWAP2 SWAP1 POP JUMP JUMPDEST DUP3 DUP2 DUP4 CALLDATACOPY PUSH0 DUP4 DUP4 ADD MSTORE POP POP POP JUMP JUMPDEST PUSH0 PUSH2 0x1D0E PUSH2 0x1D09 DUP5 PUSH2 0x1CBE JUMP JUMPDEST PUSH2 0x1CA4 JUMP JUMPDEST SWAP1 POP DUP3 DUP2 MSTORE PUSH1 0x20 DUP2 ADD DUP5 DUP5 DUP5 ADD GT ISZERO PUSH2 0x1D2A JUMPI PUSH2 0x1D29 PUSH2 0x1C32 JUMP JUMPDEST JUMPDEST PUSH2 0x1D35 DUP5 DUP3 DUP6 PUSH2 0x1CEE JUMP JUMPDEST POP SWAP4 SWAP3 POP POP POP JUMP JUMPDEST PUSH0 DUP3 PUSH1 0x1F DUP4 ADD SLT PUSH2 0x1D51 JUMPI PUSH2 0x1D50 PUSH2 0x1C2E JUMP JUMPDEST JUMPDEST DUP2 CALLDATALOAD PUSH2 0x1D61 DUP5 DUP3 PUSH1 0x20 DUP7 ADD PUSH2 0x1CFC JUMP JUMPDEST SWAP2 POP POP SWAP3 SWAP2 POP POP JUMP JUMPDEST PUSH0 DUP1 PUSH0 PUSH1 0x60 DUP5 DUP7 SUB SLT ISZERO PUSH2 0x1D81 JUMPI PUSH2 0x1D80 PUSH2 0x1C26 JUMP JUMPDEST JUMPDEST PUSH0 DUP5 ADD CALLDATALOAD PUSH8 0xFFFFFFFFFFFFFFFF DUP2 GT ISZERO PUSH2 0x1D9E JUMPI PUSH2 0x1D9D PUSH2 0x1C2A JUMP JUMPDEST JUMPDEST PUSH2 0x1DAA DUP7 DUP3 DUP8 ADD PUSH2 0x1D3D JUMP JUMPDEST SWAP4 POP POP PUSH1 0x20 DUP5 ADD CALLDATALOAD PUSH8 0xFFFFFFFFFFFFFFFF DUP2 GT ISZERO PUSH2 0x1DCB JUMPI PUSH2 0x1DCA PUSH2 0x1C2A JUMP JUMPDEST JUMPDEST PUSH2 0x1DD7 DUP7 DUP3 DUP8 ADD PUSH2 0x1D3D JUMP JUMPDEST SWAP3 POP POP PUSH1 0x40 DUP5 ADD CALLDATALOAD PUSH8 0xFFFFFFFFFFFFFFFF DUP2 GT ISZERO PUSH2 0x1DF8 JUMPI PUSH2 0x1DF7 PUSH2 0x1C2A JUMP JUMPDEST JUMPDEST PUSH2 0x1E04 DUP7 DUP3 DUP8 ADD PUSH2 0x1D3D JUMP JUMPDEST SWAP2 POP POP SWAP3 POP SWAP3 POP SWAP3 JUMP JUMPDEST PUSH0 DUP2 SWAP1 POP SWAP2 SWAP1 POP JUMP JUMPDEST PUSH2 0x1E20 DUP2 PUSH2 0x1E0E JUMP JUMPDEST DUP2 EQ PUSH2 0x1E2A JUMPI PUSH0 DUP1 REVERT JUMPDEST POP JUMP JUMPDEST PUSH0 DUP2 CALLDATALOAD SWAP1 POP PUSH2 0x1E3B DUP2 PUSH2 0x1E17 JUMP JUMPDEST SWAP3 SWAP2 POP POP JUMP JUMPDEST PUSH0 PUSH1 0x20 DUP3 DUP5 SUB SLT ISZERO PUSH2 0x1E56 JUMPI PUSH2 0x1E55 PUSH2 0x1C26 JUMP JUMPDEST JUMPDEST PUSH0 PUSH2 0x1E63 DUP5 DUP3 DUP6 ADD PUSH2 0x1E2D JUMP JUMPDEST SWAP2 POP POP SWAP3 SWAP2 POP POP JUMP JUMPDEST PUSH0 PUSH20 0xFFFFFFFFFFFFFFFFFFFFFFFFFFFFFFFFFFFFFFFF DUP3 AND SWAP1 POP SWAP2 SWAP1 POP JUMP JUMPDEST PUSH0 PUSH2 0x1E95 DUP3 PUSH2 0x1E6C JUMP JUMPDEST SWAP1 POP SWAP2 SWAP1 POP JUMP JUMPDEST PUSH2 0x1EA5 DUP2 PUSH2 0x1E8B JUMP JUMPDEST DUP3 MSTORE POP POP JUMP JUMPDEST PUSH0 PUSH1 0x20 DUP3 ADD SWAP1 POP PUSH2 0x1EBE PUSH0 DUP4 ADD DUP5 PUSH2 0x1E9C JUMP JUMPDEST SWAP3 SWAP2 POP POP JUMP JUMPDEST PUSH2 0x1ECD DUP2 PUSH2 0x1E8B JUMP JUMPDEST DUP2 EQ PUSH2 0x1ED7 JUMPI PUSH0 DUP1 REVERT JUMPDEST POP JUMP JUMPDEST PUSH0 DUP2 CALLDATALOAD SWAP1 POP PUSH2 0x1EE8 DUP2 PUSH2 0x1EC4 JUMP JUMPDEST SWAP3 SWAP2 POP POP JUMP JUMPDEST PUSH0 PUSH1 0x20 DUP3 DUP5 SUB SLT ISZERO PUSH2 0x1F03 JUMPI PUSH2 0x1F02 PUSH2 0x1C26 JUMP JUMPDEST JUMPDEST PUSH0 PUSH2 0x1F10 DUP5 DUP3 DUP6 ADD PUSH2 0x1EDA JUMP JUMPDEST SWAP2 POP POP SWAP3 SWAP2 POP POP JUMP JUMPDEST PUSH0 DUP2 MLOAD SWAP1 POP SWAP2 SWAP1 POP JUMP JUMPDEST PUSH0 DUP3 DUP3 MSTORE PUSH1 0x20 DUP3 ADD SWAP1 POP SWAP3 SWAP2 POP POP JUMP JUMPDEST PUSH0 DUP2 SWAP1 POP PUSH1 0x20 DUP3 ADD SWAP1 POP SWAP2 SWAP1 POP JUMP JUMPDEST PUSH2 0x1F4B DUP2 PUSH2 0x1E8B JUMP JUMPDEST DUP3 MSTORE POP POP JUMP JUMPDEST PUSH0 DUP2 MLOAD SWAP1 POP SWAP2 SWAP1 POP JUMP JUMPDEST PUSH0 DUP3 DUP3 MSTORE PUSH1 0x20 DUP3 ADD SWAP1 POP SWAP3 SWAP2 POP POP JUMP JUMPDEST DUP3 DUP2 DUP4 MCOPY PUSH0 DUP4 DUP4 ADD MSTORE POP POP POP JUMP JUMPDEST PUSH0 PUSH2 0x1F83 DUP3 PUSH2 0x1F51 JUMP JUMPDEST PUSH2 0x1F8D DUP2 DUP6 PUSH2 0x1F5B JUMP JUMPDEST SWAP4 POP PUSH2 0x1F9D DUP2 DUP6 PUSH1 0x20 DUP7 ADD PUSH2 0x1F6B JUMP JUMPDEST PUSH2 0x1FA6 DUP2 PUSH2 0x1C36 JUMP JUMPDEST DUP5 ADD SWAP2 POP POP SWAP3 SWAP2 POP POP JUMP JUMPDEST PUSH2 0x1FBA DUP2 PUSH2 0x1E0E JUMP JUMPDEST DUP3 MSTORE POP POP JUMP JUMPDEST PUSH0 PUSH1 0x60 DUP4 ADD PUSH0 DUP4 ADD MLOAD PUSH2 0x1FD5 PUSH0 DUP7 ADD DUP3 PUSH2 0x1F42 JUMP JUMPDEST POP PUSH1 0x20 DUP4 ADD MLOAD DUP5 DUP3 SUB PUSH1 0x20 DUP7 ADD MSTORE PUSH2 0x1FED DUP3 DUP3 PUSH2 0x1F79 JUMP JUMPDEST SWAP2 POP POP PUSH1 0x40 DUP4 ADD MLOAD PUSH2 0x2002 PUSH1 0x40 DUP7 ADD DUP3 PUSH2 0x1FB1 JUMP JUMPDEST POP DUP1 SWAP2 POP POP SWAP3 SWAP2 POP POP JUMP JUMPDEST PUSH0 PUSH2 0x2018 DUP4 DUP4 PUSH2 0x1FC0 JUMP JUMPDEST SWAP1 POP SWAP3 SWAP2 POP POP JUMP JUMPDEST PUSH0 PUSH1 0x20 DUP3 ADD SWAP1 POP SWAP2 SWAP1 POP JUMP JUMPDEST PUSH0 PUSH2 0x2036 DUP3 PUSH2 0x1F19 JUMP JUMPDEST PUSH2 0x2040 DUP2 DUP6 PUSH2 0x1F23 JUMP JUMPDEST SWAP4 POP DUP4 PUSH1 0x20 DUP3 MUL DUP6 ADD PUSH2 0x2052 DUP6 PUSH2 0x1F33 JUMP JUMPDEST DUP1 PUSH0 JUMPDEST DUP6 DUP2 LT ISZERO PUSH2 0x208D JUMPI DUP5 DUP5 SUB DUP10 MSTORE DUP2 MLOAD PUSH2 0x206E DUP6 DUP3 PUSH2 0x200D JUMP JUMPDEST SWAP5 POP PUSH2 0x2079 DUP4 PUSH2 0x2020 JUMP JUMPDEST SWAP3 POP PUSH1 0x20 DUP11 ADD SWAP10 POP POP PUSH1 0x1 DUP2 ADD SWAP1 POP PUSH2 0x2055 JUMP JUMPDEST POP DUP3 SWAP8 POP DUP8 SWAP6 POP POP POP POP POP POP SWAP3 SWAP2 POP POP JUMP JUMPDEST PUSH0 PUSH1 0x20 DUP3 ADD SWAP1 POP DUP2 DUP2 SUB PUSH0 DUP4 ADD MSTORE PUSH2 0x20B7 DUP2 DUP5 PUSH2 0x202C JUMP JUMPDEST SWAP1 POP SWAP3 SWAP2 POP POP JUMP JUMPDEST PUSH0 DUP1 PUSH1 0x40 DUP4 DUP6 SUB SLT ISZERO PUSH2 0x20D5 JUMPI PUSH2 0x20D4 PUSH2 0x1C26 JUMP JUMPDEST JUMPDEST PUSH0 PUSH2 0x20E2 DUP6 DUP3 DUP7 ADD PUSH2 0x1E2D JUMP JUMPDEST SWAP3 POP POP PUSH1 0x20 PUSH2 0x20F3 DUP6 DUP3 DUP7 ADD PUSH2 0x1E2D JUMP JUMPDEST SWAP2 POP POP SWAP3 POP SWAP3 SWAP1 POP JUMP JUMPDEST PUSH0 DUP3 DUP3 MSTORE PUSH1 0x20 DUP3 ADD SWAP1 POP SWAP3 SWAP2 POP POP JUMP JUMPDEST PUSH0 PUSH2 0x2117 DUP3 PUSH2 0x1F51 JUMP JUMPDEST PUSH2 0x2121 DUP2 DUP6 PUSH2 0x20FD JUMP JUMPDEST SWAP4 POP PUSH2 0x2131 DUP2 DUP6 PUSH1 0x20 DUP7 ADD PUSH2 0x1F6B JUMP JUMPDEST PUSH2 0x213A DUP2 PUSH2 0x1C36 JUMP JUMPDEST DUP5 ADD SWAP2 POP POP SWAP3 SWAP2 POP POP JUMP JUMPDEST PUSH2 0x214E DUP2 PUSH2 0x1E0E JUMP JUMPDEST DUP3 MSTORE POP POP JUMP JUMPDEST PUSH0 PUSH1 0x60 DUP3 ADD SWAP1 POP PUSH2 0x2167 PUSH0 DUP4 ADD DUP7 PUSH2 0x1E9C JUMP JUMPDEST DUP2 DUP2 SUB PUSH1 0x20 DUP4 ADD MSTORE PUSH2 0x2179 DUP2 DUP6 PUSH2 0x210D JUMP JUMPDEST SWAP1 POP PUSH2 0x2188 PUSH1 0x40 DUP4 ADD DUP5 PUSH2 0x2145 JUMP JUMPDEST SWAP5 SWAP4 POP POP POP POP JUMP JUMPDEST PUSH0 DUP2 ISZERO ISZERO SWAP1 POP SWAP2 SWAP1 POP JUMP JUMPDEST PUSH2 0x21A4 DUP2 PUSH2 0x2190 JUMP JUMPDEST DUP3 MSTORE POP POP JUMP JUMPDEST PUSH0 PUSH1 0x20 DUP3 ADD SWAP1 POP PUSH2 0x21BD PUSH0 DUP4 ADD DUP5 PUSH2 0x219B JUMP JUMPDEST SWAP3 SWAP2 POP POP JUMP JUMPDEST PUSH0 DUP1 PUSH1 0x40 DUP4 DUP6 SUB SLT ISZERO PUSH2 0x21D9 JUMPI PUSH2 0x21D8 PUSH2 0x1C26 JUMP JUMPDEST JUMPDEST PUSH0 PUSH2 0x21E6 DUP6 DUP3 DUP7 ADD PUSH2 0x1E2D JUMP JUMPDEST SWAP3 POP POP PUSH1 0x20 DUP4 ADD CALLDATALOAD PUSH8 0xFFFFFFFFFFFFFFFF DUP2 GT ISZERO PUSH2 0x2207 JUMPI PUSH2 0x2206 PUSH2 0x1C2A JUMP JUMPDEST JUMPDEST PUSH2 0x2213 DUP6 DUP3 DUP7 ADD PUSH2 0x1D3D JUMP JUMPDEST SWAP2 POP POP SWAP3 POP SWAP3 SWAP1 POP JUMP JUMPDEST PUSH0 PUSH1 0x20 DUP3 ADD SWAP1 POP PUSH2 0x2230 PUSH0 DUP4 ADD DUP5 PUSH2 0x2145 JUMP JUMPDEST SWAP3 SWAP2 POP POP JUMP JUMPDEST PUSH0 DUP2 MLOAD SWAP1 POP SWAP2 SWAP1 POP JUMP JUMPDEST PUSH0 DUP3 DUP3 MSTORE PUSH1 0x20 DUP3 ADD SWAP1 POP SWAP3 SWAP2 POP POP JUMP JUMPDEST PUSH0 DUP2 SWAP1 POP PUSH1 0x20 DUP3 ADD SWAP1 POP SWAP2 SWAP1 POP JUMP JUMPDEST PUSH32 0x4E487B7100000000000000000000000000000000000000000000000000000000 PUSH0 MSTORE PUSH1 0x21 PUSH1 0x4 MSTORE PUSH1 0x24 PUSH0 REVERT JUMPDEST PUSH1 0x2 DUP2 LT PUSH2 0x229D JUMPI PUSH2 0x229C PUSH2 0x225F JUMP JUMPDEST JUMPDEST POP JUMP JUMPDEST PUSH0 DUP2 SWAP1 POP PUSH2 0x22AD DUP3 PUSH2 0x228C JUMP JUMPDEST SWAP2 SWAP1 POP JUMP JUMPDEST PUSH0 PUSH2 0x22BC DUP3 PUSH2 0x22A0 JUMP JUMPDEST SWAP1 POP SWAP2 SWAP1 POP JUMP JUMPDEST PUSH2 0x22CC DUP2 PUSH2 0x22B2 JUMP JUMPDEST DUP3 MSTORE POP POP JUMP JUMPDEST PUSH0 PUSH1 0x40 DUP4 ADD PUSH0 DUP4 ADD MLOAD DUP5 DUP3 SUB PUSH0 DUP7 ADD MSTORE PUSH2 0x22EC DUP3 DUP3 PUSH2 0x1F79 JUMP JUMPDEST SWAP2 POP POP PUSH1 0x20 DUP4 ADD MLOAD DUP5 DUP3 SUB PUSH1 0x20 DUP7 ADD MSTORE PUSH2 0x2306 DUP3 DUP3 PUSH2 0x1F79 JUMP JUMPDEST SWAP2 POP POP DUP1 SWAP2 POP POP SWAP3 SWAP2 POP POP JUMP JUMPDEST PUSH0 PUSH1 0xA0 DUP4 ADD PUSH0 DUP4 ADD MLOAD PUSH2 0x2328 PUSH0 DUP7 ADD DUP3 PUSH2 0x1FB1 JUMP JUMPDEST POP PUSH1 0x20 DUP4 ADD MLOAD PUSH2 0x233B PUSH1 0x20 DUP7 ADD DUP3 PUSH2 0x1F42 JUMP JUMPDEST POP PUSH1 0x40 DUP4 ADD MLOAD DUP5 DUP3 SUB PUSH1 0x40 DUP7 ADD MSTORE PUSH2 0x2353 DUP3 DUP3 PUSH2 0x1F79 JUMP JUMPDEST SWAP2 POP POP PUSH1 0x60 DUP4 ADD MLOAD PUSH2 0x2368 PUSH1 0x60 DUP7 ADD DUP3 PUSH2 0x22C3 JUMP JUMPDEST POP PUSH1 0x80 DUP4 ADD MLOAD DUP5 DUP3 SUB PUSH1 0x80 DUP7 ADD MSTORE PUSH2 0x2380 DUP3 DUP3 PUSH2 0x22D2 JUMP JUMPDEST SWAP2 POP POP DUP1 SWAP2 POP POP SWAP3 SWAP2 POP POP JUMP JUMPDEST PUSH0 PUSH2 0x2398 DUP4 DUP4 PUSH2 0x2313 JUMP JUMPDEST SWAP1 POP SWAP3 SWAP2 POP POP JUMP JUMPDEST PUSH0 PUSH1 0x20 DUP3 ADD SWAP1 POP SWAP2 SWAP1 POP JUMP JUMPDEST PUSH0 PUSH2 0x23B6 DUP3 PUSH2 0x2236 JUMP JUMPDEST PUSH2 0x23C0 DUP2 DUP6 PUSH2 0x2240 JUMP JUMPDEST SWAP4 POP DUP4 PUSH1 0x20 DUP3 MUL DUP6 ADD PUSH2 0x23D2 DUP6 PUSH2 0x2250 JUMP JUMPDEST DUP1 PUSH0 JUMPDEST DUP6 DUP2 LT ISZERO PUSH2 0x240D JUMPI DUP5 DUP5 SUB DUP10 MSTORE DUP2 MLOAD PUSH2 0x23EE DUP6 DUP3 PUSH2 0x238D JUMP JUMPDEST SWAP5 POP PUSH2 0x23F9 DUP4 PUSH2 0x23A0 JUMP JUMPDEST SWAP3 POP PUSH1 0x20 DUP11 ADD SWAP10 POP POP PUSH1 0x1 DUP2 ADD SWAP1 POP PUSH2 0x23D5 JUMP JUMPDEST POP DUP3 SWAP8 POP DUP8 SWAP6 POP POP POP POP POP POP SWAP3 SWAP2 POP POP JUMP JUMPDEST PUSH0 PUSH1 0x20 DUP3 ADD SWAP1 POP DUP2 DUP2 SUB PUSH0 DUP4 ADD MSTORE PUSH2 0x2437 DUP2 DUP5 PUSH2 0x23AC JUMP JUMPDEST SWAP1 POP SWAP3 SWAP2 POP POP JUMP JUMPDEST PUSH1 0x3 DUP2 LT PUSH2 0x2450 JUMPI PUSH2 0x244F PUSH2 0x225F JUMP JUMPDEST JUMPDEST POP JUMP JUMPDEST PUSH0 DUP2 SWAP1 POP PUSH2 0x2460 DUP3 PUSH2 0x243F JUMP JUMPDEST SWAP2 SWAP1 POP JUMP JUMPDEST PUSH0 PUSH2 0x246F DUP3 PUSH2 0x2453 JUMP JUMPDEST SWAP1 POP SWAP2 SWAP1 POP JUMP JUMPDEST PUSH2 0x247F DUP2 PUSH2 0x2465 JUMP JUMPDEST DUP3 MSTORE POP POP JUMP JUMPDEST PUSH0 PUSH1 0x60 DUP3 ADD SWAP1 POP PUSH2 0x2498 PUSH0 DUP4 ADD DUP7 PUSH2 0x1E9C JUMP JUMPDEST PUSH2 0x24A5 PUSH1 0x20 DUP4 ADD DUP6 PUSH2 0x2476 JUMP JUMPDEST PUSH2 0x24B2 PUSH1 0x40 DUP4 ADD DUP5 PUSH2 0x2145 JUMP JUMPDEST SWAP5 SWAP4 POP POP POP POP JUMP JUMPDEST PUSH2 0x24C3 DUP2 PUSH2 0x22B2 JUMP JUMPDEST DUP3 MSTORE POP POP JUMP JUMPDEST PUSH0 PUSH1 0x40 DUP4 ADD PUSH0 DUP4 ADD MLOAD DUP5 DUP3 SUB PUSH0 DUP7 ADD MSTORE PUSH2 0x24E3 DUP3 DUP3 PUSH2 0x1F79 JUMP JUMPDEST SWAP2 POP POP PUSH1 0x20 DUP4 ADD MLOAD DUP5 DUP3 SUB PUSH1 0x20 DUP7 ADD MSTORE PUSH2 0x24FD DUP3 DUP3 PUSH2 0x1F79 JUMP JUMPDEST SWAP2 POP POP DUP1 SWAP2 POP POP SWAP3 SWAP2 POP POP JUMP JUMPDEST PUSH0 PUSH1 0xA0 DUP3 ADD SWAP1 POP PUSH2 0x251D PUSH0 DUP4 ADD DUP9 PUSH2 0x2145 JUMP JUMPDEST PUSH2 0x252A PUSH1 0x20 DUP4 ADD DUP8 PUSH2 0x1E9C JUMP JUMPDEST DUP2 DUP2 SUB PUSH1 0x40 DUP4 ADD MSTORE PUSH2 0x253C DUP2 DUP7 PUSH2 0x210D JUMP JUMPDEST SWAP1 POP PUSH2 0x254B PUSH1 0x60 DUP4 ADD DUP6 PUSH2 0x24BA JUMP JUMPDEST DUP2 DUP2 SUB PUSH1 0x80 DUP4 ADD MSTORE PUSH2 0x255D DUP2 DUP5 PUSH2 0x24C9 JUMP JUMPDEST SWAP1 POP SWAP7 SWAP6 POP POP POP POP POP POP JUMP JUMPDEST PUSH32 0x4F6E6C7920757365722063616E2063616C6C20746869732066756E6374696F6E PUSH0 DUP3 ADD MSTORE POP JUMP JUMPDEST PUSH0 PUSH2 0x259D PUSH1 0x20 DUP4 PUSH2 0x20FD JUMP JUMPDEST SWAP2 POP PUSH2 0x25A8 DUP3 PUSH2 0x2569 JUMP JUMPDEST PUSH1 0x20 DUP3 ADD SWAP1 POP SWAP2 SWAP1 POP JUMP JUMPDEST PUSH0 PUSH1 0x20 DUP3 ADD SWAP1 POP DUP2 DUP2 SUB PUSH0 DUP4 ADD MSTORE PUSH2 0x25CA DUP2 PUSH2 0x2591 JUMP JUMPDEST SWAP1 POP SWAP2 SWAP1 POP JUMP JUMPDEST PUSH32 0x4E6F2066696C652070726F766964656400000000000000000000000000000000 PUSH0 DUP3 ADD MSTORE POP JUMP JUMPDEST PUSH0 PUSH2 0x2605 PUSH1 0x10 DUP4 PUSH2 0x20FD JUMP JUMPDEST SWAP2 POP PUSH2 0x2610 DUP3 PUSH2 0x25D1 JUMP JUMPDEST PUSH1 0x20 DUP3 ADD SWAP1 POP SWAP2 SWAP1 POP JUMP JUMPDEST PUSH0 PUSH1 0x20 DUP3 ADD SWAP1 POP DUP2 DUP2 SUB PUSH0 DUP4 ADD MSTORE PUSH2 0x2632 DUP2 PUSH2 0x25F9 JUMP JUMPDEST SWAP1 POP SWAP2 SWAP1 POP JUMP JUMPDEST PUSH32 0x4E487B7100000000000000000000000000000000000000000000000000000000 PUSH0 MSTORE PUSH1 0x11 PUSH1 0x4 MSTORE PUSH1 0x24 PUSH0 REVERT JUMPDEST PUSH0 PUSH2 0x2670 DUP3 PUSH2 0x1E0E JUMP JUMPDEST SWAP2 POP PUSH32 0xFFFFFFFFFFFFFFFFFFFFFFFFFFFFFFFFFFFFFFFFFFFFFFFFFFFFFFFFFFFFFFFF DUP3 SUB PUSH2 0x26A2 JUMPI PUSH2 0x26A1 PUSH2 0x2639 JUMP JUMPDEST JUMPDEST PUSH1 0x1 DUP3 ADD SWAP1 POP SWAP2 SWAP1 POP JUMP JUMPDEST PUSH32 0x4E487B7100000000000000000000000000000000000000000000000000000000 PUSH0 MSTORE PUSH1 0x22 PUSH1 0x4 MSTORE PUSH1 0x24 PUSH0 REVERT JUMPDEST PUSH0 PUSH1 0x2 DUP3 DIV SWAP1 POP PUSH1 0x1 DUP3 AND DUP1 PUSH2 0x26F1 JUMPI PUSH1 0x7F DUP3 AND SWAP2 POP JUMPDEST PUSH1 0x20 DUP3 LT DUP2 SUB PUSH2 0x2704 JUMPI PUSH2 0x2703 PUSH2 0x26AD JUMP JUMPDEST JUMPDEST POP SWAP2 SWAP1 POP JUMP JUMPDEST PUSH0 DUP2 SWAP1 POP DUP2 PUSH0 MSTORE PUSH1 0x20 PUSH0 KECCAK256 SWAP1 POP SWAP2 SWAP1 POP JUMP JUMPDEST PUSH0 PUSH1 0x20 PUSH1 0x1F DUP4 ADD DIV SWAP1 POP SWAP2 SWAP1 POP JUMP JUMPDEST PUSH0 DUP3 DUP3 SHL SWAP1 POP SWAP3 SWAP2 POP POP JUMP JUMPDEST PUSH0 PUSH1 0x8 DUP4 MUL PUSH2 0x2766 PUSH32 0xFFFFFFFFFFFFFFFFFFFFFFFFFFFFFFFFFFFFFFFFFFFFFFFFFFFFFFFFFFFFFFFF DUP3 PUSH2 0x272B JUMP JUMPDEST PUSH2 0x2770 DUP7 DUP4 PUSH2 0x272B JUMP JUMPDEST SWAP6 POP DUP1 NOT DUP5 AND SWAP4 POP DUP1 DUP7 AND DUP5 OR SWAP3 POP POP POP SWAP4 SWAP3 POP POP POP JUMP JUMPDEST PUSH0 DUP2 SWAP1 POP SWAP2 SWAP1 POP JUMP JUMPDEST PUSH0 PUSH2 0x27AB PUSH2 0x27A6 PUSH2 0x27A1 DUP5 PUSH2 0x1E0E JUMP JUMPDEST PUSH2 0x2788 JUMP JUMPDEST PUSH2 0x1E0E JUMP JUMPDEST SWAP1 POP SWAP2 SWAP1 POP JUMP JUMPDEST PUSH0 DUP2 SWAP1 POP SWAP2 SWAP1 POP JUMP JUMPDEST PUSH2 0x27C4 DUP4 PUSH2 0x2791 JUMP JUMPDEST PUSH2 0x27D8 PUSH2 0x27D0 DUP3 PUSH2 0x27B2 JUMP JUMPDEST DUP5 DUP5 SLOAD PUSH2 0x2737 JUMP JUMPDEST DUP3 SSTORE POP POP POP POP JUMP JUMPDEST PUSH0 SWAP1 JUMP JUMPDEST PUSH2 0x27EC PUSH2 0x27E0 JUMP JUMPDEST PUSH2 0x27F7 DUP2 DUP5 DUP5 PUSH2 0x27BB JUMP JUMPDEST POP POP POP JUMP JUMPDEST JUMPDEST DUP2 DUP2 LT ISZERO PUSH2 0x281A JUMPI PUSH2 0x280F PUSH0 DUP3 PUSH2 0x27E4 JUMP JUMPDEST PUSH1 0x1 DUP2 ADD SWAP1 POP PUSH2 0x27FD JUMP JUMPDEST POP POP JUMP JUMPDEST PUSH1 0x1F DUP3 GT ISZERO PUSH2 0x285F JUMPI PUSH2 0x2830 DUP2 PUSH2 0x270A JUMP JUMPDEST PUSH2 0x2839 DUP5 PUSH2 0x271C JUMP JUMPDEST DUP2 ADD PUSH1 0x20 DUP6 LT ISZERO PUSH2 0x2848 JUMPI DUP2 SWAP1 POP JUMPDEST PUSH2 0x285C PUSH2 0x2854 DUP6 PUSH2 0x271C JUMP JUMPDEST DUP4 ADD DUP3 PUSH2 0x27FC JUMP JUMPDEST POP POP JUMPDEST POP POP POP JUMP JUMPDEST PUSH0 DUP3 DUP3 SHR SWAP1 POP SWAP3 SWAP2 POP POP JUMP JUMPDEST PUSH0 PUSH2 0x287F PUSH0 NOT DUP5 PUSH1 0x8 MUL PUSH2 0x2864 JUMP JUMPDEST NOT DUP1 DUP4 AND SWAP2 POP POP SWAP3 SWAP2 POP POP JUMP JUMPDEST PUSH0 PUSH2 0x2897 DUP4 DUP4 PUSH2 0x2870 JUMP JUMPDEST SWAP2 POP DUP3 PUSH1 0x2 MUL DUP3 OR SWAP1 POP SWAP3 SWAP2 POP POP JUMP JUMPDEST PUSH2 0x28B0 DUP3 PUSH2 0x1F51 JUMP JUMPDEST PUSH8 0xFFFFFFFFFFFFFFFF DUP2 GT ISZERO PUSH2 0x28C9 JUMPI PUSH2 0x28C8 PUSH2 0x1C46 JUMP JUMPDEST JUMPDEST PUSH2 0x28D3 DUP3 SLOAD PUSH2 0x26DA JUMP JUMPDEST PUSH2 0x28DE DUP3 DUP3 DUP6 PUSH2 0x281E JUMP JUMPDEST PUSH0 PUSH1 0x20 SWAP1 POP PUSH1 0x1F DUP4 GT PUSH1 0x1 DUP2 EQ PUSH2 0x290F JUMPI PUSH0 DUP5 ISZERO PUSH2 0x28FD JUMPI DUP3 DUP8 ADD MLOAD SWAP1 POP JUMPDEST PUSH2 0x2907 DUP6 DUP3 PUSH2 0x288C JUMP JUMPDEST DUP7 SSTORE POP PUSH2 0x296E JUMP JUMPDEST PUSH1 0x1F NOT DUP5 AND PUSH2 0x291D DUP7 PUSH2 0x270A JUMP JUMPDEST PUSH0 JUMPDEST DUP3 DUP2 LT ISZERO PUSH2 0x2944 JUMPI DUP5 DUP10 ADD MLOAD DUP3 SSTORE PUSH1 0x1 DUP3 ADD SWAP2 POP PUSH1 0x20 DUP6 ADD SWAP5 POP PUSH1 0x20 DUP2 ADD SWAP1 POP PUSH2 0x291F JUMP JUMPDEST DUP7 DUP4 LT ISZERO PUSH2 0x2961 JUMPI DUP5 DUP10 ADD MLOAD PUSH2 0x295D PUSH1 0x1F DUP10 AND DUP3 PUSH2 0x2870 JUMP JUMPDEST DUP4 SSTORE POP JUMPDEST PUSH1 0x1 PUSH1 0x2 DUP9 MUL ADD DUP9 SSTORE POP POP POP JUMPDEST POP POP POP POP POP POP JUMP JUMPDEST PUSH0 PUSH1 0x60 DUP3 ADD SWAP1 POP PUSH2 0x2989 PUSH0 DUP4 ADD DUP7 PUSH2 0x2145 JUMP JUMPDEST DUP2 DUP2 SUB PUSH1 0x20 DUP4 ADD MSTORE PUSH2 0x299B DUP2 DUP6 PUSH2 0x210D JUMP JUMPDEST SWAP1 POP DUP2 DUP2 SUB PUSH1 0x40 DUP4 ADD MSTORE PUSH2 0x29AF DUP2 DUP5 PUSH2 0x210D JUMP JUMPDEST SWAP1 POP SWAP5 SWAP4 POP POP POP POP JUMP JUMPDEST PUSH32 0x4E487B7100000000000000000000000000000000000000000000000000000000 PUSH0 MSTORE PUSH1 0x32 PUSH1 0x4 MSTORE PUSH1 0x24 PUSH0 REVERT JUMPDEST PUSH32 0x4F6E6C792061646D696E2063616E2063616C6C20746869732066756E6374696F PUSH0 DUP3 ADD MSTORE PUSH32 0x6E00000000000000000000000000000000000000000000000000000000000000 PUSH1 0x20 DUP3 ADD MSTORE POP JUMP JUMPDEST PUSH0 PUSH2 0x2A40 PUSH1 0x21 DUP4 PUSH2 0x20FD JUMP JUMPDEST SWAP2 POP PUSH2 0x2A4B DUP3 PUSH2 0x29E6 JUMP JUMPDEST PUSH1 0x40 DUP3 ADD SWAP1 POP SWAP2 SWAP1 POP JUMP JUMPDEST PUSH0 PUSH1 0x20 DUP3 ADD SWAP1 POP DUP2 DUP2 SUB PUSH0 DUP4 ADD MSTORE PUSH2 0x2A6D DUP2 PUSH2 0x2A34 JUMP JUMPDEST SWAP1 POP SWAP2 SWAP1 POP JUMP JUMPDEST PUSH32 0x436F6D706C61696E7420697320616C7265616479207265736F6C766564000000 PUSH0 DUP3 ADD MSTORE POP JUMP JUMPDEST PUSH0 PUSH2 0x2AA8 PUSH1 0x1D DUP4 PUSH2 0x20FD JUMP JUMPDEST SWAP2 POP PUSH2 0x2AB3 DUP3 PUSH2 0x2A74 JUMP JUMPDEST PUSH1 0x20 DUP3 ADD SWAP1 POP SWAP2 SWAP1 POP JUMP JUMPDEST PUSH0 PUSH1 0x20 DUP3 ADD SWAP1 POP DUP2 DUP2 SUB PUSH0 DUP4 ADD MSTORE PUSH2 0x2AD5 DUP2 PUSH2 0x2A9C JUMP JUMPDEST SWAP1 POP SWAP2 SWAP1 POP JUMP JUMPDEST PUSH0 PUSH1 0x40 DUP3 ADD SWAP1 POP PUSH2 0x2AEF PUSH0 DUP4 ADD DUP6 PUSH2 0x2145 JUMP JUMPDEST DUP2 DUP2 SUB PUSH1 0x20 DUP4 ADD MSTORE PUSH2 0x2B01 DUP2 DUP5 PUSH2 0x210D JUMP JUMPDEST SWAP1 POP SWAP4 SWAP3 POP POP POP JUMP JUMPDEST PUSH32 0x7265706C79000000000000000000000000000000000000000000000000000000 PUSH0 DUP3 ADD MSTORE POP JUMP JUMPDEST PUSH0 PUSH2 0x2B3E PUSH1 0x5 DUP4 PUSH2 0x20FD JUMP JUMPDEST SWAP2 POP PUSH2 0x2B49 DUP3 PUSH2 0x2B0A JUMP JUMPDEST PUSH1 0x20 DUP3 ADD SWAP1 POP SWAP2 SWAP1 POP JUMP JUMPDEST PUSH0 PUSH1 0x80 DUP3 ADD SWAP1 POP PUSH2 0x2B67 PUSH0 DUP4 ADD DUP7 PUSH2 0x2145 JUMP JUMPDEST PUSH2 0x2B74 PUSH1 0x20 DUP4 ADD DUP6 PUSH2 0x1E9C JUMP JUMPDEST DUP2 DUP2 SUB PUSH1 0x40 DUP4 ADD MSTORE PUSH2 0x2B85 DUP2 PUSH2 0x2B32 JUMP JUMPDEST SWAP1 POP PUSH2 0x2B94 PUSH1 0x60 DUP4 ADD DUP5 PUSH2 0x2145 JUMP JUMPDEST SWAP5 SWAP4 POP POP POP POP JUMP JUMPDEST PUSH0 PUSH1 0x80 DUP3 ADD SWAP1 POP PUSH2 0x2BAF PUSH0 DUP4 ADD DUP8 PUSH2 0x2145 JUMP JUMPDEST PUSH2 0x2BBC PUSH1 0x20 DUP4 ADD DUP7 PUSH2 0x1E9C JUMP JUMPDEST DUP2 DUP2 SUB PUSH1 0x40 DUP4 ADD MSTORE PUSH2 0x2BCE DUP2 DUP6 PUSH2 0x210D JUMP JUMPDEST SWAP1 POP PUSH2 0x2BDD PUSH1 0x60 DUP4 ADD DUP5 PUSH2 0x2145 JUMP JUMPDEST SWAP6 SWAP5 POP POP POP POP POP JUMP INVALID LOG2 PUSH5 0x6970667358 0x22 SLT KECCAK256 PC PUSH1 0xA6 0xA9 0xB6 DELEGATECALL SIGNEXTEND 0xC2 EXTCODEHASH CALLDATASIZE 0x4E 0xA6 MLOAD BLOCKHASH BLOBHASH SHL 0xA8 0xC6 0x2F PUSH18 0xF52E904FA6B6A9782C665B9D64736F6C6343 STOP ADDMOD NOT STOP CALLER "
		},
		"gasEstimates": {
			"creation": {
				"codeDepositCost": "2258400",
				"executionCost": "2410",
				"totalCost": "2260810"
			},
			"external": {
				"accessComplaint(uint256)": "infinite",
				"admins(uint256)": "4989",
				"complaintCount()": "2492",
				"complaints(uint256)": "infinite",
				"createComplaint(string,string,string)": "infinite",
				"getUnresolvedComplaints()": "infinite",
				"getUserComplaints(address)": "infinite",
				"getUserReplies(address)": "infinite",
				"isAdmin(address)": "2856",
				"isUser(address)": "2878",
				"registerAdmin()": "74252",
				"registerUser()": "74298",
				"replies(uint256,uint256)": "infinite",
				"replyToComplaint(uint256,string)": "infinite",
				"resolveComplaint(uint256,string)": "infinite",
				"transactions(uint256,uint256)": "infinite",
				"users(uint256)": "5033"
			},
			"internal": {
				"_addTransaction(uint256,address,enum ComplaintSystem.Action)": "infinite"
			}
		},
		"methodIdentifiers": {
			"accessComplaint(uint256)": "6d7196eb",
			"admins(uint256)": "14bfd6d0",
			"complaintCount()": "2edea294",
			"complaints(uint256)": "7e69e912",
			"createComplaint(string,string,string)": "0da3f37e",
			"getUnresolvedComplaints()": "3ae7db25",
			"getUserComplaints(address)": "d395fc04",
			"getUserReplies(address)": "152e1e32",
			"isAdmin(address)": "24d7806c",
			"isUser(address)": "4209fff1",
			"registerAdmin()": "5ab6f71b",
			"registerUser()": "4d3820eb",
			"replies(uint256,uint256)": "204f257c",
			"replyToComplaint(uint256,string)": "deb514ff",
			"resolveComplaint(uint256,string)": "26019e7f",
			"transactions(uint256,uint256)": "4eaf9db6",
			"users(uint256)": "365b98b2"
		}
	},
	"storageLayout": {
		"storage": [
			{
				"astId": 4,
				"contract": "ComplaintSystem.sol:ComplaintSystem",
				"label": "admins",
				"offset": 0,
				"slot": "0",
				"type": "t_array(t_address)dyn_storage"
			},
			{
				"astId": 8,
				"contract": "ComplaintSystem.sol:ComplaintSystem",
				"label": "isAdmin",
				"offset": 0,
				"slot": "1",
				"type": "t_mapping(t_address,t_bool)"
			},
			{
				"astId": 11,
				"contract": "ComplaintSystem.sol:ComplaintSystem",
				"label": "users",
				"offset": 0,
				"slot": "2",
				"type": "t_array(t_address)dyn_storage"
			},
			{
				"astId": 15,
				"contract": "ComplaintSystem.sol:ComplaintSystem",
				"label": "isUser",
				"offset": 0,
				"slot": "3",
				"type": "t_mapping(t_address,t_bool)"
			},
			{
				"astId": 60,
				"contract": "ComplaintSystem.sol:ComplaintSystem",
				"label": "complaints",
				"offset": 0,
				"slot": "4",
				"type": "t_mapping(t_uint256,t_struct(Complaint)48_storage)"
			},
			{
				"astId": 66,
				"contract": "ComplaintSystem.sol:ComplaintSystem",
				"label": "transactions",
				"offset": 0,
				"slot": "5",
				"type": "t_mapping(t_uint256,t_array(t_struct(Transaction)30_storage)dyn_storage)"
			},
			{
				"astId": 72,
				"contract": "ComplaintSystem.sol:ComplaintSystem",
				"label": "replies",
				"offset": 0,
				"slot": "6",
				"type": "t_mapping(t_uint256,t_array(t_struct(Reply)55_storage)dyn_storage)"
			},
			{
				"astId": 74,
				"contract": "ComplaintSystem.sol:ComplaintSystem",
				"label": "complaintCount",
				"offset": 0,
				"slot": "7",
				"type": "t_uint256"
			}
		],
		"types": {
			"t_address": {
				"encoding": "inplace",
				"label": "address",
				"numberOfBytes": "20"
			},
			"t_array(t_address)dyn_storage": {
				"base": "t_address",
				"encoding": "dynamic_array",
				"label": "address[]",
				"numberOfBytes": "32"
			},
			"t_array(t_struct(Reply)55_storage)dyn_storage": {
				"base": "t_struct(Reply)55_storage",
				"encoding": "dynamic_array",
				"label": "struct ComplaintSystem.Reply[]",
				"numberOfBytes": "32"
			},
			"t_array(t_struct(Transaction)30_storage)dyn_storage": {
				"base": "t_struct(Transaction)30_storage",
				"encoding": "dynamic_array",
				"label": "struct ComplaintSystem.Transaction[]",
				"numberOfBytes": "32"
			},
			"t_bool": {
				"encoding": "inplace",
				"label": "bool",
				"numberOfBytes": "1"
			},
			"t_enum(Action)22": {
				"encoding": "inplace",
				"label": "enum ComplaintSystem.Action",
				"numberOfBytes": "1"
			},
			"t_enum(ComplaintStatus)18": {
				"encoding": "inplace",
				"label": "enum ComplaintSystem.ComplaintStatus",
				"numberOfBytes": "1"
			},
			"t_mapping(t_address,t_bool)": {
				"encoding": "mapping",
				"key": "t_address",
				"label": "mapping(address => bool)",
				"numberOfBytes": "32",
				"value": "t_bool"
			},
			"t_mapping(t_uint256,t_array(t_struct(Reply)55_storage)dyn_storage)": {
				"encoding": "mapping",
				"key": "t_uint256",
				"label": "mapping(uint256 => struct ComplaintSystem.Reply[])",
				"numberOfBytes": "32",
				"value": "t_array(t_struct(Reply)55_storage)dyn_storage"
			},
			"t_mapping(t_uint256,t_array(t_struct(Transaction)30_storage)dyn_storage)": {
				"encoding": "mapping",
				"key": "t_uint256",
				"label": "mapping(uint256 => struct ComplaintSystem.Transaction[])",
				"numberOfBytes": "32",
				"value": "t_array(t_struct(Transaction)30_storage)dyn_storage"
			},
			"t_mapping(t_uint256,t_struct(Complaint)48_storage)": {
				"encoding": "mapping",
				"key": "t_uint256",
				"label": "mapping(uint256 => struct ComplaintSystem.Complaint)",
				"numberOfBytes": "32",
				"value": "t_struct(Complaint)48_storage"
			},
			"t_string_storage": {
				"encoding": "bytes",
				"label": "string",
				"numberOfBytes": "32"
			},
			"t_struct(Complaint)48_storage": {
				"encoding": "inplace",
				"label": "struct ComplaintSystem.Complaint",
				"members": [
					{
						"astId": 37,
						"contract": "ComplaintSystem.sol:ComplaintSystem",
						"label": "id",
						"offset": 0,
						"slot": "0",
						"type": "t_uint256"
					},
					{
						"astId": 39,
						"contract": "ComplaintSystem.sol:ComplaintSystem",
						"label": "complainant",
						"offset": 0,
						"slot": "1",
						"type": "t_address"
					},
					{
						"astId": 41,
						"contract": "ComplaintSystem.sol:ComplaintSystem",
						"label": "description",
						"offset": 0,
						"slot": "2",
						"type": "t_string_storage"
					},
					{
						"astId": 44,
						"contract": "ComplaintSystem.sol:ComplaintSystem",
						"label": "status",
						"offset": 0,
						"slot": "3",
						"type": "t_enum(ComplaintStatus)18"
					},
					{
						"astId": 47,
						"contract": "ComplaintSystem.sol:ComplaintSystem",
						"label": "file",
						"offset": 0,
						"slot": "4",
						"type": "t_struct(File)35_storage"
					}
				],
				"numberOfBytes": "192"
			},
			"t_struct(File)35_storage": {
				"encoding": "inplace",
				"label": "struct ComplaintSystem.File",
				"members": [
					{
						"astId": 32,
						"contract": "ComplaintSystem.sol:ComplaintSystem",
						"label": "ipfsHash",
						"offset": 0,
						"slot": "0",
						"type": "t_string_storage"
					},
					{
						"astId": 34,
						"contract": "ComplaintSystem.sol:ComplaintSystem",
						"label": "name",
						"offset": 0,
						"slot": "1",
						"type": "t_string_storage"
					}
				],
				"numberOfBytes": "64"
			},
			"t_struct(Reply)55_storage": {
				"encoding": "inplace",
				"label": "struct ComplaintSystem.Reply",
				"members": [
					{
						"astId": 50,
						"contract": "ComplaintSystem.sol:ComplaintSystem",
						"label": "senderAddress",
						"offset": 0,
						"slot": "0",
						"type": "t_address"
					},
					{
						"astId": 52,
						"contract": "ComplaintSystem.sol:ComplaintSystem",
						"label": "replyText",
						"offset": 0,
						"slot": "1",
						"type": "t_string_storage"
					},
					{
						"astId": 54,
						"contract": "ComplaintSystem.sol:ComplaintSystem",
						"label": "timestamp",
						"offset": 0,
						"slot": "2",
						"type": "t_uint256"
					}
				],
				"numberOfBytes": "96"
			},
			"t_struct(Transaction)30_storage": {
				"encoding": "inplace",
				"label": "struct ComplaintSystem.Transaction",
				"members": [
					{
						"astId": 24,
						"contract": "ComplaintSystem.sol:ComplaintSystem",
						"label": "accessor",
						"offset": 0,
						"slot": "0",
						"type": "t_address"
					},
					{
						"astId": 27,
						"contract": "ComplaintSystem.sol:ComplaintSystem",
						"label": "actionType",
						"offset": 20,
						"slot": "0",
						"type": "t_enum(Action)22"
					},
					{
						"astId": 29,
						"contract": "ComplaintSystem.sol:ComplaintSystem",
						"label": "timestamp",
						"offset": 0,
						"slot": "1",
						"type": "t_uint256"
					}
				],
				"numberOfBytes": "64"
			},
			"t_uint256": {
				"encoding": "inplace",
				"label": "uint256",
				"numberOfBytes": "32"
			}
		}
	},
	"userdoc": {
		"kind": "user",
		"methods": {},
		"version": 1
	}
}